{"abi":[{"type":"constructor","inputs":[{"name":"initialOwner","type":"address","internalType":"address"},{"name":"_manager","type":"address","internalType":"contract IPoolManager"},{"name":"_mirrorTokenManager","type":"address","internalType":"contract IMirrorTokenManager"}],"stateMutability":"nonpayable"},{"type":"function","name":"accruesRatioX112Of","inputs":[{"name":"","type":"uint256","internalType":"uint256"}],"outputs":[{"name":"","type":"uint256","internalType":"uint256"}],"stateMutability":"view"},{"type":"function","name":"allowance","inputs":[{"name":"owner","type":"address","internalType":"address"},{"name":"spender","type":"address","internalType":"address"},{"name":"id","type":"uint256","internalType":"uint256"}],"outputs":[{"name":"","type":"uint256","internalType":"uint256"}],"stateMutability":"view"},{"type":"function","name":"allowanceOriginal","inputs":[{"name":"","type":"address","internalType":"address"},{"name":"","type":"address","internalType":"address"},{"name":"","type":"uint256","internalType":"uint256"}],"outputs":[{"name":"","type":"uint256","internalType":"uint256"}],"stateMutability":"view"},{"type":"function","name":"approve","inputs":[{"name":"spender","type":"address","internalType":"address"},{"name":"id","type":"uint256","internalType":"uint256"},{"name":"amount","type":"uint256","internalType":"uint256"}],"outputs":[{"name":"","type":"bool","internalType":"bool"}],"stateMutability":"nonpayable"},{"type":"function","name":"balanceAccounts","inputs":[{"name":"currency","type":"address","internalType":"Currency"},{"name":"amount","type":"uint256","internalType":"uint256"}],"outputs":[],"stateMutability":"nonpayable"},{"type":"function","name":"balanceMirror","inputs":[{"name":"poolId","type":"bytes32","internalType":"PoolId"},{"name":"currency","type":"address","internalType":"Currency"},{"name":"amount","type":"uint256","internalType":"uint256"}],"outputs":[],"stateMutability":"payable"},{"type":"function","name":"balanceOf","inputs":[{"name":"owner","type":"address","internalType":"address"},{"name":"id","type":"uint256","internalType":"uint256"}],"outputs":[{"name":"","type":"uint256","internalType":"uint256"}],"stateMutability":"view"},{"type":"function","name":"balanceOriginal","inputs":[{"name":"","type":"address","internalType":"address"},{"name":"","type":"uint256","internalType":"uint256"}],"outputs":[{"name":"","type":"uint256","internalType":"uint256"}],"stateMutability":"view"},{"type":"function","name":"computeRealAmount","inputs":[{"name":"poolId","type":"bytes32","internalType":"PoolId"},{"name":"currency","type":"address","internalType":"Currency"},{"name":"originalAmount","type":"uint256","internalType":"uint256"}],"outputs":[{"name":"amount","type":"uint256","internalType":"uint256"}],"stateMutability":"view"},{"type":"function","name":"deposit","inputs":[{"name":"sender","type":"address","internalType":"address"},{"name":"recipient","type":"address","internalType":"address"},{"name":"poolId","type":"bytes32","internalType":"PoolId"},{"name":"currency","type":"address","internalType":"Currency"},{"name":"amount","type":"uint256","internalType":"uint256"}],"outputs":[{"name":"originalAmount","type":"uint256","internalType":"uint256"}],"stateMutability":"payable"},{"type":"function","name":"deposit","inputs":[{"name":"recipient","type":"address","internalType":"address"},{"name":"poolId","type":"bytes32","internalType":"PoolId"},{"name":"currency","type":"address","internalType":"Currency"},{"name":"amount","type":"uint256","internalType":"uint256"}],"outputs":[{"name":"originalAmount","type":"uint256","internalType":"uint256"}],"stateMutability":"payable"},{"type":"function","name":"deviationOf","inputs":[{"name":"","type":"uint256","internalType":"uint256"}],"outputs":[{"name":"","type":"int256","internalType":"int256"}],"stateMutability":"view"},{"type":"function","name":"getGrownRatioX112","inputs":[{"name":"id","type":"uint256","internalType":"uint256"},{"name":"growAmount","type":"uint256","internalType":"uint256"}],"outputs":[{"name":"accruesRatioX112Grown","type":"uint256","internalType":"uint256"}],"stateMutability":"view"},{"type":"function","name":"getLendingAPR","inputs":[{"name":"poolId","type":"bytes32","internalType":"PoolId"},{"name":"currency","type":"address","internalType":"Currency"},{"name":"inputAmount","type":"uint256","internalType":"uint256"}],"outputs":[{"name":"apr","type":"uint256","internalType":"uint256"}],"stateMutability":"view"},{"type":"function","name":"handleBalanceMirror","inputs":[{"name":"sender","type":"address","internalType":"address"},{"name":"poolId","type":"bytes32","internalType":"PoolId"},{"name":"currency","type":"address","internalType":"Currency"},{"name":"amount","type":"uint256","internalType":"uint256"}],"outputs":[],"stateMutability":"nonpayable"},{"type":"function","name":"handleDeposit","inputs":[{"name":"sender","type":"address","internalType":"address"},{"name":"recipient","type":"address","internalType":"address"},{"name":"poolId","type":"bytes32","internalType":"PoolId"},{"name":"currency","type":"address","internalType":"Currency"},{"name":"amount","type":"uint256","internalType":"uint256"}],"outputs":[{"name":"originalAmount","type":"uint256","internalType":"uint256"}],"stateMutability":"nonpayable"},{"type":"function","name":"handleWithdraw","inputs":[{"name":"sender","type":"address","internalType":"address"},{"name":"recipient","type":"address","internalType":"address"},{"name":"poolId","type":"bytes32","internalType":"PoolId"},{"name":"currency","type":"address","internalType":"Currency"},{"name":"amount","type":"uint256","internalType":"uint256"}],"outputs":[],"stateMutability":"nonpayable"},{"type":"function","name":"isOperator","inputs":[{"name":"","type":"address","internalType":"address"},{"name":"","type":"address","internalType":"address"}],"outputs":[{"name":"","type":"bool","internalType":"bool"}],"stateMutability":"view"},{"type":"function","name":"mirrorIn","inputs":[{"name":"caller","type":"address","internalType":"address"},{"name":"receiver","type":"address","internalType":"address"},{"name":"poolId","type":"bytes32","internalType":"PoolId"},{"name":"currency","type":"address","internalType":"Currency"},{"name":"amount","type":"uint256","internalType":"uint256"}],"outputs":[{"name":"originalAmount","type":"uint256","internalType":"uint256"}],"stateMutability":"nonpayable"},{"type":"function","name":"mirrorInRealOut","inputs":[{"name":"poolId","type":"bytes32","internalType":"PoolId"},{"name":"status","type":"tuple","internalType":"struct PoolStatus","components":[{"name":"blockTimestampLast","type":"uint32","internalType":"uint32"},{"name":"realReserve0","type":"uint112","internalType":"uint112"},{"name":"realReserve1","type":"uint112","internalType":"uint112"},{"name":"mirrorReserve0","type":"uint112","internalType":"uint112"},{"name":"mirrorReserve1","type":"uint112","internalType":"uint112"},{"name":"marginFee","type":"uint24","internalType":"uint24"},{"name":"lendingRealReserve0","type":"uint112","internalType":"uint112"},{"name":"lendingRealReserve1","type":"uint112","internalType":"uint112"},{"name":"lendingMirrorReserve0","type":"uint112","internalType":"uint112"},{"name":"lendingMirrorReserve1","type":"uint112","internalType":"uint112"},{"name":"truncatedReserve0","type":"uint112","internalType":"uint112"},{"name":"truncatedReserve1","type":"uint112","internalType":"uint112"},{"name":"rate0CumulativeLast","type":"uint256","internalType":"uint256"},{"name":"rate1CumulativeLast","type":"uint256","internalType":"uint256"},{"name":"key","type":"tuple","internalType":"struct PoolKey","components":[{"name":"currency0","type":"address","internalType":"Currency"},{"name":"currency1","type":"address","internalType":"Currency"},{"name":"fee","type":"uint24","internalType":"uint24"},{"name":"tickSpacing","type":"int24","internalType":"int24"},{"name":"hooks","type":"address","internalType":"contract IHooks"}]}]},{"name":"currency","type":"address","internalType":"Currency"},{"name":"amount","type":"uint256","internalType":"uint256"}],"outputs":[{"name":"exchangeAmount","type":"uint256","internalType":"uint256"}],"stateMutability":"nonpayable"},{"type":"function","name":"mirrorTokenManager","inputs":[],"outputs":[{"name":"","type":"address","internalType":"contract IMirrorTokenManager"}],"stateMutability":"view"},{"type":"function","name":"owner","inputs":[],"outputs":[{"name":"","type":"address","internalType":"address"}],"stateMutability":"view"},{"type":"function","name":"pairPoolManager","inputs":[],"outputs":[{"name":"","type":"address","internalType":"contract IPairPoolManager"}],"stateMutability":"view"},{"type":"function","name":"poolManager","inputs":[],"outputs":[{"name":"","type":"address","internalType":"contract IPoolManager"}],"stateMutability":"view"},{"type":"function","name":"realIn","inputs":[{"name":"caller","type":"address","internalType":"address"},{"name":"recipient","type":"address","internalType":"address"},{"name":"poolId","type":"bytes32","internalType":"PoolId"},{"name":"currency","type":"address","internalType":"Currency"},{"name":"amount","type":"uint256","internalType":"uint256"}],"outputs":[{"name":"originalAmount","type":"uint256","internalType":"uint256"}],"stateMutability":"nonpayable"},{"type":"function","name":"reserveOut","inputs":[{"name":"caller","type":"address","internalType":"address"},{"name":"payer","type":"address","internalType":"address"},{"name":"poolId","type":"bytes32","internalType":"PoolId"},{"name":"status","type":"tuple","internalType":"struct PoolStatus","components":[{"name":"blockTimestampLast","type":"uint32","internalType":"uint32"},{"name":"realReserve0","type":"uint112","internalType":"uint112"},{"name":"realReserve1","type":"uint112","internalType":"uint112"},{"name":"mirrorReserve0","type":"uint112","internalType":"uint112"},{"name":"mirrorReserve1","type":"uint112","internalType":"uint112"},{"name":"marginFee","type":"uint24","internalType":"uint24"},{"name":"lendingRealReserve0","type":"uint112","internalType":"uint112"},{"name":"lendingRealReserve1","type":"uint112","internalType":"uint112"},{"name":"lendingMirrorReserve0","type":"uint112","internalType":"uint112"},{"name":"lendingMirrorReserve1","type":"uint112","internalType":"uint112"},{"name":"truncatedReserve0","type":"uint112","internalType":"uint112"},{"name":"truncatedReserve1","type":"uint112","internalType":"uint112"},{"name":"rate0CumulativeLast","type":"uint256","internalType":"uint256"},{"name":"rate1CumulativeLast","type":"uint256","internalType":"uint256"},{"name":"key","type":"tuple","internalType":"struct PoolKey","components":[{"name":"currency0","type":"address","internalType":"Currency"},{"name":"currency1","type":"address","internalType":"Currency"},{"name":"fee","type":"uint24","internalType":"uint24"},{"name":"tickSpacing","type":"int24","internalType":"int24"},{"name":"hooks","type":"address","internalType":"contract IHooks"}]}]},{"name":"currency","type":"address","internalType":"Currency"},{"name":"amount","type":"uint256","internalType":"uint256"}],"outputs":[],"stateMutability":"nonpayable"},{"type":"function","name":"setOperator","inputs":[{"name":"operator","type":"address","internalType":"address"},{"name":"approved","type":"bool","internalType":"bool"}],"outputs":[{"name":"","type":"bool","internalType":"bool"}],"stateMutability":"nonpayable"},{"type":"function","name":"setPairPoolManger","inputs":[{"name":"_manager","type":"address","internalType":"contract IPairPoolManager"}],"outputs":[],"stateMutability":"nonpayable"},{"type":"function","name":"supportsInterface","inputs":[{"name":"interfaceId","type":"bytes4","internalType":"bytes4"}],"outputs":[{"name":"","type":"bool","internalType":"bool"}],"stateMutability":"view"},{"type":"function","name":"sync","inputs":[{"name":"poolId","type":"bytes32","internalType":"PoolId"},{"name":"status","type":"tuple","internalType":"struct PoolStatus","components":[{"name":"blockTimestampLast","type":"uint32","internalType":"uint32"},{"name":"realReserve0","type":"uint112","internalType":"uint112"},{"name":"realReserve1","type":"uint112","internalType":"uint112"},{"name":"mirrorReserve0","type":"uint112","internalType":"uint112"},{"name":"mirrorReserve1","type":"uint112","internalType":"uint112"},{"name":"marginFee","type":"uint24","internalType":"uint24"},{"name":"lendingRealReserve0","type":"uint112","internalType":"uint112"},{"name":"lendingRealReserve1","type":"uint112","internalType":"uint112"},{"name":"lendingMirrorReserve0","type":"uint112","internalType":"uint112"},{"name":"lendingMirrorReserve1","type":"uint112","internalType":"uint112"},{"name":"truncatedReserve0","type":"uint112","internalType":"uint112"},{"name":"truncatedReserve1","type":"uint112","internalType":"uint112"},{"name":"rate0CumulativeLast","type":"uint256","internalType":"uint256"},{"name":"rate1CumulativeLast","type":"uint256","internalType":"uint256"},{"name":"key","type":"tuple","internalType":"struct PoolKey","components":[{"name":"currency0","type":"address","internalType":"Currency"},{"name":"currency1","type":"address","internalType":"Currency"},{"name":"fee","type":"uint24","internalType":"uint24"},{"name":"tickSpacing","type":"int24","internalType":"int24"},{"name":"hooks","type":"address","internalType":"contract IHooks"}]}]}],"outputs":[],"stateMutability":"nonpayable"},{"type":"function","name":"totalSupply","inputs":[{"name":"id","type":"uint256","internalType":"uint256"}],"outputs":[{"name":"","type":"uint256","internalType":"uint256"}],"stateMutability":"view"},{"type":"function","name":"transfer","inputs":[{"name":"receiver","type":"address","internalType":"address"},{"name":"id","type":"uint256","internalType":"uint256"},{"name":"amount","type":"uint256","internalType":"uint256"}],"outputs":[{"name":"","type":"bool","internalType":"bool"}],"stateMutability":"nonpayable"},{"type":"function","name":"transferFrom","inputs":[{"name":"sender","type":"address","internalType":"address"},{"name":"receiver","type":"address","internalType":"address"},{"name":"id","type":"uint256","internalType":"uint256"},{"name":"amount","type":"uint256","internalType":"uint256"}],"outputs":[{"name":"","type":"bool","internalType":"bool"}],"stateMutability":"nonpayable"},{"type":"function","name":"transferOwnership","inputs":[{"name":"newOwner","type":"address","internalType":"address"}],"outputs":[],"stateMutability":"nonpayable"},{"type":"function","name":"unlockCallback","inputs":[{"name":"data","type":"bytes","internalType":"bytes"}],"outputs":[{"name":"","type":"bytes","internalType":"bytes"}],"stateMutability":"nonpayable"},{"type":"function","name":"updateInterests","inputs":[{"name":"id","type":"uint256","internalType":"uint256"},{"name":"interest","type":"int256","internalType":"int256"}],"outputs":[],"stateMutability":"nonpayable"},{"type":"function","name":"updateProtocolInterests","inputs":[{"name":"caller","type":"address","internalType":"address"},{"name":"poolId","type":"bytes32","internalType":"PoolId"},{"name":"currency","type":"address","internalType":"Currency"},{"name":"interest","type":"uint256","internalType":"uint256"}],"outputs":[{"name":"originalAmount","type":"uint256","internalType":"uint256"}],"stateMutability":"nonpayable"},{"type":"function","name":"withdraw","inputs":[{"name":"recipient","type":"address","internalType":"address"},{"name":"poolId","type":"bytes32","internalType":"PoolId"},{"name":"currency","type":"address","internalType":"Currency"},{"name":"amount","type":"uint256","internalType":"uint256"}],"outputs":[],"stateMutability":"nonpayable"},{"type":"event","name":"Approval","inputs":[{"name":"owner","type":"address","indexed":true,"internalType":"address"},{"name":"spender","type":"address","indexed":true,"internalType":"address"},{"name":"id","type":"uint256","indexed":true,"internalType":"uint256"},{"name":"amount","type":"uint256","indexed":false,"internalType":"uint256"}],"anonymous":false},{"type":"event","name":"Deposit","inputs":[{"name":"poolId","type":"bytes32","indexed":true,"internalType":"PoolId"},{"name":"currency","type":"address","indexed":true,"internalType":"Currency"},{"name":"sender","type":"address","indexed":true,"internalType":"address"},{"name":"tokeId","type":"uint256","indexed":false,"internalType":"uint256"},{"name":"recipient","type":"address","indexed":false,"internalType":"address"},{"name":"amount","type":"uint256","indexed":false,"internalType":"uint256"},{"name":"originalAmount","type":"uint256","indexed":false,"internalType":"uint256"},{"name":"incrementRatioX112","type":"uint256","indexed":false,"internalType":"uint256"}],"anonymous":false},{"type":"event","name":"OperatorSet","inputs":[{"name":"owner","type":"address","indexed":true,"internalType":"address"},{"name":"operator","type":"address","indexed":true,"internalType":"address"},{"name":"approved","type":"bool","indexed":false,"internalType":"bool"}],"anonymous":false},{"type":"event","name":"OwnershipTransferred","inputs":[{"name":"user","type":"address","indexed":true,"internalType":"address"},{"name":"newOwner","type":"address","indexed":true,"internalType":"address"}],"anonymous":false},{"type":"event","name":"Sync","inputs":[{"name":"poolId","type":"bytes32","indexed":true,"internalType":"PoolId"},{"name":"id0","type":"uint256","indexed":false,"internalType":"uint256"},{"name":"reserve0","type":"uint256","indexed":false,"internalType":"uint256"},{"name":"total0","type":"uint256","indexed":false,"internalType":"uint256"},{"name":"deviation0","type":"int256","indexed":false,"internalType":"int256"},{"name":"id1","type":"uint256","indexed":false,"internalType":"uint256"},{"name":"reserve1","type":"uint256","indexed":false,"internalType":"uint256"},{"name":"total1","type":"uint256","indexed":false,"internalType":"uint256"},{"name":"deviation1","type":"int256","indexed":false,"internalType":"int256"}],"anonymous":false},{"type":"event","name":"Transfer","inputs":[{"name":"caller","type":"address","indexed":false,"internalType":"address"},{"name":"from","type":"address","indexed":true,"internalType":"address"},{"name":"to","type":"address","indexed":true,"internalType":"address"},{"name":"id","type":"uint256","indexed":true,"internalType":"uint256"},{"name":"amount","type":"uint256","indexed":false,"internalType":"uint256"}],"anonymous":false},{"type":"event","name":"UpdateInterestRatio","inputs":[{"name":"id","type":"uint256","indexed":true,"internalType":"uint256"},{"name":"totalSupply","type":"uint256","indexed":false,"internalType":"uint256"},{"name":"interest","type":"int256","indexed":false,"internalType":"int256"},{"name":"incrementRatioX112Old","type":"uint256","indexed":false,"internalType":"uint256"},{"name":"incrementRatioX112New","type":"uint256","indexed":false,"internalType":"uint256"}],"anonymous":false},{"type":"event","name":"Withdraw","inputs":[{"name":"poolId","type":"bytes32","indexed":true,"internalType":"PoolId"},{"name":"currency","type":"address","indexed":true,"internalType":"Currency"},{"name":"sender","type":"address","indexed":true,"internalType":"address"},{"name":"tokeId","type":"uint256","indexed":false,"internalType":"uint256"},{"name":"recipient","type":"address","indexed":false,"internalType":"address"},{"name":"amount","type":"uint256","indexed":false,"internalType":"uint256"},{"name":"originalAmount","type":"uint256","indexed":false,"internalType":"uint256"},{"name":"incrementRatioX112","type":"uint256","indexed":false,"internalType":"uint256"}],"anonymous":false},{"type":"error","name":"InsufficientFunds","inputs":[]},{"type":"error","name":"InsufficientValue","inputs":[]},{"type":"error","name":"LockFailure","inputs":[]},{"type":"error","name":"MathOverflowedMulDiv","inputs":[]},{"type":"error","name":"NotPoolManager","inputs":[]},{"type":"error","name":"NotSelf","inputs":[]},{"type":"error","name":"SafeERC20FailedOperation","inputs":[{"name":"token","type":"address","internalType":"address"}]}],"bytecode":{"object":"0x60c03461015357601f613acb38819003918201601f19168301916001600160401b03831184841017610157578084926060946040528339810103126101535780516001600160a01b0381169190829003610153576020810151906001600160a01b03821682036101535760400151906001600160a01b0382168203610153576080525f80546001600160a01b0319168317815560405192907f8be0079c531659141344cd1fd0a4f28419497f9722a3daafe3b4186f6b6457e08180a360a05261395f908161016c82396080518181816106ad01528181610725015281816108a801528181610c6101528181610e0a0152818161130c015281816117070152818161192f015281816120e20152818161227a01528181612f890152613175015260a0518181816101d001528181610926015281816114350152818161155d01528181611698015281816121ae0152612de00152f35b5f80fd5b634e487b7160e01b5f52604160045260245ffdfe60806040526004361015610011575f80fd5b5f803560e01c8062fdd58e146123e257806301ffc9a71461238c578063095bcdb6146123035780630bbc0f5714611e1d57806317fe63e214611da3578063426a849314611d155780634db4f77c14611cd1578063558a729714611c3f5780635740b3de1461183e578063598af9e7146117ec57806365ec47c7146115fd5780636aa08523146114f15780636cf95b29146114855780636d79a4e8146113c3578063708c2cd1146113ab57806372a6b5df146112975780637712b2d81461126d57806377b6da3514610f13578063828ba38b14610e8e5780638da5cb5b14610e6757806391dd734614610db857806396894c9314610bc1578063a43eec8714610b53578063b6363cf214610afb578063b676c9e814610ab6578063ba4043db14610a78578063bac59f3814610a4e578063bc37857d14610a25578063bd85b039146109fd578063c3edb7ff146107df578063c495af6014610754578063dc4c90d31461070f578063e02c767914610642578063f21ce75f146105f4578063f2fde38b14610581578063f4a1eb3a14610367578063fe99049a146102025763ffcd9d16146101bb575f80fd5b346101ff57806003193601126101ff576040517f00000000000000000000000000000000000000000000000000000000000000006001600160a01b03168152602090f35b80fd5b50346101ff5760803660031901126101ff5761021c612409565b9061022561241f565b5f805160206138ea8339815191526102cf604435948585526004602052604061025381872054606435613607565b6001600160a01b03909216943386141580610345575b6102dd575b858752600260205281872088885260205281872061028d848254612807565b905560018060a01b0316958681526002602052818120888252602052206102b5828254612828565b905560408051338152602081019290925290918291820190565b0390a4602060405160018152f35b85875260036020908152828820335f908152908252839020898952905281872054836001820161030f575b505061026e565b61031891612807565b868852600360205282882060018060a01b0333165f52602052825f20898952602052828820555f83610308565b5085875260016020908152828820335f90815291528290205460ff1615610269565b50346101ff576102803660031901126101ff57600435610386366124ce565b600654604051637436595f60e11b8152906001600160a01b0316602082600481845afa8015610576576103d4928691610547575b506001600160a01b0316331490811561053d575b50612835565b6101c081018051516103f09084906001600160a01b0316612ff3565b916103fb83306127cf565b6001600160701b0361041b8160c0850151168261010086015116906135e7565b169286841261052e5786821261052e578561045a9161043a8487612fdb565b878a52600560205260408a2055602060018060a01b039151015116612ff3565b6001600160701b0361048561046f83306127cf565b94826101208160e08401511692015116906135e7565b169187831261051f5787841261051f5791839161010095936104c97f60464ec40e1d5db2604a1eaf635c2cd83c932d71632f9e12f53c32df63f3fe7b989684612fdb565b828b52600560205260408b2055858a52600560205260408a205490828b52600560205260408b205495604051978852602088015260408701526060860152608085015260a084015260c083015260e0820152a280f35b6393dafdf160e01b8852600488fd5b6393dafdf160e01b8752600487fd5b905033145f6103ce565b610569915060203d60201161056f575b61056181836124ac565b8101906128b4565b5f6103ba565b503d610557565b6040513d87823e3d90fd5b50346101ff5760203660031901126101ff5761059b612409565b8154906105b2336001600160a01b03841614612835565b6001600160a01b03166001600160a01b03199190911681178255337f8be0079c531659141344cd1fd0a4f28419497f9722a3daafe3b4186f6b6457e08380a380f35b50346101ff576020906106063661277b565b91839183610619575b8585604051908152f35b61063994506040929161062b91612ff3565b8152600485522054906136ba565b5f80808061060f565b506106a8816106503661277b565b90604051926365ec47c760e01b6020850152336024850152604484015260018060a01b0316606483015260848201526084815261068e60a4826124ac565b604051809381926348c8949160e01b8352600483016127a5565b0381837f00000000000000000000000000000000000000000000000000000000000000006001600160a01b03165af18015610704576106e5575080f35b610700903d8084833e6106f881836124ac565b810190612ee8565b5080f35b6040513d84823e3d90fd5b50346101ff57806003193601126101ff576040517f00000000000000000000000000000000000000000000000000000000000000006001600160a01b03168152602090f35b50346101ff5760403660031901126101ff57600435602435908083526004602052604083205492600183116107a4575b5050508015610799575b602090604051908152f35b50600160701b61078e565b83156107845760409130825260026020528282209082526020522054908082116107cf575b80610784565b6107d8926135b2565b5f806107c9565b50346101ff576102c03660031901126101ff576107fb366124ce565b610284356001600160a01b038116918282036109f9576102a43561082a60018060a01b03600654163314612835565b6101c0820151805186939186916001600160a01b031682036109cb57505060c001516001600160701b031691505b808210156109c35750915b82610874575b602083604051908152f35b6040516304ade6db60e11b815233600482015260248101919091526044810183905290602082606481876001600160a01b037f0000000000000000000000000000000000000000000000000000000000000000165af19182156109b8576108ec60209285926109219561099d575b5060043590612ff3565b604051637f4c824d60e11b81523360048201523060248201526044810191909152606481019190915291829081906084820190565b0381867f00000000000000000000000000000000000000000000000000000000000000006001600160a01b03165af180156109925760209350610965575b80610869565b61098490833d851161098b575b61097c81836124ac565b810190612870565b505f61095f565b503d610972565b6040513d85823e3d90fd5b6109b390853d871161098b5761097c81836124ac565b6108e2565b6040513d86823e3d90fd5b905091610863565b602001516001600160a01b0316146109e4575b50610858565b60e001516001600160701b031691505f6109de565b8380fd5b50346101ff5760203660031901126101ff576020610a1d600435306127cf565b604051908152f35b50346101ff57806003193601126101ff576006546040516001600160a01b039091168152602090f35b50346101ff5760203660031901126101ff5760406020916004358152600483522054604051908152f35b50346101ff5760403660031901126101ff57610ab3610a95612409565b610aaa60018060a01b03600654163314612835565b60243590612f4b565b80f35b50346101ff576040602091610aca36612703565b6001600160a01b03928316845260038652848420919092165f90815290855283902090825283522054604051908152f35b50346101ff5760403660031901126101ff576040610b17612409565b91610b2061241f565b9260018060a01b031681526001602052209060018060a01b03165f52602052602060ff60405f2054166040519015158152f35b50346101ff576106a881610bb361068e610b6c3661273d565b604051632ba059ef60e11b60208201523360248201526001600160a01b03948516604482015260648101939093529216608482015260a481019190915291829060c4820190565b03601f1981018352826124ac565b50346101ff57610bd0366126b1565b919092303303610da957600654604051637436595f60e11b815290602090829060049082906001600160a01b03165afa908115610d9e578791610d7f575b50604051632bc5fd8560e01b81526001600160a01b03878116600483015260248201859052919091169590610260816044818b8b5af18015610d7457610d47575b50610c5a8386612ff3565b93610c94817f0000000000000000000000000000000000000000000000000000000000000000610c8c8286838c613286565b309089613404565b87610ca182878686613469565b97803b15610d43578190602460405180948193638b14724560e01b83528a60048401525af18015610d3857610d1f575b5090610d145f8051602061390a83398151915293928860408b8960209d5260048d5220549160405195869560018060a01b03169a60018060a01b03169986612888565b0390a4604051908152f35b610d2a8980926124ac565b610d34575f610cd1565b8780fd5b6040513d8b823e3d90fd5b5080fd5b610d68906102603d8111610d6d575b610d6081836124ac565b81019061290b565b610c4f565b503d610d56565b6040513d8a823e3d90fd5b610d98915060203d60201161056f5761056181836124ac565b5f610c0e565b6040513d89823e3d90fd5b6314e1dbf760e11b8652600486fd5b50346101ff5760203660031901126101ff5760043567ffffffffffffffff8111610d435736602382011215610d435780600401359167ffffffffffffffff83116101ff5736602484840101116101ff577f00000000000000000000000000000000000000000000000000000000000000006001600160a01b03163303610e5857610e54610e48846024850161384c565b604051918291826127a5565b0390f35b63570c108560e11b8152600490fd5b50346101ff57806003193601126101ff57546040516001600160a01b039091168152602090f35b50346101ff57610e9d3661273d565b9260018060a09493941b0360065416604051637436595f60e11b8152602081600481855afa908115610d9e5791610ef791610a1d979695949360209991610efc57506001600160a01b0316331490811561053d5750612835565b612dc7565b6105699150893d8b1161056f5761056181836124ac565b50346101ff57610f223661277b565b918392610f2f8284612ff3565b6006546040516302ef145760e51b8152600481018590526001600160a01b039091169491929161026082602481895afa918215610d7457889261124c575b506101c0820151602001516001600160a01b03918216911614801561122057610fb26001600160701b036080840151166001600160701b0361012085015116906135e7565b955b6040516313ac42a760e01b8152602081600481855afa9081156111cc578a916111d7575b509560206102a49760405198898092634892ce6160e01b8252866004830152611004602483018a612a99565b87156102848301526001600160a01b03165afa9687156111cc578a97611194575b5060405163fb6b0e6760e01b8152602081600481865afa908115611189578b91611142575b506040926102a49161107a85519788958694633a43e9f760e01b8652600486015260248501526044840190612a99565b6001600160a01b03165afa97881561113657809281996110f8575b506020986110bd936110c29695936110b793505f146110f05750935b306127cf565b92612828565b612828565b91826110d4575b505050604051908152f35b6110e893506001600160701b031690613797565b5f80806110c9565b9050936110b1565b925097506040823d60401161112e575b81611115604093836124ac565b81010312610d34578151602090920151976110b7611095565b3d9150611108565b604051903d90823e3d90fd5b90506020813d602011611181575b8161115d602093836124ac565b8101031261117d57516001600160a01b038116810361117d57604061104a565b8a80fd5b3d9150611150565b6040513d8d823e3d90fd5b9096506020813d6020116111c4575b816111b0602093836124ac565b810103126111c05751955f611025565b5f80fd5b3d91506111a3565b6040513d8c823e3d90fd5b90506020813d602011611218575b816111f2602093836124ac565b810103126112145751956001600160a01b038716870361121457956020610fd8565b8980fd5b3d91506111e5565b6112466001600160701b036060840151166001600160701b0361010085015116906135e7565b95610fb4565b6112669192506102603d8111610d6d57610d6081836124ac565b905f610f6d565b50346101ff5760203660031901126101ff5760406020916004358152600583522054604051908152f35b50346101ff576112a6366126b1565b9290936112be60018060a01b03600654163314612835565b6112c88386612ff3565b604051637f4c824d60e11b81523360048201523060248201526001600160a01b0390961660448701819052606487018690529095909490602081806084810103818b7f00000000000000000000000000000000000000000000000000000000000000006001600160a01b03165af18015610d745760409796959492895f8051602061390a8339815191529593610d149360209c50611390575b5061136e828a8787613469565b99818a8c935260048d5220549160405195869560018060a01b03169a86612888565b6113a6908c3d8e1161098b5761097c81836124ac565b611361565b6020610a1d6113b93661273d565b929190913361310b565b50346101ff5760203660031901126101ff576004356001600160a01b03811690819003610d43576113fe60018060a01b038354163314612835565b600680546001600160a01b0319168217905560405163558a729760e01b8152600481019190915260016024820152602081604481857f00000000000000000000000000000000000000000000000000000000000000006001600160a01b03165af180156107045761146d575080f35b6107009060203d60201161098b5761097c81836124ac565b50346101ff5760403660031901126101ff57600654604051637436595f60e11b8152906001600160a01b0316602082600481845afa8015610992576114e392849161054757506001600160a01b0316331490811561053d5750612835565b610ab3602435600435612c17565b50346101ff57611500366126b1565b92909361151860018060a01b03600654163314612835565b6115228386612ff3565b604051637f4c824d60e11b815233600482015230602482015260448101829052606481018690529094906020816084818b6001600160a01b037f0000000000000000000000000000000000000000000000000000000000000000165af18015610d745760409796959492895f8051602061390a8339815191529593610d149360209c506115e2575b506115b782898787613469565b9981898c935260048d5220549160405195869560018060a01b03169a60018060a01b03169986612888565b6115f8908c3d8e1161098b5761097c81836124ac565b6115aa565b50346101ff5761160c3661273d565b93929190913033036117dd5783946004602060018060a01b036006541660405192838092637436595f60e11b82525afa9081156117d25786916117b3575b50604051632bc5fd8560e01b81526001600160a01b03848116600483015260248201869052919091169490610260816044818a8a5af18015610d9e57611796575b506116968482612ff3565b7f00000000000000000000000000000000000000000000000000000000000000006001600160a01b031690813b15610d3457879160448392604051948593849263b390c0ab60e01b845260048401528860248401525af1908115610d9e57879161177d575b50506117359261172e837f0000000000000000000000000000000000000000000000000000000000000000928385613286565b3091613404565b813b15611779578291602483926040519485938492638b14724560e01b845260048401525af18015610704576117685750f35b81611772916124ac565b6101ff5780f35b5050fd5b81611787916124ac565b61179257855f6116fb565b8580fd5b6117ae906102603d8111610d6d57610d6081836124ac565b61168b565b6117cc915060203d60201161056f5761056181836124ac565b5f61164a565b6040513d88823e3d90fd5b6314e1dbf760e11b8452600484fd5b50346101ff57610a1d602091604061180336612703565b6001600160a01b03928316855260038752838520919092165f90815290865282902081845285528183205490835260048552912054906136ba565b50346111c05761184d366126b1565b9094939294303303611c3057600654604051637436595f60e11b815290602090829060049082906001600160a01b03165afa908115611aae575f91611c11575b50604051632bc5fd8560e01b81526001600160a01b03868116600483015260248201869052909791169490610260886044815f8a5af1978815611aae575f98611bf0575b506118dc8584612ff3565b936118e785846127cf565b9080821015611be957505b6101c0890151516001600160a01b0394851694168414988915611bd5576001600160701b038060c0830151165b1691809a818410611ab9575b50507f00000000000000000000000000000000000000000000000000000000000000006001600160a01b031692915050813b156111c057604051637a94c56560e11b815230600482015260248101859052604481018a9052985f8a60648183875af18015611aae57611a98575b88809a5050823b15611a9457604051630b0d9c0960e01b8152600481018690526001600160a01b0383166024820152604481018290529289908490606490829084905af18015610d385787938a91611a79575b505092611a4384611a207f9ddc47990e3270c30098ea90f00986a107147a5e38146b80a3281a629ac41b7c9596898580613023565b888c52600460205260408c20549160405195869560018060a01b03169a86612888565b0390a4813b15611779578291602483926040519485938492638b14724560e01b845260048401525af18015610704576117685750f35b8192945090611a87916124ac565b610d34578591885f6119eb565b8880fd5b9750975f611aa5916124ac565b5f968890611998565b6040513d5f823e3d90fd5b611b249293949b50906020915f14611bbc57611ae7856001600160701b0380610100880151165b1692612807565b9080821015611bb45750925b6102c4895f60018060a01b0360065416604051968795869463c3edb7ff60e01b865260048601526024850190612a99565b8a610284840152876102a48401525af1908115611aae575f91611b95575b5015611b5b57611b5191612828565b965f80808061192b565b60405162461bcd60e51b81526020600482015260126024820152714e4f545f454e4f5547485f5245534552564560701b6044820152606490fd5b611bae915060203d60201161098b5761097c81836124ac565b5f611b42565b905092611af3565b611ae7856001600160701b038061012088015116611ae0565b6001600160701b038060e08301511661191f565b90506118f2565b611c0a9198506102603d8111610d6d57610d6081836124ac565b965f6118d1565b611c2a915060203d60201161056f5761056181836124ac565b5f61188d565b6314e1dbf760e11b5f5260045ffd5b346111c05760403660031901126111c057611c58612409565b602435908115158092036111c057335f52600160205260405f2060018060a01b0382165f5260205260405f2060ff1981541660ff841617905560405191825260018060a01b0316907fceb576d9f15e4e200fdb5096d64d5dfd667e16def20c1eefd14256d8e3faa26760203392a3602060405160018152f35b346111c05760403660031901126111c0576001600160a01b03611cf2612409565b165f52600260205260405f206024355f52602052602060405f2054604051908152f35b346111c057611d3c611d2636612435565b815f94929452600460205260405f205490613607565b335f8181526003602090815260408083206001600160a01b03909616808452958252808320878452825291829020849055905192835290917fb3fd5071835887567a0671151121894ddccc2842f1d10bedad13e0d17cace9a79190a4602060405160018152f35b6024611dae366126b1565b600654604051636c69195160e11b81523360048201529691949293929160209188919082906001600160a01b03165afa948515611aae57611dfb610a1d966020985f91611e005750612835565b61310b565b611e179150893d8b1161098b5761097c81836124ac565b896103ce565b346111c0576103003660031901126111c057611e37612409565b611e3f61241f565b6044356102603660631901126111c05760405192611e5c8461245f565b60643563ffffffff811681036111c05784526084356001600160701b03811681036111c057602085015260a4356001600160701b03811681036111c057604085015260c4356001600160701b03811681036111c057606085015260e4356001600160701b03811681036111c05760808501526101043562ffffff811681036111c05760a085015261012435926001600160701b03841684036111c05760c0850193845261014435916001600160701b03831683036111c05760e08601928352610164356001600160701b03811681036111c057610100870152610184356001600160701b03811681036111c0576101208701526101a4356001600160701b03811681036111c0576101408701526101c4356001600160701b03811681036111c0576101608701526101e435610180870152610204356101a087015260a0366102231901126111c05760405195611fb187612490565b610224356001600160a01b03811681036111c0578752610244356001600160a01b03811681036111c05760208801526102643562ffffff811681036111c0576040880152610284358060020b81036111c05760608801526102a435906001600160a01b03821682036111c05760808801919091526101c0019586526102c435956001600160a01b038716958688036111c057612066866102e4359961206160018060a01b03600654163314612835565b612ff3565b9761207189866127cf565b90808210156122fb5750945b915180515f939189916001600160a01b031682036122cb575050506001600160701b03915051165b839080821115612246576040516304ade6db60e11b81523360048201526024810188905260448101829052916020836064815f6001600160a01b037f0000000000000000000000000000000000000000000000000000000000000000165af1928315611aae5761211a93612229575b50612807565b8061217a575b50612175836121527f9ddc47990e3270c30098ea90f00986a107147a5e38146b80a3281a629ac41b7c95898686613023565b885f52600460205260405f20549160405195869560018060a01b03169a86612888565b0390a4005b6040516304ade6db60e11b8152336004820152602481018890526044810191909152926020846064815f6001600160a01b037f0000000000000000000000000000000000000000000000000000000000000000165af1908115611aae577f9ddc47990e3270c30098ea90f00986a107147a5e38146b80a3281a629ac41b7c946121759261220a575b509350612120565b6122229060203d60201161098b5761097c81836124ac565b5088612202565b6122419060203d60201161098b5761097c81836124ac565b612114565b50506040516304ade6db60e11b815233600482015260248101869052604481018490526020816064815f6001600160a01b037f0000000000000000000000000000000000000000000000000000000000000000165af18015611aae576122ae575b505f61211a565b6122c69060203d60201161098b5761097c81836124ac565b6122a7565b602001519192506001600160a01b03909116146122e9575b506120a5565b6001600160701b0391505116876122e3565b90509461207d565b346111c057612314611d2636612435565b90335f52600260205260405f20835f5260205260405f20612336838254612807565b905560018060a01b031690815f52600260205260405f20835f5260205260405f20612362828254612828565b9055604080513380825260208201939093525f805160206138ea83398151915291819081016102cf565b346111c05760203660031901126111c05760043563ffffffff60e01b81168091036111c0576020906301ffc9a760e01b81149081156123d1575b506040519015158152f35b630f632fb360e01b149050826123c6565b346111c05760403660031901126111c0576020610a1d612400612409565b602435906127cf565b600435906001600160a01b03821682036111c057565b602435906001600160a01b03821682036111c057565b60609060031901126111c0576004356001600160a01b03811681036111c057906024359060443590565b6101e0810190811067ffffffffffffffff82111761247c57604052565b634e487b7160e01b5f52604160045260245ffd5b60a0810190811067ffffffffffffffff82111761247c57604052565b90601f8019910116810190811067ffffffffffffffff82111761247c57604052565b906102606023198301126111c0576040516124e88161245f565b809260243563ffffffff811681036111c05782526044356001600160701b03811681036111c05760208301526064356001600160701b03811681036111c05760408301526084356001600160701b03811681036111c057606083015260a4356001600160701b03811681036111c057608083015260c43562ffffff811681036111c05760a083015260e4356001600160701b03811681036111c05760c0830152610104356001600160701b03811681036111c05760e0830152610124356001600160701b03811681036111c057610100830152610144356001600160701b03811681036111c057610120830152610164356001600160701b03811681036111c05761014083015261018435906001600160701b03821682036111c05760a0916101608401526101a4356101808401526101c4356101a08401526101e31901126111c0576040519061263882612490565b6101e4356001600160a01b03811681036111c0578252610204356001600160a01b03811681036111c05760208301526102243562ffffff811681036111c0576040830152610244358060020b81036111c057606083015261026435906001600160a01b03821682036111c0576101c09160808401520152565b60a09060031901126111c0576004356001600160a01b03811681036111c057906024356001600160a01b03811681036111c05790604435906064356001600160a01b03811681036111c0579060843590565b60609060031901126111c0576004356001600160a01b03811681036111c057906024356001600160a01b03811681036111c0579060443590565b60809060031901126111c0576004356001600160a01b03811681036111c05790602435906044356001600160a01b03811681036111c0579060643590565b60609060031901126111c057600435906024356001600160a01b03811681036111c0579060443590565b602060409281835280519182918282860152018484015e5f828201840152601f01601f1916010190565b6001600160a01b03165f90815260026020908152604080832093835292815282822054600490915291902054612804916136ba565b90565b9190820391821161281457565b634e487b7160e01b5f52601160045260245ffd5b9190820180921161281457565b1561283c57565b60405162461bcd60e51b815260206004820152600c60248201526b15539055551213d49256915160a21b6044820152606490fd5b908160209103126111c0575180151581036111c05790565b9192608093969594919660a0840197845260018060a01b03166020840152604083015260608201520152565b908160209103126111c057516001600160a01b03811681036111c05790565b51906001600160701b03821682036111c057565b519062ffffff821682036111c057565b51906001600160a01b03821682036111c057565b8091039061026082126111c057604051916129258361245f565b81519063ffffffff821682036111c05760a0918452612946602084016128d3565b6020850152612957604084016128d3565b6040850152612968606084016128d3565b6060850152612979608084016128d3565b60808501526129898284016128e7565b8285015261299960c084016128d3565b60c08501526129aa60e084016128d3565b60e08501526129bc61010084016128d3565b6101008501526129cf61012084016128d3565b6101208501526129e261014084016128d3565b6101408501526129f561016084016128d3565b6101608501526101808301516101808501526101a08301516101a08501526101bf1901126111c05760405190612a2a82612490565b612a376101c082016128f7565b8252612a466101e082016128f7565b6020830152612a5861020082016128e7565b6040830152610220810151908160020b82036111c057606083019190915261024001516001600160a01b03811681036111c05760808201526101c082015290565b6101c06102409163ffffffff81511684526001600160701b0360208201511660208501526001600160701b0360408201511660408501526001600160701b0360608201511660608501526001600160701b03608082015116608085015262ffffff60a08201511660a08501526001600160701b0360c08201511660c08501526001600160701b0360e08201511660e08501526001600160701b03610100820151166101008501526001600160701b03610120820151166101208501526001600160701b03610140820151166101408501526001600160701b03610160820151166101608501526101808101516101808501526101a08101516101a0850152015160018060a01b038151166101c084015260018060a01b036020820151166101e084015262ffffff604082015116610200840152606081015160020b610220840152608060018060a01b0391015116910152565b9190915f838201938412911290801582169115161761281457565b600160ff1b8114612814575f0390565b908015612db457305f52600260205260405f20825f5260205260405f2054908115612d8057825f52600460205260405f205490612c5482846136ba565b915f821315612cb6579081612c8e7f777a68296a415d85d299a912648730f0f6736b715a0c106f8ecb6047371120149583608096956135b2565b915b865f5260046020528260405f2055604051938452602084015260408301526060820152a2565b612cbf82612c07565b819481151580612d78575b612cfe575b505090608092917f777a68296a415d85d299a912648730f0f6736b715a0c106f8ecb6047371120149491612c90565b612d088183613715565b91600160701b09612d60575b7f777a68296a415d85d299a912648730f0f6736b715a0c106f8ecb6047371120149460809493929180831115612d5857612d4d91612807565b948192939450612ccf565b50505f612d4d565b92919060018401809411612814579192909190612d14565b506001612cca565b9190505f821315612da5575f526005602052612da160405f20918254612bec565b9055565b63356680b760e01b5f5260045ffd5b5050565b908160209103126111c0575190565b909392935f918515612ec357612ddd8285612ff3565b927f00000000000000000000000000000000000000000000000000000000000000006001600160a01b031691823b156111c057604051632748c5c760e01b81523060048201526024810186905260448101899052925f908490606490829084905af1928315611aae575f8051602061390a83398151915293612eae575b50612ea9612e73898760018060a01b0386541633613469565b83548785526004602052604094859020549451919a6001600160a01b03948516998516989295869590938d939091169086612888565b0390a4565b612ebb9192505f906124ac565b5f905f612e5a565b505f9450505050565b67ffffffffffffffff811161247c57601f01601f191660200190565b6020818303126111c05780519067ffffffffffffffff82116111c0570181601f820112156111c057805190612f1c82612ecc565b92612f2a60405194856124ac565b828452602083830101116111c057815f9260208093018386015e8301015290565b8115612db4576040516304ade6db60e11b81523360048201526001600160a01b0390911660248201526044810191909152602081806064810103815f7f00000000000000000000000000000000000000000000000000000000000000006001600160a01b03165af18015611aae57612fc05750565b612fd89060203d60201161098b5761097c81836124ac565b50565b81810392915f13801582851316918412161761281457565b604080516001600160a01b039092166020830190815282820193909352815261301d6060826124ac565b51902090565b9392905f805160206138ea8339815191525f92848452600460205260408420549260018060a01b03169283855260026020526040852086865260205260408520549161306f82846136ba565b80821487146130e75750505080965b8385526002602052604085208686526020526040852061309f838254612807565b9055308552600260205260408520868652602052604085206130c2838254612807565b9055604080516001600160a01b03909216825260208201929092529081908101612ea9565b916130f96130fe926131049594612807565b613607565b90612807565b809661307e565b5f959490936001600160a01b03811615613242575b6040516396894c9360e01b60208201526001600160a01b03868116602483015293841660448201526064810194909452909116608483015260a4820152613170905f9061068e8160c48101610bb3565b0381837f00000000000000000000000000000000000000000000000000000000000000006001600160a01b03165af1908115611aae575f91613228575b50602081519181808201938492010103126111c05751928034116131cf575050565b5f8080936131de829434612807565b905af16131e961381d565b50156131f157565b60405162461bcd60e51b815260206004820152600f60248201526e1514905394d1915497d19052531151608a1b6044820152606490fd5b61323c91503d805f833e6106f881836124ac565b5f6131ad565b9550918234106132775761068e5f92610bb361317095348110861461327157805b999350939550509250613120565b34613263565b63044044a560e21b5f5260045ffd5b6001600160a01b03169291836132f05750604051630476982d60e21b81529250602091839160049183916001600160a01b03165af18015611aae576132c85750565b612fd89060203d6020116132e9575b6132e181836124ac565b810190612db8565b503d6132d7565b916001600160a01b0390911690813b156111c057604051632961046560e21b815260048101859052925a935f816024818388819af18015611aae576133e9575b509293849360209392916001600160a01b03909116903082146133a95761338592604051926323b872dd60e01b8785015260248401528460448401526064830152606482526133806084836124ac565b613891565b600460405180958193630476982d60e21b83525af190811561113657506132c85750565b60405163a9059cbb60e01b868201526001600160a01b03851660248201526044808201949094529283526133e49291506133806064836124ac565b613385565b602093929194505f6133fa916124ac565b5f93909192613330565b9192906001600160a01b0316803b156111c057604051630ab714fb60e11b81526001600160a01b0394851660048201529290931660248301526044820152905f908290606490829084905af18015611aae5761345d5750565b5f613467916124ac565b565b909392825f52600560205260405f20545f81135f146135325761349b5f805160206138ea833981519152915f93612828565b84835260056020528260408120555b848352600460205260408320548015841461352257508483526004602052600160701b604084205580965b60018060a01b031693848452600260205260408420868552602052604084206134ff838254612828565b9055308452600260205260408420868552602052604084206130c2838254612828565b61352b91613607565b80966134d5565b5f8112613550575b505f805160206138ea8339815191525f916134aa565b61355981612c07565b8211156135915761357c5f926130fe5f805160206138ea83398151915293612c07565b8483526005602052826040812055915061353a565b50929350505f5260056020526135ac60405f20918254612bec565b90555f90565b92918391801515806135de575b6135c857505050565b612804939450906135d891613715565b90612828565b508115156135bf565b906001600160701b03809116911601906001600160701b03821161281457565b90607082901b905f19600160701b840992828085109403938085039414613699578382111561368a578190600160701b9009815f0382168092046002816003021880820260020302808202600203028082026002030280820260020302808202600203028091026002030293600183805f03040190848311900302920304170290565b63227bc15360e01b5f5260045ffd5b50809250156136a6570490565b634e487b7160e01b5f52601260045260245ffd5b5f90828102925f198183099284808510940393808503941461370b57600160701b8410156136fc5750600160701b910990828211900360901b910360701c1790565b63227bc15360e01b8152600490fd5b5050505060701c90565b90607082901b905f1983600160701b0992828085109403938085039414613699578382111561368a578190600160701b09815f0382168092046002816003021880820260020302808202600203028082026002030280820260020302808202600203028091026002030293600183805f03040190848311900302920304170290565b9091828202915f198482099383808610950394808603951461380f578483111561368a57829109815f0382168092046002816003021880820260020302808202600203028082026002030280820260020302808202600203028091026002030293600183805f03040190848311900302920304170290565b5050809250156136a6570490565b3d15613847573d9061382e82612ecc565b9161383c60405193846124ac565b82523d5f602084013e565b606090565b5f9182918160405192839283378101838152039082305af19061386d61381d565b91613467575080511561388257602081519101fd5b6314815f4760e31b5f5260045ffd5b905f602091828151910182855af115611aae575f513d6138e057506001600160a01b0381163b155b6138c05750565b635274afe760e01b5f9081526001600160a01b0391909116600452602490fd5b600114156138b956fe1b3d7edb2e9c0b0e7c525b20aaaef0f5940d2ed71663c7d39266ecafac7288593f18ea28db54e7eb32956bbe590e5c33360b8394b251ad9982947d1f860882d3a26469706673582212207da234ccfd0d0375254043273cbaadf7b90e055f870f19f615d3182209c2773264736f6c634300081a0033","linkReferences":{}},"methodIdentifiers":{"accruesRatioX112Of(uint256)":"bac59f38","allowance(address,address,uint256)":"598af9e7","allowanceOriginal(address,address,uint256)":"b676c9e8","approve(address,uint256,uint256)":"426a8493","balanceAccounts(address,uint256)":"ba4043db","balanceMirror(bytes32,address,uint256)":"e02c7679","balanceOf(address,uint256)":"00fdd58e","balanceOriginal(address,uint256)":"4db4f77c","computeRealAmount(bytes32,address,uint256)":"f21ce75f","deposit(address,address,bytes32,address,uint256)":"17fe63e2","deposit(address,bytes32,address,uint256)":"708c2cd1","deviationOf(uint256)":"7712b2d8","getGrownRatioX112(uint256,uint256)":"c495af60","getLendingAPR(bytes32,address,uint256)":"77b6da35","handleBalanceMirror(address,bytes32,address,uint256)":"65ec47c7","handleDeposit(address,address,bytes32,address,uint256)":"96894c93","handleWithdraw(address,address,bytes32,address,uint256)":"5740b3de","isOperator(address,address)":"b6363cf2","mirrorIn(address,address,bytes32,address,uint256)":"6aa08523","mirrorInRealOut(bytes32,(uint32,uint112,uint112,uint112,uint112,uint24,uint112,uint112,uint112,uint112,uint112,uint112,uint256,uint256,(address,address,uint24,int24,address)),address,uint256)":"c3edb7ff","mirrorTokenManager()":"ffcd9d16","owner()":"8da5cb5b","pairPoolManager()":"bc37857d","poolManager()":"dc4c90d3","realIn(address,address,bytes32,address,uint256)":"72a6b5df","reserveOut(address,address,bytes32,(uint32,uint112,uint112,uint112,uint112,uint24,uint112,uint112,uint112,uint112,uint112,uint112,uint256,uint256,(address,address,uint24,int24,address)),address,uint256)":"0bbc0f57","setOperator(address,bool)":"558a7297","setPairPoolManger(address)":"6d79a4e8","supportsInterface(bytes4)":"01ffc9a7","sync(bytes32,(uint32,uint112,uint112,uint112,uint112,uint24,uint112,uint112,uint112,uint112,uint112,uint112,uint256,uint256,(address,address,uint24,int24,address)))":"f4a1eb3a","totalSupply(uint256)":"bd85b039","transfer(address,uint256,uint256)":"095bcdb6","transferFrom(address,address,uint256,uint256)":"fe99049a","transferOwnership(address)":"f2fde38b","unlockCallback(bytes)":"91dd7346","updateInterests(uint256,int256)":"6cf95b29","updateProtocolInterests(address,bytes32,address,uint256)":"828ba38b","withdraw(address,bytes32,address,uint256)":"a43eec87"},"id":87}