{"abi":[{"type":"constructor","inputs":[{"name":"initialOwner","type":"address","internalType":"address"},{"name":"_manager","type":"address","internalType":"contract IPoolManager"},{"name":"_mirrorTokenManager","type":"address","internalType":"contract IMirrorTokenManager"}],"stateMutability":"nonpayable"},{"type":"function","name":"accruesRatioX112Of","inputs":[{"name":"","type":"uint256","internalType":"uint256"}],"outputs":[{"name":"","type":"uint256","internalType":"uint256"}],"stateMutability":"view"},{"type":"function","name":"allowance","inputs":[{"name":"owner","type":"address","internalType":"address"},{"name":"spender","type":"address","internalType":"address"},{"name":"id","type":"uint256","internalType":"uint256"}],"outputs":[{"name":"","type":"uint256","internalType":"uint256"}],"stateMutability":"view"},{"type":"function","name":"allowanceOriginal","inputs":[{"name":"","type":"address","internalType":"address"},{"name":"","type":"address","internalType":"address"},{"name":"","type":"uint256","internalType":"uint256"}],"outputs":[{"name":"","type":"uint256","internalType":"uint256"}],"stateMutability":"view"},{"type":"function","name":"approve","inputs":[{"name":"spender","type":"address","internalType":"address"},{"name":"id","type":"uint256","internalType":"uint256"},{"name":"_amount","type":"uint256","internalType":"uint256"}],"outputs":[{"name":"","type":"bool","internalType":"bool"}],"stateMutability":"nonpayable"},{"type":"function","name":"balanceAccounts","inputs":[{"name":"currency","type":"address","internalType":"Currency"},{"name":"amount","type":"uint256","internalType":"uint256"}],"outputs":[],"stateMutability":"nonpayable"},{"type":"function","name":"balanceMirror","inputs":[{"name":"poolId","type":"bytes32","internalType":"PoolId"},{"name":"currency","type":"address","internalType":"Currency"},{"name":"amount","type":"uint256","internalType":"uint256"}],"outputs":[],"stateMutability":"payable"},{"type":"function","name":"balanceOf","inputs":[{"name":"owner","type":"address","internalType":"address"},{"name":"id","type":"uint256","internalType":"uint256"}],"outputs":[{"name":"","type":"uint256","internalType":"uint256"}],"stateMutability":"view"},{"type":"function","name":"balanceOriginal","inputs":[{"name":"","type":"address","internalType":"address"},{"name":"","type":"uint256","internalType":"uint256"}],"outputs":[{"name":"","type":"uint256","internalType":"uint256"}],"stateMutability":"view"},{"type":"function","name":"computeRealAmount","inputs":[{"name":"poolId","type":"bytes32","internalType":"PoolId"},{"name":"currency","type":"address","internalType":"Currency"},{"name":"originalAmount","type":"uint256","internalType":"uint256"}],"outputs":[{"name":"amount","type":"uint256","internalType":"uint256"}],"stateMutability":"view"},{"type":"function","name":"deposit","inputs":[{"name":"sender","type":"address","internalType":"address"},{"name":"recipient","type":"address","internalType":"address"},{"name":"poolId","type":"bytes32","internalType":"PoolId"},{"name":"currency","type":"address","internalType":"Currency"},{"name":"amount","type":"uint256","internalType":"uint256"}],"outputs":[{"name":"originalAmount","type":"uint256","internalType":"uint256"}],"stateMutability":"payable"},{"type":"function","name":"deposit","inputs":[{"name":"recipient","type":"address","internalType":"address"},{"name":"poolId","type":"bytes32","internalType":"PoolId"},{"name":"currency","type":"address","internalType":"Currency"},{"name":"amount","type":"uint256","internalType":"uint256"}],"outputs":[{"name":"originalAmount","type":"uint256","internalType":"uint256"}],"stateMutability":"payable"},{"type":"function","name":"deviationOf","inputs":[{"name":"","type":"uint256","internalType":"uint256"}],"outputs":[{"name":"","type":"int256","internalType":"int256"}],"stateMutability":"view"},{"type":"function","name":"getGrownRatioX112","inputs":[{"name":"id","type":"uint256","internalType":"uint256"},{"name":"growAmount","type":"uint256","internalType":"uint256"}],"outputs":[{"name":"accruesRatioX112Grown","type":"uint256","internalType":"uint256"}],"stateMutability":"view"},{"type":"function","name":"getLendingAPR","inputs":[{"name":"poolId","type":"bytes32","internalType":"PoolId"},{"name":"currency","type":"address","internalType":"Currency"},{"name":"inputAmount","type":"uint256","internalType":"uint256"}],"outputs":[{"name":"apr","type":"uint256","internalType":"uint256"}],"stateMutability":"view"},{"type":"function","name":"handleBalanceMirror","inputs":[{"name":"sender","type":"address","internalType":"address"},{"name":"poolId","type":"bytes32","internalType":"PoolId"},{"name":"currency","type":"address","internalType":"Currency"},{"name":"amount","type":"uint256","internalType":"uint256"}],"outputs":[],"stateMutability":"nonpayable"},{"type":"function","name":"handleDeposit","inputs":[{"name":"sender","type":"address","internalType":"address"},{"name":"recipient","type":"address","internalType":"address"},{"name":"poolId","type":"bytes32","internalType":"PoolId"},{"name":"currency","type":"address","internalType":"Currency"},{"name":"amount","type":"uint256","internalType":"uint256"}],"outputs":[{"name":"originalAmount","type":"uint256","internalType":"uint256"}],"stateMutability":"nonpayable"},{"type":"function","name":"handleWithdraw","inputs":[{"name":"sender","type":"address","internalType":"address"},{"name":"recipient","type":"address","internalType":"address"},{"name":"poolId","type":"bytes32","internalType":"PoolId"},{"name":"currency","type":"address","internalType":"Currency"},{"name":"amount","type":"uint256","internalType":"uint256"}],"outputs":[{"name":"originalAmount","type":"uint256","internalType":"uint256"}],"stateMutability":"nonpayable"},{"type":"function","name":"isOperator","inputs":[{"name":"","type":"address","internalType":"address"},{"name":"","type":"address","internalType":"address"}],"outputs":[{"name":"","type":"bool","internalType":"bool"}],"stateMutability":"view"},{"type":"function","name":"mirrorIn","inputs":[{"name":"caller","type":"address","internalType":"address"},{"name":"receiver","type":"address","internalType":"address"},{"name":"poolId","type":"bytes32","internalType":"PoolId"},{"name":"currency","type":"address","internalType":"Currency"},{"name":"amount","type":"uint256","internalType":"uint256"}],"outputs":[{"name":"originalAmount","type":"uint256","internalType":"uint256"}],"stateMutability":"nonpayable"},{"type":"function","name":"mirrorInRealOut","inputs":[{"name":"poolId","type":"bytes32","internalType":"PoolId"},{"name":"status","type":"tuple","internalType":"struct PoolStatus","components":[{"name":"blockTimestampLast","type":"uint32","internalType":"uint32"},{"name":"realReserve0","type":"uint112","internalType":"uint112"},{"name":"realReserve1","type":"uint112","internalType":"uint112"},{"name":"mirrorReserve0","type":"uint112","internalType":"uint112"},{"name":"mirrorReserve1","type":"uint112","internalType":"uint112"},{"name":"marginFee","type":"uint24","internalType":"uint24"},{"name":"lendingRealReserve0","type":"uint112","internalType":"uint112"},{"name":"lendingRealReserve1","type":"uint112","internalType":"uint112"},{"name":"lendingMirrorReserve0","type":"uint112","internalType":"uint112"},{"name":"lendingMirrorReserve1","type":"uint112","internalType":"uint112"},{"name":"truncatedReserve0","type":"uint112","internalType":"uint112"},{"name":"truncatedReserve1","type":"uint112","internalType":"uint112"},{"name":"rate0CumulativeLast","type":"uint256","internalType":"uint256"},{"name":"rate1CumulativeLast","type":"uint256","internalType":"uint256"},{"name":"key","type":"tuple","internalType":"struct PoolKey","components":[{"name":"currency0","type":"address","internalType":"Currency"},{"name":"currency1","type":"address","internalType":"Currency"},{"name":"fee","type":"uint24","internalType":"uint24"},{"name":"tickSpacing","type":"int24","internalType":"int24"},{"name":"hooks","type":"address","internalType":"contract IHooks"}]}]},{"name":"currency","type":"address","internalType":"Currency"},{"name":"amount","type":"uint256","internalType":"uint256"}],"outputs":[{"name":"exchangeAmount","type":"uint256","internalType":"uint256"}],"stateMutability":"nonpayable"},{"type":"function","name":"mirrorTokenManager","inputs":[],"outputs":[{"name":"","type":"address","internalType":"contract IMirrorTokenManager"}],"stateMutability":"view"},{"type":"function","name":"owner","inputs":[],"outputs":[{"name":"","type":"address","internalType":"address"}],"stateMutability":"view"},{"type":"function","name":"pairPoolManager","inputs":[],"outputs":[{"name":"","type":"address","internalType":"contract IPairPoolManager"}],"stateMutability":"view"},{"type":"function","name":"poolManager","inputs":[],"outputs":[{"name":"","type":"address","internalType":"contract IPoolManager"}],"stateMutability":"view"},{"type":"function","name":"realIn","inputs":[{"name":"caller","type":"address","internalType":"address"},{"name":"recipient","type":"address","internalType":"address"},{"name":"poolId","type":"bytes32","internalType":"PoolId"},{"name":"currency","type":"address","internalType":"Currency"},{"name":"amount","type":"uint256","internalType":"uint256"}],"outputs":[{"name":"originalAmount","type":"uint256","internalType":"uint256"}],"stateMutability":"nonpayable"},{"type":"function","name":"reserveOut","inputs":[{"name":"caller","type":"address","internalType":"address"},{"name":"payer","type":"address","internalType":"address"},{"name":"poolId","type":"bytes32","internalType":"PoolId"},{"name":"status","type":"tuple","internalType":"struct PoolStatus","components":[{"name":"blockTimestampLast","type":"uint32","internalType":"uint32"},{"name":"realReserve0","type":"uint112","internalType":"uint112"},{"name":"realReserve1","type":"uint112","internalType":"uint112"},{"name":"mirrorReserve0","type":"uint112","internalType":"uint112"},{"name":"mirrorReserve1","type":"uint112","internalType":"uint112"},{"name":"marginFee","type":"uint24","internalType":"uint24"},{"name":"lendingRealReserve0","type":"uint112","internalType":"uint112"},{"name":"lendingRealReserve1","type":"uint112","internalType":"uint112"},{"name":"lendingMirrorReserve0","type":"uint112","internalType":"uint112"},{"name":"lendingMirrorReserve1","type":"uint112","internalType":"uint112"},{"name":"truncatedReserve0","type":"uint112","internalType":"uint112"},{"name":"truncatedReserve1","type":"uint112","internalType":"uint112"},{"name":"rate0CumulativeLast","type":"uint256","internalType":"uint256"},{"name":"rate1CumulativeLast","type":"uint256","internalType":"uint256"},{"name":"key","type":"tuple","internalType":"struct PoolKey","components":[{"name":"currency0","type":"address","internalType":"Currency"},{"name":"currency1","type":"address","internalType":"Currency"},{"name":"fee","type":"uint24","internalType":"uint24"},{"name":"tickSpacing","type":"int24","internalType":"int24"},{"name":"hooks","type":"address","internalType":"contract IHooks"}]}]},{"name":"currency","type":"address","internalType":"Currency"},{"name":"amount","type":"uint256","internalType":"uint256"}],"outputs":[],"stateMutability":"nonpayable"},{"type":"function","name":"setOperator","inputs":[{"name":"operator","type":"address","internalType":"address"},{"name":"approved","type":"bool","internalType":"bool"}],"outputs":[{"name":"","type":"bool","internalType":"bool"}],"stateMutability":"nonpayable"},{"type":"function","name":"setPairPoolManger","inputs":[{"name":"_manager","type":"address","internalType":"contract IPairPoolManager"}],"outputs":[],"stateMutability":"nonpayable"},{"type":"function","name":"supportsInterface","inputs":[{"name":"interfaceId","type":"bytes4","internalType":"bytes4"}],"outputs":[{"name":"","type":"bool","internalType":"bool"}],"stateMutability":"view"},{"type":"function","name":"sync","inputs":[{"name":"poolId","type":"bytes32","internalType":"PoolId"},{"name":"status","type":"tuple","internalType":"struct PoolStatus","components":[{"name":"blockTimestampLast","type":"uint32","internalType":"uint32"},{"name":"realReserve0","type":"uint112","internalType":"uint112"},{"name":"realReserve1","type":"uint112","internalType":"uint112"},{"name":"mirrorReserve0","type":"uint112","internalType":"uint112"},{"name":"mirrorReserve1","type":"uint112","internalType":"uint112"},{"name":"marginFee","type":"uint24","internalType":"uint24"},{"name":"lendingRealReserve0","type":"uint112","internalType":"uint112"},{"name":"lendingRealReserve1","type":"uint112","internalType":"uint112"},{"name":"lendingMirrorReserve0","type":"uint112","internalType":"uint112"},{"name":"lendingMirrorReserve1","type":"uint112","internalType":"uint112"},{"name":"truncatedReserve0","type":"uint112","internalType":"uint112"},{"name":"truncatedReserve1","type":"uint112","internalType":"uint112"},{"name":"rate0CumulativeLast","type":"uint256","internalType":"uint256"},{"name":"rate1CumulativeLast","type":"uint256","internalType":"uint256"},{"name":"key","type":"tuple","internalType":"struct PoolKey","components":[{"name":"currency0","type":"address","internalType":"Currency"},{"name":"currency1","type":"address","internalType":"Currency"},{"name":"fee","type":"uint24","internalType":"uint24"},{"name":"tickSpacing","type":"int24","internalType":"int24"},{"name":"hooks","type":"address","internalType":"contract IHooks"}]}]}],"outputs":[],"stateMutability":"nonpayable"},{"type":"function","name":"totalSupply","inputs":[{"name":"id","type":"uint256","internalType":"uint256"}],"outputs":[{"name":"","type":"uint256","internalType":"uint256"}],"stateMutability":"view"},{"type":"function","name":"transfer","inputs":[{"name":"receiver","type":"address","internalType":"address"},{"name":"id","type":"uint256","internalType":"uint256"},{"name":"_amount","type":"uint256","internalType":"uint256"}],"outputs":[{"name":"","type":"bool","internalType":"bool"}],"stateMutability":"nonpayable"},{"type":"function","name":"transferFrom","inputs":[{"name":"sender","type":"address","internalType":"address"},{"name":"receiver","type":"address","internalType":"address"},{"name":"id","type":"uint256","internalType":"uint256"},{"name":"_amount","type":"uint256","internalType":"uint256"}],"outputs":[{"name":"","type":"bool","internalType":"bool"}],"stateMutability":"nonpayable"},{"type":"function","name":"transferOwnership","inputs":[{"name":"newOwner","type":"address","internalType":"address"}],"outputs":[],"stateMutability":"nonpayable"},{"type":"function","name":"unlockCallback","inputs":[{"name":"data","type":"bytes","internalType":"bytes"}],"outputs":[{"name":"","type":"bytes","internalType":"bytes"}],"stateMutability":"nonpayable"},{"type":"function","name":"updateInterests","inputs":[{"name":"id","type":"uint256","internalType":"uint256"},{"name":"interest","type":"int256","internalType":"int256"}],"outputs":[],"stateMutability":"nonpayable"},{"type":"function","name":"updateProtocolInterests","inputs":[{"name":"caller","type":"address","internalType":"address"},{"name":"poolId","type":"bytes32","internalType":"PoolId"},{"name":"currency","type":"address","internalType":"Currency"},{"name":"interest","type":"uint256","internalType":"uint256"}],"outputs":[{"name":"originalAmount","type":"uint256","internalType":"uint256"}],"stateMutability":"nonpayable"},{"type":"function","name":"withdraw","inputs":[{"name":"recipient","type":"address","internalType":"address"},{"name":"poolId","type":"bytes32","internalType":"PoolId"},{"name":"currency","type":"address","internalType":"Currency"},{"name":"amount","type":"uint256","internalType":"uint256"}],"outputs":[{"name":"originalAmount","type":"uint256","internalType":"uint256"}],"stateMutability":"nonpayable"},{"type":"event","name":"Approval","inputs":[{"name":"owner","type":"address","indexed":true,"internalType":"address"},{"name":"spender","type":"address","indexed":true,"internalType":"address"},{"name":"id","type":"uint256","indexed":true,"internalType":"uint256"},{"name":"amount","type":"uint256","indexed":false,"internalType":"uint256"}],"anonymous":false},{"type":"event","name":"Deposit","inputs":[{"name":"poolId","type":"bytes32","indexed":true,"internalType":"PoolId"},{"name":"currency","type":"address","indexed":true,"internalType":"Currency"},{"name":"sender","type":"address","indexed":true,"internalType":"address"},{"name":"tokeId","type":"uint256","indexed":false,"internalType":"uint256"},{"name":"recipient","type":"address","indexed":false,"internalType":"address"},{"name":"amount","type":"uint256","indexed":false,"internalType":"uint256"},{"name":"originalAmount","type":"uint256","indexed":false,"internalType":"uint256"},{"name":"incrementRatioX112","type":"uint256","indexed":false,"internalType":"uint256"}],"anonymous":false},{"type":"event","name":"OperatorSet","inputs":[{"name":"owner","type":"address","indexed":true,"internalType":"address"},{"name":"operator","type":"address","indexed":true,"internalType":"address"},{"name":"approved","type":"bool","indexed":false,"internalType":"bool"}],"anonymous":false},{"type":"event","name":"OwnershipTransferred","inputs":[{"name":"user","type":"address","indexed":true,"internalType":"address"},{"name":"newOwner","type":"address","indexed":true,"internalType":"address"}],"anonymous":false},{"type":"event","name":"Sync","inputs":[{"name":"poolId","type":"bytes32","indexed":true,"internalType":"PoolId"},{"name":"id0","type":"uint256","indexed":false,"internalType":"uint256"},{"name":"reserve0","type":"uint256","indexed":false,"internalType":"uint256"},{"name":"total0","type":"uint256","indexed":false,"internalType":"uint256"},{"name":"deviation0","type":"int256","indexed":false,"internalType":"int256"},{"name":"id1","type":"uint256","indexed":false,"internalType":"uint256"},{"name":"reserve1","type":"uint256","indexed":false,"internalType":"uint256"},{"name":"total1","type":"uint256","indexed":false,"internalType":"uint256"},{"name":"deviation1","type":"int256","indexed":false,"internalType":"int256"}],"anonymous":false},{"type":"event","name":"Transfer","inputs":[{"name":"caller","type":"address","indexed":false,"internalType":"address"},{"name":"from","type":"address","indexed":true,"internalType":"address"},{"name":"to","type":"address","indexed":true,"internalType":"address"},{"name":"id","type":"uint256","indexed":true,"internalType":"uint256"},{"name":"amount","type":"uint256","indexed":false,"internalType":"uint256"}],"anonymous":false},{"type":"event","name":"UpdateInterestRatio","inputs":[{"name":"id","type":"uint256","indexed":true,"internalType":"uint256"},{"name":"totalSupply","type":"uint256","indexed":false,"internalType":"uint256"},{"name":"interest","type":"int256","indexed":false,"internalType":"int256"},{"name":"incrementRatioX112Old","type":"uint256","indexed":false,"internalType":"uint256"},{"name":"incrementRatioX112New","type":"uint256","indexed":false,"internalType":"uint256"}],"anonymous":false},{"type":"event","name":"Withdraw","inputs":[{"name":"poolId","type":"bytes32","indexed":true,"internalType":"PoolId"},{"name":"currency","type":"address","indexed":true,"internalType":"Currency"},{"name":"sender","type":"address","indexed":true,"internalType":"address"},{"name":"tokeId","type":"uint256","indexed":false,"internalType":"uint256"},{"name":"recipient","type":"address","indexed":false,"internalType":"address"},{"name":"amount","type":"uint256","indexed":false,"internalType":"uint256"},{"name":"originalAmount","type":"uint256","indexed":false,"internalType":"uint256"},{"name":"incrementRatioX112","type":"uint256","indexed":false,"internalType":"uint256"}],"anonymous":false},{"type":"error","name":"ErrorReceiver","inputs":[]},{"type":"error","name":"InsufficientFunds","inputs":[]},{"type":"error","name":"InsufficientValue","inputs":[]},{"type":"error","name":"LockFailure","inputs":[]},{"type":"error","name":"MathOverflowedMulDiv","inputs":[]},{"type":"error","name":"NotPoolManager","inputs":[]},{"type":"error","name":"NotSelf","inputs":[]},{"type":"error","name":"SafeERC20FailedOperation","inputs":[{"name":"token","type":"address","internalType":"address"}]}],"bytecode":{"object":"0x60c03461015a57601f613c6b38819003918201601f19168301916001600160401b0383118484101761015e5780849260609460405283398101031261015a5780516001600160a01b038116919082900361015a576020810151906001600160a01b038216820361015a5760400151906001600160a01b038216820361015a576080525f80546001600160a01b0319168317815560405192907f8be0079c531659141344cd1fd0a4f28419497f9722a3daafe3b4186f6b6457e08180a360a052613af8908161017382396080518181816106c901528181610741015281816108c401528181610be201528181610d0701528181610eb0015281816113770152818161177201528181611999015281816121720152818161230a0152818161313c0152613327015260a0518181816101d001528181610942015281816114a0015281816115c8015281816117030152818161223e0152612e9a0152f35b5f80fd5b634e487b7160e01b5f52604160045260245ffdfe60806040526004361015610011575f80fd5b5f803560e01c8062fdd58e1461249d57806301ffc9a714612447578063095bcdb6146123935780630bbc0f5714611ead57806317fe63e214611e33578063426a849314611da45780634db4f77c14611d60578063558a729714611cce5780635740b3de146118a9578063598af9e71461185757806365ec47c7146116685780636aa085231461155c5780636cf95b29146114f05780636d79a4e81461142e578063708c2cd11461141657806372a6b5df146113025780637712b2d8146112d857806377b6da3514610fb9578063828ba38b14610f345780638da5cb5b14610f0d57806391dd734614610e5e57806396894c9314610c67578063a43eec8714610b6f578063b6363cf214610b17578063b676c9e814610ad2578063ba4043db14610a94578063bac59f3814610a6a578063bc37857d14610a41578063bd85b03914610a19578063c3edb7ff146107fb578063c495af6014610770578063dc4c90d31461072b578063e02c76791461065e578063f21ce75f14610610578063f2fde38b1461059d578063f4a1eb3a14610383578063fe99049a146102025763ffcd9d16146101bb575f80fd5b346101ff57806003193601126101ff576040517f00000000000000000000000000000000000000000000000000000000000000006001600160a01b03168152602090f35b80fd5b50346101ff5760803660031901126101ff5761021c6124c4565b6102246124da565b604435926001600160a01b039091169160643590308414610374575f80516020613a83833981519152916102dc9186855260046020526102c2604061026c81882054856137a0565b6001600160a01b03909316963388141580610352575b6102ea575b87815260026020528181208a82526020528181206102a68582546128c2565b905588815260026020528181208a8252602052209182546128e3565b905560408051338152602081019290925290918291820190565b0390a4602060405160018152f35b87815260036020908152828220335f9081529082528390208b8352905281812054846001820161031c575b5050610287565b610325916128c2565b888252600360205282822060018060a01b0333165f52602052825f208b8352602052828220555f84610315565b5087815260016020908152828220335f90815291528290205460ff1615610282565b631d8fcadd60e21b8352600483fd5b50346101ff576102803660031901126101ff576004356103a236612589565b600654604051637436595f60e11b8152906001600160a01b0316602082600481845afa8015610592576103f0928691610563575b506001600160a01b03163314908115610559575b506128f0565b6101c0810180515161040c9084906001600160a01b03166131a6565b91610417833061288a565b6001600160701b036104378160c085015116826101008601511690613780565b169286841261054a5786821261054a578561047691610456848761318e565b878a52600560205260408a2055602060018060a01b0391510151166131a6565b6001600160701b036104a161048b833061288a565b94826101208160e0840151169201511690613780565b169187831261053b5787841261053b5791839161010095936104e57f60464ec40e1d5db2604a1eaf635c2cd83c932d71632f9e12f53c32df63f3fe7b98968461318e565b828b52600560205260408b2055858a52600560205260408a205490828b52600560205260408b205495604051978852602088015260408701526060860152608085015260a084015260c083015260e0820152a280f35b6393dafdf160e01b8852600488fd5b6393dafdf160e01b8752600487fd5b905033145f6103ea565b610585915060203d60201161058b575b61057d8183612567565b81019061296f565b5f6103d6565b503d610573565b6040513d87823e3d90fd5b50346101ff5760203660031901126101ff576105b76124c4565b8154906105ce336001600160a01b038416146128f0565b6001600160a01b03166001600160a01b03199190911681178255337f8be0079c531659141344cd1fd0a4f28419497f9722a3daafe3b4186f6b6457e08380a380f35b50346101ff5760209061062236612836565b91839183610635575b8585604051908152f35b610655945060409291610647916131a6565b815260048552205490613853565b5f80808061062b565b506106c48161066c36612836565b90604051926365ec47c760e01b6020850152336024850152604484015260018060a01b031660648301526084820152608481526106aa60a482612567565b604051809381926348c8949160e01b835260048301612860565b0381837f00000000000000000000000000000000000000000000000000000000000000006001600160a01b03165af1801561072057610701575080f35b61071c903d8084833e6107148183612567565b81019061309b565b5080f35b6040513d84823e3d90fd5b50346101ff57806003193601126101ff576040517f00000000000000000000000000000000000000000000000000000000000000006001600160a01b03168152602090f35b50346101ff5760403660031901126101ff57600435602435908083526004602052604083205492600183116107c0575b50505080156107b5575b602090604051908152f35b50600160701b6107aa565b83156107a05760409130825260026020528282209082526020522054908082116107eb575b806107a0565b6107f49261374b565b5f806107e5565b50346101ff576102c03660031901126101ff5761081736612589565b610284356001600160a01b03811691828203610a15576102a43561084660018060a01b036006541633146128f0565b6101c0820151805186939186916001600160a01b031682036109e757505060c001516001600160701b031691505b808210156109df5750915b82610890575b602083604051908152f35b6040516304ade6db60e11b815233600482015260248101919091526044810183905290602082606481876001600160a01b037f0000000000000000000000000000000000000000000000000000000000000000165af19182156109d457610908602092859261093d956109b9575b50600435906131a6565b604051637f4c824d60e11b81523360048201523060248201526044810191909152606481019190915291829081906084820190565b0381867f00000000000000000000000000000000000000000000000000000000000000006001600160a01b03165af180156109ae5760209350610981575b80610885565b6109a090833d85116109a7575b6109988183612567565b81019061292b565b505f61097b565b503d61098e565b6040513d85823e3d90fd5b6109cf90853d87116109a7576109988183612567565b6108fe565b6040513d86823e3d90fd5b90509161087f565b602001516001600160a01b031614610a00575b50610874565b60e001516001600160701b031691505f6109fa565b8380fd5b50346101ff5760203660031901126101ff576020610a396004353061288a565b604051908152f35b50346101ff57806003193601126101ff576006546040516001600160a01b039091168152602090f35b50346101ff5760203660031901126101ff5760406020916004358152600483522054604051908152f35b50346101ff5760403660031901126101ff57610acf610ab16124c4565b610ac660018060a01b036006541633146128f0565b602435906130fe565b80f35b50346101ff576040602091610ae6366127be565b6001600160a01b03928316845260038652848420919092165f90815290855283902090825283522054604051908152f35b50346101ff5760403660031901126101ff576040610b336124c4565b91610b3c6124da565b9260018060a01b031681526001602052209060018060a01b03165f52602052602060ff60405f2054166040519015158152f35b50346101ff57610bdd81610bcf6106aa610b88366127f8565b604051632ba059ef60e11b60208201523360248201526001600160a01b03948516604482015260648101939093529216608482015260a481019190915291829060c4820190565b03601f198101835282612567565b0381837f00000000000000000000000000000000000000000000000000000000000000006001600160a01b03165af1918215610c5b578092610c40575b505060208151918180820193849201010312610c3c5760209051604051908152f35b5f80fd5b610c5492503d8091833e6107148183612567565b5f80610c1a565b604051903d90823e3d90fd5b50346101ff57610c763661276c565b919092303303610e4f57600654604051637436595f60e11b815290602090829060049082906001600160a01b03165afa908115610e44578791610e25575b50604051632bc5fd8560e01b81526001600160a01b03878116600483015260248201859052919091169590610260816044818b8b5af18015610e1a57610ded575b50610d0083866131a6565b93610d3a817f0000000000000000000000000000000000000000000000000000000000000000610d328286838c613416565b309089613594565b87610d47828786866135f9565b97803b15610de9578190602460405180948193638b14724560e01b83528a60048401525af18015610dde57610dc5575b5090610dba5f80516020613aa383398151915293928860408b8960209d5260048d5220549160405195869560018060a01b03169a60018060a01b03169986612943565b0390a4604051908152f35b610dd0898092612567565b610dda575f610d77565b8780fd5b6040513d8b823e3d90fd5b5080fd5b610e0e906102603d8111610e13575b610e068183612567565b8101906129c6565b610cf5565b503d610dfc565b6040513d8a823e3d90fd5b610e3e915060203d60201161058b5761057d8183612567565b5f610cb4565b6040513d89823e3d90fd5b6314e1dbf760e11b8652600486fd5b50346101ff5760203660031901126101ff5760043567ffffffffffffffff8111610de95736602382011215610de95780600401359167ffffffffffffffff83116101ff5736602484840101116101ff577f00000000000000000000000000000000000000000000000000000000000000006001600160a01b03163303610efe57610efa610eee84602485016139e5565b60405191829182612860565b0390f35b63570c108560e11b8152600490fd5b50346101ff57806003193601126101ff57546040516001600160a01b039091168152602090f35b50346101ff57610f43366127f8565b9260018060a09493941b0360065416604051637436595f60e11b8152602081600481855afa908115610e445791610f9d91610a39979695949360209991610fa257506001600160a01b0316331490811561055957506128f0565b612e82565b6105859150893d8b1161058b5761057d8183612567565b50346101ff57610fc836612836565b918392610fd582846131a6565b6006546040516302ef145760e51b8152600481018590526001600160a01b039091169491929161026082602481895afa918215610e1a5788926112b7575b506101c0820151602001516001600160a01b03918216911614801561128b576110586001600160701b036080840151166001600160701b036101208501511690613780565b955b6040516313ac42a760e01b815295602087600481855afa968715611263576102a4976020918c9161126e575b5060405198898092634892ce6160e01b82528660048301526110ab602483018a612b54565b87156102848301526001600160a01b03165afa968715611263578a9761122f575b5060405163fb6b0e6760e01b8152602081600481865afa908115611224578b916111dd575b506040926102a49161112185519788958694633a43e9f760e01b8652600486015260248501526044840190612b54565b6001600160a01b03165afa978815610c5b578092819961119f575b506020986111649361116996959361115e93505f146111975750935b3061288a565b926128e3565b6128e3565b918261117b575b505050604051908152f35b61118f93506001600160701b031690613930565b5f8080611170565b905093611158565b925097506040823d6040116111d5575b816111bc60409383612567565b81010312610dda5781516020909201519761115e61113c565b3d91506111af565b90506020813d60201161121c575b816111f860209383612567565b8101031261121857516001600160a01b03811681036112185760406110f1565b8a80fd5b3d91506111eb565b6040513d8d823e3d90fd5b9096506020813d60201161125b575b8161124b60209383612567565b81010312610c3c5751955f6110cc565b3d915061123e565b6040513d8c823e3d90fd5b6112859150823d841161058b5761057d8183612567565b5f611086565b6112b16001600160701b036060840151166001600160701b036101008501511690613780565b9561105a565b6112d19192506102603d8111610e1357610e068183612567565b905f611013565b50346101ff5760203660031901126101ff5760406020916004358152600583522054604051908152f35b50346101ff576113113661276c565b92909361132960018060a01b036006541633146128f0565b61133383866131a6565b604051637f4c824d60e11b81523360048201523060248201526001600160a01b0390961660448701819052606487018690529095909490602081806084810103818b7f00000000000000000000000000000000000000000000000000000000000000006001600160a01b03165af18015610e1a5760409796959492895f80516020613aa38339815191529593610dba9360209c506113fb575b506113d9828a87876135f9565b99818a8c935260048d5220549160405195869560018060a01b03169a86612943565b611411908c3d8e116109a7576109988183612567565b6113cc565b6020610a39611424366127f8565b92919091336132bd565b50346101ff5760203660031901126101ff576004356001600160a01b03811690819003610de95761146960018060a01b0383541633146128f0565b600680546001600160a01b0319168217905560405163558a729760e01b8152600481019190915260016024820152602081604481857f00000000000000000000000000000000000000000000000000000000000000006001600160a01b03165af18015610720576114d8575080f35b61071c9060203d6020116109a7576109988183612567565b50346101ff5760403660031901126101ff57600654604051637436595f60e11b8152906001600160a01b0316602082600481845afa80156109ae5761154e92849161056357506001600160a01b0316331490811561055957506128f0565b610acf602435600435612cd2565b50346101ff5761156b3661276c565b92909361158360018060a01b036006541633146128f0565b61158d83866131a6565b604051637f4c824d60e11b815233600482015230602482015260448101829052606481018690529094906020816084818b6001600160a01b037f0000000000000000000000000000000000000000000000000000000000000000165af18015610e1a5760409796959492895f80516020613aa38339815191529593610dba9360209c5061164d575b50611622828987876135f9565b9981898c935260048d5220549160405195869560018060a01b03169a60018060a01b03169986612943565b611663908c3d8e116109a7576109988183612567565b611615565b50346101ff57611677366127f8565b93929190913033036118485783946004602060018060a01b036006541660405192838092637436595f60e11b82525afa90811561183d57869161181e575b50604051632bc5fd8560e01b81526001600160a01b03848116600483015260248201869052919091169490610260816044818a8a5af18015610e4457611801575b5061170184826131a6565b7f00000000000000000000000000000000000000000000000000000000000000006001600160a01b031690813b15610dda57879160448392604051948593849263b390c0ab60e01b845260048401528860248401525af1908115610e445787916117e8575b50506117a092611799837f0000000000000000000000000000000000000000000000000000000000000000928385613416565b3091613594565b813b156117e4578291602483926040519485938492638b14724560e01b845260048401525af18015610720576117d35750f35b816117dd91612567565b6101ff5780f35b5050fd5b816117f291612567565b6117fd57855f611766565b8580fd5b611819906102603d8111610e1357610e068183612567565b6116f6565b611837915060203d60201161058b5761057d8183612567565b5f6116b5565b6040513d88823e3d90fd5b6314e1dbf760e11b8452600484fd5b50346101ff57610a39602091604061186e366127be565b6001600160a01b03928316855260038752838520919092165f9081529086528290208184528552818320549083526004855291205490613853565b5034610c3c576118b83661276c565b94939294303303611cbf57600654604051637436595f60e11b815290602090829060049082906001600160a01b03165afa908115611b3d575f91611ca0575b50604051632bc5fd8560e01b81526001600160a01b03868116600483015260248201869052909591169290610260866044815f885af1958615611b3d575f96611c7f575b5061194685836131a6565b92611951848361288a565b9080821015611c7857505b6101c0870151516001600160a01b0393841693168314968715611c64576001600160701b038060c0830151165b16918098818410611b48575b50507f00000000000000000000000000000000000000000000000000000000000000006001600160a01b031692915050813b15610c3c57604051637a94c56560e11b81523060048201526024810184905260448101889052985f8a60648183875af18015611b3d57611b25575b88809a50979850823b15610dda57604051630b0d9c0960e01b8152600481018590526001600160a01b0382166024820152604481018a90529288908490606490829084905af1918215610e1a57888893611b06575b507f9ddc47990e3270c30098ea90f00986a107147a5e38146b80a3281a629ac41b7c929350611ab0611a8b8b8884806131d6565b9a878b5260046020528b60408c20549160405195869560018060a01b03169a86612943565b0390a4803b15611b0257602483926040519485938492638b14724560e01b845260048401525af180156109ae57611aed575b602082604051908152f35b611af8838092612567565b610de95781611ae2565b8280fd5b611b14919350809294612567565b611b215781869188611a57565b8680fd5b969750975f611b3391612567565b5f96958890611a02565b6040513d5f823e3d90fd5b611bb39293949950906020915f14611c4b57611b76856001600160701b0380610100880151165b16926128c2565b9080821015611c435750925b6102c4895f60018060a01b0360065416604051968795869463c3edb7ff60e01b865260048601526024850190612b54565b89610284840152876102a48401525af1908115611b3d575f91611c24575b5015611bea57611be0916128e3565b945f808080611995565b60405162461bcd60e51b81526020600482015260126024820152714e4f545f454e4f5547485f5245534552564560701b6044820152606490fd5b611c3d915060203d6020116109a7576109988183612567565b5f611bd1565b905092611b82565b611b76856001600160701b038061012088015116611b6f565b6001600160701b038060e083015116611989565b905061195c565b611c999196506102603d8111610e1357610e068183612567565b945f61193b565b611cb9915060203d60201161058b5761057d8183612567565b5f6118f7565b6314e1dbf760e11b5f5260045ffd5b34610c3c576040366003190112610c3c57611ce76124c4565b60243590811515809203610c3c57335f52600160205260405f2060018060a01b0382165f5260205260405f2060ff1981541660ff841617905560405191825260018060a01b0316907fceb576d9f15e4e200fdb5096d64d5dfd667e16def20c1eefd14256d8e3faa26760203392a3602060405160018152f35b34610c3c576040366003190112610c3c576001600160a01b03611d816124c4565b165f52600260205260405f206024355f52602052602060405f2054604051908152f35b34610c3c57611db2366124f0565b9091825f526004602052611dca60405f2054836137a0565b335f52600360205260405f2060018060a01b0383165f5260205260405f20845f5260205260405f205560405191825260018060a01b0316907fb3fd5071835887567a0671151121894ddccc2842f1d10bedad13e0d17cace9a760203392a4602060405160018152f35b6024611e3e3661276c565b600654604051636c69195160e11b81523360048201529691949293929160209188919082906001600160a01b03165afa948515611b3d57611e8b610a39966020985f91611e9057506128f0565b6132bd565b611ea79150893d8b116109a7576109988183612567565b896103ea565b34610c3c57610300366003190112610c3c57611ec76124c4565b611ecf6124da565b604435610260366063190112610c3c5760405192611eec8461251a565b60643563ffffffff81168103610c3c5784526084356001600160701b0381168103610c3c57602085015260a4356001600160701b0381168103610c3c57604085015260c4356001600160701b0381168103610c3c57606085015260e4356001600160701b0381168103610c3c5760808501526101043562ffffff81168103610c3c5760a085015261012435926001600160701b0384168403610c3c5760c0850193845261014435916001600160701b0383168303610c3c5760e08601928352610164356001600160701b0381168103610c3c57610100870152610184356001600160701b0381168103610c3c576101208701526101a4356001600160701b0381168103610c3c576101408701526101c4356001600160701b0381168103610c3c576101608701526101e435610180870152610204356101a087015260a036610223190112610c3c57604051956120418761254b565b610224356001600160a01b0381168103610c3c578752610244356001600160a01b0381168103610c3c5760208801526102643562ffffff81168103610c3c576040880152610284358060020b8103610c3c5760608801526102a435906001600160a01b0382168203610c3c5760808801919091526101c0019586526102c435956001600160a01b03871695868803610c3c576120f6866102e435996120f160018060a01b036006541633146128f0565b6131a6565b97612101898661288a565b908082101561238b5750945b915180515f939189916001600160a01b0316820361235b575050506001600160701b03915051165b8390808211156122d6576040516304ade6db60e11b81523360048201526024810188905260448101829052916020836064815f6001600160a01b037f0000000000000000000000000000000000000000000000000000000000000000165af1928315611b3d576121aa936122b9575b506128c2565b8061220a575b50612205836121e27f9ddc47990e3270c30098ea90f00986a107147a5e38146b80a3281a629ac41b7c958986866131d6565b885f52600460205260405f20549160405195869560018060a01b03169a86612943565b0390a4005b6040516304ade6db60e11b8152336004820152602481018890526044810191909152926020846064815f6001600160a01b037f0000000000000000000000000000000000000000000000000000000000000000165af1908115611b3d577f9ddc47990e3270c30098ea90f00986a107147a5e38146b80a3281a629ac41b7c946122059261229a575b5093506121b0565b6122b29060203d6020116109a7576109988183612567565b5088612292565b6122d19060203d6020116109a7576109988183612567565b6121a4565b50506040516304ade6db60e11b815233600482015260248101869052604481018490526020816064815f6001600160a01b037f0000000000000000000000000000000000000000000000000000000000000000165af18015611b3d5761233e575b505f6121aa565b6123569060203d6020116109a7576109988183612567565b612337565b602001519192506001600160a01b0390911614612379575b50612135565b6001600160701b039150511687612373565b90509461210d565b34610c3c576123a1366124f0565b90916001600160a01b03169030821461243857825f5260046020526123ca60405f2054826137a0565b335f52600260205260405f20845f5260205260405f206123eb8282546128c2565b9055825f52600260205260405f20845f5260205261240e60405f209182546128e3565b9055604080513380825260208201939093525f80516020613a8383398151915291819081016102dc565b631d8fcadd60e21b5f5260045ffd5b34610c3c576020366003190112610c3c5760043563ffffffff60e01b8116809103610c3c576020906301ffc9a760e01b811490811561248c575b506040519015158152f35b630f632fb360e01b14905082612481565b34610c3c576040366003190112610c3c576020610a396124bb6124c4565b6024359061288a565b600435906001600160a01b0382168203610c3c57565b602435906001600160a01b0382168203610c3c57565b6060906003190112610c3c576004356001600160a01b0381168103610c3c57906024359060443590565b6101e0810190811067ffffffffffffffff82111761253757604052565b634e487b7160e01b5f52604160045260245ffd5b60a0810190811067ffffffffffffffff82111761253757604052565b90601f8019910116810190811067ffffffffffffffff82111761253757604052565b90610260602319830112610c3c576040516125a38161251a565b809260243563ffffffff81168103610c3c5782526044356001600160701b0381168103610c3c5760208301526064356001600160701b0381168103610c3c5760408301526084356001600160701b0381168103610c3c57606083015260a4356001600160701b0381168103610c3c57608083015260c43562ffffff81168103610c3c5760a083015260e4356001600160701b0381168103610c3c5760c0830152610104356001600160701b0381168103610c3c5760e0830152610124356001600160701b0381168103610c3c57610100830152610144356001600160701b0381168103610c3c57610120830152610164356001600160701b0381168103610c3c5761014083015261018435906001600160701b0382168203610c3c5760a0916101608401526101a4356101808401526101c4356101a08401526101e3190112610c3c57604051906126f38261254b565b6101e4356001600160a01b0381168103610c3c578252610204356001600160a01b0381168103610c3c5760208301526102243562ffffff81168103610c3c576040830152610244358060020b8103610c3c57606083015261026435906001600160a01b0382168203610c3c576101c09160808401520152565b60a0906003190112610c3c576004356001600160a01b0381168103610c3c57906024356001600160a01b0381168103610c3c5790604435906064356001600160a01b0381168103610c3c579060843590565b6060906003190112610c3c576004356001600160a01b0381168103610c3c57906024356001600160a01b0381168103610c3c579060443590565b6080906003190112610c3c576004356001600160a01b0381168103610c3c5790602435906044356001600160a01b0381168103610c3c579060643590565b6060906003190112610c3c57600435906024356001600160a01b0381168103610c3c579060443590565b602060409281835280519182918282860152018484015e5f828201840152601f01601f1916010190565b6001600160a01b03165f908152600260209081526040808320938352928152828220546004909152919020546128bf91613853565b90565b919082039182116128cf57565b634e487b7160e01b5f52601160045260245ffd5b919082018092116128cf57565b156128f757565b60405162461bcd60e51b815260206004820152600c60248201526b15539055551213d49256915160a21b6044820152606490fd5b90816020910312610c3c57518015158103610c3c5790565b9192608093969594919660a0840197845260018060a01b03166020840152604083015260608201520152565b90816020910312610c3c57516001600160a01b0381168103610c3c5790565b51906001600160701b0382168203610c3c57565b519062ffffff82168203610c3c57565b51906001600160a01b0382168203610c3c57565b809103906102608212610c3c57604051916129e08361251a565b81519063ffffffff82168203610c3c5760a0918452612a016020840161298e565b6020850152612a126040840161298e565b6040850152612a236060840161298e565b6060850152612a346080840161298e565b6080850152612a448284016129a2565b82850152612a5460c0840161298e565b60c0850152612a6560e0840161298e565b60e0850152612a77610100840161298e565b610100850152612a8a610120840161298e565b610120850152612a9d610140840161298e565b610140850152612ab0610160840161298e565b6101608501526101808301516101808501526101a08301516101a08501526101bf190112610c3c5760405190612ae58261254b565b612af26101c082016129b2565b8252612b016101e082016129b2565b6020830152612b1361020082016129a2565b6040830152610220810151908160020b8203610c3c57606083019190915261024001516001600160a01b0381168103610c3c5760808201526101c082015290565b6101c06102409163ffffffff81511684526001600160701b0360208201511660208501526001600160701b0360408201511660408501526001600160701b0360608201511660608501526001600160701b03608082015116608085015262ffffff60a08201511660a08501526001600160701b0360c08201511660c08501526001600160701b0360e08201511660e08501526001600160701b03610100820151166101008501526001600160701b03610120820151166101208501526001600160701b03610140820151166101408501526001600160701b03610160820151166101608501526101808101516101808501526101a08101516101a0850152015160018060a01b038151166101c084015260018060a01b036020820151166101e084015262ffffff604082015116610200840152606081015160020b610220840152608060018060a01b0391015116910152565b9190915f83820193841291129080158216911516176128cf57565b600160ff1b81146128cf575f0390565b908015612e6f57305f52600260205260405f20825f5260205260405f2054908115612e3b57825f52600460205260405f205490612d0f8284613853565b915f821315612d71579081612d497f777a68296a415d85d299a912648730f0f6736b715a0c106f8ecb60473711201495836080969561374b565b915b865f5260046020528260405f2055604051938452602084015260408301526060820152a2565b612d7a82612cc2565b819481151580612e33575b612db9575b505090608092917f777a68296a415d85d299a912648730f0f6736b715a0c106f8ecb6047371120149491612d4b565b612dc381836138ae565b91600160701b09612e1b575b7f777a68296a415d85d299a912648730f0f6736b715a0c106f8ecb6047371120149460809493929180831115612e1357612e08916128c2565b948192939450612d8a565b50505f612e08565b929190600184018094116128cf579192909190612dcf565b506001612d85565b9190505f821315612e60575f526005602052612e5c60405f20918254612ca7565b9055565b63356680b760e01b5f5260045ffd5b5050565b90816020910312610c3c575190565b9392905f94821561307657612e9782856131a6565b927f00000000000000000000000000000000000000000000000000000000000000006001600160a01b0316803b15610c3c57604051632748c5c760e01b81523060048201526024810186905260448101839052905f908290606490829084905af18015611b3d57613061575b506006546040516313ac42a760e01b815290602090829060049082906001600160a01b03165afa908115610e1a57889160209160049a91613044575b50604051622fcfcb60e31b8152998a9182906001600160a01b03165afa978815613037578198612fe5575b506040975f80516020613aa383398151915293909290916001600160a01b03841615612fd3575b90612fce91612fa2828987336135f9565b9a81898d9352600460205220549160405195869560018060a01b03169a60018060a01b03169986612943565b0390a4565b80546001600160a01b03169350612f91565b9097506020813d60201161302f575b8161300160209383612567565b81010312610dda5791604097916130255f80516020613aa3833981519152946129b2565b9850919092612f6a565b3d9150612ff4565b50604051903d90823e3d90fd5b61305b9150823d841161058b5761057d8183612567565b5f612f3f565b61306e9197505f90612567565b5f955f612f03565b505f9450505050565b67ffffffffffffffff811161253757601f01601f191660200190565b602081830312610c3c5780519067ffffffffffffffff8211610c3c570181601f82011215610c3c578051906130cf8261307f565b926130dd6040519485612567565b82845260208383010111610c3c57815f9260208093018386015e8301015290565b8115612e6f576040516304ade6db60e11b81523360048201526001600160a01b0390911660248201526044810191909152602081806064810103815f7f00000000000000000000000000000000000000000000000000000000000000006001600160a01b03165af18015611b3d576131735750565b61318b9060203d6020116109a7576109988183612567565b50565b81810392915f1380158285131691841216176128cf57565b604080516001600160a01b03909216602083019081528282019390935281526131d0606082612567565b51902090565b9392905f80516020613a838339815191525f92848452600460205260408420549260018060a01b031692838552600260205260408520868652602052604085205490826132238284613853565b808214881461329a57505050965b838552600260205260408520868652602052604085206132528982546128c2565b9055308552600260205260408520868652602052604085206132758982546128c2565b9055604080516001600160a01b03909216825260208201929092529081908101612fce565b916132ac6132b1926132b795946128c2565b6137a0565b906128c2565b96613231565b5f959490936001600160a01b038116156133f4575b6040516396894c9360e01b60208201526001600160a01b03868116602483015293841660448201526064810194909452909116608483015260a4820152613322905f906106aa8160c48101610bcf565b0381837f00000000000000000000000000000000000000000000000000000000000000006001600160a01b03165af1908115611b3d575f916133da575b5060208151918180820193849201010312610c3c575192803411613381575050565b5f8080936133908294346128c2565b905af161339b6139b6565b50156133a357565b60405162461bcd60e51b815260206004820152600f60248201526e1514905394d1915497d19052531151608a1b6044820152606490fd5b6133ee91503d805f833e6107148183612567565b5f61335f565b95509182341061340757919485906132d2565b63044044a560e21b5f5260045ffd5b6001600160a01b03169291836134805750604051630476982d60e21b81529250602091839160049183916001600160a01b03165af18015611b3d576134585750565b61318b9060203d602011613479575b6134718183612567565b810190612e73565b503d613467565b916001600160a01b0390911690813b15610c3c57604051632961046560e21b815260048101859052925a935f816024818388819af18015611b3d57613579575b509293849360209392916001600160a01b03909116903082146135395761351592604051926323b872dd60e01b878501526024840152846044840152606483015260648252613510608483612567565b613a2a565b600460405180958193630476982d60e21b83525af1908115610c5b57506134585750565b60405163a9059cbb60e01b868201526001600160a01b0385166024820152604480820194909452928352613574929150613510606483612567565b613515565b602093929194505f61358a91612567565b5f939091926134c0565b9192906001600160a01b0316803b15610c3c57604051630ab714fb60e11b81526001600160a01b0394851660048201529290931660248301526044820152905f908290606490829084905af18015611b3d576135ed5750565b5f6135f791612567565b565b93926001600160a01b039091169030821461243857825f52600560205260405f20545f81135f146136cb5761363d5f80516020613a83833981519152915f936128e3565b84835260056020528260408120555b84835260046020526040832054801584146136bb57508483526004602052600160701b604084205580965b848452600260205260408420868552602052604084206136988982546128e3565b9055308452600260205260408420868552602052604084206132758982546128e3565b6136c590826137a0565b96613677565b5f81126136e9575b505f80516020613a838339815191525f9161364c565b6136f281612cc2565b82111561372a576137155f926132b15f80516020613a8383398151915293612cc2565b848352600560205282604081205591506136d3565b50929350505f52600560205261374560405f20918254612ca7565b90555f90565b9291839180151580613777575b61376157505050565b6128bf93945090613771916138ae565b906128e3565b50811515613758565b906001600160701b03809116911601906001600160701b0382116128cf57565b90607082901b905f19600160701b8409928280851094039380850394146138325783821115613823578190600160701b9009815f0382168092046002816003021880820260020302808202600203028082026002030280820260020302808202600203028091026002030293600183805f03040190848311900302920304170290565b63227bc15360e01b5f5260045ffd5b508092501561383f570490565b634e487b7160e01b5f52601260045260245ffd5b5f90828102925f19818309928480851094039380850394146138a457600160701b8410156138955750600160701b910990828211900360901b910360701c1790565b63227bc15360e01b8152600490fd5b5050505060701c90565b90607082901b905f1983600160701b09928280851094039380850394146138325783821115613823578190600160701b09815f0382168092046002816003021880820260020302808202600203028082026002030280820260020302808202600203028091026002030293600183805f03040190848311900302920304170290565b9091828202915f19848209938380861095039480860395146139a8578483111561382357829109815f0382168092046002816003021880820260020302808202600203028082026002030280820260020302808202600203028091026002030293600183805f03040190848311900302920304170290565b50508092501561383f570490565b3d156139e0573d906139c78261307f565b916139d56040519384612567565b82523d5f602084013e565b606090565b5f9182918160405192839283378101838152039082305af190613a066139b6565b916135f75750805115613a1b57602081519101fd5b6314815f4760e31b5f5260045ffd5b905f602091828151910182855af115611b3d575f513d613a7957506001600160a01b0381163b155b613a595750565b635274afe760e01b5f9081526001600160a01b0391909116600452602490fd5b60011415613a5256fe1b3d7edb2e9c0b0e7c525b20aaaef0f5940d2ed71663c7d39266ecafac7288593f18ea28db54e7eb32956bbe590e5c33360b8394b251ad9982947d1f860882d3a264697066735822122005d9c3e62552fdd667c5e26ce9549360c5432b3953701e087a8d1aacdd4faaf364736f6c634300081a0033","linkReferences":{}},"methodIdentifiers":{"accruesRatioX112Of(uint256)":"bac59f38","allowance(address,address,uint256)":"598af9e7","allowanceOriginal(address,address,uint256)":"b676c9e8","approve(address,uint256,uint256)":"426a8493","balanceAccounts(address,uint256)":"ba4043db","balanceMirror(bytes32,address,uint256)":"e02c7679","balanceOf(address,uint256)":"00fdd58e","balanceOriginal(address,uint256)":"4db4f77c","computeRealAmount(bytes32,address,uint256)":"f21ce75f","deposit(address,address,bytes32,address,uint256)":"17fe63e2","deposit(address,bytes32,address,uint256)":"708c2cd1","deviationOf(uint256)":"7712b2d8","getGrownRatioX112(uint256,uint256)":"c495af60","getLendingAPR(bytes32,address,uint256)":"77b6da35","handleBalanceMirror(address,bytes32,address,uint256)":"65ec47c7","handleDeposit(address,address,bytes32,address,uint256)":"96894c93","handleWithdraw(address,address,bytes32,address,uint256)":"5740b3de","isOperator(address,address)":"b6363cf2","mirrorIn(address,address,bytes32,address,uint256)":"6aa08523","mirrorInRealOut(bytes32,(uint32,uint112,uint112,uint112,uint112,uint24,uint112,uint112,uint112,uint112,uint112,uint112,uint256,uint256,(address,address,uint24,int24,address)),address,uint256)":"c3edb7ff","mirrorTokenManager()":"ffcd9d16","owner()":"8da5cb5b","pairPoolManager()":"bc37857d","poolManager()":"dc4c90d3","realIn(address,address,bytes32,address,uint256)":"72a6b5df","reserveOut(address,address,bytes32,(uint32,uint112,uint112,uint112,uint112,uint24,uint112,uint112,uint112,uint112,uint112,uint112,uint256,uint256,(address,address,uint24,int24,address)),address,uint256)":"0bbc0f57","setOperator(address,bool)":"558a7297","setPairPoolManger(address)":"6d79a4e8","supportsInterface(bytes4)":"01ffc9a7","sync(bytes32,(uint32,uint112,uint112,uint112,uint112,uint24,uint112,uint112,uint112,uint112,uint112,uint112,uint256,uint256,(address,address,uint24,int24,address)))":"f4a1eb3a","totalSupply(uint256)":"bd85b039","transfer(address,uint256,uint256)":"095bcdb6","transferFrom(address,address,uint256,uint256)":"fe99049a","transferOwnership(address)":"f2fde38b","unlockCallback(bytes)":"91dd7346","updateInterests(uint256,int256)":"6cf95b29","updateProtocolInterests(address,bytes32,address,uint256)":"828ba38b","withdraw(address,bytes32,address,uint256)":"a43eec87"},"id":84}