{"abi":[{"type":"constructor","inputs":[{"name":"initialOwner","type":"address","internalType":"address"},{"name":"_checker","type":"address","internalType":"contract IMarginChecker"}],"stateMutability":"nonpayable"},{"type":"receive","stateMutability":"payable"},{"type":"function","name":"ONE_BILLION","inputs":[],"outputs":[{"name":"","type":"uint256","internalType":"uint256"}],"stateMutability":"view"},{"type":"function","name":"ONE_MILLION","inputs":[],"outputs":[{"name":"","type":"uint256","internalType":"uint256"}],"stateMutability":"view"},{"type":"function","name":"YEAR_SECONDS","inputs":[],"outputs":[{"name":"","type":"uint256","internalType":"uint256"}],"stateMutability":"view"},{"type":"function","name":"approve","inputs":[{"name":"to","type":"address","internalType":"address"},{"name":"tokenId","type":"uint256","internalType":"uint256"}],"outputs":[],"stateMutability":"nonpayable"},{"type":"function","name":"balanceOf","inputs":[{"name":"owner","type":"address","internalType":"address"}],"outputs":[{"name":"","type":"uint256","internalType":"uint256"}],"stateMutability":"view"},{"type":"function","name":"checker","inputs":[],"outputs":[{"name":"","type":"address","internalType":"contract IMarginChecker"}],"stateMutability":"view"},{"type":"function","name":"close","inputs":[{"name":"positionId","type":"uint256","internalType":"uint256"},{"name":"repayMillionth","type":"uint256","internalType":"uint256"},{"name":"pnlMinAmount","type":"int256","internalType":"int256"},{"name":"deadline","type":"uint256","internalType":"uint256"}],"outputs":[],"stateMutability":"payable"},{"type":"function","name":"estimatePNL","inputs":[{"name":"positionId","type":"uint256","internalType":"uint256"},{"name":"repayMillionth","type":"uint256","internalType":"uint256"}],"outputs":[{"name":"pnlAmount","type":"int256","internalType":"int256"}],"stateMutability":"view"},{"type":"function","name":"getApproved","inputs":[{"name":"tokenId","type":"uint256","internalType":"uint256"}],"outputs":[{"name":"","type":"address","internalType":"address"}],"stateMutability":"view"},{"type":"function","name":"getHook","inputs":[],"outputs":[{"name":"_hook","type":"address","internalType":"address"}],"stateMutability":"view"},{"type":"function","name":"getMarginMax","inputs":[{"name":"poolId","type":"bytes32","internalType":"PoolId"},{"name":"marginForOne","type":"bool","internalType":"bool"},{"name":"leverage","type":"uint24","internalType":"uint24"}],"outputs":[{"name":"marginMax","type":"uint256","internalType":"uint256"},{"name":"borrowAmount","type":"uint256","internalType":"uint256"}],"stateMutability":"view"},{"type":"function","name":"getMarginTotal","inputs":[{"name":"poolId","type":"bytes32","internalType":"PoolId"},{"name":"marginForOne","type":"bool","internalType":"bool"},{"name":"leverage","type":"uint24","internalType":"uint24"},{"name":"marginAmount","type":"uint256","internalType":"uint256"}],"outputs":[{"name":"marginWithoutFee","type":"uint256","internalType":"uint256"},{"name":"borrowAmount","type":"uint256","internalType":"uint256"}],"stateMutability":"view"},{"type":"function","name":"getMaxDecrease","inputs":[{"name":"positionId","type":"uint256","internalType":"uint256"}],"outputs":[{"name":"maxAmount","type":"uint256","internalType":"uint256"}],"stateMutability":"view"},{"type":"function","name":"getPosition","inputs":[{"name":"positionId","type":"uint256","internalType":"uint256"}],"outputs":[{"name":"_position","type":"tuple","internalType":"struct MarginPosition","components":[{"name":"poolId","type":"bytes32","internalType":"PoolId"},{"name":"marginForOne","type":"bool","internalType":"bool"},{"name":"marginAmount","type":"uint128","internalType":"uint128"},{"name":"marginTotal","type":"uint128","internalType":"uint128"},{"name":"borrowAmount","type":"uint128","internalType":"uint128"},{"name":"rawBorrowAmount","type":"uint128","internalType":"uint128"},{"name":"rateCumulativeLast","type":"uint256","internalType":"uint256"}]}],"stateMutability":"view"},{"type":"function","name":"getPositionId","inputs":[{"name":"poolId","type":"bytes32","internalType":"PoolId"},{"name":"marginForOne","type":"bool","internalType":"bool"},{"name":"owner","type":"address","internalType":"address"}],"outputs":[{"name":"_positionId","type":"uint256","internalType":"uint256"}],"stateMutability":"view"},{"type":"function","name":"getPositions","inputs":[{"name":"positionIds","type":"uint256[]","internalType":"uint256[]"}],"outputs":[{"name":"_position","type":"tuple[]","internalType":"struct MarginPositionVo[]","components":[{"name":"position","type":"tuple","internalType":"struct MarginPosition","components":[{"name":"poolId","type":"bytes32","internalType":"PoolId"},{"name":"marginForOne","type":"bool","internalType":"bool"},{"name":"marginAmount","type":"uint128","internalType":"uint128"},{"name":"marginTotal","type":"uint128","internalType":"uint128"},{"name":"borrowAmount","type":"uint128","internalType":"uint128"},{"name":"rawBorrowAmount","type":"uint128","internalType":"uint128"},{"name":"rateCumulativeLast","type":"uint256","internalType":"uint256"}]},{"name":"pnl","type":"int256","internalType":"int256"}]}],"stateMutability":"view"},{"type":"function","name":"isApprovedForAll","inputs":[{"name":"owner","type":"address","internalType":"address"},{"name":"operator","type":"address","internalType":"address"}],"outputs":[{"name":"","type":"bool","internalType":"bool"}],"stateMutability":"view"},{"type":"function","name":"liquidateBurn","inputs":[{"name":"params","type":"tuple","internalType":"struct BurnParams","components":[{"name":"poolId","type":"bytes32","internalType":"PoolId"},{"name":"marginForOne","type":"bool","internalType":"bool"},{"name":"positionIds","type":"uint256[]","internalType":"uint256[]"},{"name":"signature","type":"bytes","internalType":"bytes"}]}],"outputs":[{"name":"profit","type":"uint256","internalType":"uint256"}],"stateMutability":"nonpayable"},{"type":"function","name":"liquidateBurn","inputs":[{"name":"positionId","type":"uint256","internalType":"uint256"},{"name":"signature","type":"bytes","internalType":"bytes"}],"outputs":[{"name":"profit","type":"uint256","internalType":"uint256"}],"stateMutability":"nonpayable"},{"type":"function","name":"liquidateCall","inputs":[{"name":"positionId","type":"uint256","internalType":"uint256"},{"name":"signature","type":"bytes","internalType":"bytes"}],"outputs":[{"name":"profit","type":"uint256","internalType":"uint256"}],"stateMutability":"payable"},{"type":"function","name":"margin","inputs":[{"name":"params","type":"tuple","internalType":"struct MarginParams","components":[{"name":"poolId","type":"bytes32","internalType":"PoolId"},{"name":"marginForOne","type":"bool","internalType":"bool"},{"name":"leverage","type":"uint24","internalType":"uint24"},{"name":"marginAmount","type":"uint256","internalType":"uint256"},{"name":"marginTotal","type":"uint256","internalType":"uint256"},{"name":"borrowAmount","type":"uint256","internalType":"uint256"},{"name":"borrowMinAmount","type":"uint256","internalType":"uint256"},{"name":"recipient","type":"address","internalType":"address"},{"name":"deadline","type":"uint256","internalType":"uint256"}]}],"outputs":[{"name":"","type":"uint256","internalType":"uint256"},{"name":"","type":"uint256","internalType":"uint256"}],"stateMutability":"payable"},{"type":"function","name":"minMarginLevel","inputs":[],"outputs":[{"name":"","type":"uint24","internalType":"uint24"}],"stateMutability":"view"},{"type":"function","name":"modify","inputs":[{"name":"positionId","type":"uint256","internalType":"uint256"},{"name":"changeAmount","type":"int256","internalType":"int256"}],"outputs":[],"stateMutability":"payable"},{"type":"function","name":"name","inputs":[],"outputs":[{"name":"","type":"string","internalType":"string"}],"stateMutability":"view"},{"type":"function","name":"owner","inputs":[],"outputs":[{"name":"","type":"address","internalType":"address"}],"stateMutability":"view"},{"type":"function","name":"ownerOf","inputs":[{"name":"tokenId","type":"uint256","internalType":"uint256"}],"outputs":[{"name":"","type":"address","internalType":"address"}],"stateMutability":"view"},{"type":"function","name":"repay","inputs":[{"name":"positionId","type":"uint256","internalType":"uint256"},{"name":"repayAmount","type":"uint256","internalType":"uint256"},{"name":"deadline","type":"uint256","internalType":"uint256"}],"outputs":[],"stateMutability":"payable"},{"type":"function","name":"safeTransferFrom","inputs":[{"name":"from","type":"address","internalType":"address"},{"name":"to","type":"address","internalType":"address"},{"name":"tokenId","type":"uint256","internalType":"uint256"}],"outputs":[],"stateMutability":"nonpayable"},{"type":"function","name":"safeTransferFrom","inputs":[{"name":"from","type":"address","internalType":"address"},{"name":"to","type":"address","internalType":"address"},{"name":"tokenId","type":"uint256","internalType":"uint256"},{"name":"data","type":"bytes","internalType":"bytes"}],"outputs":[],"stateMutability":"nonpayable"},{"type":"function","name":"setApprovalForAll","inputs":[{"name":"operator","type":"address","internalType":"address"},{"name":"approved","type":"bool","internalType":"bool"}],"outputs":[],"stateMutability":"nonpayable"},{"type":"function","name":"setHook","inputs":[{"name":"_hook","type":"address","internalType":"address"}],"outputs":[],"stateMutability":"nonpayable"},{"type":"function","name":"setMarginChecker","inputs":[{"name":"_checker","type":"address","internalType":"address"}],"outputs":[],"stateMutability":"nonpayable"},{"type":"function","name":"setMinMarginLevel","inputs":[{"name":"_minMarginLevel","type":"uint24","internalType":"uint24"}],"outputs":[],"stateMutability":"nonpayable"},{"type":"function","name":"supportsInterface","inputs":[{"name":"interfaceId","type":"bytes4","internalType":"bytes4"}],"outputs":[{"name":"","type":"bool","internalType":"bool"}],"stateMutability":"view"},{"type":"function","name":"symbol","inputs":[],"outputs":[{"name":"","type":"string","internalType":"string"}],"stateMutability":"view"},{"type":"function","name":"tokenURI","inputs":[{"name":"tokenId","type":"uint256","internalType":"uint256"}],"outputs":[{"name":"","type":"string","internalType":"string"}],"stateMutability":"view"},{"type":"function","name":"transferFrom","inputs":[{"name":"from","type":"address","internalType":"address"},{"name":"to","type":"address","internalType":"address"},{"name":"tokenId","type":"uint256","internalType":"uint256"}],"outputs":[],"stateMutability":"nonpayable"},{"type":"function","name":"transferOwnership","inputs":[{"name":"newOwner","type":"address","internalType":"address"}],"outputs":[],"stateMutability":"nonpayable"},{"type":"event","name":"Approval","inputs":[{"name":"owner","type":"address","indexed":true,"internalType":"address"},{"name":"approved","type":"address","indexed":true,"internalType":"address"},{"name":"tokenId","type":"uint256","indexed":true,"internalType":"uint256"}],"anonymous":false},{"type":"event","name":"ApprovalForAll","inputs":[{"name":"owner","type":"address","indexed":true,"internalType":"address"},{"name":"operator","type":"address","indexed":true,"internalType":"address"},{"name":"approved","type":"bool","indexed":false,"internalType":"bool"}],"anonymous":false},{"type":"event","name":"Burn","inputs":[{"name":"poolId","type":"bytes32","indexed":true,"internalType":"PoolId"},{"name":"sender","type":"address","indexed":true,"internalType":"address"},{"name":"positionId","type":"uint256","indexed":false,"internalType":"uint256"},{"name":"burnType","type":"uint8","indexed":false,"internalType":"uint8"}],"anonymous":false},{"type":"event","name":"Liquidate","inputs":[{"name":"poolId","type":"bytes32","indexed":true,"internalType":"PoolId"},{"name":"sender","type":"address","indexed":true,"internalType":"address"},{"name":"positionId","type":"uint256","indexed":false,"internalType":"uint256"},{"name":"marginAmount","type":"uint256","indexed":false,"internalType":"uint256"},{"name":"marginTotal","type":"uint256","indexed":false,"internalType":"uint256"},{"name":"borrowAmount","type":"uint256","indexed":false,"internalType":"uint256"}],"anonymous":false},{"type":"event","name":"Margin","inputs":[{"name":"poolId","type":"bytes32","indexed":true,"internalType":"PoolId"},{"name":"owner","type":"address","indexed":true,"internalType":"address"},{"name":"positionId","type":"uint256","indexed":false,"internalType":"uint256"},{"name":"marginAmount","type":"uint256","indexed":false,"internalType":"uint256"},{"name":"marginTotal","type":"uint256","indexed":false,"internalType":"uint256"},{"name":"borrowAmount","type":"uint256","indexed":false,"internalType":"uint256"},{"name":"marginForOne","type":"bool","indexed":false,"internalType":"bool"}],"anonymous":false},{"type":"event","name":"Mint","inputs":[{"name":"poolId","type":"bytes32","indexed":true,"internalType":"PoolId"},{"name":"sender","type":"address","indexed":true,"internalType":"address"},{"name":"to","type":"address","indexed":true,"internalType":"address"},{"name":"positionId","type":"uint256","indexed":false,"internalType":"uint256"}],"anonymous":false},{"type":"event","name":"Modify","inputs":[{"name":"poolId","type":"bytes32","indexed":true,"internalType":"PoolId"},{"name":"sender","type":"address","indexed":true,"internalType":"address"},{"name":"positionId","type":"uint256","indexed":false,"internalType":"uint256"},{"name":"marginAmount","type":"uint256","indexed":false,"internalType":"uint256"},{"name":"marginTotal","type":"uint256","indexed":false,"internalType":"uint256"},{"name":"borrowAmount","type":"uint256","indexed":false,"internalType":"uint256"},{"name":"changeAmount","type":"int256","indexed":false,"internalType":"int256"}],"anonymous":false},{"type":"event","name":"OwnershipTransferred","inputs":[{"name":"user","type":"address","indexed":true,"internalType":"address"},{"name":"newOwner","type":"address","indexed":true,"internalType":"address"}],"anonymous":false},{"type":"event","name":"RepayClose","inputs":[{"name":"poolId","type":"bytes32","indexed":true,"internalType":"PoolId"},{"name":"sender","type":"address","indexed":true,"internalType":"address"},{"name":"positionId","type":"uint256","indexed":false,"internalType":"uint256"},{"name":"releaseMarginAmount","type":"uint256","indexed":false,"internalType":"uint256"},{"name":"releaseMarginTotal","type":"uint256","indexed":false,"internalType":"uint256"},{"name":"repayAmount","type":"uint256","indexed":false,"internalType":"uint256"},{"name":"repayRawAmount","type":"uint256","indexed":false,"internalType":"uint256"},{"name":"pnlAmount","type":"int256","indexed":false,"internalType":"int256"}],"anonymous":false},{"type":"event","name":"Transfer","inputs":[{"name":"from","type":"address","indexed":true,"internalType":"address"},{"name":"to","type":"address","indexed":true,"internalType":"address"},{"name":"tokenId","type":"uint256","indexed":true,"internalType":"uint256"}],"anonymous":false},{"type":"error","name":"ERC721IncorrectOwner","inputs":[{"name":"sender","type":"address","internalType":"address"},{"name":"tokenId","type":"uint256","internalType":"uint256"},{"name":"owner","type":"address","internalType":"address"}]},{"type":"error","name":"ERC721InsufficientApproval","inputs":[{"name":"operator","type":"address","internalType":"address"},{"name":"tokenId","type":"uint256","internalType":"uint256"}]},{"type":"error","name":"ERC721InvalidApprover","inputs":[{"name":"approver","type":"address","internalType":"address"}]},{"type":"error","name":"ERC721InvalidOperator","inputs":[{"name":"operator","type":"address","internalType":"address"}]},{"type":"error","name":"ERC721InvalidOwner","inputs":[{"name":"owner","type":"address","internalType":"address"}]},{"type":"error","name":"ERC721InvalidReceiver","inputs":[{"name":"receiver","type":"address","internalType":"address"}]},{"type":"error","name":"ERC721InvalidSender","inputs":[{"name":"sender","type":"address","internalType":"address"}]},{"type":"error","name":"ERC721NonexistentToken","inputs":[{"name":"tokenId","type":"uint256","internalType":"uint256"}]},{"type":"error","name":"InsufficientAmount","inputs":[{"name":"amount","type":"uint256","internalType":"uint256"}]},{"type":"error","name":"InsufficientBorrowReceived","inputs":[]},{"type":"error","name":"MarginTransferFailed","inputs":[{"name":"amount","type":"uint256","internalType":"uint256"}]},{"type":"error","name":"PairNotExists","inputs":[]},{"type":"error","name":"PositionLiquidated","inputs":[]}],"bytecode":{"object":"0x608060405260016007556008805462ffffff19166211da50179055348015610025575f80fd5b5060405161612d38038061612d8339810160408190526100449161013e565b816040518060400160405280601b81526020017f4c494b5749444d617267696e506f736974696f6e4d616e616765720000000000815250604051806040016040528060048152602001634c4d504d60e01b815250815f90816100a6919061020e565b5060016100b3828261020e565b5050600680546001600160a01b0319166001600160a01b0384169081179091556040519091505f907f8be0079c531659141344cd1fd0a4f28419497f9722a3daafe3b4186f6b6457e0908290a350600980546001600160a01b0319166001600160a01b0392909216919091179055506102c8565b6001600160a01b038116811461013b575f80fd5b50565b5f806040838503121561014f575f80fd5b825161015a81610127565b602084015190925061016b81610127565b809150509250929050565b634e487b7160e01b5f52604160045260245ffd5b600181811c9082168061019e57607f821691505b6020821081036101bc57634e487b7160e01b5f52602260045260245ffd5b50919050565b601f82111561020957805f5260205f20601f840160051c810160208510156101e75750805b601f840160051c820191505b81811015610206575f81556001016101f3565b50505b505050565b81516001600160401b0381111561022757610227610176565b61023b81610235845461018a565b846101c2565b6020601f82116001811461026d575f83156102565750848201515b5f19600385901b1c1916600184901b178455610206565b5f84815260208120601f198516915b8281101561029c578785015182556020948501946001909201910161027c565b50848210156102b957868401515f19600387901b60f8161c191681555b50505050600190811b01905550565b615e58806102d55f395ff3fe608060405260043610610220575f3560e01c806395d89b411161011e578063c7e1aea0116100a8578063efa73b061161006d578063efa73b0614610729578063f193039414610748578063f2fde38b1461075b578063f5c922981461077a578063f67cc57c146107c3575f80fd5b8063c7e1aea014610681578063c87b56dd146106a0578063cf5303cf146106bf578063e985e9c5146106de578063eb02c301146106fd575f80fd5b8063b0193851116100ee578063b0193851146105e0578063b330db28146105ff578063b55bd84d14610616578063b88d4fde1461063a578063b8c5986014610659575f80fd5b806395d89b41146105785780639869b7361461058c578063a22cb465146105a2578063ab813814146105c1575f80fd5b80633dfd3873116101aa57806370a082311161016f57806370a08231146104f5578063777a736814610514578063895a7485146105335780638da5cb5b1461054657806394801beb14610565575f80fd5b80633dfd38731461045557806342842e0e146104745780634c723c28146104935780635d12fc0c146104bf5780636352211e146104d6575f80fd5b8063095ea7b3116101f0578063095ea7b31461039c578063141d88f2146103bb57806323b872dd146103da5780632499c552146103f957806325b69c0c14610426575f80fd5b806301ffc9a7146102fd578063025f87fb1461033157806306fdde0314610344578063081812fc14610365575f80fd5b366102f957600860039054906101000a90046001600160a01b03166001600160a01b031663dc4c90d36040518163ffffffff1660e01b8152600401602060405180830381865afa158015610276573d5f803e3d5ffd5b505050506040513d601f19601f8201168201806040525081019061029a9190614ab0565b6001600160a01b0316336001600160a01b031614806102b857503330145b6102f75760405162461bcd60e51b815260206004820152600b60248201526a27a7262cafa6a0a923a4a760a91b60448201526064015b60405180910390fd5b005b5f80fd5b348015610308575f80fd5b5061031c610317366004614ae0565b6107e2565b60405190151581526020015b60405180910390f35b6102f761033f366004614afb565b610833565b34801561034f575f80fd5b50610358610e33565b6040516103289190614b58565b348015610370575f80fd5b5061038461037f366004614b6a565b610ec2565b6040516001600160a01b039091168152602001610328565b3480156103a7575f80fd5b506102f76103b6366004614b8c565b610ee9565b3480156103c6575f80fd5b506102f76103d5366004614bb6565b610ef8565b3480156103e5575f80fd5b506102f76103f4366004614bd1565b610f44565b348015610404575f80fd5b50610418610413366004614c0f565b610fcd565b604051908152602001610328565b348015610431575f80fd5b506008546104419062ffffff1681565b60405162ffffff9091168152602001610328565b348015610460575f80fd5b506102f761046f366004614bb6565b610fec565b34801561047f575f80fd5b506102f761048e366004614bd1565b611042565b34801561049e575f80fd5b506104b26104ad366004614c2f565b611061565b6040516103289190614d08565b3480156104ca575f80fd5b50610418633b9aca0081565b3480156104e1575f80fd5b506103846104f0366004614b6a565b611154565b348015610500575f80fd5b5061041861050f366004614bb6565b61115e565b34801561051f575f80fd5b5061041861052e366004614eb7565b6111a3565b6102f7610541366004614fc4565b611855565b348015610551575f80fd5b50600654610384906001600160a01b031681565b610418610573366004614fed565b611b48565b348015610583575f80fd5b50610358611f7f565b348015610597575f80fd5b50610418620f424081565b3480156105ad575f80fd5b506102f76105bc366004615062565b611f8e565b3480156105cc575f80fd5b506104186105db366004614fed565b611f99565b3480156105eb575f80fd5b506104186105fa366004614b6a565b61214a565b34801561060a575f80fd5b506104186301e1338081565b348015610621575f80fd5b50600854630100000090046001600160a01b0316610384565b348015610645575f80fd5b506102f7610654366004615099565b6121d6565b61066c61066736600461511b565b6121ed565b60408051928352602083019190915201610328565b34801561068c575f80fd5b506102f761069b3660046151a9565b612a45565b3480156106ab575f80fd5b506103586106ba366004614b6a565b612a89565b3480156106ca575f80fd5b50600954610384906001600160a01b031681565b3480156106e9575f80fd5b5061031c6106f83660046151c4565b612af9565b348015610708575f80fd5b5061071c610717366004614b6a565b612b26565b60405161032891906151f0565b348015610734575f80fd5b5061066c6107433660046151fe565b612cee565b6102f7610756366004614c0f565b612eaa565b348015610766575f80fd5b506102f7610775366004614bb6565b613396565b348015610785575f80fd5b50610418610794366004615243565b5f928352600c6020908152604080852093151585529281528284206001600160a01b0390921684525290205490565b3480156107ce575f80fd5b5061066c6107dd366004615282565b61340b565b5f6001600160e01b031982166380ac58cd60e01b148061081257506001600160e01b03198216635b5e139f60e01b145b8061082d57506301ffc9a760e01b6001600160e01b03198316145b92915050565b80428110156108545760405162461bcd60e51b81526004016102ee906152b6565b3361085e86611154565b6001600160a01b0316146108845760405162461bcd60e51b81526004016102ee906152d7565b620f42408411156108c95760405162461bcd60e51b815260206004820152600f60248201526e26a4a62624a7a72a242fa2a92927a960891b60448201526064016102ee565b5f6108d386612b26565b60085481516040516302ef145760e51b815260048101919091529192505f9163010000009091046001600160a01b031690635de28ae09060240161022060405180830381865afa158015610929573d5f803e3d5ffd5b505050506040513d601f19601f8201168201806040525081019061094d91906153f1565b90505f82602001516109655761018082015151610970565b816101800151602001515b90505f6040518060e00160405280855f01518152602001856020015115158152602001306001600160a01b031681526020015f81526020015f81526020015f8152602001878152509050620f42408885608001516001600160801b03166109d791906154f9565b6109e19190615510565b606082018190526008548551602087015160405163b447325960e01b815260048101929092521560248201526044810192909252630100000090046001600160a01b03169063b447325990606401602060405180830381865afa158015610a4a573d5f803e3d5ffd5b505050506040513d601f19601f82011682018060405250810190610a6e919061552f565b608082015260408401515f90620f424090610a93908b906001600160801b03166154f9565b610a9d9190615510565b90505f620f42408a87606001516001600160801b0316610abd91906154f9565b610ac79190615510565b90505f836080015182610ada9190615546565b9050891580610ae95750808a13155b610b355760405162461bcd60e51b815260206004820152601a60248201527f496e73756666696369656e744f7574707574526563656976656400000000000060448201526064016102ee565b5f8112610b6c575f811315610b6757610b653033610b538685615565565b6001600160a01b038916929190613804565b505b610bda565b82610b7682615578565b1015610b9457610b653033610b8a84615578565b610b539087615592565b60408701516001600160801b0316610bab82615578565b1015610bc157610bba81615578565b9250610bda565b604051637f4a51e560e11b815260040160405180910390fd5b86608001516001600160801b031684606001518860a001516001600160801b0316610c0591906154f9565b610c0f9190615510565b60a08501526001600160a01b038516610ca5576008546080850151604051639d7bcccb60e01b815263010000009092046001600160a01b031691639d7bcccb9190610c5e9088906004016155a5565b60206040518083038185885af1158015610c7a573d5f803e3d5ffd5b50505050506040513d601f19601f82011682018060405250810190610c9f919061552f565b50610d83565b60085460808501515f91610ccd916001600160a01b03898116926301000000900416906138a0565b905080610d0a5760405162461bcd60e51b815260206004820152600b60248201526a20a8282927ab22afa2a92960a91b60448201526064016102ee565b600854604051639d7bcccb60e01b815263010000009091046001600160a01b031690639d7bcccb90610d409088906004016155a5565b6020604051808303815f875af1158015610d5c573d5f803e3d5ffd5b505050506040513d601f19601f82011682018060405250810190610d80919061552f565b50505b336001600160a01b0316875f01517fb7fe54565dd6f419ae9011088ea0145e0c75a7a79ba3400b862e50d24c56ce5b8e868689606001518a60a0015188604051610df596959493929190958652602086019490945260408501929092526060840152608083015260a082015260c00190565b60405180910390a3610e258c848487606001518b608001516001600160801b03168960a001518d60c001516138cc565b505050505050505050505050565b60605f8054610e41906155f9565b80601f0160208091040260200160405190810160405280929190818152602001828054610e6d906155f9565b8015610eb85780601f10610e8f57610100808354040283529160200191610eb8565b820191905f5260205f20905b815481529060010190602001808311610e9b57829003601f168201915b5050505050905090565b5f610ecc82613a09565b505f828152600460205260409020546001600160a01b031661082d565b610ef4828233613a41565b5050565b6006546001600160a01b03163314610f225760405162461bcd60e51b81526004016102ee90615631565b600980546001600160a01b0319166001600160a01b0392909216919091179055565b6001600160a01b038216610f6d57604051633250574960e11b81525f60048201526024016102ee565b5f610f79838333613a4e565b9050836001600160a01b0316816001600160a01b031614610fc7576040516364283d7b60e01b81526001600160a01b03808616600483015260248201849052821660448201526064016102ee565b50505050565b5f80610fd884612b26565b9050610fe48184613b40565b949350505050565b6006546001600160a01b031633146110165760405162461bcd60e51b81526004016102ee90615631565b600880546001600160a01b039092166301000000026301000000600160b81b0319909216919091179055565b61105c83838360405180602001604052805f8152506121d6565b505050565b6060816001600160401b0381111561107b5761107b614d60565b6040519080825280602002602001820160405280156110b457816020015b6110a1614a3f565b8152602001906001900390816110995790505b5090505f5b8281101561114d576110e28484838181106110d6576110d6615657565b90506020020135612b26565b8282815181106110f4576110f4615657565b60209081029190910101515261112584848381811061111557611115615657565b90506020020135620f4240610fcd565b82828151811061113757611137615657565b60209081029190910181015101526001016110b9565b5092915050565b5f61082d82613a09565b5f6001600160a01b038216611188576040516322718ad960e21b81525f60048201526024016102ee565b506001600160a01b03165f9081526003602052604090205490565b60095460608201516040516301b0e9fd60e11b81525f926001600160a01b031691630361d3fa916111db91339186919060040161566b565b602060405180830381865afa1580156111f6573d5f803e3d5ffd5b505050506040513d601f19601f8201168201806040525081019061121a919061569c565b6112365760405162461bcd60e51b81526004016102ee906152d7565b5f8260400151516001600160401b0381111561125457611254614d60565b60405190808252806020026020018201604052801561128d57816020015b61127a614a5e565b8152602001906001900390816112725790505b5090505f5b83604001515181101561136257600a5f856040015183815181106112b8576112b8615657565b60209081029190910181015182528181019290925260409081015f20815160e08101835281548152600182015460ff81161515948201949094526101009093046001600160801b039081169284019290925260028101548083166060850152600160801b900482166080840152600381015490911660a08301526004015460c0820152825183908390811061134f5761134f615657565b6020908102919091010152600101611292565b5060095483516020850151600854604051637562feef60e11b81525f9485946001600160a01b039182169463eac5fdde946113b1949293919263010000009091049091169089906004016156b7565b5f60405180830381865afa1580156113cb573d5f803e3d5ffd5b505050506040513d5f823e601f3d908101601f191682016040526113f2919081019061578e565b915091505f805f805f805f5b8b60400151518110156115905788818151811061141d5761141d615657565b602002602001015115611588575f8c60400151828151811061144157611441615657565b602002602001015190505f8b838151811061145e5761145e615657565b6020026020010151905080604001516001600160801b0316846114819190615565565b9350806060015181604001516114979190615853565b6114aa906001600160801b031686615565565b94508983815181106114be576114be615657565b6020026020010151876114d19190615565565b96508060a001516001600160801b0316886114ec9190615565565b9750336001600160a01b03168e5f01517fc5dc4a73d12326ec551f0cf389e22055eadf18b8852193ae53138b01c919471484846040015185606001518f898151811061153a5761153a615657565b602002602001015160405161157294939291909384526001600160801b03928316602085015291166040830152606082015260800190565b60405180910390a3611585826001613c45565b50505b6001016113fe565b50805f036115a657505050505050505050919050565b6009546040805163eedd58f360e01b81529051620f4240926001600160a01b03169163eedd58f39160048083019260209291908290030181865afa1580156115f0573d5f803e3d5ffd5b505050506040513d601f19601f820116820180604052508101906116149190615872565b6116239062ffffff16836154f9565b61162d9190615510565b6008548c516040516302ef145760e51b81526004810191909152919b505f9163010000009091046001600160a01b031690635de28ae09060240161022060405180830381865afa158015611683573d5f803e3d5ffd5b505050506040513d601f19601f820116820180604052508101906116a791906153f1565b90505f8c602001516116bf57610180820151516116ca565b816101800151602001515b90506116d68c85615592565b97506001600160a01b0381166116ee57879450611750565b6008545f90611711906001600160a01b038481169163010000009004168b6138a0565b90508061174e5760405162461bcd60e51b815260206004820152600b60248201526a20a8282927ab22afa2a92960a91b60448201526064016102ee565b505b8b1561176d5761176b6001600160a01b03821630338f613804565b505b505050505f841115611849575f6040518060e001604052808b5f015181526020018b6020015115158152602001306001600160a01b03168152602001848152602001868152602001858152602001426103e86117c99190615565565b9052600854604051639d7bcccb60e01b8152919250630100000090046001600160a01b031690639d7bcccb9084906118059085906004016155a5565b60206040518083038185885af1158015611821573d5f803e3d5ffd5b50505050506040513d601f19601f82011682018060405250810190611846919061552f565b50505b50505050505050919050565b80428110156118765760405162461bcd60e51b81526004016102ee906152b6565b3361188085611154565b6001600160a01b0316146118a65760405162461bcd60e51b81526004016102ee906152d7565b5f6118b085612b26565b60085481516040516302ef145760e51b815260048101919091529192505f9163010000009091046001600160a01b031690635de28ae09060240161022060405180830381865afa158015611906573d5f803e3d5ffd5b505050506040513d601f19601f8201168201806040525081019061192a91906153f1565b90505f8083602001516119495761018083015160208101519051611958565b61018083015180516020909101515b9150915061197d8233600860039054906101000a90046001600160a01b03168a613d92565b61199d576040516377b8dde360e01b8152600481018890526024016102ee565b83608001516001600160801b03168711156119c35783608001516001600160801b031696505b5f6040518060e00160405280865f01518152602001866020015115158152602001336001600160a01b031681526020018981526020015f81526020015f815260200188815250905084608001516001600160801b0316888660a001516001600160801b0316611a3291906154f9565b611a3c9190615510565b60a082015260808501515f90611a739087906001600160801b0316611a64620f42408d6154f9565b611a6e9190615510565b613b40565b90505f611a808a34613eab565b600854604051639d7bcccb60e01b8152919250630100000090046001600160a01b031690639d7bcccb908390611aba9087906004016155a5565b60206040518083038185885af1158015611ad6573d5f803e3d5ffd5b50505050506040513d601f19601f82011682018060405250810190611afb919061552f565b50611b208b858c8a608001516001600160801b03168760a00151878d60c00151613ec0565b80341115611b3b57611b3b33611b368334615592565b6141c3565b5050505050505050505050565b6009546040516301b0e9fd60e11b81525f916001600160a01b031690630361d3fa90611b7e90339088908890889060040161588d565b602060405180830381865afa158015611b99573d5f803e3d5ffd5b505050506040513d601f19601f82011682018060405250810190611bbd919061569c565b611bd95760405162461bcd60e51b81526004016102ee906152d7565b6009546040516307146edd60e01b8152306004820152602481018690525f9182916001600160a01b03909116906307146edd906044016040805180830381865afa158015611c29573d5f803e3d5ffd5b505050506040513d601f19601f82011682018060405250810190611c4d91906158d4565b9150915081611c5d575050611f78565b5f868152600a60209081526040808320815160e0810183528154808252600183015460ff81161515958301959095526101009094046001600160801b039081168285015260028301548082166060840152600160801b90048116608083015260038301541660a082015260049182015460c082015260085492516302ef145760e51b81529182019390935291929163010000009091046001600160a01b031690635de28ae09060240161022060405180830381865afa158015611d22573d5f803e3d5ffd5b505050506040513d601f19601f82011682018060405250810190611d4691906153f1565b90505f808360200151611d655761018083015160208101519051611d74565b61018083015180516020909101515b91509150611d998233600860039054906101000a90046001600160a01b031688613d92565b611db9576040516377b8dde360e01b8152600481018690526024016102ee565b5f6001600160a01b038316611dcb5750845b5f6040518060e00160405280875f01518152602001876020015115158152602001336001600160a01b031681526020018881526020015f81526020018760a001516001600160801b03168152602001426103e8611e289190615565565b9052600854604051639d7bcccb60e01b8152919250630100000090046001600160a01b031690639d7bcccb908490611e649085906004016155a5565b60206040518083038185885af1158015611e80573d5f803e3d5ffd5b50505050506040513d601f19601f82011682018060405250810190611ea5919061552f565b5085606001518660400151611eba9190615853565b6001600160801b03169850611eda6001600160a01b03841630338c613804565b5081341115611ef157611ef133611b368434615592565b336001600160a01b0316865f01517fc5dc4a73d12326ec551f0cf389e22055eadf18b8852193ae53138b01c91947148e89604001518a606001518c604051611f5c94939291909384526001600160801b03928316602085015291166040830152606082015260800190565b60405180910390a3611f6f8c6001613c45565b50505050505050505b9392505050565b606060018054610e41906155f9565b610ef4338383614254565b6009546040516301b0e9fd60e11b81525f916001600160a01b031690630361d3fa90611fcf90339088908890889060040161588d565b602060405180830381865afa158015611fea573d5f803e3d5ffd5b505050506040513d601f19601f8201168201806040525081019061200e919061569c565b61202a5760405162461bcd60e51b81526004016102ee906152d7565b5f848152600a60209081526040808320815160e0810183528154815260018083015460ff811615158387019081526001600160801b0361010090920482168487015260028501548083166060860152600160801b90048216608080860191909152600386015490921660a085015260049094015460c084015284519081018552825181529251151583860152835181815280850185529195949293840192828101908036833701905050815260200186868080601f0160208091040260200160405190810160405280939291908181526020018383808284375f92018290525093909452505060408301518051939450899390925061212b5761212b615657565b602002602001018181525050612140816111a3565b9695505050505050565b5f8061215583612b26565b600954600854604051631454a64960e31b81529293506001600160a01b039182169263a2a5324892612197928692630100000090910490911690600401615900565b602060405180830381865afa1580156121b2573d5f803e3d5ffd5b505050506040513d601f19601f82011682018060405250810190611f78919061552f565b6121e1848484610f44565b610fc7848484846142ea565b5f80826101000151428110156122155760405162461bcd60e51b81526004016102ee906152b6565b60085484516040516302ef145760e51b815260048101919091525f91630100000090046001600160a01b031690635de28ae09060240161022060405180830381865afa158015612267573d5f803e3d5ffd5b505050506040513d601f19601f8201168201806040525081019061228b91906153f1565b90505f85602001516122a357610180820151516122ae565b816101800151602001515b90506122c08133308960600151613d92565b6122e55785606001516040516377b8dde360e01b81526004016102ee91815260200190565b5f61230a33308960600151856001600160a01b0316613804909392919063ffffffff16565b905080612332578660600151604051635301e94d60e01b81526004016102ee91815260200190565b86515f908152600c60209081526040808320828b015115158452825280832060e08b01516001600160a01b0390811685529252918290205460085492516305c62cc360e51b81529092630100000090049091169063b8c598609061239a908b90600401615927565b610120604051808303815f875af11580156123b7573d5f803e3d5ffd5b505050506040513d601f19601f820116820180604052508101906123db91906159a0565b97505f600860039054906101000a90046001600160a01b03166001600160a01b03166313ac42a76040518163ffffffff1660e01b8152600401602060405180830381865afa15801561242f573d5f803e3d5ffd5b505050506040513d601f19601f820116820180604052508101906124539190614ab0565b6001600160a01b0316630c7d71e0868b602001516040518363ffffffff1660e01b8152600401612484929190615a2e565b602060405180830381865afa15801561249f573d5f803e3d5ffd5b505050506040513d601f19601f820116820180604052508101906124c3919061552f565b90508860c001518960a0015110156124ee5760405163ae1c417560e01b815260040160405180910390fd5b6124f88986614410565b61251d5788606001516040516377b8dde360e01b81526004016102ee91815260200190565b815f036127925760e08901516007805461254892915f61253c83615ba6565b919050559350836144cb565b8860e001516001600160a01b0316336001600160a01b03168a5f01517f3da3c136802f9d70e1dc46948f8eb44c608278811d1e5c1f4f380c5bd3b71ee58560405161259591815260200190565b60405180910390a46040805160e0810182528a5181526020808c01511515908201526060808c01516001600160801b03908116838501526080808e015182169284019290925260a0808e0180518316938501939093529151169082015260c081018390526009546008549251630364d05d60e01b815291925f926001600160a01b0392831692630364d05d9261263b928792630100000090920490911690600401615900565b6040805180830381865afa158015612655573d5f803e3d5ffd5b505050506040513d601f19601f8201168201806040525081019061267991906158d4565b50905080156126b75760405162461bcd60e51b815260206004820152600a6024820152691b1a5c5d5a59185d195960b21b60448201526064016102ee565b5089515f908152600c60209081526040808320828e015115158452825280832060e08e01516001600160a01b031684528252808320869055858352600a8252918290208351815590830151600182018054938501516001600160881b031990941691151570ffffffffffffffffffffffffffffffff001916919091176101006001600160801b039485160217905560608301516080840151908316600160801b9184169190910217600282015560a08301516003820180546001600160801b031916919093161790915560c0909101516004909101556129b1565b5f828152600a60205260408120600481015460028201549192916127c7908590600160801b90046001600160801b03166154f9565b6127d19190615510565b90508a606001518260010160018282829054906101000a90046001600160801b03166127fd9190615853565b92506101000a8154816001600160801b0302191690836001600160801b031602179055508a60800151826002015f8282829054906101000a90046001600160801b031661284a9190615853565b92506101000a8154816001600160801b0302191690836001600160801b031602179055508a60a00151826003015f8282829054906101000a90046001600160801b03166128979190615853565b92506101000a8154816001600160801b0302191690836001600160801b031602179055508a60a00151816128cb9190615565565b6002830180546001600160801b03928316600160801b0292169190911790556004808301849055600954600854604051630364d05d60e01b81525f936001600160a01b0393841693630364d05d9361293193899363010000009092049092169101615bbe565b6040805180830381865afa15801561294b573d5f803e3d5ffd5b505050506040513d601f19601f8201168201806040525081019061296f91906158d4565b50905080156129ad5760405162461bcd60e51b815260206004820152600a6024820152691b1a5c5d5a59185d195960b21b60448201526064016102ee565b5050505b8860e001516001600160a01b0316895f01517fcd0c103cb7999308639fe7aa50aa1ac9a1121d7c345c66f58511402bd9315a8a848c606001518d608001518e60a001518f60200151604051612a2a9594939291909485526020850193909352604084019190915260608301521515608082015260a00190565b60405180910390a35060a09790970151969795505050505050565b6006546001600160a01b03163314612a6f5760405162461bcd60e51b81526004016102ee90615631565b6008805462ffffff191662ffffff92909216919091179055565b6060612a9482613a09565b505f612aaa60408051602081019091525f815290565b90505f815111612ac85760405180602001604052805f815250611f78565b80612ad28461452c565b604051602001612ae3929190615c40565b6040516020818303038152906040529392505050565b6001600160a01b039182165f90815260056020908152604080832093909416825291909152205460ff1690565b612b2e614a5e565b505f818152600a6020908152604091829020825160e08101845281548152600182015460ff81161515938201939093526001600160801b0361010090930483169381019390935260028101548083166060850152600160801b900482166080840152600381015490911660a08301526004015460c0820181905215612ce9575f600860039054906101000a90046001600160a01b03166001600160a01b03166313ac42a76040518163ffffffff1660e01b8152600401602060405180830381865afa158015612bff573d5f803e3d5ffd5b505050506040513d601f19601f82011682018060405250810190612c239190614ab0565b6008548351602085015160405163ad9fccf160e01b81526001600160a01b0363010000009094048416600482015260248101929092521515604482015291169063ad9fccf190606401602060405180830381865afa158015612c87573d5f803e3d5ffd5b505050506040513d601f19601f82011682018060405250810190612cab919061552f565b90508160c001518183608001516001600160801b0316612ccb91906154f9565b612cd59190615510565b6001600160801b0316608083015260c08201525b919050565b5f805f600860039054906101000a90046001600160a01b03166001600160a01b03166313ac42a76040518163ffffffff1660e01b8152600401602060405180830381865afa158015612d42573d5f803e3d5ffd5b505050506040513d601f19601f82011682018060405250810190612d669190614ab0565b600854604051630544c8cd60e11b81526001600160a01b03630100000090920482166004820152602481018a9052911690630a89919a906044016040805180830381865afa158015612dba573d5f803e3d5ffd5b505050506040513d601f19601f82011682018060405250810190612dde9190615c54565b91505f9050612df262ffffff8716866154f9565b60085460405163b447325960e01b8152600481018b9052891515602482015260448101839052919250630100000090046001600160a01b03169063b447325990606401602060405180830381865afa158015612e50573d5f803e3d5ffd5b505050506040513d601f19601f82011682018060405250810190612e74919061552f565b9250620f4240612e8962ffffff841682615592565b612e9390836154f9565b612e9d9190615510565b9350505094509492505050565b33612eb483611154565b6001600160a01b031614612eda5760405162461bcd60e51b81526004016102ee906152d7565b5f828152600a60205260409020600481015415613058575f600860039054906101000a90046001600160a01b03166001600160a01b03166313ac42a76040518163ffffffff1660e01b8152600401602060405180830381865afa158015612f43573d5f803e3d5ffd5b505050506040513d601f19601f82011682018060405250810190612f679190614ab0565b6008548354600185015460405163ad9fccf160e01b81526001600160a01b03630100000090940484166004820152602481019290925260ff161515604482015291169063ad9fccf190606401602060405180830381865afa158015612fce573d5f803e3d5ffd5b505050506040513d601f19601f82011682018060405250810190612ff2919061552f565b600483015460028401549192509061301b908390600160801b90046001600160801b03166154f9565b6130259190615510565b6001600160701b03168260020160106101000a8154816001600160801b0302191690836001600160801b03160217905550505b60085481546040516302ef145760e51b815260048101919091525f91630100000090046001600160a01b031690635de28ae09060240161022060405180830381865afa1580156130aa573d5f803e3d5ffd5b505050506040513d601f19601f820116820180604052508101906130ce91906153f1565b60018301549091505f9060ff166130eb57610180820151516130f6565b816101800151602001515b90505f808512613106578461310f565b61310f85615578565b90505f8513156131bd575f61312f6001600160a01b038416333085613804565b9050818560010160018282829054906101000a90046001600160801b03166131579190615853565b92506101000a8154816001600160801b0302191690836001600160801b03160217905550806131b75760405162461bcd60e51b815260206004820152600c60248201526b2a2920a729a322a92fa2a92960a11b60448201526064016102ee565b50613318565b600954600854604051631454a64960e31b81526001600160a01b039283169263a2a53248926131fc928992630100000090920490911690600401615bbe565b602060405180830381865afa158015613217573d5f803e3d5ffd5b505050506040513d601f19601f8201168201806040525081019061323b919061552f565b8111156132785760405162461bcd60e51b815260206004820152600b60248201526a13d5915497d05353d5539560aa1b60448201526064016102ee565b5f61328e6001600160a01b038416303385613804565b9050818560010160018282829054906101000a90046001600160801b03166132b69190615c81565b92506101000a8154816001600160801b0302191690836001600160801b03160217905550806133165760405162461bcd60e51b815260206004820152600c60248201526b2a2920a729a322a92fa2a92960a11b60448201526064016102ee565b505b835460018501546002860154604080518a81526001600160801b036101009094048416602082015283831681830152600160801b90920490921660608201526080810188905290513392917fb0b96df0ad96a6e2daf3ded5a2c92308828df41fdfdd724a99e3faa587d12406919081900360a00190a3505050505050565b6006546001600160a01b031633146133c05760405162461bcd60e51b81526004016102ee90615631565b600680546001600160a01b0319166001600160a01b03831690811790915560405133907f8be0079c531659141344cd1fd0a4f28419497f9722a3daafe3b4186f6b6457e0905f90a350565b6008546040516302ef145760e51b8152600481018590525f9182918291630100000090046001600160a01b031690635de28ae09060240161022060405180830381865afa15801561345e573d5f803e3d5ffd5b505050506040513d601f19601f8201168201806040525081019061348291906153f1565b90505f805f600860039054906101000a90046001600160a01b03166001600160a01b031663fb6b0e676040518163ffffffff1660e01b8152600401602060405180830381865afa1580156134d8573d5f803e3d5ffd5b505050506040513d601f19601f820116820180604052508101906134fc9190614ab0565b600854604051636792df0f60e01b81526001600160a01b03630100000090920482166004820152602481018c9052911690636792df0f90604401606060405180830381865afa158015613551573d5f803e3d5ffd5b505050506040513d601f19601f820116820180604052508101906135759190615ca0565b9250925092505f83855f01516001600160701b031684866135969190615592565b6135a091906154f9565b6135aa9190615510565b90505f8486602001516001600160701b031684876135c89190615592565b6135d291906154f9565b6135dc9190615510565b90505f8a6135ea57826135ec565b815b90506103e8811115613762576008546040516314953d3160e31b8152600481018e90525f91829163010000009091046001600160a01b03169063a4a9e988906024016040805180830381865afa158015613648573d5f803e3d5ffd5b505050506040513d601f19601f8201168201806040525081019061366c9190615ccb565b915091505f8d61367c578261367e565b815b90505f60095f9054906101000a90046001600160a01b03166001600160a01b031663e9976dc66040518163ffffffff1660e01b81526004015f60405180830381865afa1580156136d0573d5f803e3d5ffd5b505050506040513d5f823e601f3d908101601f191682016040526136f79190810190615ced565b60018f6137049190615d7c565b62ffffff168151811061371957613719615657565b602002602001015190506103e88162ffffff168361373791906154f9565b6137419190615510565b915061374d8583613eab565b945061375b6103e886615592565b9450505050505b60085460405163b447325960e01b8152600481018e90528c151560248201526044810183905263010000009091046001600160a01b03169063b447325990606401602060405180830381865afa1580156137be573d5f803e3d5ffd5b505050506040513d601f19601f820116820180604052508101906137e2919061552f565b97506137f362ffffff8b1682615510565b985050505050505050935093915050565b5f6001600160a01b038516613869576040516001600160a01b0384169083905f81818185875af1925050503d805f8114613859576040519150601f19603f3d011682016040523d82523d5f602084013e61385e565b606091505b505080915050610fe4565b6001600160a01b038416301461388c57613885858585856145bb565b9050610fe4565b613897858484614693565b95945050505050565b5f6001600160a01b038416156138c2576138bb84848461476a565b9050611f78565b5060019392505050565b5f878152600a602052604090206138e38585615592565b6002820180546001600160801b03908116600160801b93821684021791829055919004165f0361391c57613917885f613c45565b6139ff565b6001818101805489929061393f90849061010090046001600160801b0316615c81565b92506101000a8154816001600160801b0302191690836001600160801b0316021790555085816002015f8282829054906101000a90046001600160801b03166139889190615c81565b92506101000a8154816001600160801b0302191690836001600160801b0316021790555082816003015f8282829054906101000a90046001600160801b03166139d19190615c81565b92506101000a8154816001600160801b0302191690836001600160801b031602179055508181600401819055505b5050505050505050565b5f818152600260205260408120546001600160a01b03168061082d57604051637e27328960e01b8152600481018490526024016102ee565b61105c838383600161479f565b5f828152600260205260408120546001600160a01b0390811690831615613a7a57613a7a8184866148a3565b6001600160a01b03811615613ab457613a955f855f8061479f565b6001600160a01b0381165f90815260036020526040902080545f190190555b6001600160a01b03851615613ae2576001600160a01b0385165f908152600360205260409020805460010190555b5f8481526002602052604080822080546001600160a01b0319166001600160a01b0389811691821790925591518793918516917fddf252ad1be2c89b69c2b068fc378daa952ba7f163c4a11628f55a4df523b3ef91a4949350505050565b5f82608001516001600160801b03165f03613b5c57505f61082d565b5f620f42408385608001516001600160801b0316613b7a91906154f9565b613b849190615510565b6008548551602087015160405163b447325960e01b81526004810192909252156024820152604481018390529192505f9163010000009091046001600160a01b03169063b447325990606401602060405180830381865afa158015613beb573d5f803e3d5ffd5b505050506040513d601f19601f82011682018060405250810190613c0f919061552f565b90505f620f42408587606001516001600160801b0316613c2f91906154f9565b613c399190615510565b90506121408282615546565b5f828152600a60209081526040808320815160e0810183528154808252600183015460ff811615158387019081526101009091046001600160801b039081168487015260028501548082166060860152600160801b90048116608085015260038501541660a084015260049093015460c08301528552600c8452828520915115158552925282209091613cd785611154565b6001600160a01b0316815260208082019290925260409081015f908120819055858152600a9092528120818155600180820180546001600160881b0319169055600282018390556003820180546001600160801b0319169055600490910191909155815133917f3d023d90350b769385d88d9e75401f8b4e4431afbcb22be877125e15b5fb1d5b9086908690811115613d7257613d72615d97565b6040805192835260ff9091166020830152015b60405180910390a3505050565b5f6001600160a01b038516613dac57813410159050610fe4565b6001600160a01b0384163014613e3857604051636eb1769f60e11b81526001600160a01b038581166004830152848116602483015283919087169063dd62ed3e90604401602060405180830381865afa158015613e0b573d5f803e3d5ffd5b505050506040513d601f19601f82011682018060405250810190613e2f919061552f565b10159050610fe4565b6040516370a0823160e01b815230600482015282906001600160a01b038716906370a0823190602401602060405180830381865afa158015613e7c573d5f803e3d5ffd5b505050506040513d601f19601f82011682018060405250810190613ea0919061552f565b101595945050505050565b5f818310613eb95781611f78565b5090919050565b5f878152600a60205260408082206009546008549251630364d05d60e01b81529193926001600160a01b0391821692630364d05d92613f0f928792630100000090910490911690600401615bbe565b6040805180830381865afa158015613f29573d5f803e3d5ffd5b505050506040513d601f19601f82011682018060405250810190613f4d91906158d4565b5090508015613f6f57604051637f4a51e560e11b815260040160405180910390fd5b613f798787615592565b6002830180546001600160801b03928316600160801b0290831617905560018301545f918891613fb0918b916101009004166154f9565b613fba9190615510565b60028401549091505f908890613fda908b906001600160801b03166154f9565b613fe49190615510565b90505f6140083033613ff68587615565565b6001600160a01b038f16929190613804565b90508061404e5760405162461bcd60e51b81526020600482015260146024820152732922a622a0a9a2afaa2920a729a322a92fa2a92960611b60448201526064016102ee565b8454604080518e815260208101869052908101849052606081018c9052608081018a905260a081018990523391907fb7fe54565dd6f419ae9011088ea0145e0c75a7a79ba3400b862e50d24c56ce5b9060c00160405180910390a36002850154600160801b90046001600160801b03165f036140d3576140ce8c5f613c45565b610e25565b600185810180548592906140f690849061010090046001600160801b0316615c81565b92506101000a8154816001600160801b0302191690836001600160801b0316021790555081856002015f8282829054906101000a90046001600160801b031661413f9190615c81565b92506101000a8154816001600160801b0302191690836001600160801b0316021790555087856003015f8282829054906101000a90046001600160801b03166141889190615c81565b92506101000a8154816001600160801b0302191690836001600160801b03160217905550858560040181905550505050505050505050505050565b5f826001600160a01b0316826040515f6040518083038185875af1925050503d805f811461420c576040519150601f19603f3d011682016040523d82523d5f602084013e614211565b606091505b505090508061105c5760405162461bcd60e51b815260206004820152600f60248201526e1514905394d1915497d19052531151608a1b60448201526064016102ee565b6001600160a01b03821661428657604051630b61174360e31b81526001600160a01b03831660048201526024016102ee565b6001600160a01b038381165f81815260056020908152604080832094871680845294825291829020805460ff191686151590811790915591519182527f17307eab39ab6107e8899845ad3d59bd9653f200f220920489ca2b5937696c319101613d85565b6001600160a01b0383163b15610fc757604051630a85bd0160e11b81526001600160a01b0384169063150b7a029061432c903390889087908790600401615dab565b6020604051808303815f875af1925050508015614366575060408051601f3d908101601f1916820190925261436391810190615ddd565b60015b6143cd573d808015614393576040519150601f19603f3d011682016040523d82523d5f602084013e614398565b606091505b5080515f036143c557604051633250574960e11b81526001600160a01b03851660048201526024016102ee565b805181602001fd5b6001600160e01b03198116630a85bd0160e11b1461440957604051633250574960e11b81526001600160a01b03851660048201526024016102ee565b5050505050565b5f805f8360400151845f01516144269190615df8565b8460600151856020015161443a9190615df8565b6001600160701b031691506001600160701b031691505f808660200151614462578284614465565b83835b915091505f828860a001518361447b91906154f9565b6144859190615510565b600854909150620f42409061449f9062ffffff16836154f9565b6144a99190615510565b886080015189606001516144bd9190615565565b101598975050505050505050565b6001600160a01b0382166144f457604051633250574960e11b81525f60048201526024016102ee565b5f61450083835f613a4e565b90506001600160a01b0381161561105c576040516339e3563760e11b81525f60048201526024016102ee565b60605f61453883614907565b60010190505f816001600160401b0381111561455657614556614d60565b6040519080825280601f01601f191660200182016040528015614580576020820181803683370190505b5090508181016020015b5f19016f181899199a1a9b1b9c1cb0b131b232b360811b600a86061a8153600a850494508461458a57509392505050565b604080516001600160a01b0385811660248301528481166044830152606480830185905283518084039091018152608490920183526020820180516001600160e01b03166323b872dd60e01b17905291515f9283928392918916916146209190615e17565b5f604051808303815f865af19150503d805f8114614659576040519150601f19603f3d011682016040523d82523d5f602084013e61465e565b606091505b5091509150818015614688575080511580614688575080806020019051810190614688919061569c565b979650505050505050565b6040516001600160a01b038381166024830152604482018390525f91829182919087169063a9059cbb60e01b906064015b60408051601f198184030181529181526020820180516001600160e01b03166001600160e01b03199094169390931790925290516147029190615e17565b5f604051808303815f865af19150503d805f811461473b576040519150601f19603f3d011682016040523d82523d5f602084013e614740565b606091505b5091509150818015612140575080511580612140575080806020019051810190612140919061569c565b6040516001600160a01b038381166024830152604482018390525f91829182919087169063095ea7b360e01b906064016146c4565b80806147b357506001600160a01b03821615155b15614874575f6147c284613a09565b90506001600160a01b038316158015906147ee5750826001600160a01b0316816001600160a01b031614155b801561480157506147ff8184612af9565b155b1561482a5760405163a9fbf51f60e01b81526001600160a01b03841660048201526024016102ee565b81156148725783856001600160a01b0316826001600160a01b03167f8c5be1e5ebec7d5bd14f71427d1e84f3dd0314c0f7b2291e5b200ac8c7c3b92560405160405180910390a45b505b50505f90815260046020526040902080546001600160a01b0319166001600160a01b0392909216919091179055565b6148ae8383836149de565b61105c576001600160a01b0383166148dc57604051637e27328960e01b8152600481018290526024016102ee565b60405163177e802f60e01b81526001600160a01b0383166004820152602481018290526044016102ee565b5f8072184f03e93ff9f4daa797ed6e38ed64bf6a1f0160401b83106149455772184f03e93ff9f4daa797ed6e38ed64bf6a1f0160401b830492506040015b6d04ee2d6d415b85acef81000000008310614971576d04ee2d6d415b85acef8100000000830492506020015b662386f26fc10000831061498f57662386f26fc10000830492506010015b6305f5e10083106149a7576305f5e100830492506008015b61271083106149bb57612710830492506004015b606483106149cd576064830492506002015b600a831061082d5760010192915050565b5f6001600160a01b03831615801590610fe45750826001600160a01b0316846001600160a01b03161480614a175750614a178484612af9565b80610fe45750505f908152600460205260409020546001600160a01b03908116911614919050565b6040518060400160405280614a52614a5e565b81526020015f81525090565b6040805160e0810182525f80825260208201819052918101829052606081018290526080810182905260a0810182905260c081019190915290565b6001600160a01b0381168114614aad575f80fd5b50565b5f60208284031215614ac0575f80fd5b8151611f7881614a99565b6001600160e01b031981168114614aad575f80fd5b5f60208284031215614af0575f80fd5b8135611f7881614acb565b5f805f8060808587031215614b0e575f80fd5b5050823594602084013594506040840135936060013592509050565b5f81518084528060208401602086015e5f602082860101526020601f19601f83011685010191505092915050565b602081525f611f786020830184614b2a565b5f60208284031215614b7a575f80fd5b5035919050565b8035612ce981614a99565b5f8060408385031215614b9d575f80fd5b8235614ba881614a99565b946020939093013593505050565b5f60208284031215614bc6575f80fd5b8135611f7881614a99565b5f805f60608486031215614be3575f80fd5b8335614bee81614a99565b92506020840135614bfe81614a99565b929592945050506040919091013590565b5f8060408385031215614c20575f80fd5b50508035926020909101359150565b5f8060208385031215614c40575f80fd5b82356001600160401b03811115614c55575f80fd5b8301601f81018513614c65575f80fd5b80356001600160401b03811115614c7a575f80fd5b8560208260051b8401011115614c8e575f80fd5b6020919091019590945092505050565b805182526020810151151560208301526001600160801b0360408201511660408301526001600160801b0360608201511660608301526001600160801b0360808201511660808301526001600160801b0360a08201511660a083015260c081015160c08301525050565b602080825282518282018190525f918401906040840190835b81811015614d55578351614d36848251614c9e565b60209081015160e0850152939093019261010090920191600101614d21565b509095945050505050565b634e487b7160e01b5f52604160045260245ffd5b604051608081016001600160401b0381118282101715614d9657614d96614d60565b60405290565b60405161012081016001600160401b0381118282101715614d9657614d96614d60565b6040516101a081016001600160401b0381118282101715614d9657614d96614d60565b604051601f8201601f191681016001600160401b0381118282101715614e0a57614e0a614d60565b604052919050565b8015158114614aad575f80fd5b8035612ce981614e12565b5f6001600160401b03821115614e4257614e42614d60565b5060051b60200190565b5f82601f830112614e5b575f80fd5b81356001600160401b03811115614e7457614e74614d60565b614e87601f8201601f1916602001614de2565b818152846020838601011115614e9b575f80fd5b816020850160208301375f918101602001919091529392505050565b5f60208284031215614ec7575f80fd5b81356001600160401b03811115614edc575f80fd5b820160808185031215614eed575f80fd5b614ef5614d74565b813581526020820135614f0781614e12565b602082015260408201356001600160401b03811115614f24575f80fd5b8201601f81018613614f34575f80fd5b8035614f47614f4282614e2a565b614de2565b8082825260208201915060208360051b850101925088831115614f68575f80fd5b6020840193505b82841015614f8a578335825260209384019390910190614f6f565b604085015250505060608201356001600160401b03811115614faa575f80fd5b614fb686828501614e4c565b606083015250949350505050565b5f805f60608486031215614fd6575f80fd5b505081359360208301359350604090920135919050565b5f805f60408486031215614fff575f80fd5b8335925060208401356001600160401b0381111561501b575f80fd5b8401601f8101861361502b575f80fd5b80356001600160401b03811115615040575f80fd5b866020828401011115615051575f80fd5b939660209190910195509293505050565b5f8060408385031215615073575f80fd5b823561507e81614a99565b9150602083013561508e81614e12565b809150509250929050565b5f805f80608085870312156150ac575f80fd5b84356150b781614a99565b935060208501356150c781614a99565b92506040850135915060608501356001600160401b038111156150e8575f80fd5b6150f487828801614e4c565b91505092959194509250565b62ffffff81168114614aad575f80fd5b8035612ce981615100565b5f61012082840312801561512d575f80fd5b50615136614d9c565b8235815261514660208401614e1f565b602082015261515760408401615110565b6040820152606083810135908201526080808401359082015260a0808401359082015260c0808401359082015261519060e08401614b81565b60e0820152610100928301359281019290925250919050565b5f602082840312156151b9575f80fd5b8135611f7881615100565b5f80604083850312156151d5575f80fd5b82356151e081614a99565b9150602083013561508e81614a99565b60e0810161082d8284614c9e565b5f805f8060808587031215615211575f80fd5b84359350602085013561522381614e12565b9250604085013561523381615100565b9396929550929360600135925050565b5f805f60608486031215615255575f80fd5b83359250602084013561526781614e12565b9150604084013561527781614a99565b809150509250925092565b5f805f60608486031215615294575f80fd5b8335925060208401356152a681614e12565b9150604084013561527781615100565b6020808252600790820152661156141254915160ca1b604082015260600190565b6020808252600a908201526920aaaa242fa2a92927a960b11b604082015260600190565b80516001600160701b0381168114612ce9575f80fd5b8051612ce981615100565b805163ffffffff81168114612ce9575f80fd5b80516001600160e01b0381168114612ce9575f80fd5b8051612ce981614a99565b5f60a08284031215615360575f80fd5b60405160a081016001600160401b038111828210171561538257615382614d60565b8060405250809150825161539581614a99565b815260208301516153a581614a99565b602082015260408301516153b881615100565b60408201526060830151600281900b81146153d1575f80fd5b606082015260808301516153e481614a99565b6080919091015292915050565b5f610220828403128015615403575f80fd5b5061540c614dbf565b615415836152fb565b8152615423602084016152fb565b6020820152615434604084016152fb565b6040820152615445606084016152fb565b606082015261545660808401615311565b608082015261546760a0840161531c565b60a082015261547860c084016152fb565b60c082015261548960e084016152fb565b60e0820152610100838101519082015261012080840151908201526154b1610140840161531c565b6101408201526154c4610160840161532f565b6101608201526154d8846101808501615350565b6101808201529392505050565b634e487b7160e01b5f52601160045260245ffd5b808202811582820484141761082d5761082d6154e5565b5f8261552a57634e487b7160e01b5f52601260045260245ffd5b500490565b5f6020828403121561553f575f80fd5b5051919050565b8181035f83128015838313168383128216171561114d5761114d6154e5565b8082018082111561082d5761082d6154e5565b5f600160ff1b820161558c5761558c6154e5565b505f0390565b8181038181111561082d5761082d6154e5565b815181526020808301511515908201526040808301516001600160a01b031690820152606080830151908201526080808301519082015260a0808301519082015260c0918201519181019190915260e00190565b600181811c9082168061560d57607f821691505b60208210810361562b57634e487b7160e01b5f52602260045260245ffd5b50919050565b6020808252600c908201526b15539055551213d49256915160a21b604082015260600190565b634e487b7160e01b5f52603260045260245ffd5b60018060a01b0384168152826020820152606060408201525f6138976060830184614b2a565b8051612ce981614e12565b5f602082840312156156ac575f80fd5b8151611f7881614e12565b8481528315156020808301919091526001600160a01b038416604083015260806060830181905283519083018190525f9184019060a0840190835b8181101561571b57615705838551614c9e565b6020939093019260e092909201916001016156f2565b509098975050505050505050565b5f82601f830112615738575f80fd5b8151615746614f4282614e2a565b8082825260208201915060208360051b860101925085831115615767575f80fd5b602085015b8381101561578457805183526020928301920161576c565b5095945050505050565b5f806040838503121561579f575f80fd5b82516001600160401b038111156157b4575f80fd5b8301601f810185136157c4575f80fd5b80516157d2614f4282614e2a565b8082825260208201915060208360051b8501019250878311156157f3575f80fd5b6020840193505b8284101561581e57835161580d81614e12565b8252602093840193909101906157fa565b8095505050505060208301516001600160401b0381111561583d575f80fd5b61584985828601615729565b9150509250929050565b6001600160801b03818116838216019081111561082d5761082d6154e5565b5f60208284031215615882575f80fd5b8151611f7881615100565b6001600160a01b0385168152602081018490526060604082018190528101829052818360808301375f818301608090810191909152601f909201601f191601019392505050565b5f80604083850312156158e5575f80fd5b82516158f081614e12565b6020939093015192949293505050565b610100810161590f8285614c9e565b6001600160a01b039290921660e09190910152919050565b5f610120820190508251825260208301511515602083015262ffffff6040840151166040830152606083015160608301526080830151608083015260a083015160a083015260c083015160c083015260e083015161599060e08401826001600160a01b03169052565b5061010092830151919092015290565b5f6101208284031280156159b2575f80fd5b506159bb614d9c565b825181526159cb60208401615691565b60208201526159dc60408401615311565b6040820152606083810151908201526080808401519082015260a0808401519082015260c08084015190820152615a1560e08401615345565b60e0820152610100928301519281019290925250919050565b82516001600160701b0316815261024081016020840151615a5a60208401826001600160701b03169052565b506040840151615a7560408401826001600160701b03169052565b506060840151615a9060608401826001600160701b03169052565b506080840151615aa7608084018262ffffff169052565b5060a0840151615abf60a084018263ffffffff169052565b5060c0840151615ada60c08401826001600160701b03169052565b5060e0840151615af560e08401826001600160701b03169052565b50610100840151610100830152610120840151610120830152610140840151615b2761014084018263ffffffff169052565b50610160840151615b446101608401826001600160e01b03169052565b50610180840151615b9761018084018280516001600160a01b03908116835260208083015182169084015260408083015162ffffff169084015260608083015160020b9084015260809182015116910152565b50821515610220830152611f78565b5f60018201615bb757615bb76154e5565b5060010190565b82548152600183015460ff81161515602083015260081c6001600160801b03908116604083015260028401548082166060840152608090811c9083015260038401541660a0820152600483015460c08201526001600160a01b03821660e08201526101008101611f78565b5f81518060208401855e5f93019283525090919050565b5f610fe4615c4e8386615c29565b84615c29565b5f8060408385031215615c65575f80fd5b8251615c7081615100565b602084015190925061508e81615100565b6001600160801b03828116828216039081111561082d5761082d6154e5565b5f805f60608486031215615cb2575f80fd5b5050815160208301516040909301519094929350919050565b5f8060408385031215615cdc575f80fd5b505080516020909101519092909150565b5f60208284031215615cfd575f80fd5b81516001600160401b03811115615d12575f80fd5b8201601f81018413615d22575f80fd5b8051615d30614f4282614e2a565b8082825260208201915060208360051b850101925086831115615d51575f80fd5b6020840193505b82841015612140578351615d6b81615100565b825260209384019390910190615d58565b62ffffff828116828216039081111561082d5761082d6154e5565b634e487b7160e01b5f52602160045260245ffd5b6001600160a01b03858116825284166020820152604081018390526080606082018190525f9061214090830184614b2a565b5f60208284031215615ded575f80fd5b8151611f7881614acb565b6001600160701b03818116838216019081111561082d5761082d6154e5565b5f611f788284615c2956fea2646970667358221220f865279bc7df27c2661eb49115787ca96e427c2d661b2415f1b9cc4f1c4970ee64736f6c634300081a0033","linkReferences":{}},"methodIdentifiers":{"ONE_BILLION()":"5d12fc0c","ONE_MILLION()":"9869b736","YEAR_SECONDS()":"b330db28","approve(address,uint256)":"095ea7b3","balanceOf(address)":"70a08231","checker()":"cf5303cf","close(uint256,uint256,int256,uint256)":"025f87fb","estimatePNL(uint256,uint256)":"2499c552","getApproved(uint256)":"081812fc","getHook()":"b55bd84d","getMarginMax(bytes32,bool,uint24)":"f67cc57c","getMarginTotal(bytes32,bool,uint24,uint256)":"efa73b06","getMaxDecrease(uint256)":"b0193851","getPosition(uint256)":"eb02c301","getPositionId(bytes32,bool,address)":"f5c92298","getPositions(uint256[])":"4c723c28","isApprovedForAll(address,address)":"e985e9c5","liquidateBurn((bytes32,bool,uint256[],bytes))":"777a7368","liquidateBurn(uint256,bytes)":"ab813814","liquidateCall(uint256,bytes)":"94801beb","margin((bytes32,bool,uint24,uint256,uint256,uint256,uint256,address,uint256))":"b8c59860","minMarginLevel()":"25b69c0c","modify(uint256,int256)":"f1930394","name()":"06fdde03","owner()":"8da5cb5b","ownerOf(uint256)":"6352211e","repay(uint256,uint256,uint256)":"895a7485","safeTransferFrom(address,address,uint256)":"42842e0e","safeTransferFrom(address,address,uint256,bytes)":"b88d4fde","setApprovalForAll(address,bool)":"a22cb465","setHook(address)":"3dfd3873","setMarginChecker(address)":"141d88f2","setMinMarginLevel(uint24)":"c7e1aea0","supportsInterface(bytes4)":"01ffc9a7","symbol()":"95d89b41","tokenURI(uint256)":"c87b56dd","transferFrom(address,address,uint256)":"23b872dd","transferOwnership(address)":"f2fde38b"},"id":48}