{"abi":[{"type":"constructor","inputs":[{"name":"initialOwner","type":"address","internalType":"address"},{"name":"_pairPoolManager","type":"address","internalType":"contract IPairMarginManager"},{"name":"_checker","type":"address","internalType":"contract IMarginChecker"}],"stateMutability":"nonpayable"},{"type":"function","name":"approve","inputs":[{"name":"to","type":"address","internalType":"address"},{"name":"tokenId","type":"uint256","internalType":"uint256"}],"outputs":[],"stateMutability":"nonpayable"},{"type":"function","name":"balanceOf","inputs":[{"name":"owner","type":"address","internalType":"address"}],"outputs":[{"name":"","type":"uint256","internalType":"uint256"}],"stateMutability":"view"},{"type":"function","name":"checker","inputs":[],"outputs":[{"name":"","type":"address","internalType":"contract IMarginChecker"}],"stateMutability":"view"},{"type":"function","name":"close","inputs":[{"name":"positionId","type":"uint256","internalType":"uint256"},{"name":"closeMillionth","type":"uint256","internalType":"uint256"},{"name":"pnlMinAmount","type":"int256","internalType":"int256"},{"name":"deadline","type":"uint256","internalType":"uint256"}],"outputs":[],"stateMutability":"nonpayable"},{"type":"function","name":"getApproved","inputs":[{"name":"tokenId","type":"uint256","internalType":"uint256"}],"outputs":[{"name":"","type":"address","internalType":"address"}],"stateMutability":"view"},{"type":"function","name":"getPosition","inputs":[{"name":"positionId","type":"uint256","internalType":"uint256"}],"outputs":[{"name":"_position","type":"tuple","internalType":"struct MarginPosition","components":[{"name":"poolId","type":"bytes32","internalType":"PoolId"},{"name":"marginForOne","type":"bool","internalType":"bool"},{"name":"marginAmount","type":"uint128","internalType":"uint128"},{"name":"marginTotal","type":"uint128","internalType":"uint128"},{"name":"borrowAmount","type":"uint128","internalType":"uint128"},{"name":"rawBorrowAmount","type":"uint128","internalType":"uint128"},{"name":"rateCumulativeLast","type":"uint256","internalType":"uint256"}]}],"stateMutability":"view"},{"type":"function","name":"getPositionId","inputs":[{"name":"poolId","type":"bytes32","internalType":"PoolId"},{"name":"marginForOne","type":"bool","internalType":"bool"},{"name":"owner","type":"address","internalType":"address"},{"name":"isMargin","type":"bool","internalType":"bool"}],"outputs":[{"name":"_positionId","type":"uint256","internalType":"uint256"}],"stateMutability":"view"},{"type":"function","name":"isApprovedForAll","inputs":[{"name":"owner","type":"address","internalType":"address"},{"name":"operator","type":"address","internalType":"address"}],"outputs":[{"name":"","type":"bool","internalType":"bool"}],"stateMutability":"view"},{"type":"function","name":"liquidateBurn","inputs":[{"name":"positionId","type":"uint256","internalType":"uint256"}],"outputs":[{"name":"profit","type":"uint256","internalType":"uint256"},{"name":"repayAmount","type":"uint256","internalType":"uint256"}],"stateMutability":"nonpayable"},{"type":"function","name":"liquidateCall","inputs":[{"name":"positionId","type":"uint256","internalType":"uint256"}],"outputs":[{"name":"profit","type":"uint256","internalType":"uint256"},{"name":"repayAmount","type":"uint256","internalType":"uint256"}],"stateMutability":"payable"},{"type":"function","name":"margin","inputs":[{"name":"params","type":"tuple","internalType":"struct MarginParams","components":[{"name":"poolId","type":"bytes32","internalType":"PoolId"},{"name":"marginForOne","type":"bool","internalType":"bool"},{"name":"leverage","type":"uint24","internalType":"uint24"},{"name":"marginAmount","type":"uint256","internalType":"uint256"},{"name":"borrowAmount","type":"uint256","internalType":"uint256"},{"name":"borrowMaxAmount","type":"uint256","internalType":"uint256"},{"name":"recipient","type":"address","internalType":"address"},{"name":"deadline","type":"uint256","internalType":"uint256"}]}],"outputs":[{"name":"","type":"uint256","internalType":"uint256"},{"name":"","type":"uint256","internalType":"uint256"}],"stateMutability":"payable"},{"type":"function","name":"modify","inputs":[{"name":"positionId","type":"uint256","internalType":"uint256"},{"name":"changeAmount","type":"int256","internalType":"int256"}],"outputs":[],"stateMutability":"payable"},{"type":"function","name":"name","inputs":[],"outputs":[{"name":"","type":"string","internalType":"string"}],"stateMutability":"view"},{"type":"function","name":"owner","inputs":[],"outputs":[{"name":"","type":"address","internalType":"address"}],"stateMutability":"view"},{"type":"function","name":"ownerOf","inputs":[{"name":"tokenId","type":"uint256","internalType":"uint256"}],"outputs":[{"name":"","type":"address","internalType":"address"}],"stateMutability":"view"},{"type":"function","name":"pairPoolManager","inputs":[],"outputs":[{"name":"","type":"address","internalType":"contract IPairMarginManager"}],"stateMutability":"view"},{"type":"function","name":"repay","inputs":[{"name":"positionId","type":"uint256","internalType":"uint256"},{"name":"repayAmount","type":"uint256","internalType":"uint256"},{"name":"deadline","type":"uint256","internalType":"uint256"}],"outputs":[],"stateMutability":"payable"},{"type":"function","name":"safeTransferFrom","inputs":[{"name":"from","type":"address","internalType":"address"},{"name":"to","type":"address","internalType":"address"},{"name":"tokenId","type":"uint256","internalType":"uint256"}],"outputs":[],"stateMutability":"nonpayable"},{"type":"function","name":"safeTransferFrom","inputs":[{"name":"from","type":"address","internalType":"address"},{"name":"to","type":"address","internalType":"address"},{"name":"tokenId","type":"uint256","internalType":"uint256"},{"name":"data","type":"bytes","internalType":"bytes"}],"outputs":[],"stateMutability":"nonpayable"},{"type":"function","name":"setApprovalForAll","inputs":[{"name":"operator","type":"address","internalType":"address"},{"name":"approved","type":"bool","internalType":"bool"}],"outputs":[],"stateMutability":"nonpayable"},{"type":"function","name":"setMarginChecker","inputs":[{"name":"_checker","type":"address","internalType":"address"}],"outputs":[],"stateMutability":"nonpayable"},{"type":"function","name":"supportsInterface","inputs":[{"name":"interfaceId","type":"bytes4","internalType":"bytes4"}],"outputs":[{"name":"","type":"bool","internalType":"bool"}],"stateMutability":"view"},{"type":"function","name":"symbol","inputs":[],"outputs":[{"name":"","type":"string","internalType":"string"}],"stateMutability":"view"},{"type":"function","name":"tokenURI","inputs":[{"name":"tokenId","type":"uint256","internalType":"uint256"}],"outputs":[{"name":"","type":"string","internalType":"string"}],"stateMutability":"view"},{"type":"function","name":"transferFrom","inputs":[{"name":"from","type":"address","internalType":"address"},{"name":"to","type":"address","internalType":"address"},{"name":"tokenId","type":"uint256","internalType":"uint256"}],"outputs":[],"stateMutability":"nonpayable"},{"type":"function","name":"transferOwnership","inputs":[{"name":"newOwner","type":"address","internalType":"address"}],"outputs":[],"stateMutability":"nonpayable"},{"type":"event","name":"Approval","inputs":[{"name":"owner","type":"address","indexed":true,"internalType":"address"},{"name":"approved","type":"address","indexed":true,"internalType":"address"},{"name":"tokenId","type":"uint256","indexed":true,"internalType":"uint256"}],"anonymous":false},{"type":"event","name":"ApprovalForAll","inputs":[{"name":"owner","type":"address","indexed":true,"internalType":"address"},{"name":"operator","type":"address","indexed":true,"internalType":"address"},{"name":"approved","type":"bool","indexed":false,"internalType":"bool"}],"anonymous":false},{"type":"event","name":"Burn","inputs":[{"name":"poolId","type":"bytes32","indexed":true,"internalType":"PoolId"},{"name":"sender","type":"address","indexed":true,"internalType":"address"},{"name":"positionId","type":"uint256","indexed":false,"internalType":"uint256"},{"name":"burnType","type":"uint8","indexed":false,"internalType":"uint8"}],"anonymous":false},{"type":"event","name":"CheckerChanged","inputs":[{"name":"oldChecker","type":"address","indexed":true,"internalType":"address"},{"name":"newChecker","type":"address","indexed":true,"internalType":"address"}],"anonymous":false},{"type":"event","name":"Liquidate","inputs":[{"name":"poolId","type":"bytes32","indexed":true,"internalType":"PoolId"},{"name":"sender","type":"address","indexed":true,"internalType":"address"},{"name":"positionId","type":"uint256","indexed":false,"internalType":"uint256"},{"name":"marginAmount","type":"uint256","indexed":false,"internalType":"uint256"},{"name":"marginTotal","type":"uint256","indexed":false,"internalType":"uint256"},{"name":"borrowAmount","type":"uint256","indexed":false,"internalType":"uint256"},{"name":"oracleReserves","type":"uint256","indexed":false,"internalType":"uint256"},{"name":"statusReserves","type":"uint256","indexed":false,"internalType":"uint256"}],"anonymous":false},{"type":"event","name":"Margin","inputs":[{"name":"poolId","type":"bytes32","indexed":true,"internalType":"PoolId"},{"name":"owner","type":"address","indexed":true,"internalType":"address"},{"name":"positionId","type":"uint256","indexed":false,"internalType":"uint256"},{"name":"marginAmount","type":"uint256","indexed":false,"internalType":"uint256"},{"name":"marginTotal","type":"uint256","indexed":false,"internalType":"uint256"},{"name":"borrowAmount","type":"uint256","indexed":false,"internalType":"uint256"},{"name":"marginForOne","type":"bool","indexed":false,"internalType":"bool"}],"anonymous":false},{"type":"event","name":"Mint","inputs":[{"name":"poolId","type":"bytes32","indexed":true,"internalType":"PoolId"},{"name":"sender","type":"address","indexed":true,"internalType":"address"},{"name":"to","type":"address","indexed":true,"internalType":"address"},{"name":"positionId","type":"uint256","indexed":false,"internalType":"uint256"}],"anonymous":false},{"type":"event","name":"Modify","inputs":[{"name":"poolId","type":"bytes32","indexed":true,"internalType":"PoolId"},{"name":"sender","type":"address","indexed":true,"internalType":"address"},{"name":"positionId","type":"uint256","indexed":false,"internalType":"uint256"},{"name":"marginAmount","type":"uint256","indexed":false,"internalType":"uint256"},{"name":"marginTotal","type":"uint256","indexed":false,"internalType":"uint256"},{"name":"borrowAmount","type":"uint256","indexed":false,"internalType":"uint256"},{"name":"changeAmount","type":"int256","indexed":false,"internalType":"int256"}],"anonymous":false},{"type":"event","name":"OwnershipTransferred","inputs":[{"name":"user","type":"address","indexed":true,"internalType":"address"},{"name":"newOwner","type":"address","indexed":true,"internalType":"address"}],"anonymous":false},{"type":"event","name":"RepayClose","inputs":[{"name":"poolId","type":"bytes32","indexed":true,"internalType":"PoolId"},{"name":"sender","type":"address","indexed":true,"internalType":"address"},{"name":"positionId","type":"uint256","indexed":false,"internalType":"uint256"},{"name":"releaseMarginAmount","type":"uint256","indexed":false,"internalType":"uint256"},{"name":"releaseMarginTotal","type":"uint256","indexed":false,"internalType":"uint256"},{"name":"repayAmount","type":"uint256","indexed":false,"internalType":"uint256"},{"name":"repayRawAmount","type":"uint256","indexed":false,"internalType":"uint256"},{"name":"pnlAmount","type":"int256","indexed":false,"internalType":"int256"}],"anonymous":false},{"type":"event","name":"Transfer","inputs":[{"name":"from","type":"address","indexed":true,"internalType":"address"},{"name":"to","type":"address","indexed":true,"internalType":"address"},{"name":"tokenId","type":"uint256","indexed":true,"internalType":"uint256"}],"anonymous":false},{"type":"error","name":"ERC721IncorrectOwner","inputs":[{"name":"sender","type":"address","internalType":"address"},{"name":"tokenId","type":"uint256","internalType":"uint256"},{"name":"owner","type":"address","internalType":"address"}]},{"type":"error","name":"ERC721InsufficientApproval","inputs":[{"name":"operator","type":"address","internalType":"address"},{"name":"tokenId","type":"uint256","internalType":"uint256"}]},{"type":"error","name":"ERC721InvalidApprover","inputs":[{"name":"approver","type":"address","internalType":"address"}]},{"type":"error","name":"ERC721InvalidOperator","inputs":[{"name":"operator","type":"address","internalType":"address"}]},{"type":"error","name":"ERC721InvalidOwner","inputs":[{"name":"owner","type":"address","internalType":"address"}]},{"type":"error","name":"ERC721InvalidReceiver","inputs":[{"name":"receiver","type":"address","internalType":"address"}]},{"type":"error","name":"ERC721InvalidSender","inputs":[{"name":"sender","type":"address","internalType":"address"}]},{"type":"error","name":"ERC721NonexistentToken","inputs":[{"name":"tokenId","type":"uint256","internalType":"uint256"}]},{"type":"error","name":"InsufficientAmount","inputs":[{"name":"amount","type":"uint256","internalType":"uint256"}]},{"type":"error","name":"InsufficientBorrowReceived","inputs":[]},{"type":"error","name":"InsufficientValue","inputs":[]},{"type":"error","name":"MarginTransferFailed","inputs":[{"name":"amount","type":"uint256","internalType":"uint256"}]},{"type":"error","name":"MathOverflowedMulDiv","inputs":[]},{"type":"error","name":"Overflow","inputs":[]},{"type":"error","name":"PairNotExists","inputs":[]},{"type":"error","name":"PositionLiquidated","inputs":[]},{"type":"error","name":"PositionNotLiquidated","inputs":[]},{"type":"error","name":"ReentrancyGuardReentrantCall","inputs":[]}],"bytecode":{"object":"0x60c080604052346102df57606081615b95803803809161001f82856104e6565b8339810103126102df5780516001600160a01b03811691908290036102df5760208101516001600160a01b038116918282036102df57604001516001600160a01b03811693908490036102df5760405161007a6040826104e6565b601b81527f4c494b5749444d617267696e506f736974696f6e4d616e6167657200000000006020820152604051906100b36040836104e6565b60048252634c4d504d60e01b60208301528051906001600160401b0382116103ed575f5490600182811c921680156104dc575b60208310146103cf5781601f84931161046f575b50602090601f831160011461040c575f92610401575b50508160011b915f199060031b1c1916175f555b8051906001600160401b0382116103ed57600154600181811c911680156103e3575b60208210146103cf57601f811161036c575b50602090601f831160011461030157918060209594926004945f926102f6575b50508160011b915f199060031b1c1916176001555b600680546001600160a01b0319168217905560405194859384925f7f8be0079c531659141344cd1fd0a4f28419497f9722a3daafe3b4186f6b6457e08180a36001600855608052635e6263eb60e01b82525afa9081156102eb575f916102a5575b5060a052600780546001600160a01b03191691909117905560405161568b908161050a823960805181818161021101528181610a0f01528181610ba10152818161153301528181611f6001528181612993015261370a015260a0518181816102f00152818161039c015281816105da01528181610f250152818161105401528181611736015281816124770152818161253d01528181612edf015281816138ed01528181613c1301528181613ca601526151cf0152f35b90506020813d6020116102e3575b816102c0602093836104e6565b810103126102df57516001600160a01b03811681036102df575f6101ee565b5f80fd5b3d91506102b3565b6040513d5f823e3d90fd5b015190505f80610178565b90601f1983169160015f52815f20925f5b818110610354575092600192859260049660209998961061033c575b505050811b0160015561018d565b01515f1960f88460031b161c191690555f808061032e565b92936020600181928786015181550195019301610312565b60015f527fb10e2d527612073b26eecdfd717e6a320cf44b4afac2b0732d9fcbe2b7fa0cf6601f840160051c810191602085106103c5575b601f0160051c01905b8181106103ba5750610158565b5f81556001016103ad565b90915081906103a4565b634e487b7160e01b5f52602260045260245ffd5b90607f1690610146565b634e487b7160e01b5f52604160045260245ffd5b015190505f80610110565b5f8080528281209350601f198516905b818110610457575090846001959493921061043f575b505050811b015f55610124565b01515f1960f88460031b161c191690555f8080610432565b9293602060018192878601518155019501930161041c565b5f80529091507f290decd9548b62a8d60345a988386fc84ba6bc95484008f6362f93160ef3e563601f840160051c810191602085106104d2575b90601f859493920160051c01905b8181106104c457506100fa565b5f81558493506001016104b7565b90915081906104a9565b91607f16916100e6565b601f909101601f19168101906001600160401b038211908210176103ed5760405256fe60a0806040526004361015610012575f80fd5b5f905f3560e01c90816301ffc9a71461408357508063025f87fb1461368957806306fdde03146135d1578063081812fc14613595578063082c1468146128df578063095ea7b3146127f55780630d90040d14611e70578063141d88f214611df057806323b872dd14611dd957806342842e0e14611db05780636352211e14611d8057806370a0823114611d2f578063895a7485146114ca5780638da5cb5b146114a257806395d89b411461139a578063a22cb465146112f9578063b191d56414610ac8578063b88d4fde14610a3e578063bc37857d146109fa578063c87b56dd146109a1578063cf5303cf14610978578063e985e9c514610920578063eb02c301146107ee578063eeb2522714610749578063f1930394146101b35763f2fde38b1461013c575f80fd5b346101b05760203660031901126101b0576101556141ac565b6006549061016d336001600160a01b038416146148b9565b6001600160a01b03166001600160a01b0319919091168117600655337f8be0079c531659141344cd1fd0a4f28419497f9722a3daafe3b4186f6b6457e08380a380f35b80fd5b5060403660031901126101b0576004356024356101ce614d76565b6101ea6101da836150ae565b6001600160a01b031633146142cb565b81835260096020526040808420805491516302ef145760e51b8152600481019290925291907f00000000000000000000000000000000000000000000000000000000000000006001600160a01b03169061026081602481855afa90811561073e57869161070f575b5061025d8185614dab565b50600184019160ff8354165f146106f9576101c0820151602001516001600160a01b0316915b878512156106f25761029485614748565b915b888613156105565750506102aa81836150d0565b9085549060405191630bff31f160e11b8352336004840152306024840152604483015260018060a01b0384166064830152608482015260208160a4818560018060a01b037f0000000000000000000000000000000000000000000000000000000000000000165af19081156104fe578891610522575b5061034c6001600160701b0361033861035293615014565b166001600160801b03865460081c16614866565b84614819565b803411610509575b505b8354915460405163f21ce75f60e01b8152600481018490526001600160a01b03838116602483015260089290921c6001600160801b0316604482015292947f00000000000000000000000000000000000000000000000000000000000000009091169290602082606481875afa9182156104fe5788926104c8575b506002015460405163f21ce75f60e01b8152600481018790526001600160a01b0390931660248401526001600160801b03811660448401529260209083908180606481015b03915afa9182156104bd578792610485575b506040519586526020860152604085015260801c606084015260808301527fb0b96df0ad96a6e2daf3ded5a2c92308828df41fdfdd724a99e3faa587d1240660a03393a3805f805160206156368339815191525d80f35b9091506020813d6020116104b5575b816104a16020938361417b565b810103126104b15751905f61042e565b5f80fd5b3d9150610494565b6040513d89823e3d90fd5b9091506020813d6020116104f6575b816104e46020938361417b565b810103126104b157519061041c6103d7565b3d91506104d7565b6040513d8a823e3d90fd5b61051661051c9134614758565b33615130565b5f61035a565b90506020813d60201161054e575b8161053d6020938361417b565b810103126104b1575161034c610320565b3d9150610530565b61058c9161036460209260018060a01b0360075416604051958694859363eabde6cb60e01b855260048501526024840190614517565b61059a61028483018c61466a565b5afa9081156104fe5788916106c0575b50811161068d5760208286546105d5604051948593849363a43eec8760e01b8552336004860161483b565b03818a7f00000000000000000000000000000000000000000000000000000000000000006001600160a01b03165af19081156104bd578791610659575b5061063e6001600160701b0361062a61064493615014565b166001600160801b03855460081c166147f9565b83614819565b341561035c576106543433615130565b61035c565b90506020813d602011610685575b816106746020938361417b565b810103126104b1575161063e610612565b3d9150610667565b60405162461bcd60e51b815260206004820152600b60248201526a13d5915497d05353d5539560aa1b6044820152606490fd5b90506020813d6020116106ea575b816106db6020938361417b565b810103126104b157515f6105aa565b3d91506106ce565b8491610296565b6101c0820151516001600160a01b031691610283565b61073191506102603d8111610737575b610729818361417b565b81019061433c565b5f610252565b503d61071f565b6040513d88823e3d90fd5b50346101b05760803660031901126101b05760043561076661419d565b60443592906001600160a01b03841684036104b1576064359283151584036104b157604093156107c1578252600a6020528282209015158252602052209060018060a01b03165f52602052602060405f20545b604051908152f35b8252600b6020528282209015158252602052209060018060a01b03165f52602052602060405f20546107b9565b50346101b05760203660031901126101b057610808614d2c565b5060018060a01b03600754166004358252600960205260e061084b61010460408520604051948593849263d53e2367871b8452306004850152602484019061466a565b5afa90811561091557829161086d575b60e08261086b604051809261422e565bf35b905060e0813d60e01161090d575b8161088860e0938361417b565b810103126109095760e0915060c0604051916108a38361415f565b805183526108b3602082016144ed565b60208401526108c460408201614d62565b60408401526108d560608201614d62565b60608401526108e660808201614d62565b60808401526108f760a08201614d62565b60a0840152015160c08201525f61085b565b5080fd5b3d915061087b565b6040513d84823e3d90fd5b50346101b05760403660031901126101b057604061093c6141ac565b916109456141c2565b9260018060a01b031681526005602052209060018060a01b03165f52602052602060ff60405f2054166040519015158152f35b50346101b057806003193601126101b0576007546040516001600160a01b039091168152602090f35b346104b15760203660031901126104b1576109bd6004356150ae565b505f6040516109cd60208261417b565b526109f66040516109df60208261417b565b5f81526040519182916020835260208301906140ee565b0390f35b346104b1575f3660031901126104b1576040517f00000000000000000000000000000000000000000000000000000000000000006001600160a01b03168152602090f35b346104b15760803660031901126104b157610a576141ac565b610a5f6141c2565b6064359167ffffffffffffffff83116104b157366023840112156104b157826004013591610a8c83614212565b92610a9a604051948561417b565b80845236602482870101116104b1576020815f926024610ac69801838801378501015260443591614c13565b005b60203660031901126104b157600754604051636216b07b60e01b815233600480830191909152356024820181905291602090829060449082906001600160a01b03165afa8015610ffe575f906112be575b610b2391506142cb565b805f52600960205260405f2090610bfe60405191610b408361415f565b60048454948585526001600160801b03600182015460ff81161515602088015260081c16604086015260028101546001600160801b038116606087015260801c60808601526001600160801b0360038201541660a0860152015460c08401527f00000000000000000000000000000000000000000000000000000000000000009261026060018060a01b0385169560405180958192632bc5fd8560e01b8352336004840160209093929193604081019460018060a01b031681520152565b03815f895af1928315610ffe575f9361129d575b508060408460018060a01b036007541696610c40835195869384936310960f9d60e01b855260048501614886565b0381885afa918215610ffe575f905f93611269575b501561125a5783610c659161517f565b9360408501916001600160801b038351166001600160801b03610c9060608901928284511690614866565b169660208101805115155f14611236576101c088015180516020909101516001600160a01b039081169b9116919089905b6001600160e01b03610cd2836152b6565b16936001600160e01b03610ce584615301565b16988d855115156040519e8f9283926362d5e44f60e01b84526004840192610d0c936146ff565b03815a93602094fa9b8c15610ffe575f9c611200575b508b610d2d916150d0565b908551935115156001600160801b0360a0880151166103e84201918242116111ec5760405196610d5c88614112565b875260208701523360408701528960608701528d60808701525f60a087015260c086015260e08501526020604051809263bb4dab6d60e01b8252818581610da88a8a3360048501614772565b03925af18015610ffe576111bd575b508034116111aa575b50885f52600960205260405f2060405190610dda8261415f565b805482526001810154906001600160801b03602084019260ff81161515845260081c166040840152600460028201549160608501926001600160801b038116845260801c60808601526001600160801b0360038201541660a086015201548060c08501521561117557516001600160801b031661113a5781515f52600b60205260405f20905115155f5260205260405f20610e748b6150ae565b60018060a01b03165f526020525f60408120555b5f8a81526009602052604081208181556001810182905560028101829055600381018290556004015551604051908a8252600360208301525f805160206155d683398151915260403393a36001600160a01b03610ee48a615365565b1615611113578a8c610ef592615057565b15611009575160405163a43eec8760e01b81529a6020918c918291610f20918e91336004860161483b565b03815f7f00000000000000000000000000000000000000000000000000000000000000006001600160a01b03165af1948515610ffe576001600160801b0380610fc09460409d5f805160206155f683398151915299610fcf575b505b51985116945116948b51958695339a87926001600160801b03908160a096939998979460c087019a8752166020860152166040840152606083015260808201520152565b0390a382519182526020820152f35b610ff09060203d602011610ff7575b610fe8818361417b565b810190614721565b508e610f7a565b503d610fde565b6040513d5f823e3d90fd5b509192939860208961102061104f93855190614fe4565b6040516304ade6db60e11b81523360048201526024810191909152604481019190915291829081906064820190565b03815f7f00000000000000000000000000000000000000000000000000000000000000006001600160a01b03165af18015610ffe576110b0575b505f805160206155f68339815191529392916040996001600160801b0380610fc094610f7c565b909392916020823d60201161110b575b816110cd6020938361417b565b810103126104b1576040996001600160801b03805f805160206155f6833981519152976110fc610fc0966144ed565b50945050509950919293611089565b3d91506110c0565b88637e27328960e01b5f5260045260245ffd5b634e487b7160e01b5f52602160045260245ffd5b81515f52600a60205260405f20905115155f5260205260405f2061115d8b6150ae565b60018060a01b03165f526020525f6040812055610e88565b60405162461bcd60e51b815260206004820152600d60248201526c1053149150511657d095549395609a1b6044820152606490fd5b6105166111b79134614758565b8c610dc0565b6020813d6020116111e4575b816111d66020938361417b565b810103126104b15751610db7565b3d91506111c9565b634e487b7160e01b5f52601160045260245ffd5b909b506020813d60201161122e575b8161121c6020938361417b565b810103126104b157519a610d2d610d22565b3d915061120f565b6101c0880151602081015190516001600160a01b039081169b911691908990610cc1565b63a17ea0bd60e01b5f5260045ffd5b905061128e91925060403d604011611296575b611286818361417b565b8101906144fa565b919087610c55565b503d61127c565b6112b79193506102603d811161073757610729818361417b565b9185610c12565b506020813d6020116112f1575b816112d86020938361417b565b810103126104b1576112ec610b23916144ed565b610b19565b3d91506112cb565b346104b15760403660031901126104b1576113126141ac565b61131a61419d565b6001600160a01b0390911690811561138757335f52600560205260405f20825f526020526113578160405f209060ff801983541691151516179055565b60405190151581527f17307eab39ab6107e8899845ad3d59bd9653f200f220920489ca2b5937696c3160203392a3005b50630b61174360e31b5f5260045260245ffd5b346104b1575f3660031901126104b1576040515f6001548060011c90600181168015611498575b602083108114611484578285529081156114605750600114611402575b6109f6836113ee8185038261417b565b6040519182916020835260208301906140ee565b91905060015f527fb10e2d527612073b26eecdfd717e6a320cf44b4afac2b0732d9fcbe2b7fa0cf6915f905b808210611446575090915081016020016113ee6113de565b91926001816020925483858801015201910190929161142e565b60ff191660208086019190915291151560051b840190910191506113ee90506113de565b634e487b7160e01b5f52602260045260245ffd5b91607f16916113c1565b346104b1575f3660031901126104b1576006546040516001600160a01b039091168152602090f35b60603660031901126104b1576115706044356004356024356114ea614d76565b6114f642841015614295565b80916115046101da826150ae565b5f818152600960205260409081902080549151632bc5fd8560e01b8152336004820152602481019290925290957f00000000000000000000000000000000000000000000000000000000000000006001600160a01b038116949293929161026090899081906044820190565b03815f895af1978815610ffe575f98611d05575b506040846115c5926115968b83614dab565b5060075483516310960f9d60e01b81529485936001600160a01b039092169284928392918f90600485016146ca565b03915afa908115610ffe575f91611ce5575b50611cd6576116aa95600184019360ff855416955f608052865f14611cb1576101c08a015180516020918201516001600160a01b0390811660805216975b60028401998a5460801c809711611caa575b61168a908554926040519361163b85614112565b8452151584840152336040840152806060840152608083019a818c525f60a085015260c08401975f895260e08501526116836003880199836001600160801b038c5416614f4d565b88526150d0565b928c84604051809e8195829463bb4dab6d60e01b84523360048501614772565b03925af18015610ffe57611c77575b61176e9850803411611c64575b50549586958154958054966116ec8160801c84516001600160801b038b60081c16614f4d565b906117058160801c85516001600160801b038416614f4d565b60405163f21ce75f60e01b8152608051600482019c909c526001600160a01b039b8c166024820152604481018490527f0000000000000000000000000000000000000000000000000000000000000000909b169c9094906020908c908f90829081906064820190565b03915afa998a15610ffe578c9b5f9b611c2d575b5060405163f21ce75f60e01b8152608051600482019d909d526001600160a01b03909c1660248d015260448c018690528d8c6064815a93602094fa9b8c15610ffe578f90918e925f9e611bf0575b5061186f938c8f948f61188f98965f80516020615616833981519152918f6001600160701b039861185c9160ff6118659a165f14611bd9578a80610160816101408601511694015116925b165f9281611bb6575b50508851905190604051958695339a879260a094919796959260c0850198855260208501526040840152606083015260808201520152565b0390a351615014565b169060801c6147f9565b85546001600160801b031660809190911b6001600160801b031916178555565b835460801c611b3357505050505050805f52600960205260405f20604051906118b78261415f565b805482526001810154906001600160801b03602084019260ff81161515845260081c166040840152600460028201549160608501926001600160801b038116845260801c60808601526001600160801b0360038201541660a086015201548060c08501521561117557516001600160801b0316611af85781515f52600b60205260405f20905115155f5260205260405f20611951836150ae565b60018060a01b03165f526020525f60408120555b5f8281526009602052604081208181556001810182905560028101829055600381018290556004015551604051908282525f60208301525f805160206155d683398151915260403393a36001600160a01b036119c082615365565b1615611ae657506119df916119d491614765565b809460805190615057565b15611a505791602091611a0e935f60405180968195829463a43eec8760e01b845260805190336004860161483b565b03925af18015610ffe57611a31575b505b5f5f805160206156368339815191525d005b611a499060203d602011610ff757610fe8818361417b565b5080611a1d565b91602091611a63611a9894608051614fe4565b6040516304ade6db60e11b815233600482015260248101919091526044810192909252909283919082905f9082906064820190565b03925af18015610ffe57611aad575b50611a1f565b6020813d602011611ade575b81611ac66020938361417b565b810103126104b157611ad7906144ed565b5080611aa7565b3d9150611ab9565b637e27328960e01b5f5260045260245ffd5b81515f52600a60205260405f20905115155f5260205260405f20611b1b836150ae565b60018060a01b03165f526020525f6040812055611965565b6119df9896506119d49795946001600160801b039485611b926001600160701b03611b88611ba198611b838399611b7d85611b70611b889c615014565b1688835460081c166147f9565b90614819565b615014565b16828454166147f9565b16861982541617905551615014565b166001600160801b0319825416179055614765565b611bd192935090611bcb918d8c519116614f4d565b85614730565b905f80611824565b8a806101408161016086015116940151169261181b565b9d509391505060208c3d602011611c25575b81611c0f6020938361417b565b810103126104b1579a519a918c908f90896117d0565b3d9150611c02565b9b50995060208b3d602011611c5c575b81611c4a6020938361417b565b810103126104b1578b9a51998f611782565b3d9150611c3d565b610516611c719134614758565b896116c6565b6020893d602011611ca2575b81611c906020938361417b565b810103126104b15761176e98506116b9565b3d9150611c83565b5085611627565b6101c08a015160208082015191516001600160a01b0390811660805290911697611615565b637f4a51e560e11b5f5260045ffd5b611cfe915060403d60401161129657611286818361417b565b50886115d7565b6115c591985084611d266040926102603d811161073757610729818361417b565b99925050611584565b346104b15760203660031901126104b1576001600160a01b03611d506141ac565b168015611d6d575f526003602052602060405f2054604051908152f35b6322718ad960e21b5f525f60045260245ffd5b346104b15760203660031901126104b1576020611d9e6004356150ae565b6040516001600160a01b039091168152f35b346104b157610ac6611dc1366141d8565b9060405192611dd160208561417b565b5f8452614c13565b346104b157610ac6611dea366141d8565b916148f4565b346104b15760203660031901126104b157611e096141ac565b611e1e60018060a01b036006541633146148b9565b6001600160a01b031680611e2e57005b600754816001600160a01b0382167f49dc3b5c7fa32e66fb003c830e5b502ca4b772aa881a99d8f98097ef8948f2055f80a36001600160a01b03191617600755005b346104b15760203660031901126104b157600754604051636216b07b60e01b8152336004808301919091523560248201819052915f9190602090829060449082906001600160a01b03165afa8015610ffe575f906127ba575b611ed391506142cb565b815f52600960205260405f2060405190611eec8261415f565b8054808352600182015460ff81161515602085015260081c6001600160801b0390811660408086019190915260028401548083166060870152608090811c90860152600384015490911660a085015260049283015460c085015251632bc5fd8560e01b8152339281019290925260248201527f000000000000000000000000000000000000000000000000000000000000000090610260816044815f6001600160a01b0387165af1908115610ffe575f9161279b575b50600754604080516310960f9d60e01b81526001600160a01b0390921694908280611fd284878960048501614886565b0381885afa918215610ffe575f905f93612777575b501561125a5782611ff79161517f565b60208101805191949115612761576101c0840151602001516001600160a01b0316915b6001600160e01b0361202b866152b6565b16946001600160e01b0361203e82615301565b16938751935115156001600160801b0360a08a015116996103e842018042116111ec5760049b6040938451986120738a614112565b8952602089015230848901528960608901525f60808901525f60a089015260c088015260e087015281519a8b809263158d54b160e31b82525afa988915610ffe575f905f9a612719575b505f915f9a6001600160801b036120e28c826060816040840151169201511690614866565b169262ffffff81166126ff575b508c8162ffffff8e93166125df575b509061210d6121129285614758565b614758565b926020870151155f146125c057612128856155b6565b6001600160701b0361213987615597565b169462ffffff60406101c0890151015116620f424003620f424081116111ec5761216291614e7e565b8581029581870414811517156111ec578e9561218b612191926001600160701b038e9516614765565b90614e74565b106125b8575b831591821580936125af575b61241f575b5050506121e49961210d6020969594936121c193614758565b60a08401525f604051809a8195829463bb4dab6d60e01b84523360048501614772565b03926001600160a01b03165af1948515610ffe575f956123dc575b50835160408086015160609687015182518b81526001600160801b03928316602082015291169181019190915294850192909252608084015260a083019190915233915f805160206155f68339815191529060c090a3825f52600960205260405f206040519061226e8261415f565b805482526001810154906001600160801b03602084019260ff81161515845260081c166040840152600460028201549160608501926001600160801b038116845260801c60808601526001600160801b0360038201541660a086015201548060c08501521561117557516001600160801b03166123a15781515f52600b60205260405f20905115155f5260205260405f20612308856150ae565b60018060a01b03165f526020525f60408120555b5f848152600960205260408120818155600181018290556002810182905560038101829055600401555160405190848252600260208301525f805160206155d683398151915260403393a36001600160a01b0361237884615365565b161561238e576040809350519182526020820152f35b82637e27328960e01b5f5260045260245ffd5b81515f52600a60205260405f20905115155f5260205260405f206123c4856150ae565b60018060a01b03165f526020525f604081205561231c565b919094506020823d602011612417575b816123f96020938361417b565b810103126104b1579051935f805160206155f68339815191526121ff565b3d91506123ec565b8b5161242a91614fe4565b9161250a575b8b61243c575b806121a8565b6040516304ade6db60e11b81526001600160a01b0390911660048201526024810191909152604481018b90529150602082806064810103815f7f00000000000000000000000000000000000000000000000000000000000000006001600160a01b03165af1918215610ffe578b926124b5575b80612436565b9094939291506020813d602011612502575b816124d46020938361417b565b810103126104b1576121e49961210d8c6020976124f36121c1956144ed565b509350939495965050996124af565b3d91506124c7565b6040516304ade6db60e11b81523360048201526024810183905260448101949094526020846064815f6001600160a01b037f0000000000000000000000000000000000000000000000000000000000000000165af1938415610ffe578d94612573575b50612430565b93506020843d6020116125a7575b8161258e6020938361417b565b810103126104b1576125a08d946144ed565b508e61256d565b3d9150612581565b508c15156121a3565b5f9b50612197565b6125c985615597565b6001600160701b036125da876155b6565b612139565b6040516313ac42a760e01b8152909550915060209050816004816001600160a01b038a165afa908115610ffe575f916126bc575b50604051622fcfcb60e31b815290602090829060049082906001600160a01b03165afa938415610ffe578d915f9561267e575b506001600160a01b03851661265e575b908c916120fe565b61210d9c509061267662ffffff612112931685614e7e565b9c5090612656565b915093506020813d6020116126b4575b8161269b6020938361417b565b810103126104b1576126ad8d91614328565b938f612646565b3d915061268e565b90506020813d6020116126f7575b816126d76020938361417b565b810103126104b157516001600160a01b03811681036104b1576020612613565b3d91506126ca565b8c919d5062ffffff612712911684614e7e565b9c906120ef565b9950506040893d604011612759575b816127356040938361417b565b810103126104b157612752602061274b8b614318565b9a01614318565b988c6120bd565b3d9150612728565b6101c0840151516001600160a01b03169161201a565b905061279391925060403d60401161129657611286818361417b565b919088611fe7565b6127b491506102603d811161073757610729818361417b565b85611fa2565b506020813d6020116127ed575b816127d46020938361417b565b810103126104b1576127e8611ed3916144ed565b611ec9565b3d91506127c7565b346104b15760403660031901126104b15761280e6141ac565b60243561281a816150ae565b331515806128cc575b8061289f575b61288c5781906001600160a01b0384811691167f8c5be1e5ebec7d5bd14f71427d1e84f3dd0314c0f7b2291e5b200ac8c7c3b9255f80a45f90815260046020526040902080546001600160a01b0319166001600160a01b03909216919091179055005b63a9fbf51f60e01b5f523360045260245ffd5b506001600160a01b0381165f90815260056020908152604080832033845290915290205460ff1615612829565b506001600160a01b038116331415612823565b6101003660031901126104b1576040516128f881614112565b600435815261290561419d565b602082019081526044359062ffffff821682036104b1576040830191825260643560608401908152608435608085015260a43560a085015260c435939092906001600160a01b03851685036104b1576129cc9460c0820190815261297360e4358060e0850152421115614295565b8151604051632bc5fd8560e01b81523360048201526024810191909152957f00000000000000000000000000000000000000000000000000000000000000006001600160a01b0316939061026090889081906044820190565b03815f885af1968715610ffe575f97613568575b5051600492919062ffffff16156135335781515f908152600a60209081526040808320885115158452825280832093516001600160a01b031683529290522054925b6007546040516335a7285b60e21b81529360209185919082906001600160a01b03165afa948515610ffe5787935f966134e5575b5092612ae7926103e492610160955115155f146134d0576101c0830151602001516001600160a01b03165b62ffffff612ac16040519b8c95612a9787614143565b865282604060208801975f8952019c168c5260608d019360018060a01b03169081855251906150d0565b998a9460e06040519d8e9a8b99638072e28b841b8b523360048c015260248b0190614517565b5180516102848a0152602081015115156102a48a0152604081015185166102c48a015260608101516102e48a015260808101516103048a015260a08101516103248a015260c08101516001600160a01b039081166103448b0152910151610364890152905161038488015290519091166103a48601529051166103c48401525af1928315610ffe575f936133eb575b508251918034116133d8575b5060a082015180151590816133ca575b506133bb5780613270575060c081019060018060a01b03825116926008545f1981146111ec57600181016008558094801561325d575f828152600260205260409020546001600160a01b0316801515918261322a575b805f52600360205260405f2060018154019055835f52600260205260405f2060018060a01b0382166001600160601b0360a01b8254161790556040518482847fddf252ad1be2c89b69c2b068fc378daa952ba7f163c4a11628f55a4df523b3ef5f80a4845f52600960205260405f2090612c618161415f565b81548082526001830154926001600160801b03602084019460ff81161515865260081c16604084015260046002820154916001600160801b0383169283606087015260801c60808601526001600160801b0360038201541660a086015201548060c08501526130f5575b5050505050506130e257825160018060a01b0385511690604051908382527f3da3c136802f9d70e1dc46948f8eb44c608278811d1e5c1f4f380c5bd3b71ee560203393a460208301938451151591825f146130d7576101808801515b855191612d376060880151615014565b6020870191612d468351615014565b9560808a019a612d60612d598d51615014565b9c51615014565b9460405197612d6e8961415f565b885260208801998a526001600160701b0360408901951685526001600160701b0360608901991689526001600160701b03608089019d168d526001600160701b0360a089019616865260c088019687525115155f1461309e578a515f908152600a6020908152604080832093511515835292815282822093516001600160a01b031682529290925290208190555b5f52600960205260405f20935184556001840195511515612e2990879060ff801983541691151516179055565b516001600160801b03169485612e3e91614819565b925196516001600160801b039788166001600160801b0319608083901b1681176002850155971692516001600160801b031660038301906001600160801b03166001600160801b031982541617905551906004015593612e9d91614866565b6001600160801b0316945b60608201518351612ec1916001600160a01b0316614fe4565b604051631758b3e760e31b81526004810191909152956020876024817f00000000000000000000000000000000000000000000000000000000000000006001600160a01b03165afa968715610ffe575f97613068575b50612f656102e4612f2a89602094614f01565b9360018060a01b036007541684880198895115159662ffffff60408b015116604051988997889663d72fc27960e01b88526004880190614517565b6102648601526102848501526102a48401526102c48301525afa908115610ffe575f9161302e575b5015613017577fcd0c103cb7999308639fe7aa50aa1ac9a1121d7c345c66f58511402bd9315a8a60a0612fd4876020612fcc60409a6060890151614f01565b950151614f01565b928451936080600180851b0360c088015116960196875190511515918a51938a855260208501528a84015260608301526080820152a35182519182526020820152f35b60608201516377b8dde360e01b5f5260045260245ffd5b90506020813d602011613060575b816130496020938361417b565b810103126104b15761305a906144ed565b86612f8d565b3d915061303c565b9096506020813d602011613096575b816130846020938361417b565b810103126104b1575195612f65612f17565b3d9150613077565b8a515f908152600b6020908152604080832093511515835292815282822093516001600160a01b03168252929092529020819055612dfc565b6101a0880151612d27565b6339e3563760e11b5f525f60045260245ffd5b613196575080515f52600b60205260405f20825115155f5260205260405f2060018060a01b0384165f5260205261313060405f205415615328565b80515f52600b60205260405f20825115155f5260205260405f2060018060a01b0385165f526020525f6040812055515f52600b60205260405f20905115155f5260205260405f209060018060a01b03165f526020528260405f20555b8880808080612ccb565b5f52600a60205260405f20825115155f5260205260405f2060018060a01b0384165f526020526131ca60405f205415615328565b80515f52600a60205260405f20825115155f5260205260405f2060018060a01b0385165f526020525f6040812055515f52600a60205260405f20905115155f5260205260405f209060018060a01b03165f526020528260405f205561318c565b5f84815260046020526040902080546001600160a01b0319169055815f52600360205260405f205f198154019055612be8565b633250574960e11b5f525f60045260245ffd5b919061328e336001600160a01b03613287866150ae565b16146142cb565b825f52600960205260405f20916132a58584614dab565b506001600160801b036133816001600160701b036132c66060860151615014565b16946132e56132df600183019785895460081c16614866565b87614819565b602084015180613388575b5061336c61334c600260808801936001600160701b036133108651615014565b1687613323600384019282845416614866565b16881982541617905501926001600160701b03613345855460801c9251615014565b1690614866565b82546001600160801b031660809190911b6001600160801b031916178255565b5482808260801c975460081c16911690614866565b1694612ea8565b6133996001600160701b0391615014565b16836133ac600284019282845416614866565b168419825416179055886132f0565b63ae1c417560e01b5f5260045ffd5b905060808301511185612b92565b6105166133e59134614758565b84612b82565b809193506101603d81116134c9575b613404818361417b565b8101039061016082126104b1576101006040519261342184614143565b126104b1576101406134bd9160405161343981614112565b81518152613449602083016144ed565b602082015261345a60408301614318565b6040820152606082015160608201526080820151608082015260a082015160a082015261348960c08301614328565b60c082015260e082015160e0820152845261010081015160208501526134b26101208201614318565b604085015201614328565b60608201529184612b76565b503d6133fa565b6101c0830151516001600160a01b0316612a81565b935094506020833d60201161352b575b816135026020938361417b565b810103126104b15786612ae7926103e49261351f61016096614318565b97929550925092612a56565b3d91506134f5565b81515f908152600b60209081526040808320885115158452825280832093516001600160a01b03168352929052205492612a22565b6004939291975061358b62ffffff916102603d811161073757610729818361417b565b97919293506129e0565b346104b15760203660031901126104b1576004356135b2816150ae565b505f526004602052602060018060a01b0360405f205416604051908152f35b346104b1575f3660031901126104b1576040515f80548060011c9060018116801561367f575b602083108114611484578285529081156114605750600114613623576109f6836113ee8185038261417b565b5f8080527f290decd9548b62a8d60345a988386fc84ba6bc95484008f6362f93160ef3e563939250905b808210613665575090915081016020016113ee6113de565b91926001816020925483858801015201910190929161364d565b91607f16916135f7565b346104b15760803660031901126104b1576136a2614d76565b6136b0426064351015614295565b6136be6101da6004356150ae565b620f42406024351161404c576004355f52600960205260405f206001600160801b0360028201541615614010578054604051632bc5fd8560e01b815233600482015260248101919091527f000000000000000000000000000000000000000000000000000000000000000091610260826044815f6001600160a01b0388165af1918215610ffe575f92613fef575b506137578282614dab565b50600754604080516310960f9d60e01b81529182906001600160a01b0316818061378687898b600485016146ca565b03915afa908115610ffe575f91613fcf575b50611cd65760018101549160ff8316908115613fb9576101c0810151602001516001600160a01b0316925b8054604051936137d285614112565b81855280151560208601523060408601525f60608601525f60808601525f60a08601525f60c086015260643560e08601526002830154906138186024358360801c614e7e565b606087018190526080870152604051637436595f60e11b81526020816004816001600160a01b038e165afa908115610ffe575f91613f75575b5061387d91606091608089015191604051809581948293637987bed160e11b8452158c600485016146ff565b03916001600160a01b03165afa908115610ffe575f91613f35575b5060a08601526138bf6001600160801b036003850154168260801c90608088015190614f4d565b60c08601526138ce8287614fe4565b604051631758b3e760e31b8152600481018290529098906020816024817f00000000000000000000000000000000000000000000000000000000000000006001600160a01b03165afa908115610ffe575f91613f03575b506139546139416024356001600160801b038c60081c16614e7e565b936001600160801b036024359116614e7e565b936139696139628386614f01565b9286614f01565b9961397860a08a01518c614730565b905f90604435158015613ef7575b15613eb2575f8312613e3c575050806139ad845f8051602061561683398151915293614765565b9b5b6139f160808c01519260c08d01516040519485943399600435879260a094919796959260c0850198855260208501526040840152606083015260808201520152565b0390a36020604051809263bb4dab6d60e01b8252815f81613a178c8c3360048501614772565b03926001600160a01b03165af18015610ffe57613e0d575b50613a78613a5a600285015460801c6001600160701b03613a5360808a0151615014565b16906147f9565b60028501906001600160801b0382549181199060801b169116179055565b600283015460801c613d64575050506004355f52600960205260405f2060405190613aa28261415f565b805482526001810154906001600160801b03602084019260ff81161515845260081c166040840152600460028201549160608501926001600160801b038116845260801c60808601526001600160801b0360038201541660a086015201548060c08501521561117557516001600160801b0316613d275781515f52600b60205260405f20905115155f5260205260405f20613b3e6004356150ae565b60018060a01b03165f526020525f60408120555b6004355f5260096020525f60046040822082815582600182015582600282015582600382015501555160046001101561112657604051906004358252600160208301525f805160206155d683398151915260403393a36001600160a01b03613bbb600435615365565b1615613d12575b83613bd9575f5f805160206156368339815191525d005b8383613be492615057565b15613c7357602092935051613c0e604051948593849363a43eec8760e01b8552336004860161483b565b03815f7f00000000000000000000000000000000000000000000000000000000000000006001600160a01b03165af18015610ffe57613c54575b505b8080808080611a1f565b613c6c9060203d602011610ff757610fe8818361417b565b5080613c48565b50506040516304ade6db60e11b8152336004820152602481019290925260448201526020816064815f6001600160a01b037f0000000000000000000000000000000000000000000000000000000000000000165af18015610ffe57613cd9575b50613c4a565b6020813d602011613d0a575b81613cf26020938361417b565b810103126104b157613d03906144ed565b5080613cd3565b3d9150613ce5565b637e27328960e01b5f5260043560045260245ffd5b81515f52600a60205260405f20905115155f5260205260405f20613d4c6004356150ae565b60018060a01b03165f526020525f6040812055613b52565b6001600160701b03613da46001600160801b0393611b83613d9b84613d8b613db197615014565b168760018a015460081c166147f9565b60018801614819565b16826002850154166147f9565b166001600160801b031960028301541617600282015560036001600160801b03613df56001600160701b03613de960c0880151615014565b168284860154166147f9565b166001600160801b0319828401541617910155613bc2565b6020813d602011613e34575b81613e266020938361417b565b810103126104b15751613a2f565b3d9150613e19565b84613e4684614748565b1015613e7557505080613e6f613e695f8051602061561683398151915293614748565b85614758565b9b6139af565b6001600160801b03919c945060081c16613e8e82614748565b1015611cd65780613eac5f8051602061561683398151915292614748565b936139af565b60405162461bcd60e51b815260206004820152601a60248201527f496e73756666696369656e744f757470757452656365697665640000000000006044820152606490fd5b50826044351315613986565b90506020813d602011613f2d575b81613f1e6020938361417b565b810103126104b157518a613925565b3d9150613f11565b90506060813d606011613f6d575b81613f506060938361417b565b810103126104b157613f66602082519201614318565b5089613898565b3d9150613f43565b90506020813d602011613fb1575b81613f906020938361417b565b810103126104b157516001600160a01b03811681036104b15761387d613851565b3d9150613f83565b6101c0810151516001600160a01b0316926137c3565b613fe8915060403d60401161129657611286818361417b565b5084613798565b6140099192506102603d811161073757610729818361417b565b908361374c565b60405162461bcd60e51b8152602060048201526014602482015273424f52524f575f44495341424c455f434c4f534560601b6044820152606490fd5b60405162461bcd60e51b815260206004820152600f60248201526e26a4a62624a7a72a242fa2a92927a960891b6044820152606490fd5b346104b15760203660031901126104b1576004359063ffffffff60e01b82168092036104b1576020916380ac58cd60e01b81149081156140dd575b81156140cc575b5015158152f35b6301ffc9a760e01b149050836140c5565b635b5e139f60e01b811491506140be565b805180835260209291819084018484015e5f828201840152601f01601f1916010190565b610100810190811067ffffffffffffffff82111761412f57604052565b634e487b7160e01b5f52604160045260245ffd5b6080810190811067ffffffffffffffff82111761412f57604052565b60e0810190811067ffffffffffffffff82111761412f57604052565b90601f8019910116810190811067ffffffffffffffff82111761412f57604052565b6024359081151582036104b157565b600435906001600160a01b03821682036104b157565b602435906001600160a01b03821682036104b157565b60609060031901126104b1576004356001600160a01b03811681036104b157906024356001600160a01b03811681036104b1579060443590565b67ffffffffffffffff811161412f57601f01601f191660200190565b60c08091805184526020810151151560208501526001600160801b0360408201511660408501526001600160801b0360608201511660608501526001600160801b0360808201511660808501526001600160801b0360a08201511660a08501520151910152565b1561429c57565b60405162461bcd60e51b81526020600482015260076024820152661156141254915160ca1b6044820152606490fd5b156142d257565b60405162461bcd60e51b815260206004820152600a60248201526920aaaa242fa2a92927a960b11b6044820152606490fd5b51906001600160701b03821682036104b157565b519062ffffff821682036104b157565b51906001600160a01b03821682036104b157565b8091039061026082126104b157604051916101e0830183811067ffffffffffffffff82111761412f5760405281519063ffffffff821682036104b15760a091845261438960208401614304565b602085015261439a60408401614304565b60408501526143ab60608401614304565b60608501526143bc60808401614304565b60808501526143cc828401614318565b828501526143dc60c08401614304565b60c08501526143ed60e08401614304565b60e08501526143ff6101008401614304565b6101008501526144126101208401614304565b6101208501526144256101408401614304565b6101408501526144386101608401614304565b6101608501526101808301516101808501526101a08301516101a08501526101bf1901126104b1576040519060a0820182811067ffffffffffffffff82111761412f5760405261448b6101c08201614328565b825261449a6101e08201614328565b60208301526144ac6102008201614318565b6040830152610220810151908160020b82036104b157606083019190915261024001516001600160a01b03811681036104b15760808201526101c082015290565b519081151582036104b157565b91908260409103126104b1576020614511836144ed565b92015190565b6101c06102409163ffffffff81511684526001600160701b0360208201511660208501526001600160701b0360408201511660408501526001600160701b0360608201511660608501526001600160701b03608082015116608085015262ffffff60a08201511660a08501526001600160701b0360c08201511660c08501526001600160701b0360e08201511660e08501526001600160701b03610100820151166101008501526001600160701b03610120820151166101208501526001600160701b03610140820151166101408501526001600160701b03610160820151166101608501526101808101516101808501526101a08101516101a0850152015160018060a01b038151166101c084015260018060a01b036020820151166101e084015262ffffff604082015116610200840152606081015160020b610220840152608060018060a01b0391015116910152565b600460c091805484526001600160801b03600182015460ff81161515602087015260081c16604085015260028101546001600160801b038116606086015260801c60808501526001600160801b0360038201541660a08501520154910152565b6001600160a01b039091168152610360810193926146fd929091610280916146f6906020830190614517565b019061466a565b565b61028091949392614715826102a0810197614517565b15156102608201520152565b908160209103126104b1575190565b81810392915f1380158285131691841216176111ec57565b600160ff1b81146111ec575f0390565b919082039182116111ec57565b919082018092116111ec57565b6001600160a01b0390911681526103808101939290916103609160e09161479d906020860190614517565b8051610280850152602081015115156102a085015260408101516001600160a01b03166102c085015260608101516102e0850152608081015161030085015260a081015161032085015260c08101516103408501520151910152565b906001600160801b03809116911603906001600160801b0382116111ec57565b90610100600160881b0382549160081b1690610100600160881b031916179055565b6001600160a01b03918216815260208101929092529091166040820152606081019190915260800190565b906001600160801b03809116911601906001600160801b0382116111ec57565b6001600160a01b039091168152610360810193926146fd929091610280916148b2906020830190614517565b019061422e565b156148c057565b60405162461bcd60e51b815260206004820152600c60248201526b15539055551213d49256915160a21b6044820152606490fd5b6001600160a01b039091169190821561325d575f828152600260205260409020546001600160a01b03169233151580614b83575b5083614b50575b805f52600360205260405f2060018154019055825f52600260205260405f20816001600160601b0360a01b8254161790556040518382867fddf252ad1be2c89b69c2b068fc378daa952ba7f163c4a11628f55a4df523b3ef5f80a4835f52600960205260405f20906149a08161415f565b81548082526001830154926001600160801b03602084019460ff81161515865260081c16604084015260046002820154916001600160801b0383169283606087015260801c60808601526001600160801b0360038201541660a086015201548060c0850152614a3b575b505050505060018060a01b0316808303614a2357505050565b6364283d7b60e01b5f5260045260245260445260645ffd5b614acc575080515f52600b60205260405f20825115155f5260205260405f20835f52602052614a6e60405f205415615328565b80515f52600b60205260405f20825115155f5260205260405f2060018060a01b0387165f526020525f6040812055515f52600b60205260405f20905115155f5260205260405f20905f526020528160405f20555b5f80808080614a0a565b5f52600a60205260405f20825115155f5260205260405f20835f52602052614af860405f205415615328565b80515f52600a60205260405f20825115155f5260205260405f2060018060a01b0387165f526020525f6040812055515f52600a60205260405f20905115155f5260205260405f20905f526020528160405f2055614ac2565b5f83815260046020526040902080546001600160a01b0319169055835f52600360205260405f205f19815401905561492f565b80614bc2575b15614b94575f614928565b8284614bac57637e27328960e01b5f5260045260245ffd5b63177e802f60e01b5f523360045260245260445ffd5b503384148015614bf1575b80614b8957505f838152600460205260409020546001600160a01b03163314614b89565b505f84815260056020908152604080832033845290915290205460ff16614bcd565b9291614c208183866148f4565b813b614c2d575b50505050565b604051630a85bd0160e11b81523360048201526001600160a01b0394851660248201526044810191909152608060648201529216919060209082908190614c789060848301906140ee565b03815f865af15f9181614ce7575b50614cb45750614c94615101565b80519081614caf5782633250574960e11b5f5260045260245ffd5b602001fd5b6001600160e01b03191663757a42ff60e11b01614cd557505f808080614c27565b633250574960e11b5f5260045260245ffd5b9091506020813d602011614d24575b81614d036020938361417b565b810103126104b157516001600160e01b0319811681036104b157905f614c86565b3d9150614cf6565b60405190614d398261415f565b5f60c0838281528260208201528260408201528260608201528260808201528260a08201520152565b51906001600160801b03821682036104b157565b5f805160206156368339815191525c614d9c5760015f805160206156368339815191525d565b633ee5aeb560e01b5f5260045ffd5b919060ff6001840154165f14614e6a5761018001515b8092600481019081548015918215614dda575b50505055565b60020190815460801c614dee828783614f4d565b93614e5657859009614e36575b6001600160701b03614e0f614e2e93615014565b82546001600160801b0316911660801b6001600160801b031916179055565b5f8080614dd4565b6001820180921115614dfb57634e487b7160e01b5f52601160045260245ffd5b634e487b7160e01b5f52601260045260245ffd5b6101a00151614dc1565b8115614e56570490565b9190915f838202915f1985820991838084109303928084039314614ef35782620f42401115614ee457507fde8f6cefed634549b62c77574f722e1ac57e23f24d8fd5cb790fb65668c261399394620f4240910990828211900360fa1b910360061c170290565b63227bc15360e01b8152600490fd5b505050620f42409192500490565b5f90828102925f1981830992848085109403938085039414614f4357600160701b841015614ee45750600160701b910990828211900360901b910360701c1790565b5050505060701c90565b9091828202915f1984820993838086109503948086039514614fd45784831115614fc557829109815f0382168092046002816003021880820260020302808202600203028082026002030280820260020302808202600203028091026002030293600183805f03040190848311900302920304170290565b63227bc15360e01b5f5260045ffd5b505090614fe19250614e74565b90565b604080516001600160a01b039092166020830190815282820193909352815261500e60608261417b565b51902090565b906001600160701b03821680920361502857565b631a93c68960e11b5f5260045ffd5b906001600160701b03809116911601906001600160701b0382116111ec57565b6101c0810151516001600160701b03926001600160a01b0390811691160361509657808260c0816020615091950151169201511690615037565b161190565b808260e0816040615091950151169201511690615037565b5f818152600260205260409020546001600160a01b0316908115611ae6575090565b5f9291906001600160a01b0316156150e55750565b8091925034106150f25790565b63044044a560e21b5f5260045ffd5b3d1561512b573d9061511282614212565b91615120604051938461417b565b82523d5f602084013e565b606090565b5f80809381935af1615140615101565b501561514857565b60405162461bcd60e51b815260206004820152600f60248201526e1514905394d1915497d19052531151608a1b6044820152606490fd5b906151b29061518c614d2c565b50602083015115615289576101c00151602001516001600160a01b03165b825190614fe4565b604051631758b3e760e31b815260048101919091526020816024817f00000000000000000000000000000000000000000000000000000000000000006001600160a01b03165afa908115610ffe575f91615257575b50604082016001600160701b0361522b611b83846001600160801b03855116614f01565b1690526001600160701b03615251611b8360608501936001600160801b03855116614f01565b16905290565b90506020813d602011615281575b816152726020938361417b565b810103126104b157515f615207565b3d9150615265565b6101c00151516001600160a01b03166151aa565b6001600160e01b0391821690821601919082116111ec57565b614fe1906001600160701b036152fa816020840151166152e18360701b918460608701511690615037565b60701b1692826080816040840151169201511690615037565b169061529d565b614fe1906001600160701b036101608160701b61014084015160701b16920151169061529d565b1561532f57565b60405162461bcd60e51b815260206004820152600e60248201526d414c52454144595f45584953545360901b6044820152606490fd5b5f818152600260205260409020546001600160a01b03169081615564575b805f52600260205260405f206001600160601b0360a01b8154169055604051815f847fddf252ad1be2c89b69c2b068fc378daa952ba7f163c4a11628f55a4df523b3ef8280a4815f52600960205260405f20906153df8161415f565b81548082526001830154926001600160801b03602084019460ff81161515865260081c16604084015260046002820154916001600160801b0383169283606087015260801c60808601526001600160801b0360038201541660a086015201548060c0850152615451575b505050505090565b6154e1575080515f52600b60205260405f20825115155f5260205260405f205f805260205261548460405f205415615328565b80515f52600b60205260405f20825115155f5260205260405f2060018060a01b0385165f526020525f6040812055515f52600b60205260405f20905115155f5260205260405f205f805260205260405f20555b5f80808080615449565b5f52600a60205260405f20825115155f5260205260405f205f805260205261550d60405f205415615328565b80515f52600a60205260405f20825115155f5260205260405f2060018060a01b0385165f526020525f6040812055515f52600a60205260405f20905115155f5260205260405f205f805260205260405f20556154d7565b5f81815260046020526040902080546001600160a01b0319169055815f52600360205260405f205f198154019055615383565b614fe1906001600160701b036080816040840151169201511690615037565b614fe1906001600160701b03606081602084015116920151169061503756fe3d023d90350b769385d88d9e75401f8b4e4431afbcb22be877125e15b5fb1d5b060f1b685e2616a7bcd1b072e71f6dc0304be3674c812c1e2dde461be945bfc5b7fe54565dd6f419ae9011088ea0145e0c75a7a79ba3400b862e50d24c56ce5b9b779b17422d0df92223018b32b4d1fa46e071723d6817e2486d003becc55f00a2646970667358221220756616e5fb3ca8f4c901e76a576dbc539b92d0f32f5fdc36806e1f553c9e7e2864736f6c634300081a0033","linkReferences":{}},"methodIdentifiers":{"approve(address,uint256)":"095ea7b3","balanceOf(address)":"70a08231","checker()":"cf5303cf","close(uint256,uint256,int256,uint256)":"025f87fb","getApproved(uint256)":"081812fc","getPosition(uint256)":"eb02c301","getPositionId(bytes32,bool,address,bool)":"eeb25227","isApprovedForAll(address,address)":"e985e9c5","liquidateBurn(uint256)":"0d90040d","liquidateCall(uint256)":"b191d564","margin((bytes32,bool,uint24,uint256,uint256,uint256,address,uint256))":"082c1468","modify(uint256,int256)":"f1930394","name()":"06fdde03","owner()":"8da5cb5b","ownerOf(uint256)":"6352211e","pairPoolManager()":"bc37857d","repay(uint256,uint256,uint256)":"895a7485","safeTransferFrom(address,address,uint256)":"42842e0e","safeTransferFrom(address,address,uint256,bytes)":"b88d4fde","setApprovalForAll(address,bool)":"a22cb465","setMarginChecker(address)":"141d88f2","supportsInterface(bytes4)":"01ffc9a7","symbol()":"95d89b41","tokenURI(uint256)":"c87b56dd","transferFrom(address,address,uint256)":"23b872dd","transferOwnership(address)":"f2fde38b"},"id":93}