{"abi":[{"type":"constructor","inputs":[{"name":"initialOwner","type":"address","internalType":"address"},{"name":"_pairPoolManager","type":"address","internalType":"contract IPairMarginManager"},{"name":"_checker","type":"address","internalType":"contract IMarginChecker"}],"stateMutability":"nonpayable"},{"type":"function","name":"approve","inputs":[{"name":"to","type":"address","internalType":"address"},{"name":"tokenId","type":"uint256","internalType":"uint256"}],"outputs":[],"stateMutability":"nonpayable"},{"type":"function","name":"balanceOf","inputs":[{"name":"owner","type":"address","internalType":"address"}],"outputs":[{"name":"","type":"uint256","internalType":"uint256"}],"stateMutability":"view"},{"type":"function","name":"checker","inputs":[],"outputs":[{"name":"","type":"address","internalType":"contract IMarginChecker"}],"stateMutability":"view"},{"type":"function","name":"close","inputs":[{"name":"positionId","type":"uint256","internalType":"uint256"},{"name":"closeMillionth","type":"uint256","internalType":"uint256"},{"name":"pnlMinAmount","type":"int256","internalType":"int256"},{"name":"deadline","type":"uint256","internalType":"uint256"}],"outputs":[],"stateMutability":"nonpayable"},{"type":"function","name":"getApproved","inputs":[{"name":"tokenId","type":"uint256","internalType":"uint256"}],"outputs":[{"name":"","type":"address","internalType":"address"}],"stateMutability":"view"},{"type":"function","name":"getPosition","inputs":[{"name":"positionId","type":"uint256","internalType":"uint256"}],"outputs":[{"name":"_position","type":"tuple","internalType":"struct MarginPosition","components":[{"name":"poolId","type":"bytes32","internalType":"PoolId"},{"name":"marginForOne","type":"bool","internalType":"bool"},{"name":"marginAmount","type":"uint128","internalType":"uint128"},{"name":"marginTotal","type":"uint128","internalType":"uint128"},{"name":"borrowAmount","type":"uint128","internalType":"uint128"},{"name":"rawBorrowAmount","type":"uint128","internalType":"uint128"},{"name":"rateCumulativeLast","type":"uint256","internalType":"uint256"}]}],"stateMutability":"view"},{"type":"function","name":"getPositionId","inputs":[{"name":"poolId","type":"bytes32","internalType":"PoolId"},{"name":"marginForOne","type":"bool","internalType":"bool"},{"name":"owner","type":"address","internalType":"address"},{"name":"isMargin","type":"bool","internalType":"bool"}],"outputs":[{"name":"_positionId","type":"uint256","internalType":"uint256"}],"stateMutability":"view"},{"type":"function","name":"isApprovedForAll","inputs":[{"name":"owner","type":"address","internalType":"address"},{"name":"operator","type":"address","internalType":"address"}],"outputs":[{"name":"","type":"bool","internalType":"bool"}],"stateMutability":"view"},{"type":"function","name":"liquidateBurn","inputs":[{"name":"positionId","type":"uint256","internalType":"uint256"}],"outputs":[{"name":"profit","type":"uint256","internalType":"uint256"},{"name":"repayAmount","type":"uint256","internalType":"uint256"}],"stateMutability":"nonpayable"},{"type":"function","name":"liquidateCall","inputs":[{"name":"positionId","type":"uint256","internalType":"uint256"}],"outputs":[{"name":"profit","type":"uint256","internalType":"uint256"},{"name":"repayAmount","type":"uint256","internalType":"uint256"}],"stateMutability":"payable"},{"type":"function","name":"margin","inputs":[{"name":"params","type":"tuple","internalType":"struct MarginParams","components":[{"name":"poolId","type":"bytes32","internalType":"PoolId"},{"name":"marginForOne","type":"bool","internalType":"bool"},{"name":"leverage","type":"uint24","internalType":"uint24"},{"name":"marginAmount","type":"uint256","internalType":"uint256"},{"name":"borrowAmount","type":"uint256","internalType":"uint256"},{"name":"borrowMaxAmount","type":"uint256","internalType":"uint256"},{"name":"deadline","type":"uint256","internalType":"uint256"}]}],"outputs":[{"name":"","type":"uint256","internalType":"uint256"},{"name":"","type":"uint256","internalType":"uint256"}],"stateMutability":"payable"},{"type":"function","name":"modify","inputs":[{"name":"positionId","type":"uint256","internalType":"uint256"},{"name":"changeAmount","type":"int256","internalType":"int256"}],"outputs":[],"stateMutability":"payable"},{"type":"function","name":"name","inputs":[],"outputs":[{"name":"","type":"string","internalType":"string"}],"stateMutability":"view"},{"type":"function","name":"owner","inputs":[],"outputs":[{"name":"","type":"address","internalType":"address"}],"stateMutability":"view"},{"type":"function","name":"ownerOf","inputs":[{"name":"tokenId","type":"uint256","internalType":"uint256"}],"outputs":[{"name":"","type":"address","internalType":"address"}],"stateMutability":"view"},{"type":"function","name":"pairPoolManager","inputs":[],"outputs":[{"name":"","type":"address","internalType":"contract IPairMarginManager"}],"stateMutability":"view"},{"type":"function","name":"repay","inputs":[{"name":"positionId","type":"uint256","internalType":"uint256"},{"name":"repayAmount","type":"uint256","internalType":"uint256"},{"name":"deadline","type":"uint256","internalType":"uint256"}],"outputs":[],"stateMutability":"payable"},{"type":"function","name":"safeTransferFrom","inputs":[{"name":"from","type":"address","internalType":"address"},{"name":"to","type":"address","internalType":"address"},{"name":"tokenId","type":"uint256","internalType":"uint256"}],"outputs":[],"stateMutability":"nonpayable"},{"type":"function","name":"safeTransferFrom","inputs":[{"name":"from","type":"address","internalType":"address"},{"name":"to","type":"address","internalType":"address"},{"name":"tokenId","type":"uint256","internalType":"uint256"},{"name":"data","type":"bytes","internalType":"bytes"}],"outputs":[],"stateMutability":"nonpayable"},{"type":"function","name":"setApprovalForAll","inputs":[{"name":"operator","type":"address","internalType":"address"},{"name":"approved","type":"bool","internalType":"bool"}],"outputs":[],"stateMutability":"nonpayable"},{"type":"function","name":"setMarginChecker","inputs":[{"name":"_checker","type":"address","internalType":"address"}],"outputs":[],"stateMutability":"nonpayable"},{"type":"function","name":"supportsInterface","inputs":[{"name":"interfaceId","type":"bytes4","internalType":"bytes4"}],"outputs":[{"name":"","type":"bool","internalType":"bool"}],"stateMutability":"view"},{"type":"function","name":"symbol","inputs":[],"outputs":[{"name":"","type":"string","internalType":"string"}],"stateMutability":"view"},{"type":"function","name":"tokenURI","inputs":[{"name":"tokenId","type":"uint256","internalType":"uint256"}],"outputs":[{"name":"","type":"string","internalType":"string"}],"stateMutability":"view"},{"type":"function","name":"transferFrom","inputs":[{"name":"from","type":"address","internalType":"address"},{"name":"to","type":"address","internalType":"address"},{"name":"tokenId","type":"uint256","internalType":"uint256"}],"outputs":[],"stateMutability":"nonpayable"},{"type":"function","name":"transferOwnership","inputs":[{"name":"newOwner","type":"address","internalType":"address"}],"outputs":[],"stateMutability":"nonpayable"},{"type":"event","name":"Approval","inputs":[{"name":"owner","type":"address","indexed":true,"internalType":"address"},{"name":"approved","type":"address","indexed":true,"internalType":"address"},{"name":"tokenId","type":"uint256","indexed":true,"internalType":"uint256"}],"anonymous":false},{"type":"event","name":"ApprovalForAll","inputs":[{"name":"owner","type":"address","indexed":true,"internalType":"address"},{"name":"operator","type":"address","indexed":true,"internalType":"address"},{"name":"approved","type":"bool","indexed":false,"internalType":"bool"}],"anonymous":false},{"type":"event","name":"Burn","inputs":[{"name":"poolId","type":"bytes32","indexed":true,"internalType":"PoolId"},{"name":"sender","type":"address","indexed":true,"internalType":"address"},{"name":"positionId","type":"uint256","indexed":false,"internalType":"uint256"},{"name":"burnType","type":"uint8","indexed":false,"internalType":"uint8"}],"anonymous":false},{"type":"event","name":"CheckerChanged","inputs":[{"name":"oldChecker","type":"address","indexed":true,"internalType":"address"},{"name":"newChecker","type":"address","indexed":true,"internalType":"address"}],"anonymous":false},{"type":"event","name":"Liquidate","inputs":[{"name":"poolId","type":"bytes32","indexed":true,"internalType":"PoolId"},{"name":"sender","type":"address","indexed":true,"internalType":"address"},{"name":"positionId","type":"uint256","indexed":false,"internalType":"uint256"},{"name":"marginAmount","type":"uint256","indexed":false,"internalType":"uint256"},{"name":"marginTotal","type":"uint256","indexed":false,"internalType":"uint256"},{"name":"borrowAmount","type":"uint256","indexed":false,"internalType":"uint256"},{"name":"oracleReserves","type":"uint256","indexed":false,"internalType":"uint256"},{"name":"statusReserves","type":"uint256","indexed":false,"internalType":"uint256"}],"anonymous":false},{"type":"event","name":"Margin","inputs":[{"name":"poolId","type":"bytes32","indexed":true,"internalType":"PoolId"},{"name":"owner","type":"address","indexed":true,"internalType":"address"},{"name":"positionId","type":"uint256","indexed":false,"internalType":"uint256"},{"name":"marginAmount","type":"uint256","indexed":false,"internalType":"uint256"},{"name":"marginTotal","type":"uint256","indexed":false,"internalType":"uint256"},{"name":"borrowAmount","type":"uint256","indexed":false,"internalType":"uint256"},{"name":"marginForOne","type":"bool","indexed":false,"internalType":"bool"}],"anonymous":false},{"type":"event","name":"Mint","inputs":[{"name":"poolId","type":"bytes32","indexed":true,"internalType":"PoolId"},{"name":"sender","type":"address","indexed":true,"internalType":"address"},{"name":"to","type":"address","indexed":true,"internalType":"address"},{"name":"positionId","type":"uint256","indexed":false,"internalType":"uint256"}],"anonymous":false},{"type":"event","name":"Modify","inputs":[{"name":"poolId","type":"bytes32","indexed":true,"internalType":"PoolId"},{"name":"sender","type":"address","indexed":true,"internalType":"address"},{"name":"positionId","type":"uint256","indexed":false,"internalType":"uint256"},{"name":"marginAmount","type":"uint256","indexed":false,"internalType":"uint256"},{"name":"marginTotal","type":"uint256","indexed":false,"internalType":"uint256"},{"name":"borrowAmount","type":"uint256","indexed":false,"internalType":"uint256"},{"name":"changeAmount","type":"int256","indexed":false,"internalType":"int256"}],"anonymous":false},{"type":"event","name":"OwnershipTransferred","inputs":[{"name":"user","type":"address","indexed":true,"internalType":"address"},{"name":"newOwner","type":"address","indexed":true,"internalType":"address"}],"anonymous":false},{"type":"event","name":"RepayClose","inputs":[{"name":"poolId","type":"bytes32","indexed":true,"internalType":"PoolId"},{"name":"sender","type":"address","indexed":true,"internalType":"address"},{"name":"positionId","type":"uint256","indexed":false,"internalType":"uint256"},{"name":"releaseMarginAmount","type":"uint256","indexed":false,"internalType":"uint256"},{"name":"releaseMarginTotal","type":"uint256","indexed":false,"internalType":"uint256"},{"name":"repayAmount","type":"uint256","indexed":false,"internalType":"uint256"},{"name":"repayRawAmount","type":"uint256","indexed":false,"internalType":"uint256"},{"name":"pnlAmount","type":"int256","indexed":false,"internalType":"int256"}],"anonymous":false},{"type":"event","name":"Transfer","inputs":[{"name":"from","type":"address","indexed":true,"internalType":"address"},{"name":"to","type":"address","indexed":true,"internalType":"address"},{"name":"tokenId","type":"uint256","indexed":true,"internalType":"uint256"}],"anonymous":false},{"type":"error","name":"ERC721IncorrectOwner","inputs":[{"name":"sender","type":"address","internalType":"address"},{"name":"tokenId","type":"uint256","internalType":"uint256"},{"name":"owner","type":"address","internalType":"address"}]},{"type":"error","name":"ERC721InsufficientApproval","inputs":[{"name":"operator","type":"address","internalType":"address"},{"name":"tokenId","type":"uint256","internalType":"uint256"}]},{"type":"error","name":"ERC721InvalidApprover","inputs":[{"name":"approver","type":"address","internalType":"address"}]},{"type":"error","name":"ERC721InvalidOperator","inputs":[{"name":"operator","type":"address","internalType":"address"}]},{"type":"error","name":"ERC721InvalidOwner","inputs":[{"name":"owner","type":"address","internalType":"address"}]},{"type":"error","name":"ERC721InvalidReceiver","inputs":[{"name":"receiver","type":"address","internalType":"address"}]},{"type":"error","name":"ERC721InvalidSender","inputs":[{"name":"sender","type":"address","internalType":"address"}]},{"type":"error","name":"ERC721NonexistentToken","inputs":[{"name":"tokenId","type":"uint256","internalType":"uint256"}]},{"type":"error","name":"InsufficientAmount","inputs":[{"name":"amount","type":"uint256","internalType":"uint256"}]},{"type":"error","name":"InsufficientBorrowReceived","inputs":[]},{"type":"error","name":"InsufficientValue","inputs":[]},{"type":"error","name":"MarginTransferFailed","inputs":[{"name":"amount","type":"uint256","internalType":"uint256"}]},{"type":"error","name":"MathOverflowedMulDiv","inputs":[]},{"type":"error","name":"Overflow","inputs":[]},{"type":"error","name":"PairNotExists","inputs":[]},{"type":"error","name":"PositionLiquidated","inputs":[]},{"type":"error","name":"ReentrancyGuardReentrantCall","inputs":[]}],"bytecode":{"object":"0x60c080604052346102f45760608161590d803803809161001f82856104fb565b8339810103126102f45780516001600160a01b03811691908290036102f45760208101516001600160a01b038116918282036102f457604001516001600160a01b03811693908490036102f45760405161007a6040826104fb565b601b81527f4c494b5749444d617267696e506f736974696f6e4d616e6167657200000000006020820152604051906100b36040836104fb565b60048252634c4d504d60e01b60208301528051906001600160401b038211610402575f5490600182811c921680156104f1575b60208310146103e45781601f849311610484575b50602090601f8311600114610421575f92610416575b50508160011b915f199060031b1c1916175f555b8051906001600160401b03821161040257600154600181811c911680156103f8575b60208210146103e457601f8111610381575b50602090601f831160011461031657918060209594926004945f9261030b575b50508160011b915f199060031b1c1916176001555b600680546001600160a01b0319168217905560405194859384925f7f8be0079c531659141344cd1fd0a4f28419497f9722a3daafe3b4186f6b6457e08180a36001600855608052635e6263eb60e01b82525afa908115610300575f916102ba575b5060a052600780546001600160a01b0319169190911790556040516153ee908161051f823960805181818161020e01528181610a1701528181610b9201528181611a3e015281816125470152818161261b01528181612828015281816135bd01526140eb015260a051818181610300015281816103ae015281816105c9015281816110df01528181611cbd015281816126f0015281816128eb0152818161293f015281816129d6015281816138e2015281816139a801528181614308015281816144330152614ee10152f35b90506020813d6020116102f8575b816102d5602093836104fb565b810103126102f457516001600160a01b03811681036102f4575f6101ee565b5f80fd5b3d91506102c8565b6040513d5f823e3d90fd5b015190505f80610178565b90601f1983169160015f52815f20925f5b8181106103695750926001928592600496602099989610610351575b505050811b0160015561018d565b01515f1960f88460031b161c191690555f8080610343565b92936020600181928786015181550195019301610327565b60015f527fb10e2d527612073b26eecdfd717e6a320cf44b4afac2b0732d9fcbe2b7fa0cf6601f840160051c810191602085106103da575b601f0160051c01905b8181106103cf5750610158565b5f81556001016103c2565b90915081906103b9565b634e487b7160e01b5f52602260045260245ffd5b90607f1690610146565b634e487b7160e01b5f52604160045260245ffd5b015190505f80610110565b5f8080528281209350601f198516905b81811061046c5750908460019594939210610454575b505050811b015f55610124565b01515f1960f88460031b161c191690555f8080610447565b92936020600181928786015181550195019301610431565b5f80529091507f290decd9548b62a8d60345a988386fc84ba6bc95484008f6362f93160ef3e563601f840160051c810191602085106104e7575b90601f859493920160051c01905b8181106104d957506100fa565b5f81558493506001016104cc565b90915081906104be565b91607f16916100e6565b601f909101601f19168101906001600160401b038211908210176104025760405256fe60a0806040526004361015610012575f80fd5b5f6080525f3560e01c90816301ffc9a714612d7057508063025f87fb146124b557806306fdde03146123f6578063081812fc146123b6578063095ea7b3146122b85780630d90040d1461229a578063141d88f21461220d57806323b872dd146121f657806342842e0e146121cb5780636352211e1461219b57806370a0823114612140578063895a7485146119d05780638da5cb5b146119a657806395d89b4114611894578063a22cb465146117e7578063b17169d814610afc578063b191d56414610ad7578063b88d4fde14610a46578063bc37857d14610a00578063c87b56dd146109a3578063cf5303cf14610979578063e985e9c51461091e578063eb02c301146107fa578063eeb2522714610743578063f1930394146101be5763f2fde38b1461013e575f80fd5b346101b85760203660031901126101b857610157612dff565b6006549061016f336001600160a01b03841614613c43565b60018060a01b031680916001600160601b0360a01b1617600655337f8be0079c531659141344cd1fd0a4f28419497f9722a3daafe3b4186f6b6457e0608051608051a360805180f35b60805180fd5b60403660031901126101b8576004356024356101d861477f565b6101f46101e483614e6f565b6001600160a01b03163314612fb8565b816080515260096020526040608051209060018060a01b037f0000000000000000000000000000000000000000000000000000000000000000168254604051906302ef145760e51b8252600482015261026081602481855afa9081156104d85760805191610714575b5061026881856147b4565b5060018401805490929060ff16156106fe576101c0820151602001516001600160a01b0316915b6080518512156106f7576102a28561334f565b915b6080518613156105685750506102ba81836152a9565b9085549060405191630bff31f160e11b8352336004840152306024840152604483015260018060a01b0384166064830152608482015260208160a4818560018060a01b037f0000000000000000000000000000000000000000000000000000000000000000165af19081156104d85760805191610534575b5061035e6001600160701b0361034a61036493614aaa565b166001600160801b03865460081c166134cc565b84613420565b80341161051b575b505b8354915460405163f21ce75f60e01b8152600481018490526001600160a01b03838116602483015260089290921c6001600160801b0316604482015292947f00000000000000000000000000000000000000000000000000000000000000009091169290602082606481875afa9182156104d857608051926104e5575b506002015460405163f21ce75f60e01b8152600481018790526001600160a01b0390931660248401526001600160801b03811660448401529260209083908180606481015b03915afa9182156104d857608051926104a0575b506040519586526020860152604085015260801c606084015260808301527fb0b96df0ad96a6e2daf3ded5a2c92308828df41fdfdd724a99e3faa587d1240660a03393a36080515f805160206153998339815191525d60805180f35b9091506020813d6020116104d0575b816104bc60209383612edd565b810103126104cc57519086610444565b5f80fd5b3d91506104af565b6040513d608051823e3d90fd5b9091506020813d602011610513575b8161050160209383612edd565b810103126104cc5751906104306103eb565b3d91506104f4565b61052861052e913461335f565b33615309565b8561036c565b90506020813d602011610560575b8161054f60209383612edd565b810103126104cc575161035e610332565b3d9150610542565b61059e9161036460209260018060a01b0360075416604051958694859363eabde6cb60e01b8552600485015260248401906131da565b6105ac61028483018c613fb0565b5afa9081156104d857608051916106c5575b5081116106925784547f00000000000000000000000000000000000000000000000000000000000000006001600160a01b031690813b156101b857604051809263a43eec8760e01b8252818061061d878960805197336004860161344f565b0391608051905af180156104d857610677575b5061065c6001600160701b0361064861066293614aaa565b166001600160801b03855460081c16613400565b83613420565b341561036e576106723433615309565b61036e565b60805161068391612edd565b6080515f126101b85786610630565b60405162461bcd60e51b815260206004820152600b60248201526a13d5915497d05353d5539560aa1b6044820152606490fd5b90506020813d6020116106ef575b816106e060209383612edd565b810103126104cc5751876105be565b3d91506106d3565b84916102a4565b6101c0820151516001600160a01b03169161028f565b61073691506102603d811161073c575b61072e8183612edd565b810190613029565b8561025d565b503d610724565b346101b85760803660031901126101b85760043561075f612e65565b604435916001600160a01b03831683036104cc5760643580151581036104cc57156107c15760805152600a602052604060805120901515608051526020526040608051209060018060a01b03165f52602052602060405f20545b604051908152f35b60805152600b602052604060805120901515608051526020526040608051209060018060a01b03165f52602052602060405f20546107b9565b346101b85760203660031901126101b857610813614735565b5060018060a01b036007541660043560805152600960205260e061085a610104604060805120604051948593849263d53e2367871b84523060048501526024840190613fb0565b5afa80156104d8576080519061087d575b60e09061087b6040518092612f1b565bf35b5060e0813d60e011610916575b8161089760e09383612edd565b810103126101b85760e09060c0604051916108b183612ea5565b805183526108c160208201613442565b60208401526108d26040820161476b565b60408401526108e36060820161476b565b60608401526108f46080820161476b565b608084015261090560a0820161476b565b60a0840152015160c082015261086b565b3d915061088a565b346101b85760403660031901126101b857610937612dff565b61093f612e15565b9060018060a01b03166080515260056020526040608051209060018060a01b03165f52602052602060ff60405f2054166040519015158152f35b346101b8576080513660031901126101b8576007546040516001600160a01b039091168152602090f35b346101b85760203660031901126101b8576109bf600435614e6f565b506040516109ce602082612edd565b60805190526040516109fc906109e5602082612edd565b5f8152604051918291602083526020830190612ddb565b0390f35b346101b8576080513660031901126101b8576040517f00000000000000000000000000000000000000000000000000000000000000006001600160a01b03168152602090f35b346101b85760803660031901126101b857610a5f612dff565b610a67612e15565b6064359167ffffffffffffffff83116101b857366023840112156101b857826004013591610a9483612eff565b92610aa26040519485612edd565b80845236602482870101116101b857806024610ad196016020860137602060805191850101526044359161461c565b60805180f35b60203660031901126101b8576040610af0600435614010565b82519182526020820152f35b60e03660031901126101b857604051610b1481612ea5565b6004358152610b21612e65565b90602081019182526044359062ffffff821682036101b857610bcb916040820190815260608201906064358252608435608084015260a43560a0840152610b7260c4358060c0860152421115612f82565b8251604051632bc5fd8560e01b81523360048201526024810191909152937f00000000000000000000000000000000000000000000000000000000000000006001600160a01b0316919061026090869081906044820190565b0381608051865af19485156104d857608051956117bc575b50516004919062ffffff161561178157835160805152600a602052604060805120865115156080515260205260406080512060018060a01b0333165f5260205260405f2054925b6007546040516335a7285b60e21b81529360209185919082906001600160a01b03165afa9283156104d8576080519361172e575b50955162ffffff9661014093610cf7936103c49389939015611712576101c0840151602001516001600160a01b0316908b90610cd0905b6040519b610ca28d612ec1565b8c5260208c0195608051875260408d019e8f9116905260608c019360018060a01b03169081855251906152a9565b9b8c9460c06040519c8d9a8b99639005c01b60e01b8b523360048c015260248b01906131da565b5180516102848a0152602081015115156102a48a0152604081015185166102c48a015260608101516102e48a015260808101516103048a015260a08101516103248a01520151610344880152516103648701525116610384850152516001600160a01b03166103a48401525af19182156104d8576080519261163f575b5081519380341161162c575b5060a0840151801515908161161e575b5061160b57806114bc5750600854905f1982146114a457600182016008558192331561148b576080805184905260026020525160409020546001600160a01b03168015159081611454575b33608051526003602052604060805120600181540190558460805152600260205260406080512060018060a01b0333166001600160601b0360a01b8254161790556040518533837fddf252ad1be2c89b69c2b068fc378daa952ba7f163c4a11628f55a4df523b3ef608051608051a48560805152600960205260406080512090610e6481612ea5565b81548082526001830154926001600160801b03602084019460ff81161515865260081c16604084015260046002820154916001600160801b0383169283606087015260801c60808601526001600160801b0360038201541660a086015201548060c0850152611302575b50505050506112e957845160405184815233917f3da3c136802f9d70e1dc46948f8eb44c608278811d1e5c1f4f380c5bd3b71ee560203393a460208501805190939015801591906112de576101808301515b875190610f3060608a0151614aaa565b6020870190610f3f8251614aaa565b9460808c0199610f59610f528c51614aaa565b9b51614aaa565b9360405196610f6788612ea5565b8752602087019889526001600160701b0360408801941684526001600160701b0360608801981688526001600160701b03608088019c168c526001600160701b0360a088019516855260c087019586525115155f146112a3578c5160805152600a602052604060805120905115156080515260205260406080512060018060a01b0333165f526020528060405f20555b6080515260096020526080516040902093518455600184019551151561102990879060ff801983541691151516179055565b516001600160801b0316948561103e91613420565b925196516001600160801b039788166001600160801b0319608083901b1681176002850155971692516001600160801b031660038301906001600160801b03166001600160801b03198254161790555190600401559361109d916134cc565b6001600160801b0316905b606083015186516110c1916001600160a01b0316614a7a565b604051631758b3e760e31b81526004810191909152906020826024817f00000000000000000000000000000000000000000000000000000000000000006001600160a01b03165afa9283156104d857879260805194611268575b506102e460209261112f8661116a9461490a565b9760018060a01b0360075416908587019962ffffff60408c51151599015116604051988997889663d72fc27960e01b885260048801906131da565b6102648601526102848501526102a48401526102c48301525afa9081156104d8576080519161122e575b501561121357936111b98560206111b1604098606086015161490a565b94015161490a565b6080825192019384519051151591875194878652602086015287850152606084015260808301527fcd0c103cb7999308639fe7aa50aa1ac9a1121d7c345c66f58511402bd9315a8a60a03393a35182519182526020820152f35b60608501516377b8dde360e01b608051526004526024608051fd5b90506020813d602011611260575b8161124960209383612edd565b810103126101b85761125a90613442565b86611194565b3d915061123c565b91925092506020813d60201161129b575b8161128660209383612edd565b810103126104cc5751918691906102e461111b565b3d9150611279565b8c5160805152600b602052604060805120905115156080515260205260406080512060018060a01b0333165f526020528060405f2055610ff7565b6101a0830151610f20565b6339e3563760e11b608051526080516004526024608051fd5b6113b15750805160805152600b602052604060805120825115156080515260205260406080512060018060a01b0333165f5260205261134560405f20541561503a565b80516080805191909152600b6020818152825160408082208751151590925290825283518181206001600160a01b0389165f9081529084528281208290559551905291815282518281209551151590529384529051819020338352909252208590555b87808080610ece565b60805152600a602052604060805120825115156080515260205260406080512060018060a01b0333165f526020526113ed60405f20541561503a565b80516080805191909152600a6020818152825160408082208751151590925290825283518181206001600160a01b0389165f9081529084528281208290559551905291815282518281209551151590529384529051819020338352909252208590556113a8565b5f85815260046020526040902080546001600160a01b0319169055806080515260036020526040608051205f198154019055610ddb565b633250574960e11b608051526080516004526024608051fd5b634e487b7160e01b6080515260116004526024608051fd5b91906114da336001600160a01b036114d386614e6f565b1614612fb8565b82608051526009602052604060805120916114f581846147b4565b506001600160801b036115d16001600160701b036115166060890151614aaa565b169461153561152f600183019785895460081c166134cc565b87613420565b6020850151806115d8575b506115bc61159c600260808b01936001600160701b036115608651614aaa565b16876115736003840192828454166134cc565b16881982541617905501926001600160701b03611595855460801c9251614aaa565b16906134cc565b82546001600160801b031660809190911b6001600160801b031916178255565b5482808260801c975460081c169116906134cc565b16906110a8565b6115e96001600160701b0391614aaa565b16836115fc6002840192828454166134cc565b16841982541617905588611540565b63ae1c417560e01b608051526004608051fd5b905060808501511185610d90565b610528611639913461335f565b84610d80565b809192506101403d811161170b575b6116588183612edd565b8101039061014082126101b8576040519160e09061167584612ec1565b126101b8576101206116ff9160405161168d81612ea5565b8151815261169d60208301613442565b60208201526116ae60408301613005565b6040820152606082015160608201526080820151608082015260a082015160a082015260c082015160c0820152845260e081015160208501526116f46101008201613005565b604085015201613015565b60608201529084610d74565b503d61164e565b6101c0840151516001600160a01b0316908b90610cd090610c95565b9692506020873d602011611779575b8161174a60209383612edd565b810103126101b8578561014093610cf7936103c49361176c62ffffff9b613005565b9650935093509750610c5e565b3d915061173d565b835160805152600b602052604060805120865115156080515260205260406080512060018060a01b0333165f5260205260405f205492610c2a565b6004929195506117de62ffffff916102603d811161073c5761072e8183612edd565b95919250610be3565b346101b85760403660031901126101b857611800612dff565b611808612e65565b6001600160a01b0390911690811561187d5733608051526005602052604060805120825f526020526118498160405f209060ff801983541691151516179055565b60405190151581527f17307eab39ab6107e8899845ad3d59bd9653f200f220920489ca2b5937696c3160203392a360805180f35b50630b61174360e31b608051526004526024608051fd5b346101b8576080513660031901126101b8576040516080516001805480821c918116801561199c575b6020831081146119845782855290811561196057506001146118fe575b6109fc836118ea81850382612edd565b604051918291602083526020830190612ddb565b9190506001608051527fb10e2d527612073b26eecdfd717e6a320cf44b4afac2b0732d9fcbe2b7fa0cf691608051905b808210611946575090915081016020016118ea6118da565b91926001816020925483858801015201910190929161192e565b60ff191660208086019190915291151560051b840190910191506118ea90506118da565b634e487b7160e01b6080515260226004526024608051fd5b91607f16916118bd565b346101b8576080513660031901126101b8576006546040516001600160a01b039091168152602090f35b60603660031901126101b8576024356044356119ea61477f565b6119f642821015612f82565b8190611a066101e4600435614e6f565b60808051600480359091526009602052905160409081902080549151632bc5fd8560e01b8152339381019390935260248301919091527f00000000000000000000000000000000000000000000000000000000000000006001600160a01b031692916102608180604481010381608051885af19081156104d85760805191612121575b50611a9481836147b4565b50600754604080516310960f9d60e01b8152600481018790529182906103649082906001600160a01b0316611acc60248301886131da565b611ada610284830189613fb0565b5afa9081156104d857608051916120f1575b506120de5760018201805460ff169690959087156120bc576101c083015180516020909101516001600160a01b0390811699911692905b6002860191825460801c8094116120b5575b6020611ba1611bbe9289549460405195611b4e87612e74565b8652151583860152336040860152806060860152608085019781895260805160a087015260c086019b6080518d5260e0870152611b9a60038c0198836001600160801b038b54166149f5565b8c526152a9565b926040518093819263bb4dab6d60e01b83528a3360048501613379565b0381858d5af180156104d857612086575b50803411612073575b50845497600160a01b60019003600754168451968354998a60801c9889611bfe91614956565b926040519384938493630a7cba8b60e11b8552600485015260248401611c24908c6131da565b6102848401611c3291613fb0565b6103648301525a9261038491602094fa9788156104d8578b978b926080519a612033575b509081602088611c8e83611cf19b9c9d9e9f611c836001600160801b0398898c5460081c168651906149f5565b9788945191166149f5565b60405163f21ce75f60e01b815260048101979097526001600160a01b039d8e16602488015260448701919091527f0000000000000000000000000000000000000000000000000000000000000000909c169b949889908d90829081906064820190565b03915afa9788156104d8578e8e8d926080519b611ff7575b5060405163f21ce75f60e01b815260048101919091526001600160a01b0390911660248201526044810186905299906020908b908180606481015b03915afa998a156104d8578f9d8f916080519c611fa8575b508b999795936001600160701b03611dd8611e269f9e958e611e1e9f9d9b9997965f80516020615379833981519152611ddf97611dff99611dcf8651928d516040519485943399600435879260a094919796959260c0850198855260208501526040840152606083015260808201520152565b0390a351614aaa565b1690613400565b86546001600160801b031660809190911b6001600160801b031916178655565b845460801c611f3157505050505050611e19600435614acd565b61336c565b938491614e18565b15611e9d57803b156101b857611e579360405180958194829363a43eec8760e01b845260805197336004860161344f565b0391608051905af180156104d857611e84575b505b6080515f805160206153998339815191525d60805180f35b608051611e9091612edd565b6080516101b85780611e6a565b611eac602093611edf95614a7a565b6040516304ade6db60e11b8152336004820152602481019190915260448101929092529092839190829081906064820190565b0391608051905af180156104d857611ef8575b50611e6c565b6020813d602011611f29575b81611f1160209383612edd565b810103126101b857611f2290613442565b5080611ef2565b3d9150611f04565b6001600160801b039485611f846001600160701b03611f7a8197611f75611f939a611f6f85611f62611f7a9c614aaa565b1688835460081c16613400565b90613420565b614aaa565b1682845416613400565b16861982541617905551614aaa565b166001600160801b031982541617905561336c565b9e50979593919b9a5050602097959391978d3d602011611fef575b81611fd060209383612edd565b810103126104cc578d8f9d978a98519b9c929496989993959799611d5c565b3d9150611fc3565b9a505050506020883d60201161202b575b8161201560209383612edd565b810103126104cc579651968a8e8e611d44611d09565b3d9150612008565b99509150949596506020883d60201161206b575b8161205460209383612edd565b810103126101b8579651968a9695948a9180611c56565b3d9150612047565b610528612080913461335f565b89611bd8565b6020813d6020116120ad575b8161209f60209383612edd565b810103126104cc5751611bcf565b3d9150612092565b5082611b35565b6101c0830151602081015190516001600160a01b039081169991169290611b23565b637f4a51e560e11b608051526004608051fd5b612113915060403d60401161211a575b61210b8183612edd565b81019061347a565b5087611aec565b503d612101565b61213a91506102603d811161073c5761072e8183612edd565b86611a89565b346101b85760203660031901126101b8576001600160a01b03612161612dff565b16801561218257608051526003602052602060406080512054604051908152f35b6322718ad960e21b608051526080516004526024608051fd5b346101b85760203660031901126101b85760206121b9600435614e6f565b6040516001600160a01b039091168152f35b346101b857610ad16121dc36612e2b565b90604051926121ec602085612edd565b608051845261461c565b346101b857610ad161220736612e2b565b91613c7e565b346101b85760203660031901126101b857612226612dff565b61223b60018060a01b03600654163314613c43565b6001600160a01b03168061224f5760805180f35b60075460805182906001600160a01b038316907f49dc3b5c7fa32e66fb003c830e5b502ca4b772aa881a99d8f98097ef8948f2059080a36001600160a01b0319161760075580610ad1565b346101b85760203660031901126101b8576040610af06004356134ec565b346101b85760403660031901126101b8576122d1612dff565b6024356122dd81614e6f565b331515806123a3575b80612370575b6123595760805182916001600160a01b03858116929116907f8c5be1e5ebec7d5bd14f71427d1e84f3dd0314c0f7b2291e5b200ac8c7c3b9259080a46080515260046020526040608051209060018060a01b03166001600160601b0360a01b825416179055608051608051f35b63a9fbf51f60e01b60805152336004526024608051fd5b50608080516001600160a01b0383169052600560209081529051604090819020335f908152925290205460ff16156122ec565b506001600160a01b0381163314156122e6565b346101b85760203660031901126101b8576004356123d381614e6f565b50608051526004602052602060018060a01b036040608051205416604051908152f35b346101b8576080513660031901126101b8576040516080518054600181811c9190811680156124ab575b60208310811461198457828552908115611960575060011461244c576109fc836118ea81850382612edd565b608080518052517f290decd9548b62a8d60345a988386fc84ba6bc95484008f6362f93160ef3e563939250905b808210612491575090915081016020016118ea6118da565b919260018160209254838588010152019101909291612479565b91607f1691612420565b346104cc5760803660031901126104cc576064356124d161477f565b6124dd42821015612f82565b6124eb6101e4600435614e6f565b620f424060243511612d39576004355f52600960205260405f206001600160801b0360028201541615612cfd578054604051632bc5fd8560e01b81523360048201526024810191909152610260816044815f6001600160a01b037f0000000000000000000000000000000000000000000000000000000000000000165af1908115612994575f91612cde575b5061258281836147b4565b5060018201549260ff8416918215612cc8576101c0810151602001516001600160a01b0316935b8054604051946125b886612e74565b818652801515602087015230604087015260608601945f86525f60808801525f60a08801525f60c088015260e08701526002830154946125fd6024358760801c614887565b908190526080870152604051637436595f60e11b81526020816004817f00000000000000000000000000000000000000000000000000000000000000006001600160a01b03165afa908115612994575f91612c84575b5061267f91606091608089015191604051809581948293637987bed160e11b8452158b6004850161332d565b03916001600160a01b03165afa908115612994575f91612c44575b5060a08601526126c16001600160801b036003840154168560801c906080880151906149f5565b60c08601526126d08187614a7a565b604051631758b3e760e31b815260048101829052979094906020896024817f00000000000000000000000000000000000000000000000000000000000000006001600160a01b03165afa988915612994575f99612c10575b506127576127446024356001600160801b038460081c16614887565b926001600160801b036024359116614887565b9261276c6127658b8561490a565b9a8561490a565b9960a0890151925f84128c858103128116908d8681031390151617612bfc575f90604435158015612bee575b15612ba95784918d915f84840312612b1a575050825f8051602061537983398151915293926127c7920361336c565b9b5b60808b81015160c0808e01516040805160043581526020810197909752860185905260608601929092529184015294900360a0820152339390a360405163bb4dab6d60e01b8152602081806128238a893360048501613379565b03815f7f00000000000000000000000000000000000000000000000000000000000000006001600160a01b03165af1801561299457612aeb575b5061289f612881600285015460801c6001600160701b03611dd860808b0151614aaa565b60028501906001600160801b0382549181199060801b169116179055565b600283015460801c612a42575050506128b9600435614acd565b846128d6576080515f805160206153998339815191525d60805180f35b84846128e192614e18565b1561299f575051907f00000000000000000000000000000000000000000000000000000000000000006001600160a01b03163b156104cc575f9161293a604051948593849363a43eec8760e01b8552336004860161344f565b0381837f00000000000000000000000000000000000000000000000000000000000000006001600160a01b03165af1801561299457612980575b505b8080808080611e6c565b5f61298a91612edd565b5f60805280612974565b6040513d5f823e3d90fd5b6040516304ade6db60e11b8152336004820152602481019190915260448101939093525060209050816064815f6001600160a01b037f0000000000000000000000000000000000000000000000000000000000000000165af1801561299457612a09575b50612976565b6020813d602011612a3a575b81612a2260209383612edd565b810103126104cc57612a3390613442565b5080612a03565b3d9150612a15565b6001600160701b03612a826001600160801b0393611f75612a7984612a69612a8f97614aaa565b168760018a015460081c16613400565b60018801613420565b1682600285015416613400565b166001600160801b031960028301541617600282015560036001600160801b03612ad36001600160701b03612ac760c0890151614aaa565b16828486015416613400565b166001600160801b03198284015416179101556128b9565b6020813d602011612b12575b81612b0460209383612edd565b810103126104cc575161285d565b3d9150612af7565b91849193612b28910361334f565b1015612b595750505f8051602061537983398151915290612b53612b4d858e0361334f565b8261335f565b9b6127c9565b6001600160801b03919c925060081c16612b7484830361334f565b1015612b9a5780612b94845f80516020615379833981519152930361334f565b906127c9565b637f4a51e560e11b5f5260045ffd5b60405162461bcd60e51b815260206004820152601a60248201527f496e73756666696369656e744f757470757452656365697665640000000000006044820152606490fd5b50848d036044351315612798565b634e487b7160e01b5f52601160045260245ffd5b9098506020813d602011612c3c575b81612c2c60209383612edd565b810103126104cc57519789612728565b3d9150612c1f565b90506060813d606011612c7c575b81612c5f60609383612edd565b810103126104cc57612c75602082519201613005565b508861269a565b3d9150612c52565b90506020813d602011612cc0575b81612c9f60209383612edd565b810103126104cc57516001600160a01b03811681036104cc5761267f612653565b3d9150612c92565b6101c0810151516001600160a01b0316936125a9565b612cf791506102603d811161073c5761072e8183612edd565b83612577565b60405162461bcd60e51b8152602060048201526014602482015273424f52524f575f44495341424c455f434c4f534560601b6044820152606490fd5b60405162461bcd60e51b815260206004820152600f60248201526e26a4a62624a7a72a242fa2a92927a960891b6044820152606490fd5b346104cc5760203660031901126104cc576004359063ffffffff60e01b82168092036104cc576020916380ac58cd60e01b8114908115612dca575b8115612db9575b5015158152f35b6301ffc9a760e01b14905083612db2565b635b5e139f60e01b81149150612dab565b805180835260209291819084018484015e5f828201840152601f01601f1916010190565b600435906001600160a01b03821682036104cc57565b602435906001600160a01b03821682036104cc57565b60609060031901126104cc576004356001600160a01b03811681036104cc57906024356001600160a01b03811681036104cc579060443590565b6024359081151582036104cc57565b610100810190811067ffffffffffffffff821117612e9157604052565b634e487b7160e01b5f52604160045260245ffd5b60e0810190811067ffffffffffffffff821117612e9157604052565b6080810190811067ffffffffffffffff821117612e9157604052565b90601f8019910116810190811067ffffffffffffffff821117612e9157604052565b67ffffffffffffffff8111612e9157601f01601f191660200190565b60c08091805184526020810151151560208501526001600160801b0360408201511660408501526001600160801b0360608201511660608501526001600160801b0360808201511660808501526001600160801b0360a08201511660a08501520151910152565b15612f8957565b60405162461bcd60e51b81526020600482015260076024820152661156141254915160ca1b6044820152606490fd5b15612fbf57565b60405162461bcd60e51b815260206004820152600a60248201526920aaaa242fa2a92927a960b11b6044820152606490fd5b51906001600160701b03821682036104cc57565b519062ffffff821682036104cc57565b51906001600160a01b03821682036104cc57565b8091039061026082126104cc57604051916101e0830183811067ffffffffffffffff821117612e915760405281519063ffffffff821682036104cc5760a091845261307660208401612ff1565b602085015261308760408401612ff1565b604085015261309860608401612ff1565b60608501526130a960808401612ff1565b60808501526130b9828401613005565b828501526130c960c08401612ff1565b60c08501526130da60e08401612ff1565b60e08501526130ec6101008401612ff1565b6101008501526130ff6101208401612ff1565b6101208501526131126101408401612ff1565b6101408501526131256101608401612ff1565b6101608501526101808301516101808501526101a08301516101a08501526101bf1901126104cc576040519060a0820182811067ffffffffffffffff821117612e91576040526131786101c08201613015565b82526131876101e08201613015565b60208301526131996102008201613005565b6040830152610220810151908160020b82036104cc57606083019190915261024001516001600160a01b03811681036104cc5760808201526101c082015290565b6101c06102409163ffffffff81511684526001600160701b0360208201511660208501526001600160701b0360408201511660408501526001600160701b0360608201511660608501526001600160701b03608082015116608085015262ffffff60a08201511660a08501526001600160701b0360c08201511660c08501526001600160701b0360e08201511660e08501526001600160701b03610100820151166101008501526001600160701b03610120820151166101208501526001600160701b03610140820151166101408501526001600160701b03610160820151166101608501526101808101516101808501526101a08101516101a0850152015160018060a01b038151166101c084015260018060a01b036020820151166101e084015262ffffff604082015116610200840152606081015160020b610220840152608060018060a01b0391015116910152565b61028091949392613343826102a08101976131da565b15156102608201520152565b600160ff1b8114612bfc575f0390565b91908203918211612bfc57565b91908201809211612bfc57565b6001600160a01b0390911681526103808101939290916103609160e0916133a49060208601906131da565b8051610280850152602081015115156102a085015260408101516001600160a01b03166102c085015260608101516102e0850152608081015161030085015260a081015161032085015260c08101516103408501520151910152565b906001600160801b03809116911603906001600160801b038211612bfc57565b90610100600160881b0382549160081b1690610100600160881b031916179055565b519081151582036104cc57565b6001600160a01b03918216815260208101929092529091166040820152606081019190915260800190565b91908260409103126104cc57602061349183613442565b92015190565b6001600160a01b039091168152610360810193926134ca929091610280916134c39060208301906131da565b0190612f1b565b565b906001600160801b03809116911601906001600160801b038211612bfc57565b600754604051636216b07b60e01b8152336004820152602481018390525f9390929091602090849060449082906001600160a01b03165afa928315612994575f93613c02575b5061353f61360d93612fb8565b805f52600960205260405f20906040519161355983612ea5565b60048154918285526001600160801b03600182015460ff81161515602088015260081c16604086015260028101546001600160801b038116606087015260801c60808601526001600160801b0360038201541660a0860152015460c08401526102607f00000000000000000000000000000000000000000000000000000000000000009160405180978192632bc5fd8560e01b8352336004840160209093929193604081019460018060a01b031681520152565b03815f6001600160a01b0386165af1948515612994575f95613be1575b50600754604080516310960f9d60e01b81526001600160a01b0390921696919490858061365c84868860048501613497565b03818a5afa948515612994575f905f96613bbd575b5015613bb0578161368191614e91565b60208101805191939115613b9a576101c0830151602001516001600160a01b0316915b6001600160e01b036136b585614fc8565b16936001600160e01b036136c882615013565b16998651935115156001600160801b0360a089015116916103e84201804211612bfc576004936040938451986136fd8a612e74565b8952602089015230848901528c60608901525f60808901525f60a089015260c088015260e087015281519283809263158d54b160e31b82525afa948515612994575f915f96613b51575b505f80966001600160801b0361376b8b8260608160408401511692015116906134cc565b169362ffffff8116613b2f575b509062ffffff8f9493921680613a23575b5083159182158093613a1a575b61388a575b5050506137dc956137b46020969594936137b99361335f565b61335f565b60a08401525f60405180968195829463bb4dab6d60e01b84523360048501613379565b03926001600160a01b03165af1908115612994575f91613856575b50825160408085015160609586015182518881526001600160801b03928316602082015291169181019190915293840195909552608083019690965260a08201526134ca9233915f805160206153598339815191529060c090a3614c8a565b90506020813d602011613882575b8161387160209383612edd565b810103126104cc57516134ca6137f7565b3d9150613864565b8a5161389591614a7a565b91613975575b876138a7575b8061379b565b6040516304ade6db60e11b81526001600160a01b0390911660048201526024810191909152604481018790529150602082806064810103815f7f00000000000000000000000000000000000000000000000000000000000000006001600160a01b03165af1918215612994578d92613920575b806138a1565b9094939291506020813d60201161396d575b8161393f60209383612edd565b810103126104cc576137dc956137b48e60209761395e6137b995613442565b5093509394959650509561391a565b3d9150613932565b6040516304ade6db60e11b81523360048201526024810183905260448101949094526020846064815f6001600160a01b037f0000000000000000000000000000000000000000000000000000000000000000165af1938415612994578f946139de575b5061389b565b93506020843d602011613a12575b816139f960209383612edd565b810103126104cc57613a0b8f94613442565b505f6139d8565b3d91506139ec565b50881515613796565b6040516313ac42a760e01b815290945090506020816004816001600160a01b038a165afa908115612994575f91613aea575b50604051622fcfcb60e31b81529390602090859060049082906001600160a01b03165afa908115612994578f945f92613aac575b506001600160a01b0382161561378957613aa591985083614887565b965f613789565b945090506020843d602011613ae2575b81613ac960209383612edd565b810103126104cc57613adb8f94613015565b905f613a89565b3d9150613abc565b90506020813d602011613b27575b81613b0560209383612edd565b810103126104cc5751926001600160a01b03841684036104cc57926020613a55565b3d9150613af8565b62ffffff9f508f613b469195949392951684614887565b9e9390919293613778565b915094506040813d604011613b92575b81613b6e60409383612edd565b810103126104cc57613b8b6020613b8483613005565b9201613005565b945f613747565b3d9150613b61565b6101c0830151516001600160a01b0316916136a4565b505f965086955050505050565b9050613bd991955060403d60401161211a5761210b8183612edd565b94905f613671565b613bfb9195506102603d811161073c5761072e8183612edd565b935f61362a565b92506020833d602011613c3b575b81613c1d60209383612edd565b810103126104cc5761353f613c3461360d94613442565b9350613532565b3d9150613c10565b15613c4a57565b60405162461bcd60e51b815260206004820152600c60248201526b15539055551213d49256915160a21b6044820152606490fd5b6001600160a01b0390911691908215613f9d575f828152600260205260409020546001600160a01b03169233151580613f0d575b5083613eda575b805f52600360205260405f2060018154019055825f52600260205260405f20816001600160601b0360a01b8254161790556040518382867fddf252ad1be2c89b69c2b068fc378daa952ba7f163c4a11628f55a4df523b3ef5f80a4835f52600960205260405f2090613d2a81612ea5565b81548082526001830154926001600160801b03602084019460ff81161515865260081c16604084015260046002820154916001600160801b0383169283606087015260801c60808601526001600160801b0360038201541660a086015201548060c0850152613dc5575b505050505060018060a01b0316808303613dad57505050565b6364283d7b60e01b5f5260045260245260445260645ffd5b613e56575080515f52600b60205260405f20825115155f5260205260405f20835f52602052613df860405f20541561503a565b80515f52600b60205260405f20825115155f5260205260405f2060018060a01b0387165f526020525f6040812055515f52600b60205260405f20905115155f5260205260405f20905f526020528160405f20555b5f80808080613d94565b5f52600a60205260405f20825115155f5260205260405f20835f52602052613e8260405f20541561503a565b80515f52600a60205260405f20825115155f5260205260405f2060018060a01b0387165f526020525f6040812055515f52600a60205260405f20905115155f5260205260405f20905f526020528160405f2055613e4c565b5f83815260046020526040902080546001600160a01b0319169055835f52600360205260405f205f198154019055613cb9565b80613f4c575b15613f1e575f613cb2565b8284613f3657637e27328960e01b5f5260045260245ffd5b63177e802f60e01b5f523360045260245260445ffd5b503384148015613f7b575b80613f1357505f838152600460205260409020546001600160a01b03163314613f13565b505f84815260056020908152604080832033845290915290205460ff16613f57565b633250574960e11b5f525f60045260245ffd5b600460c091805484526001600160801b03600182015460ff81161515602087015260081c16604085015260028101546001600160801b038116606086015260801c60808501526001600160801b0360038201541660a08501520154910152565b600754604051636216b07b60e01b81523360048201526024810183905291929190602090829060449082906001600160a01b03165afa8015612994575f906145e1575b61405d9150612fb8565b815f52600960205260405f20906040519261407784612ea5565b8254808552600184015460ff81161515602087015260081c6001600160801b0390811660408088019190915260028601548083166060890152608090811c90880152600386015490911660a087015260049485015460c087015251632bc5fd8560e01b8152339481019490945260248401527f0000000000000000000000000000000000000000000000000000000000000000936001600160a01b03851693610260816044815f895af1908115612994575f916145c2575b508160408260018060a01b03600754169861415d835196879384936310960f9d60e01b855260048501613497565b03818a5afa928315612994575f905f9461459e575b5015614592578161418291614e91565b9160408301926001600160801b03845116906001600160801b036141ae606083019382855116906134cc565b1680996020830195865115155f1461456c576101c081015180516020909101516001600160a01b039182169c91169161422c91905b60206001600160e01b036141f683614fc8565b16966001600160e01b0361420984615013565b16968c5115156040518097819482936362d5e44f60e01b8452886004850161332d565b03915afa928315612994575f93614538575b5061424a83809f6152a9565b9287519a511515906001600160801b0360a08a015116906103e8420192834211612bfc57604051809e61427c82612e74565b8152602001528b8d3360408201526060015260808d015260a08c015f905260c08c015260e08b01526040519163bb4dab6d60e01b83528280338d8560048401926142c593613379565b0381865a94602095f18015612994578f9385938e926144f9575b50916142f96142fe949284879534116144e6575b50614c8a565b614e18565b156143e9575095517f00000000000000000000000000000000000000000000000000000000000000006001600160a01b03169690873b156104cc57614360975f92838f936040519b8c958694859363a43eec8760e01b8552336004860161344f565b03925af1958615612994576001600160801b036143d49481925f80516020615359833981519152996143d9575b505b5198511694511694604051958695339a87926001600160801b03908160a096939998979460c087019a8752166020860152166040840152606083015260808201520152565b0390a3565b5f6143e391612edd565b5f61438d565b8497506143ff60209261442e9495965190614a7a565b6040516304ade6db60e11b81523360048201526024810191909152604481019190915291829081906064820190565b03815f7f00000000000000000000000000000000000000000000000000000000000000006001600160a01b03165af180156129945761448b575b50906143d4916001600160801b03805f805160206153598339815191529761438f565b91906020833d6020116144de575b816144a660209383612edd565b810103126104cc576001600160801b03805f80516020615359833981519152976144d26143d496613442565b50975050509091614468565b3d9150614499565b6105286144f3913461335f565b5f6142f3565b9450919250506020833d602011614530575b8161451860209383612edd565b810103126104cc578e92508391908c906142f96142df565b3d915061450b565b9092506020813d602011614564575b8161455460209383612edd565b810103126104cc5751915f61423e565b3d9150614547565b6101c0810151602081015190516001600160a01b039182169c91169161422c91906141e3565b505f9550859450505050565b90506145ba91935060403d60401161211a5761210b8183612edd565b92905f614172565b6145db91506102603d811161073c5761072e8183612edd565b5f61412f565b506020813d602011614614575b816145fb60209383612edd565b810103126104cc5761460f61405d91613442565b614053565b3d91506145ee565b9291614629818386613c7e565b813b614636575b50505050565b604051630a85bd0160e11b81523360048201526001600160a01b0394851660248201526044810191909152608060648201529216919060209082908190614681906084830190612ddb565b03815f865af15f91816146f0575b506146bd575061469d6152da565b805190816146b85782633250574960e11b5f5260045260245ffd5b602001fd5b6001600160e01b03191663757a42ff60e11b016146de57505f808080614630565b633250574960e11b5f5260045260245ffd5b9091506020813d60201161472d575b8161470c60209383612edd565b810103126104cc57516001600160e01b0319811681036104cc57905f61468f565b3d91506146ff565b6040519061474282612ea5565b5f60c0838281528260208201528260408201528260608201528260808201528260a08201520152565b51906001600160801b03821682036104cc57565b5f805160206153998339815191525c6147a55760015f805160206153998339815191525d565b633ee5aeb560e01b5f5260045ffd5b919060ff6001840154165f146148735761018001515b80926004810190815480159182156147e3575b50505055565b60020190815460801c6147f78287836149f5565b9361485f5785900961483f575b6001600160701b0361481861483793614aaa565b82546001600160801b0316911660801b6001600160801b031916179055565b5f80806147dd565b600182018092111561480457634e487b7160e01b5f52601160045260245ffd5b634e487b7160e01b5f52601260045260245ffd5b6101a001516147ca565b811561485f570490565b9190915f838202915f19858209918380841093039280840393146148fc5782620f424011156148ed57507fde8f6cefed634549b62c77574f722e1ac57e23f24d8fd5cb790fb65668c261399394620f4240910990828211900360fa1b910360061c170290565b63227bc15360e01b8152600490fd5b505050620f42409192500490565b5f90828102925f198183099284808510940393808503941461494c57600160701b8410156148ed5750600160701b910990828211900360901b910360701c1790565b5050505060701c90565b90620f42408202905f19620f42408409928280851094039380850394146149e657838211156149d757620f4240829109815f0382168092046002816003021880820260020302808202600203028082026002030280820260020302808202600203028091026002030293600183805f03040190848311900302920304170290565b63227bc15360e01b5f5260045ffd5b50906149f2925061487d565b90565b9091828202915f1984820993838086109503948086039514614a6d57848311156149d757829109815f0382168092046002816003021880820260020302808202600203028082026002030280820260020302808202600203028091026002030293600183805f03040190848311900302920304170290565b5050906149f2925061487d565b604080516001600160a01b0390921660208301908152828201939093528152614aa4606082612edd565b51902090565b906001600160701b038216809203614abe57565b631a93c68960e11b5f5260045ffd5b805f52600960205260405f2060405190614ae682612ea5565b805482526001810154906001600160801b03602084019260ff81161515845260081c166040840152600460028201549160608501926001600160801b038116845260801c60808601526001600160801b0360038201541660a086015201548060c085015215614c5557516001600160801b0316614c1a5781515f52600b60205260405f20905115155f5260205260405f20614b8083614e6f565b60018060a01b03165f526020525f60408120555b815f5260096020525f600460408220828155826001820155826002820155826003820155015551604051908282525f60208301527f3d023d90350b769385d88d9e75401f8b4e4431afbcb22be877125e15b5fb1d5b60403393a36001600160a01b03614bff82615077565b1615614c085750565b637e27328960e01b5f5260045260245ffd5b81515f52600a60205260405f20905115155f5260205260405f20614c3d83614e6f565b60018060a01b03165f526020525f6040812055614b94565b60405162461bcd60e51b815260206004820152600d60248201526c1053149150511657d095549395609a1b6044820152606490fd5b805f52600960205260405f2060405190614ca382612ea5565b805482526001810154906001600160801b03602084019260ff81161515845260081c166040840152600460028201549160608501926001600160801b038116845260801c60808601526001600160801b0360038201541660a086015201548060c085015215614c5557516001600160801b0316614dbd5781515f52600b60205260405f20905115155f5260205260405f20614d3d83614e6f565b60018060a01b03165f526020525f60408120555b815f5260096020525f60046040822082815582600182015582600282015582600382015501555160405190828252600160208301527f3d023d90350b769385d88d9e75401f8b4e4431afbcb22be877125e15b5fb1d5b60403393a36001600160a01b03614bff82615077565b81515f52600a60205260405f20905115155f5260205260405f20614de083614e6f565b60018060a01b03165f526020525f6040812055614d51565b906001600160701b03809116911601906001600160701b038211612bfc57565b6101c0810151516001600160701b03926001600160a01b03908116911603614e5757808260c0816020614e52950151169201511690614df8565b161190565b808260e0816040614e52950151169201511690614df8565b5f818152600260205260409020546001600160a01b0316908115614c08575090565b90614ec490614e9e614735565b50602083015115614f9b576101c00151602001516001600160a01b03165b825190614a7a565b604051631758b3e760e31b815260048101919091526020816024817f00000000000000000000000000000000000000000000000000000000000000006001600160a01b03165afa908115612994575f91614f69575b50604082016001600160701b03614f3d611f75846001600160801b0385511661490a565b1690526001600160701b03614f63611f7560608501936001600160801b0385511661490a565b16905290565b90506020813d602011614f93575b81614f8460209383612edd565b810103126104cc57515f614f19565b3d9150614f77565b6101c00151516001600160a01b0316614ebc565b6001600160e01b039182169082160191908211612bfc57565b6149f2906001600160701b0361500c81602084015116614ff38360701b918460608701511690614df8565b60701b1692826080816040840151169201511690614df8565b1690614faf565b6149f2906001600160701b036101608160701b61014084015160701b169201511690614faf565b1561504157565b60405162461bcd60e51b815260206004820152600e60248201526d414c52454144595f45584953545360901b6044820152606490fd5b5f818152600260205260409020546001600160a01b03169081615276575b805f52600260205260405f206001600160601b0360a01b8154169055604051815f847fddf252ad1be2c89b69c2b068fc378daa952ba7f163c4a11628f55a4df523b3ef8280a4815f52600960205260405f20906150f181612ea5565b81548082526001830154926001600160801b03602084019460ff81161515865260081c16604084015260046002820154916001600160801b0383169283606087015260801c60808601526001600160801b0360038201541660a086015201548060c0850152615163575b505050505090565b6151f3575080515f52600b60205260405f20825115155f5260205260405f205f805260205261519660405f20541561503a565b80515f52600b60205260405f20825115155f5260205260405f2060018060a01b0385165f526020525f6040812055515f52600b60205260405f20905115155f5260205260405f205f805260205260405f20555b5f8080808061515b565b5f52600a60205260405f20825115155f5260205260405f205f805260205261521f60405f20541561503a565b80515f52600a60205260405f20825115155f5260205260405f2060018060a01b0385165f526020525f6040812055515f52600a60205260405f20905115155f5260205260405f205f805260205260405f20556151e9565b5f81815260046020526040902080546001600160a01b0319169055815f52600360205260405f205f198154019055615095565b5f9291906001600160a01b0316156152be5750565b8091925034106152cb5790565b63044044a560e21b5f5260045ffd5b3d15615304573d906152eb82612eff565b916152f96040519384612edd565b82523d5f602084013e565b606090565b5f80809381935af16153196152da565b501561532157565b60405162461bcd60e51b815260206004820152600f60248201526e1514905394d1915497d19052531151608a1b6044820152606490fdfe060f1b685e2616a7bcd1b072e71f6dc0304be3674c812c1e2dde461be945bfc5b7fe54565dd6f419ae9011088ea0145e0c75a7a79ba3400b862e50d24c56ce5b9b779b17422d0df92223018b32b4d1fa46e071723d6817e2486d003becc55f00a26469706673582212206066acc2c307ecdfe8a0a0c08108cf944314b237383a3e194a48144814cf528e64736f6c634300081a0033","linkReferences":{}},"methodIdentifiers":{"approve(address,uint256)":"095ea7b3","balanceOf(address)":"70a08231","checker()":"cf5303cf","close(uint256,uint256,int256,uint256)":"025f87fb","getApproved(uint256)":"081812fc","getPosition(uint256)":"eb02c301","getPositionId(bytes32,bool,address,bool)":"eeb25227","isApprovedForAll(address,address)":"e985e9c5","liquidateBurn(uint256)":"0d90040d","liquidateCall(uint256)":"b191d564","margin((bytes32,bool,uint24,uint256,uint256,uint256,uint256))":"b17169d8","modify(uint256,int256)":"f1930394","name()":"06fdde03","owner()":"8da5cb5b","ownerOf(uint256)":"6352211e","pairPoolManager()":"bc37857d","repay(uint256,uint256,uint256)":"895a7485","safeTransferFrom(address,address,uint256)":"42842e0e","safeTransferFrom(address,address,uint256,bytes)":"b88d4fde","setApprovalForAll(address,bool)":"a22cb465","setMarginChecker(address)":"141d88f2","supportsInterface(bytes4)":"01ffc9a7","symbol()":"95d89b41","tokenURI(uint256)":"c87b56dd","transferFrom(address,address,uint256)":"23b872dd","transferOwnership(address)":"f2fde38b"},"id":89}