{"abi":[{"type":"constructor","inputs":[{"name":"initialOwner","type":"address","internalType":"address"}],"stateMutability":"nonpayable"},{"type":"function","name":"accruesRatioX112Of","inputs":[{"name":"","type":"uint256","internalType":"uint256"}],"outputs":[{"name":"","type":"uint256","internalType":"uint256"}],"stateMutability":"view"},{"type":"function","name":"addInterests","inputs":[{"name":"poolId","type":"bytes32","internalType":"PoolId"},{"name":"_reserve0","type":"uint256","internalType":"uint256"},{"name":"_reserve1","type":"uint256","internalType":"uint256"},{"name":"interest0","type":"uint256","internalType":"uint256"},{"name":"interest1","type":"uint256","internalType":"uint256"}],"outputs":[{"name":"liquidity","type":"uint256","internalType":"uint256"}],"stateMutability":"nonpayable"},{"type":"function","name":"addLiquidity","inputs":[{"name":"sender","type":"address","internalType":"address"},{"name":"id","type":"uint256","internalType":"uint256"},{"name":"level","type":"uint8","internalType":"uint8"},{"name":"amount","type":"uint256","internalType":"uint256"}],"outputs":[],"stateMutability":"nonpayable"},{"type":"function","name":"addPoolManager","inputs":[{"name":"_manager","type":"address","internalType":"address"}],"outputs":[],"stateMutability":"nonpayable"},{"type":"function","name":"allowance","inputs":[{"name":"owner","type":"address","internalType":"address"},{"name":"spender","type":"address","internalType":"address"},{"name":"id","type":"uint256","internalType":"uint256"}],"outputs":[{"name":"","type":"uint256","internalType":"uint256"}],"stateMutability":"view"},{"type":"function","name":"allowanceOriginal","inputs":[{"name":"","type":"address","internalType":"address"},{"name":"","type":"address","internalType":"address"},{"name":"","type":"uint256","internalType":"uint256"}],"outputs":[{"name":"","type":"uint256","internalType":"uint256"}],"stateMutability":"view"},{"type":"function","name":"approve","inputs":[{"name":"spender","type":"address","internalType":"address"},{"name":"id","type":"uint256","internalType":"uint256"},{"name":"_amount","type":"uint256","internalType":"uint256"}],"outputs":[{"name":"","type":"bool","internalType":"bool"}],"stateMutability":"nonpayable"},{"type":"function","name":"balanceOf","inputs":[{"name":"owner","type":"address","internalType":"address"},{"name":"id","type":"uint256","internalType":"uint256"}],"outputs":[{"name":"","type":"uint256","internalType":"uint256"}],"stateMutability":"view"},{"type":"function","name":"balanceOriginal","inputs":[{"name":"","type":"address","internalType":"address"},{"name":"","type":"uint256","internalType":"uint256"}],"outputs":[{"name":"","type":"uint256","internalType":"uint256"}],"stateMutability":"view"},{"type":"function","name":"changeLiquidity","inputs":[{"name":"poolId","type":"bytes32","internalType":"PoolId"},{"name":"_reserve0","type":"uint256","internalType":"uint256"},{"name":"_reserve1","type":"uint256","internalType":"uint256"},{"name":"interest0","type":"int256","internalType":"int256"},{"name":"interest1","type":"int256","internalType":"int256"}],"outputs":[{"name":"liquidity","type":"uint256","internalType":"uint256"}],"stateMutability":"nonpayable"},{"type":"function","name":"datetimeStore","inputs":[{"name":"","type":"address","internalType":"address"},{"name":"","type":"uint256","internalType":"uint256"}],"outputs":[{"name":"","type":"uint32","internalType":"uint32"}],"stateMutability":"view"},{"type":"function","name":"getFlowReserves","inputs":[{"name":"pairPoolManager","type":"address","internalType":"address"},{"name":"poolId","type":"bytes32","internalType":"PoolId"},{"name":"status","type":"tuple","internalType":"struct PoolStatus","components":[{"name":"blockTimestampLast","type":"uint32","internalType":"uint32"},{"name":"realReserve0","type":"uint112","internalType":"uint112"},{"name":"realReserve1","type":"uint112","internalType":"uint112"},{"name":"mirrorReserve0","type":"uint112","internalType":"uint112"},{"name":"mirrorReserve1","type":"uint112","internalType":"uint112"},{"name":"marginFee","type":"uint24","internalType":"uint24"},{"name":"lendingRealReserve0","type":"uint112","internalType":"uint112"},{"name":"lendingRealReserve1","type":"uint112","internalType":"uint112"},{"name":"lendingMirrorReserve0","type":"uint112","internalType":"uint112"},{"name":"lendingMirrorReserve1","type":"uint112","internalType":"uint112"},{"name":"truncatedReserve0","type":"uint112","internalType":"uint112"},{"name":"truncatedReserve1","type":"uint112","internalType":"uint112"},{"name":"rate0CumulativeLast","type":"uint256","internalType":"uint256"},{"name":"rate1CumulativeLast","type":"uint256","internalType":"uint256"},{"name":"key","type":"tuple","internalType":"struct PoolKey","components":[{"name":"currency0","type":"address","internalType":"Currency"},{"name":"currency1","type":"address","internalType":"Currency"},{"name":"fee","type":"uint24","internalType":"uint24"},{"name":"tickSpacing","type":"int24","internalType":"int24"},{"name":"hooks","type":"address","internalType":"contract IHooks"}]}]}],"outputs":[{"name":"reserve0","type":"uint256","internalType":"uint256"},{"name":"reserve1","type":"uint256","internalType":"uint256"}],"stateMutability":"view"},{"type":"function","name":"getInterestReserves","inputs":[{"name":"pairPoolManager","type":"address","internalType":"address"},{"name":"poolId","type":"bytes32","internalType":"PoolId"},{"name":"status","type":"tuple","internalType":"struct PoolStatus","components":[{"name":"blockTimestampLast","type":"uint32","internalType":"uint32"},{"name":"realReserve0","type":"uint112","internalType":"uint112"},{"name":"realReserve1","type":"uint112","internalType":"uint112"},{"name":"mirrorReserve0","type":"uint112","internalType":"uint112"},{"name":"mirrorReserve1","type":"uint112","internalType":"uint112"},{"name":"marginFee","type":"uint24","internalType":"uint24"},{"name":"lendingRealReserve0","type":"uint112","internalType":"uint112"},{"name":"lendingRealReserve1","type":"uint112","internalType":"uint112"},{"name":"lendingMirrorReserve0","type":"uint112","internalType":"uint112"},{"name":"lendingMirrorReserve1","type":"uint112","internalType":"uint112"},{"name":"truncatedReserve0","type":"uint112","internalType":"uint112"},{"name":"truncatedReserve1","type":"uint112","internalType":"uint112"},{"name":"rate0CumulativeLast","type":"uint256","internalType":"uint256"},{"name":"rate1CumulativeLast","type":"uint256","internalType":"uint256"},{"name":"key","type":"tuple","internalType":"struct PoolKey","components":[{"name":"currency0","type":"address","internalType":"Currency"},{"name":"currency1","type":"address","internalType":"Currency"},{"name":"fee","type":"uint24","internalType":"uint24"},{"name":"tickSpacing","type":"int24","internalType":"int24"},{"name":"hooks","type":"address","internalType":"contract IHooks"}]}]}],"outputs":[{"name":"reserve0","type":"uint256","internalType":"uint256"},{"name":"reserve1","type":"uint256","internalType":"uint256"}],"stateMutability":"view"},{"type":"function","name":"getInterestReserves","inputs":[{"name":"pairPoolManager","type":"address","internalType":"address"},{"name":"poolId","type":"bytes32","internalType":"PoolId"}],"outputs":[{"name":"reserve0","type":"uint256","internalType":"uint256"},{"name":"reserve1","type":"uint256","internalType":"uint256"}],"stateMutability":"view"},{"type":"function","name":"getMarginReserves","inputs":[{"name":"pairPoolManager","type":"address","internalType":"address"},{"name":"poolId","type":"bytes32","internalType":"PoolId"},{"name":"status","type":"tuple","internalType":"struct PoolStatus","components":[{"name":"blockTimestampLast","type":"uint32","internalType":"uint32"},{"name":"realReserve0","type":"uint112","internalType":"uint112"},{"name":"realReserve1","type":"uint112","internalType":"uint112"},{"name":"mirrorReserve0","type":"uint112","internalType":"uint112"},{"name":"mirrorReserve1","type":"uint112","internalType":"uint112"},{"name":"marginFee","type":"uint24","internalType":"uint24"},{"name":"lendingRealReserve0","type":"uint112","internalType":"uint112"},{"name":"lendingRealReserve1","type":"uint112","internalType":"uint112"},{"name":"lendingMirrorReserve0","type":"uint112","internalType":"uint112"},{"name":"lendingMirrorReserve1","type":"uint112","internalType":"uint112"},{"name":"truncatedReserve0","type":"uint112","internalType":"uint112"},{"name":"truncatedReserve1","type":"uint112","internalType":"uint112"},{"name":"rate0CumulativeLast","type":"uint256","internalType":"uint256"},{"name":"rate1CumulativeLast","type":"uint256","internalType":"uint256"},{"name":"key","type":"tuple","internalType":"struct PoolKey","components":[{"name":"currency0","type":"address","internalType":"Currency"},{"name":"currency1","type":"address","internalType":"Currency"},{"name":"fee","type":"uint24","internalType":"uint24"},{"name":"tickSpacing","type":"int24","internalType":"int24"},{"name":"hooks","type":"address","internalType":"contract IHooks"}]}]}],"outputs":[{"name":"marginReserve0","type":"uint256","internalType":"uint256"},{"name":"marginReserve1","type":"uint256","internalType":"uint256"},{"name":"incrementMaxMirror0","type":"uint256","internalType":"uint256"},{"name":"incrementMaxMirror1","type":"uint256","internalType":"uint256"}],"stateMutability":"view"},{"type":"function","name":"getMarginReserves","inputs":[{"name":"pairPoolManager","type":"address","internalType":"address"},{"name":"poolId","type":"bytes32","internalType":"PoolId"}],"outputs":[{"name":"marginReserve0","type":"uint256","internalType":"uint256"},{"name":"marginReserve1","type":"uint256","internalType":"uint256"},{"name":"incrementMaxMirror0","type":"uint256","internalType":"uint256"},{"name":"incrementMaxMirror1","type":"uint256","internalType":"uint256"}],"stateMutability":"view"},{"type":"function","name":"getMaxSliding","inputs":[],"outputs":[{"name":"","type":"uint24","internalType":"uint24"}],"stateMutability":"view"},{"type":"function","name":"getPoolId","inputs":[{"name":"poolId","type":"bytes32","internalType":"PoolId"}],"outputs":[{"name":"uPoolId","type":"uint256","internalType":"uint256"}],"stateMutability":"pure"},{"type":"function","name":"getPoolLiquidities","inputs":[{"name":"poolId","type":"bytes32","internalType":"PoolId"},{"name":"owner","type":"address","internalType":"address"}],"outputs":[{"name":"liquidities","type":"uint256[4]","internalType":"uint256[4]"}],"stateMutability":"view"},{"type":"function","name":"getPoolLiquidity","inputs":[{"name":"poolId","type":"bytes32","internalType":"PoolId"},{"name":"owner","type":"address","internalType":"address"},{"name":"level","type":"uint8","internalType":"uint8"}],"outputs":[{"name":"liquidity","type":"uint256","internalType":"uint256"}],"stateMutability":"view"},{"type":"function","name":"getPoolSupplies","inputs":[{"name":"poolManager","type":"address","internalType":"address"},{"name":"poolId","type":"bytes32","internalType":"PoolId"}],"outputs":[{"name":"totalSupply","type":"uint256","internalType":"uint256"},{"name":"retainSupply0","type":"uint256","internalType":"uint256"},{"name":"retainSupply1","type":"uint256","internalType":"uint256"}],"stateMutability":"view"},{"type":"function","name":"getSupplies","inputs":[{"name":"uPoolId","type":"uint256","internalType":"uint256"}],"outputs":[{"name":"totalSupply","type":"uint256","internalType":"uint256"},{"name":"retainSupply0","type":"uint256","internalType":"uint256"},{"name":"retainSupply1","type":"uint256","internalType":"uint256"}],"stateMutability":"view"},{"type":"function","name":"interestOperator","inputs":[{"name":"","type":"address","internalType":"address"}],"outputs":[{"name":"","type":"bool","internalType":"bool"}],"stateMutability":"view"},{"type":"function","name":"interestStore0","inputs":[{"name":"","type":"bytes32","internalType":"PoolId"}],"outputs":[{"name":"","type":"int256","internalType":"int256"}],"stateMutability":"view"},{"type":"function","name":"interestStore1","inputs":[{"name":"","type":"bytes32","internalType":"PoolId"}],"outputs":[{"name":"","type":"int256","internalType":"int256"}],"stateMutability":"view"},{"type":"function","name":"isOperator","inputs":[{"name":"","type":"address","internalType":"address"},{"name":"","type":"address","internalType":"address"}],"outputs":[{"name":"","type":"bool","internalType":"bool"}],"stateMutability":"view"},{"type":"function","name":"minHoldingDuration","inputs":[],"outputs":[{"name":"","type":"uint32","internalType":"uint32"}],"stateMutability":"view"},{"type":"function","name":"owner","inputs":[],"outputs":[{"name":"","type":"address","internalType":"address"}],"stateMutability":"view"},{"type":"function","name":"poolManagers","inputs":[{"name":"","type":"address","internalType":"address"}],"outputs":[{"name":"","type":"bool","internalType":"bool"}],"stateMutability":"view"},{"type":"function","name":"removeLiquidity","inputs":[{"name":"sender","type":"address","internalType":"address"},{"name":"id","type":"uint256","internalType":"uint256"},{"name":"level","type":"uint8","internalType":"uint8"},{"name":"amount","type":"uint256","internalType":"uint256"}],"outputs":[{"name":"","type":"uint256","internalType":"uint256"}],"stateMutability":"nonpayable"},{"type":"function","name":"setMaxSliding","inputs":[{"name":"_maxSliding","type":"uint24","internalType":"uint24"}],"outputs":[],"stateMutability":"nonpayable"},{"type":"function","name":"setOperator","inputs":[{"name":"operator","type":"address","internalType":"address"},{"name":"approved","type":"bool","internalType":"bool"}],"outputs":[{"name":"","type":"bool","internalType":"bool"}],"stateMutability":"nonpayable"},{"type":"function","name":"supportsInterface","inputs":[{"name":"interfaceId","type":"bytes4","internalType":"bytes4"}],"outputs":[{"name":"","type":"bool","internalType":"bool"}],"stateMutability":"view"},{"type":"function","name":"transfer","inputs":[{"name":"receiver","type":"address","internalType":"address"},{"name":"id","type":"uint256","internalType":"uint256"},{"name":"_amount","type":"uint256","internalType":"uint256"}],"outputs":[{"name":"","type":"bool","internalType":"bool"}],"stateMutability":"nonpayable"},{"type":"function","name":"transferFrom","inputs":[{"name":"sender","type":"address","internalType":"address"},{"name":"receiver","type":"address","internalType":"address"},{"name":"id","type":"uint256","internalType":"uint256"},{"name":"_amount","type":"uint256","internalType":"uint256"}],"outputs":[{"name":"","type":"bool","internalType":"bool"}],"stateMutability":"nonpayable"},{"type":"function","name":"transferOwnership","inputs":[{"name":"newOwner","type":"address","internalType":"address"}],"outputs":[],"stateMutability":"nonpayable"},{"type":"event","name":"Approval","inputs":[{"name":"owner","type":"address","indexed":true,"internalType":"address"},{"name":"spender","type":"address","indexed":true,"internalType":"address"},{"name":"id","type":"uint256","indexed":true,"internalType":"uint256"},{"name":"amount","type":"uint256","indexed":false,"internalType":"uint256"}],"anonymous":false},{"type":"event","name":"OperatorSet","inputs":[{"name":"owner","type":"address","indexed":true,"internalType":"address"},{"name":"operator","type":"address","indexed":true,"internalType":"address"},{"name":"approved","type":"bool","indexed":false,"internalType":"bool"}],"anonymous":false},{"type":"event","name":"OwnershipTransferred","inputs":[{"name":"user","type":"address","indexed":true,"internalType":"address"},{"name":"newOwner","type":"address","indexed":true,"internalType":"address"}],"anonymous":false},{"type":"event","name":"Transfer","inputs":[{"name":"caller","type":"address","indexed":false,"internalType":"address"},{"name":"from","type":"address","indexed":true,"internalType":"address"},{"name":"to","type":"address","indexed":true,"internalType":"address"},{"name":"id","type":"uint256","indexed":true,"internalType":"uint256"},{"name":"amount","type":"uint256","indexed":false,"internalType":"uint256"}],"anonymous":false},{"type":"error","name":"ErrorReceiver","inputs":[]},{"type":"error","name":"LevelError","inputs":[]},{"type":"error","name":"MathOverflowedMulDiv","inputs":[]},{"type":"error","name":"NotAllowed","inputs":[]}],"bytecode":{"object":"0x60803460ad57601f6129bc38819003918201601f19168301916001600160401b0383118484101760b15780849260209460405283398101031260ad57516001600160a01b0381169081900360ad57601e63ffffffff19600354161760035560075460405191805f7f8be0079c531659141344cd1fd0a4f28419497f9722a3daafe3b4186f6b6457e08180a36001600160b81b03199091161761027160a31b176007556128f690816100c68239f35b5f80fd5b634e487b7160e01b5f52604160045260245ffdfe60806040526004361015610011575f80fd5b5f3560e01c8062fdd58e146110fd57806301ffc9a7146110a7578063095bcdb614610fbf5780630ead1e7d14610fa55780631d98e12d14610f7b5780631f47d1b114610f5157806336f8031b14610f2e5780633a43e9f714610f15578063426a849314610e8657806345077e7114610d6b57806346b2b69714610d145780634db4f77c14610cd0578063558a729714610c3f578063598af9e714610bee5780636792df0f14610bc25780637c3279ed14610b1e5780638a64e0c414610ae15780638da5cb5b14610ab95780638f635d0614610a1c578063acd66831146109f7578063b6363cf2146109a1578063b676c9e814610958578063bac59f381461092e578063c38393d7146108e5578063c3cede01146108a8578063c6d2c7fe1461085e578063c97a1c3f146107d1578063d494824014610719578063d5ffe209146106c0578063db620f4f1461069f578063ec8ce301146105e9578063ed4ed80b14610530578063f2fde38b146104bd578063fc72cb0514610403578063fd32826f1461037c5763fe99049a146101a4575f80fd5b34610378576080366003190112610378576101bd611124565b6101c561113a565b90604435916064359160018060a01b031690815f52600660205260405f20845f526020526101fc63ffffffff60405f2054166118b9565b63ffffffff6003541611610369576001600160a01b03165f8181526004602052604090205490929060ff1661035a576102c05f805160206128a183398151915291855f52600560205261025360405f2054826119e0565b8433141580610339575b6102ce575b845f52600160205260405f20875f5260205260405f20610283828254611499565b9055855f52600160205260405f20875f526020526102a660405f209182546114a6565b905560408051338152602081019290925290918291820190565b0390a4602060405160018152f35b5f85815260026020908152604080832033845282528083208a84529091529020548160018201610300575b5050610262565b61030991611499565b855f52600260205260405f2060018060a01b0333165f5260205260405f20885f5260205260405f20555f816102f9565b505f8581526020818152604080832033845290915290205460ff161561025d565b631d8fcadd60e21b5f5260045ffd5b631eb49d6d60e11b5f5260045ffd5b5f80fd5b346103785760206103db6103ef6103b661039536611429565b9291809491335f52600489526103b160ff60405f2054166116a8565b611cae565b916103c18383611461565b90808210156103f85750948580945b600f19163384612602565b506103e883833384612602565b5080612602565b50604051908152f35b9050948580946103d0565b346103785760a036600319011261037857335f52600860205261042c60ff60405f2054166116a8565b60405163bc37857d60e01b8152602081600481335afa9081156104b2575f91610472575b602061046a60843560643560443560243560043588611da8565b604051908152f35b90506020813d6020116104aa575b8161048d602093836111c7565b810103126103785761046a6104a3602092611707565b9150610450565b3d9150610480565b6040513d5f823e3d90fd5b34610378576020366003190112610378576104d6611124565b600754906104ee336001600160a01b038416146116a8565b6001600160a01b03166001600160a01b0319919091168117600755337f8be0079c531659141344cd1fd0a4f28419497f9722a3daafe3b4186f6b6457e05f80a3005b346103785760a036600319011261037857602060043560243590604435916064359260843591335f526004865261056d60ff60405f2054166116a8565b5f945f811215806105df575b6105c9575b5f811315806105bf575b610597575b8686604051908152f35b6105b595506105a86105ae916118a9565b936118a9565b93336121dc565b828080808061058d565b505f841315610588565b94506105d9838684848833611da8565b9461057e565b505f841215610579565b346103785760403660031901126103785760043561060561113a565b906040516106146080826111c7565b60803682375f5b6004811015610674578060010190816001116106605761065361064d8560ff6001951661064781611bff565b50611cae565b86611461565b8160051b8401520161061b565b634e487b7160e01b5f52601160045260245ffd5b50604051905f825b6004821061068957608084f35b602080600192855181520193019101909161067c565b34610378576020366003190112610378576020604051600f19600435168152f35b3461037857602036600319011261037857335f5260046020526106e960ff60405f2054166116a8565b6107156106f860043533611912565b604080519384526020840192909252908201529081906060820190565b0390f35b34610378576040610729366111e9565b61073a5f935f93600f191690611912565b92909180610753575b5050505082519182526020820152f35b610793906001600160701b03602084015116946001600160701b0361078661078d84838d8901511698846107868a6119a3565b1690611b5b565b95611be0565b928181116107be575b50508181116107ad575b8080610743565b6107b79250611499565b83806107a6565b6107c9929550611499565b92858061079c565b346103785761085c6108076108486107e836611429565b94828692959395335f5260046020526103b160ff60405f2054166116a8565b6001600160a01b0384165f9081526006602090815260408083208484529091529020805463ffffffff19164263ffffffff1617905593600f19163384611cd6565b5061085583833384611cd6565b5080611cd6565b005b34610378576040366003190112610378576001600160a01b0361087f611124565b165f52600660205260405f206024355f52602052602063ffffffff60405f205416604051908152f35b34610378576020366003190112610378576001600160a01b036108c9611124565b165f526008602052602060ff60405f2054166040519015158152f35b34610378576060366003190112610378576108fe61113a565b60443560ff81168103610378576020916109288261091e61046a94611bff565b5060043590611cae565b90611461565b34610378576020366003190112610378576004355f526005602052602060405f2054604051908152f35b3461037857610966366113ef565b9160018060a01b03165f52600260205260405f209060018060a01b03165f5260205260405f20905f52602052602060405f2054604051908152f35b34610378576040366003190112610378576109ba611124565b6109c261113a565b9060018060a01b03165f525f60205260405f209060018060a01b03165f52602052602060ff60405f2054166040519015158152f35b34610378575f36600319011261037857602062ffffff60075460a01c16604051908152f35b3461037857604036600319011261037857610a35611124565b6040516302ef145760e51b8152602480356004830181905290610260908390816001600160a01b0387165afa9081156104b257604093610a7c935f93610a88575b5061163f565b82519182526020820152f35b610aab9193506102603d8111610ab2575b610aa381836111c7565b81019061171b565b9185610a76565b503d610a99565b34610378575f366003190112610378576007546040516001600160a01b039091168152602090f35b34610378576020366003190112610378576001600160a01b03610b02611124565b165f526004602052602060ff60405f2054166040519015158152f35b3461037857604036600319011261037857610b37611124565b6040516302ef145760e51b8152602480356004830181905290610260908390816001600160a01b0387165afa9081156104b25761071593610b7f935f93610ba1575b506114b3565b6040805194855260208501939093529183015260608201529081906080820190565b610bbb9193506102603d8111610ab257610aa381836111c7565b9185610b79565b34610378576040366003190112610378576107156106f8610be1611124565b602435600f191690611912565b3461037857602061046a610c01366113ef565b6001600160a01b039283165f908152600286526040808220939094168152918552828220818352855282822054908252600585529190205490611a7e565b3461037857604036600319011261037857610c58611124565b6024359081151580920361037857335f525f60205260405f2060018060a01b0382165f5260205260405f2060ff1981541660ff841617905560405191825260018060a01b0316907fceb576d9f15e4e200fdb5096d64d5dfd667e16def20c1eefd14256d8e3faa26760203392a3602060405160018152f35b34610378576040366003190112610378576001600160a01b03610cf1611124565b165f52600160205260405f206024355f52602052602060405f2054604051908152f35b346103785760203660031901126103785760043562ffffff811681036103785760075490610d4c336001600160a01b038416146116a8565b62ffffff60a01b1990911660a09190911b62ffffff60a01b1617600755005b346103785760203660031901126103785760046020610d88611124565b610d9d60018060a01b036007541633146116a8565b6001600160a01b03165f818152838352604090819020805460ff1916600117905551637436595f60e11b815292839182905afa9081156104b2575f91610e44575b506001600160a01b03168015610e08575f908152600860205260409020805460ff19166001179055005b60405162461bcd60e51b815260206004820152601460248201527329aa20aa2aa9afa6a0a720a3a2a92fa2a92927a960611b6044820152606490fd5b90506020813d602011610e7e575b81610e5f602093836111c7565b8101031261037857516001600160a01b03811681036103785781610dde565b3d9150610e52565b3461037857610e9436611150565b9091825f526005602052610eac60405f2054836119e0565b335f52600260205260405f2060018060a01b0383165f5260205260405f20845f5260205260405f205560405191825260018060a01b0316907fb3fd5071835887567a0671151121894ddccc2842f1d10bedad13e0d17cace9a760203392a4602060405160018152f35b34610378576040610a7c610f28366111e9565b9161163f565b34610378575f36600319011261037857602063ffffffff60035416604051908152f35b34610378576020366003190112610378576004355f526009602052602060405f2054604051908152f35b34610378576020366003190112610378576004355f52600a602052602060405f2054604051908152f35b3461037857610715610b7f610fb9366111e9565b916114b3565b3461037857610fcd36611150565b9091335f52600660205260405f20835f52602052610ff463ffffffff60405f2054166118b9565b63ffffffff6003541611610369576001600160a01b03165f8181526004602052604090205490919060ff1661035a57825f52600560205261103960405f2054826119e0565b335f52600160205260405f20845f5260205260405f2061105a828254611499565b9055825f52600160205260405f20845f5260205261107d60405f209182546114a6565b9055604080513380825260208201939093525f805160206128a183398151915291819081016102c0565b346103785760203660031901126103785760043563ffffffff60e01b8116809103610378576020906301ffc9a760e01b81149081156110ec575b506040519015158152f35b630f632fb360e01b149050826110e1565b3461037857604036600319011261037857602061046a61111b611124565b60243590611461565b600435906001600160a01b038216820361037857565b602435906001600160a01b038216820361037857565b6060906003190112610378576004356001600160a01b038116810361037857906024359060443590565b6101e0810190811067ffffffffffffffff82111761119757604052565b634e487b7160e01b5f52604160045260245ffd5b60a0810190811067ffffffffffffffff82111761119757604052565b90601f8019910116810190811067ffffffffffffffff82111761119757604052565b6102a0600319820112610378576004356001600160a01b038116810361037857916024359161026060431982011261037857604051906112288261117a565b60443563ffffffff811681036103785782526064356001600160701b03811681036103785760208301526084356001600160701b038116810361037857604083015260a4356001600160701b038116810361037857606083015260c4356001600160701b038116810361037857608083015260e43562ffffff811681036103785760a0830152610104356001600160701b03811681036103785760c0830152610124356001600160701b03811681036103785760e0830152610144356001600160701b038116810361037857610100830152610164356001600160701b038116810361037857610120830152610184356001600160701b0381168103610378576101408301526101a435906001600160701b03821682036103785760a0916101608401526101c4356101808401526101e4356101a084015261020319011261037857604051611376816111ab565b610204356001600160a01b0381168103610378578152610224356001600160a01b03811681036103785760208201526102443562ffffff81168103610378576040820152610264358060020b8103610378576060820152610284356001600160a01b03811681036103785760808201526101c082015290565b6060906003190112610378576004356001600160a01b038116810361037857906024356001600160a01b0381168103610378579060443590565b6080906003190112610378576004356001600160a01b038116810361037857906024359060443560ff81168103610378579060643590565b6001600160a01b03165f9081526001602090815260408083209383529281528282205460059091529190205461149691611a7e565b90565b9190820391821161066057565b9190820180921161066057565b5f938493849384936114c991600f191690611912565b9091806114d7575b50505050565b81939850809297506114ec6114fd9282611499565b6001600160701b036107868b6119a3565b9661151d8261150c8982611499565b6001600160701b0361078685611be0565b976001600160701b036020830151168082105f1461163857505b976001600160701b036040830151168082105f1461163157505b96801561162157611577836115668382611499565b6001600160701b03610786866119a3565b6001600160701b0360608401511690818111611607575b5050505b82156115f4576001600160701b0360806115ba846115b08782611499565b8461078687611be0565b92015116908181116115d5575b505050505b5f8080806114d1565b6115ea949550906115e591611499565b611b5b565b905f8080806115c7565b505050905060016001606f1b03906115cc565b61161893985084916115e591611499565b945f808061158e565b5060016001606f1b039550611592565b9050611551565b9050611537565b9290916116535f945f94600f191690611912565b9290826116605750505050565b8293965061169e94955061169861169184611687610786946001600160701b039697611499565b85610786886119a3565b9785611499565b92611be0565b905f8080806114d1565b156116af57565b60405162461bcd60e51b815260206004820152600c60248201526b15539055551213d49256915160a21b6044820152606490fd5b51906001600160701b038216820361037857565b519062ffffff8216820361037857565b51906001600160a01b038216820361037857565b80910390610260821261037857604051916117358361117a565b81519063ffffffff821682036103785760a0918452611756602084016116e3565b6020850152611767604084016116e3565b6040850152611778606084016116e3565b6060850152611789608084016116e3565b60808501526117998284016116f7565b828501526117a960c084016116e3565b60c08501526117ba60e084016116e3565b60e08501526117cc61010084016116e3565b6101008501526117df61012084016116e3565b6101208501526117f261014084016116e3565b61014085015261180561016084016116e3565b6101608501526101808301516101808501526101a08301516101a08501526101bf190112610378576040519061183a826111ab565b6118476101c08201611707565b82526118566101e08201611707565b602083015261186861020082016116f7565b6040830152610220810151908160020b820361037857606083019190915261024001516001600160a01b03811681036103785760808201526101c082015290565b600160ff1b8114610660575f0390565b63ffffffff9081169042168082116118e0570363ffffffff81116106605763ffffffff1690565b906401000000000364ffffffffff81116106605764ffffffffff160164ffffffffff81116106605764ffffffffff1690565b9190600f1916906119238284611461565b925f61192f6001611bff565b611970575b9061196a6119456114969383611461565b9161092861196461195e61195889611c33565b84611461565b856114a6565b96611c5c565b906114a6565b5060018301908184116106605790611934565b906001600160701b03809116911601906001600160701b03821161066057565b611496906001600160701b036060816020840151169201511690611983565b81156119cc570490565b634e487b7160e01b5f52601260045260245ffd5b90607082901b905f19600160701b840992828085109403938085039414611a725783821115611a63578190600160701b9009815f0382168092046002816003021880820260020302808202600203028082026002030280820260020302808202600203028091026002030293600183805f03040190848311900302920304170290565b63227bc15360e01b5f5260045ffd5b509061149692506119c2565b5f90828102925f1981830992848085109403938085039414611acf57600160701b841015611ac05750600160701b910990828211900360901b910360701c1790565b63227bc15360e01b8152600490fd5b5050505060701c90565b90607082901b905f1983600160701b0992828085109403938085039414611a725783821115611a63578190600160701b09815f0382168092046002816003021880820260020302808202600203028082026002030280820260020302808202600203028091026002030293600183805f03040190848311900302920304170290565b9091828202915f1984820993838086109503948086039514611bd35784831115611a6357829109815f0382168092046002816003021880820260020302808202600203028082026002030280820260020302808202600203028091026002030293600183805f03040190848311900302920304170290565b50509061149692506119c2565b611496906001600160701b036080816040840151169201511690611983565b60ff169060018210159182611c27575b508115611c1857565b633a5de85360e21b5f5260045ffd5b6004101591505f611c0f565b905f91611c406003611bff565b611c475750565b909150600f1916600381018091116106605790565b905f91611c696002611bff565b611c705750565b909150600f1916600281018091116106605790565b905f91611c926004611bff565b611c995750565b909150600f1916600481018091116106605790565b91905f92611cbb81611bff565b611cc3575050565b61149692935060ff1690600f19166114a6565b9093925f805160206128a18339815191525f918483526005602052604083205480158414611d5d57508483526005602052600160701b604084205580965b60018060a01b03169384845260016020526040842086855260205260408420611d3e8982546114a6565b9055604080516001600160a01b039290921682526020820192909252a4565b611d6790826119e0565b96611d14565b905f821280151661066057565b9190915f838201938412911290801582169115161761066057565b8181029291811591840414171561066057565b5f828152600960205260408120549097969195919493918882126121735790611dd0916114a6565b93825f5260096020525f60408120555b5f838152600a60205260408120549190821261211c5790611e00916114a6565b91805f52600a6020525f60408120555b611e22611e1d8584611d95565b6126aa565b611e42611e1d611e3288866114a6565b611e3c87896114a6565b90611d95565b90808211611e55575b5050505050505050565b87995090611e86611e8c92611e80611e76600f9b999a9b198716809a611461565b611e3c8386611499565b926114a6565b906119c2565b9788611e99575b80611e4b565b60018060a01b031695865f52600160205260405f20855f5260205260405f2054935f965f9483155f1461207257505050505050611ee586915b835f5260056020528760405f20546127ef565b825f52600560205260405f2055611efb82611c85565b93805f52600160205260405f20855f5260205260405f2054925f9480611ff1575b5082611f60575b50505080611f35575b80808080611e93565b611f4b91835f52600560205260405f20546127ef565b905f52600560205260405f20555f8080611f2c565b611f6d9094919294611c33565b915f52600160205260405f20825f5260205260405f2054908115155f14611fdd5790611fb4611fc79261196a611fad611fa688866114a6565b858a611b5b565b8098611499565b94835f52600560205260405f20546127ef565b905f52600560205260405f20555b5f8080611f23565b9050611feb929391506114a6565b90611fd5565b94611ffb82611c5c565b90835f52600160205260405f20825f5260205260405f2054908115155f1461206a57906120436120569261196a61203c6120358b866114a6565b858d611b5b565b809b611499565b97835f52600560205260405f20546127ef565b905f52600560205260405f20555b5f611f1c565b505050612064565b909180939495969850155f14612091575050505050611ee58693611ed2565b829395506120a99161195e916120b094999699611b5b565b848a611b5b565b946120bb868a611499565b9386158015612114575b6120d557505050611ee590611ed2565b9450945094505050815f9594955260096020526120f760405f20918254611d7a565b90555f52600a60205261210f60405f20918254611d7a565b905590565b5084156120c5565b612125826118a9565b8111156121525761213861213e926118a9565b90611499565b91805f52600a6020525f6040812055611e10565b50505f91805f52600a60205260405f2061216c8154611d6d565b9055611e10565b61217c826118a9565b8111156121a35761213861218f926118a9565b93825f5260096020525f6040812055611de0565b50505f93825f52600960205260405f206121bd8154611d6d565b9055611de0565b81810392915f13801582851316918412161761066057565b9395949290915f96835f52600960205260405f20545f8113155f146125cc579061196a612208926118a9565b93835f5260096020525f60408120555b5f848152600a6020526040812054908113612596579061196a61223a926118a9565b93835f52600a6020525f60408120555b612257611e1d8484611d95565b612271611e1d6122678486611499565b611e3c8988611499565b90818111612283575050505050505050565b87995090611e866122ae92611e806122a4600f9b999a9b198b16809a611461565b611e3c8584611499565b97886122ba5780611e4b565b60018060a01b031694855f52600160205260405f20855f5260205260405f2054965f945f9484155f146124ec5750505050505061230686945b835f5260056020528760405f205461281e565b825f52600560205260405f20555f9261231e83611c85565b94815f52600160205260405f20865f5260205260405f2054935f938061246c575b50816123b3575b50505081612357575b808080611e93565b821561238a5782916123769185604095526005602052848420546127ef565b928152600560205220555b5f80808061234f565b6123a19250835f52600560205260405f205461281e565b905f52600560205260405f2055612381565b6123bc90611c33565b9185526001602052604085208286526020526040852054928315155f1461245a576123ff9061196a6123f86123f188886114a6565b8786611b5b565b8094611499565b9285156124325761241c91838752600560205260408720546127ef565b908452600560205260408420555b5f8080612346565b61244891835f52600560205260405f205461281e565b905f52600560205260405f205561242a565b90915061246792506114a6565b61242a565b959361247782611c5c565b90845f52600160205260405f20825f5260205260405f2054958615155f146124e157506124b86124cd9161196a61203c6124b18b8b6114a6565b8a8d611b5b565b955f98835f52600560205260405f205461281e565b905f52600560205260405f20555b5f61233f565b9795506124db915050565b909180939495999650155f1461250b57505050505061230686916122f3565b829395949850612528916125229161252f94611b5b565b886114a6565b878a611b5b565b9261253a848a611499565b968415801561258e575b61255457505050612306906122f3565b9450945094505050815f95949552600960205261257660405f209182546121c4565b90555f52600a60205261210f60405f209182546121c4565b508715612544565b808211156125bb576125a791611499565b93835f52600a6020525f604081205561224a565b50505f838152600a6020529361224a565b808211156125f1576125dd91611499565b93835f5260096020525f6040812055612218565b50505f838152600960205293612218565b93929060018060a01b031690815f52600660205260405f20835f5260205261263363ffffffff60405f2054166118b9565b63ffffffff600354161161036957825f52600560205261265760405f2054826119e0565b94811515806126a2575b612699575b82915f805160206128a1833981519152915f94855260016020526040852086865260205260408520611d3e898254611499565b60019550612666565b508515612661565b80156127ea576127786001825f908460801c806127de575b508060401c806127d1575b508060201c806127c4575b508060101c806127b7575b508060081c806127aa575b508060041c8061279d575b508060021c80612790575b50821c612789575b811c1b61271981846119c2565b0160011c61272781846119c2565b0160011c61273581846119c2565b0160011c61274381846119c2565b0160011c61275181846119c2565b0160011c61275f81846119c2565b0160011c61276d81846119c2565b0160011c80926119c2565b80821015612784575090565b905090565b810161270c565b600291509101905f612704565b600491509101905f6126f9565b600891509101905f6126ee565b601091509101905f6126e3565b602091509101905f6126d8565b604091509101905f6126cd565b9150506080905f6126c2565b505f90565b9291839180151580612815575b61280557505050565b6114969394509061196a91611ad9565b508115156127fc565b90819281151580612897575b612835575b50505090565b61283f8183611ad9565b9181156119cc57600160701b09612877575b8091115f1461286e5761286391611499565b905b905f808061282f565b50505f90612865565b600181018091111561285157634e487b7160e01b5f52601160045260245ffd5b5080151561282a56fe1b3d7edb2e9c0b0e7c525b20aaaef0f5940d2ed71663c7d39266ecafac728859a264697066735822122017491592e33cc518e31372a3e8526083ecb1b914d4920e87e8e4d848aeea555e64736f6c634300081a0033","linkReferences":{}},"methodIdentifiers":{"accruesRatioX112Of(uint256)":"bac59f38","addInterests(bytes32,uint256,uint256,uint256,uint256)":"fc72cb05","addLiquidity(address,uint256,uint8,uint256)":"c97a1c3f","addPoolManager(address)":"45077e71","allowance(address,address,uint256)":"598af9e7","allowanceOriginal(address,address,uint256)":"b676c9e8","approve(address,uint256,uint256)":"426a8493","balanceOf(address,uint256)":"00fdd58e","balanceOriginal(address,uint256)":"4db4f77c","changeLiquidity(bytes32,uint256,uint256,int256,int256)":"ed4ed80b","datetimeStore(address,uint256)":"c6d2c7fe","getFlowReserves(address,bytes32,(uint32,uint112,uint112,uint112,uint112,uint24,uint112,uint112,uint112,uint112,uint112,uint112,uint256,uint256,(address,address,uint24,int24,address)))":"d4948240","getInterestReserves(address,bytes32)":"8f635d06","getInterestReserves(address,bytes32,(uint32,uint112,uint112,uint112,uint112,uint24,uint112,uint112,uint112,uint112,uint112,uint112,uint256,uint256,(address,address,uint24,int24,address)))":"3a43e9f7","getMarginReserves(address,bytes32)":"7c3279ed","getMarginReserves(address,bytes32,(uint32,uint112,uint112,uint112,uint112,uint24,uint112,uint112,uint112,uint112,uint112,uint112,uint256,uint256,(address,address,uint24,int24,address)))":"0ead1e7d","getMaxSliding()":"acd66831","getPoolId(bytes32)":"db620f4f","getPoolLiquidities(bytes32,address)":"ec8ce301","getPoolLiquidity(bytes32,address,uint8)":"c38393d7","getPoolSupplies(address,bytes32)":"6792df0f","getSupplies(uint256)":"d5ffe209","interestOperator(address)":"c3cede01","interestStore0(bytes32)":"1f47d1b1","interestStore1(bytes32)":"1d98e12d","isOperator(address,address)":"b6363cf2","minHoldingDuration()":"36f8031b","owner()":"8da5cb5b","poolManagers(address)":"8a64e0c4","removeLiquidity(address,uint256,uint8,uint256)":"fd32826f","setMaxSliding(uint24)":"46b2b697","setOperator(address,bool)":"558a7297","supportsInterface(bytes4)":"01ffc9a7","transfer(address,uint256,uint256)":"095bcdb6","transferFrom(address,address,uint256,uint256)":"fe99049a","transferOwnership(address)":"f2fde38b"},"id":88}