{"abi":[{"type":"constructor","inputs":[{"name":"initialOwner","type":"address","internalType":"address"},{"name":"_manager","type":"address","internalType":"contract IPoolManager"},{"name":"_mirrorTokenManager","type":"address","internalType":"contract IMirrorTokenManager"},{"name":"_marginLiquidity","type":"address","internalType":"contract IMarginLiquidity"},{"name":"_marginFees","type":"address","internalType":"contract IMarginFees"}],"stateMutability":"nonpayable"},{"type":"function","name":"MINIMUM_LIQUIDITY","inputs":[],"outputs":[{"name":"","type":"uint256","internalType":"uint256"}],"stateMutability":"view"},{"type":"function","name":"ONE_BILLION","inputs":[],"outputs":[{"name":"","type":"uint256","internalType":"uint256"}],"stateMutability":"view"},{"type":"function","name":"ONE_MILLION","inputs":[],"outputs":[{"name":"","type":"uint256","internalType":"uint256"}],"stateMutability":"view"},{"type":"function","name":"SQRT_RATIO_1_1","inputs":[],"outputs":[{"name":"","type":"uint160","internalType":"uint160"}],"stateMutability":"view"},{"type":"function","name":"YEAR_SECONDS","inputs":[],"outputs":[{"name":"","type":"uint256","internalType":"uint256"}],"stateMutability":"view"},{"type":"function","name":"addLiquidity","inputs":[{"name":"params","type":"tuple","internalType":"struct AddLiquidityParams","components":[{"name":"poolId","type":"bytes32","internalType":"PoolId"},{"name":"amount0","type":"uint256","internalType":"uint256"},{"name":"amount1","type":"uint256","internalType":"uint256"},{"name":"tickLower","type":"uint256","internalType":"uint256"},{"name":"tickUpper","type":"uint256","internalType":"uint256"},{"name":"level","type":"uint8","internalType":"uint8"},{"name":"to","type":"address","internalType":"address"},{"name":"deadline","type":"uint256","internalType":"uint256"}]}],"outputs":[{"name":"liquidity","type":"uint256","internalType":"uint256"}],"stateMutability":"payable"},{"type":"function","name":"addPositionManager","inputs":[{"name":"_marginPositionManager","type":"address","internalType":"address"}],"outputs":[],"stateMutability":"nonpayable"},{"type":"function","name":"afterAddLiquidity","inputs":[{"name":"","type":"address","internalType":"address"},{"name":"","type":"tuple","internalType":"struct PoolKey","components":[{"name":"currency0","type":"address","internalType":"Currency"},{"name":"currency1","type":"address","internalType":"Currency"},{"name":"fee","type":"uint24","internalType":"uint24"},{"name":"tickSpacing","type":"int24","internalType":"int24"},{"name":"hooks","type":"address","internalType":"contract IHooks"}]},{"name":"","type":"tuple","internalType":"struct IPoolManager.ModifyLiquidityParams","components":[{"name":"tickLower","type":"int24","internalType":"int24"},{"name":"tickUpper","type":"int24","internalType":"int24"},{"name":"liquidityDelta","type":"int256","internalType":"int256"},{"name":"salt","type":"bytes32","internalType":"bytes32"}]},{"name":"","type":"int256","internalType":"BalanceDelta"},{"name":"","type":"int256","internalType":"BalanceDelta"},{"name":"","type":"bytes","internalType":"bytes"}],"outputs":[{"name":"","type":"bytes4","internalType":"bytes4"},{"name":"","type":"int256","internalType":"BalanceDelta"}],"stateMutability":"nonpayable"},{"type":"function","name":"afterDonate","inputs":[{"name":"","type":"address","internalType":"address"},{"name":"","type":"tuple","internalType":"struct PoolKey","components":[{"name":"currency0","type":"address","internalType":"Currency"},{"name":"currency1","type":"address","internalType":"Currency"},{"name":"fee","type":"uint24","internalType":"uint24"},{"name":"tickSpacing","type":"int24","internalType":"int24"},{"name":"hooks","type":"address","internalType":"contract IHooks"}]},{"name":"","type":"uint256","internalType":"uint256"},{"name":"","type":"uint256","internalType":"uint256"},{"name":"","type":"bytes","internalType":"bytes"}],"outputs":[{"name":"","type":"bytes4","internalType":"bytes4"}],"stateMutability":"nonpayable"},{"type":"function","name":"afterInitialize","inputs":[{"name":"","type":"address","internalType":"address"},{"name":"","type":"tuple","internalType":"struct PoolKey","components":[{"name":"currency0","type":"address","internalType":"Currency"},{"name":"currency1","type":"address","internalType":"Currency"},{"name":"fee","type":"uint24","internalType":"uint24"},{"name":"tickSpacing","type":"int24","internalType":"int24"},{"name":"hooks","type":"address","internalType":"contract IHooks"}]},{"name":"","type":"uint160","internalType":"uint160"},{"name":"","type":"int24","internalType":"int24"}],"outputs":[{"name":"","type":"bytes4","internalType":"bytes4"}],"stateMutability":"nonpayable"},{"type":"function","name":"afterRemoveLiquidity","inputs":[{"name":"","type":"address","internalType":"address"},{"name":"","type":"tuple","internalType":"struct PoolKey","components":[{"name":"currency0","type":"address","internalType":"Currency"},{"name":"currency1","type":"address","internalType":"Currency"},{"name":"fee","type":"uint24","internalType":"uint24"},{"name":"tickSpacing","type":"int24","internalType":"int24"},{"name":"hooks","type":"address","internalType":"contract IHooks"}]},{"name":"","type":"tuple","internalType":"struct IPoolManager.ModifyLiquidityParams","components":[{"name":"tickLower","type":"int24","internalType":"int24"},{"name":"tickUpper","type":"int24","internalType":"int24"},{"name":"liquidityDelta","type":"int256","internalType":"int256"},{"name":"salt","type":"bytes32","internalType":"bytes32"}]},{"name":"","type":"int256","internalType":"BalanceDelta"},{"name":"","type":"int256","internalType":"BalanceDelta"},{"name":"","type":"bytes","internalType":"bytes"}],"outputs":[{"name":"","type":"bytes4","internalType":"bytes4"},{"name":"","type":"int256","internalType":"BalanceDelta"}],"stateMutability":"nonpayable"},{"type":"function","name":"afterSwap","inputs":[{"name":"","type":"address","internalType":"address"},{"name":"","type":"tuple","internalType":"struct PoolKey","components":[{"name":"currency0","type":"address","internalType":"Currency"},{"name":"currency1","type":"address","internalType":"Currency"},{"name":"fee","type":"uint24","internalType":"uint24"},{"name":"tickSpacing","type":"int24","internalType":"int24"},{"name":"hooks","type":"address","internalType":"contract IHooks"}]},{"name":"","type":"tuple","internalType":"struct IPoolManager.SwapParams","components":[{"name":"zeroForOne","type":"bool","internalType":"bool"},{"name":"amountSpecified","type":"int256","internalType":"int256"},{"name":"sqrtPriceLimitX96","type":"uint160","internalType":"uint160"}]},{"name":"","type":"int256","internalType":"BalanceDelta"},{"name":"","type":"bytes","internalType":"bytes"}],"outputs":[{"name":"","type":"bytes4","internalType":"bytes4"},{"name":"","type":"int128","internalType":"int128"}],"stateMutability":"nonpayable"},{"type":"function","name":"beforeAddLiquidity","inputs":[{"name":"","type":"address","internalType":"address"},{"name":"","type":"tuple","internalType":"struct PoolKey","components":[{"name":"currency0","type":"address","internalType":"Currency"},{"name":"currency1","type":"address","internalType":"Currency"},{"name":"fee","type":"uint24","internalType":"uint24"},{"name":"tickSpacing","type":"int24","internalType":"int24"},{"name":"hooks","type":"address","internalType":"contract IHooks"}]},{"name":"","type":"tuple","internalType":"struct IPoolManager.ModifyLiquidityParams","components":[{"name":"tickLower","type":"int24","internalType":"int24"},{"name":"tickUpper","type":"int24","internalType":"int24"},{"name":"liquidityDelta","type":"int256","internalType":"int256"},{"name":"salt","type":"bytes32","internalType":"bytes32"}]},{"name":"","type":"bytes","internalType":"bytes"}],"outputs":[{"name":"","type":"bytes4","internalType":"bytes4"}],"stateMutability":"pure"},{"type":"function","name":"beforeDonate","inputs":[{"name":"","type":"address","internalType":"address"},{"name":"","type":"tuple","internalType":"struct PoolKey","components":[{"name":"currency0","type":"address","internalType":"Currency"},{"name":"currency1","type":"address","internalType":"Currency"},{"name":"fee","type":"uint24","internalType":"uint24"},{"name":"tickSpacing","type":"int24","internalType":"int24"},{"name":"hooks","type":"address","internalType":"contract IHooks"}]},{"name":"","type":"uint256","internalType":"uint256"},{"name":"","type":"uint256","internalType":"uint256"},{"name":"","type":"bytes","internalType":"bytes"}],"outputs":[{"name":"","type":"bytes4","internalType":"bytes4"}],"stateMutability":"nonpayable"},{"type":"function","name":"beforeInitialize","inputs":[{"name":"","type":"address","internalType":"address"},{"name":"key","type":"tuple","internalType":"struct PoolKey","components":[{"name":"currency0","type":"address","internalType":"Currency"},{"name":"currency1","type":"address","internalType":"Currency"},{"name":"fee","type":"uint24","internalType":"uint24"},{"name":"tickSpacing","type":"int24","internalType":"int24"},{"name":"hooks","type":"address","internalType":"contract IHooks"}]},{"name":"","type":"uint160","internalType":"uint160"}],"outputs":[{"name":"","type":"bytes4","internalType":"bytes4"}],"stateMutability":"view"},{"type":"function","name":"beforeRemoveLiquidity","inputs":[{"name":"","type":"address","internalType":"address"},{"name":"","type":"tuple","internalType":"struct PoolKey","components":[{"name":"currency0","type":"address","internalType":"Currency"},{"name":"currency1","type":"address","internalType":"Currency"},{"name":"fee","type":"uint24","internalType":"uint24"},{"name":"tickSpacing","type":"int24","internalType":"int24"},{"name":"hooks","type":"address","internalType":"contract IHooks"}]},{"name":"","type":"tuple","internalType":"struct IPoolManager.ModifyLiquidityParams","components":[{"name":"tickLower","type":"int24","internalType":"int24"},{"name":"tickUpper","type":"int24","internalType":"int24"},{"name":"liquidityDelta","type":"int256","internalType":"int256"},{"name":"salt","type":"bytes32","internalType":"bytes32"}]},{"name":"","type":"bytes","internalType":"bytes"}],"outputs":[{"name":"","type":"bytes4","internalType":"bytes4"}],"stateMutability":"nonpayable"},{"type":"function","name":"beforeSwap","inputs":[{"name":"","type":"address","internalType":"address"},{"name":"key","type":"tuple","internalType":"struct PoolKey","components":[{"name":"currency0","type":"address","internalType":"Currency"},{"name":"currency1","type":"address","internalType":"Currency"},{"name":"fee","type":"uint24","internalType":"uint24"},{"name":"tickSpacing","type":"int24","internalType":"int24"},{"name":"hooks","type":"address","internalType":"contract IHooks"}]},{"name":"params","type":"tuple","internalType":"struct IPoolManager.SwapParams","components":[{"name":"zeroForOne","type":"bool","internalType":"bool"},{"name":"amountSpecified","type":"int256","internalType":"int256"},{"name":"sqrtPriceLimitX96","type":"uint160","internalType":"uint160"}]},{"name":"","type":"bytes","internalType":"bytes"}],"outputs":[{"name":"","type":"bytes4","internalType":"bytes4"},{"name":"","type":"int256","internalType":"BeforeSwapDelta"},{"name":"","type":"uint24","internalType":"uint24"}],"stateMutability":"nonpayable"},{"type":"function","name":"getAmountIn","inputs":[{"name":"poolId","type":"bytes32","internalType":"PoolId"},{"name":"zeroForOne","type":"bool","internalType":"bool"},{"name":"amountOut","type":"uint256","internalType":"uint256"}],"outputs":[{"name":"amountIn","type":"uint256","internalType":"uint256"}],"stateMutability":"view"},{"type":"function","name":"getAmountOut","inputs":[{"name":"poolId","type":"bytes32","internalType":"PoolId"},{"name":"zeroForOne","type":"bool","internalType":"bool"},{"name":"amountIn","type":"uint256","internalType":"uint256"}],"outputs":[{"name":"amountOut","type":"uint256","internalType":"uint256"}],"stateMutability":"view"},{"type":"function","name":"getHookPermissions","inputs":[],"outputs":[{"name":"","type":"tuple","internalType":"struct Hooks.Permissions","components":[{"name":"beforeInitialize","type":"bool","internalType":"bool"},{"name":"afterInitialize","type":"bool","internalType":"bool"},{"name":"beforeAddLiquidity","type":"bool","internalType":"bool"},{"name":"afterAddLiquidity","type":"bool","internalType":"bool"},{"name":"beforeRemoveLiquidity","type":"bool","internalType":"bool"},{"name":"afterRemoveLiquidity","type":"bool","internalType":"bool"},{"name":"beforeSwap","type":"bool","internalType":"bool"},{"name":"afterSwap","type":"bool","internalType":"bool"},{"name":"beforeDonate","type":"bool","internalType":"bool"},{"name":"afterDonate","type":"bool","internalType":"bool"},{"name":"beforeSwapReturnDelta","type":"bool","internalType":"bool"},{"name":"afterSwapReturnDelta","type":"bool","internalType":"bool"},{"name":"afterAddLiquidityReturnDelta","type":"bool","internalType":"bool"},{"name":"afterRemoveLiquidityReturnDelta","type":"bool","internalType":"bool"}]}],"stateMutability":"pure"},{"type":"function","name":"getReserves","inputs":[{"name":"poolId","type":"bytes32","internalType":"PoolId"}],"outputs":[{"name":"_reserve0","type":"uint256","internalType":"uint256"},{"name":"_reserve1","type":"uint256","internalType":"uint256"}],"stateMutability":"view"},{"type":"function","name":"getStatus","inputs":[{"name":"poolId","type":"bytes32","internalType":"PoolId"}],"outputs":[{"name":"_status","type":"tuple","internalType":"struct HookStatus","components":[{"name":"realReserve0","type":"uint112","internalType":"uint112"},{"name":"realReserve1","type":"uint112","internalType":"uint112"},{"name":"mirrorReserve0","type":"uint112","internalType":"uint112"},{"name":"mirrorReserve1","type":"uint112","internalType":"uint112"},{"name":"marginFee","type":"uint24","internalType":"uint24"},{"name":"blockTimestampLast","type":"uint32","internalType":"uint32"},{"name":"interestRatio0X112","type":"uint112","internalType":"uint112"},{"name":"interestRatio1X112","type":"uint112","internalType":"uint112"},{"name":"rate0CumulativeLast","type":"uint256","internalType":"uint256"},{"name":"rate1CumulativeLast","type":"uint256","internalType":"uint256"},{"name":"marginTimestampLast","type":"uint32","internalType":"uint32"},{"name":"lastPrice1X112","type":"uint224","internalType":"uint224"},{"name":"key","type":"tuple","internalType":"struct PoolKey","components":[{"name":"currency0","type":"address","internalType":"Currency"},{"name":"currency1","type":"address","internalType":"Currency"},{"name":"fee","type":"uint24","internalType":"uint24"},{"name":"tickSpacing","type":"int24","internalType":"int24"},{"name":"hooks","type":"address","internalType":"contract IHooks"}]}]}],"stateMutability":"view"},{"type":"function","name":"handleAddLiquidity","inputs":[{"name":"sender","type":"address","internalType":"address"},{"name":"key","type":"tuple","internalType":"struct PoolKey","components":[{"name":"currency0","type":"address","internalType":"Currency"},{"name":"currency1","type":"address","internalType":"Currency"},{"name":"fee","type":"uint24","internalType":"uint24"},{"name":"tickSpacing","type":"int24","internalType":"int24"},{"name":"hooks","type":"address","internalType":"contract IHooks"}]},{"name":"amount0","type":"uint256","internalType":"uint256"},{"name":"amount1","type":"uint256","internalType":"uint256"}],"outputs":[],"stateMutability":"nonpayable"},{"type":"function","name":"handleMargin","inputs":[{"name":"_positionManager","type":"address","internalType":"address"},{"name":"params","type":"tuple","internalType":"struct MarginParams","components":[{"name":"poolId","type":"bytes32","internalType":"PoolId"},{"name":"marginForOne","type":"bool","internalType":"bool"},{"name":"leverage","type":"uint24","internalType":"uint24"},{"name":"marginAmount","type":"uint256","internalType":"uint256"},{"name":"marginTotal","type":"uint256","internalType":"uint256"},{"name":"borrowAmount","type":"uint256","internalType":"uint256"},{"name":"borrowMinAmount","type":"uint256","internalType":"uint256"},{"name":"recipient","type":"address","internalType":"address"},{"name":"deadline","type":"uint256","internalType":"uint256"}]}],"outputs":[{"name":"marginWithoutFee","type":"uint256","internalType":"uint256"},{"name":"borrowAmount","type":"uint256","internalType":"uint256"}],"stateMutability":"nonpayable"},{"type":"function","name":"handleRelease","inputs":[{"name":"params","type":"tuple","internalType":"struct ReleaseParams","components":[{"name":"poolId","type":"bytes32","internalType":"PoolId"},{"name":"marginForOne","type":"bool","internalType":"bool"},{"name":"payer","type":"address","internalType":"address"},{"name":"repayAmount","type":"uint256","internalType":"uint256"},{"name":"releaseAmount","type":"uint256","internalType":"uint256"},{"name":"rawBorrowAmount","type":"uint256","internalType":"uint256"},{"name":"deadline","type":"uint256","internalType":"uint256"}]}],"outputs":[{"name":"","type":"uint256","internalType":"uint256"}],"stateMutability":"nonpayable"},{"type":"function","name":"handleRemoveLiquidity","inputs":[{"name":"sender","type":"address","internalType":"address"},{"name":"key","type":"tuple","internalType":"struct PoolKey","components":[{"name":"currency0","type":"address","internalType":"Currency"},{"name":"currency1","type":"address","internalType":"Currency"},{"name":"fee","type":"uint24","internalType":"uint24"},{"name":"tickSpacing","type":"int24","internalType":"int24"},{"name":"hooks","type":"address","internalType":"contract IHooks"}]},{"name":"amount0","type":"uint256","internalType":"uint256"},{"name":"amount1","type":"uint256","internalType":"uint256"}],"outputs":[],"stateMutability":"nonpayable"},{"type":"function","name":"hookStatusStore","inputs":[{"name":"","type":"bytes32","internalType":"PoolId"}],"outputs":[{"name":"realReserve0","type":"uint112","internalType":"uint112"},{"name":"realReserve1","type":"uint112","internalType":"uint112"},{"name":"mirrorReserve0","type":"uint112","internalType":"uint112"},{"name":"mirrorReserve1","type":"uint112","internalType":"uint112"},{"name":"marginFee","type":"uint24","internalType":"uint24"},{"name":"blockTimestampLast","type":"uint32","internalType":"uint32"},{"name":"interestRatio0X112","type":"uint112","internalType":"uint112"},{"name":"interestRatio1X112","type":"uint112","internalType":"uint112"},{"name":"rate0CumulativeLast","type":"uint256","internalType":"uint256"},{"name":"rate1CumulativeLast","type":"uint256","internalType":"uint256"},{"name":"marginTimestampLast","type":"uint32","internalType":"uint32"},{"name":"lastPrice1X112","type":"uint224","internalType":"uint224"},{"name":"key","type":"tuple","internalType":"struct PoolKey","components":[{"name":"currency0","type":"address","internalType":"Currency"},{"name":"currency1","type":"address","internalType":"Currency"},{"name":"fee","type":"uint24","internalType":"uint24"},{"name":"tickSpacing","type":"int24","internalType":"int24"},{"name":"hooks","type":"address","internalType":"contract IHooks"}]}],"stateMutability":"view"},{"type":"function","name":"initialize","inputs":[{"name":"key","type":"tuple","internalType":"struct PoolKey","components":[{"name":"currency0","type":"address","internalType":"Currency"},{"name":"currency1","type":"address","internalType":"Currency"},{"name":"fee","type":"uint24","internalType":"uint24"},{"name":"tickSpacing","type":"int24","internalType":"int24"},{"name":"hooks","type":"address","internalType":"contract IHooks"}]}],"outputs":[],"stateMutability":"nonpayable"},{"type":"function","name":"kLast","inputs":[],"outputs":[{"name":"","type":"uint256","internalType":"uint256"}],"stateMutability":"view"},{"type":"function","name":"margin","inputs":[{"name":"params","type":"tuple","internalType":"struct MarginParams","components":[{"name":"poolId","type":"bytes32","internalType":"PoolId"},{"name":"marginForOne","type":"bool","internalType":"bool"},{"name":"leverage","type":"uint24","internalType":"uint24"},{"name":"marginAmount","type":"uint256","internalType":"uint256"},{"name":"marginTotal","type":"uint256","internalType":"uint256"},{"name":"borrowAmount","type":"uint256","internalType":"uint256"},{"name":"borrowMinAmount","type":"uint256","internalType":"uint256"},{"name":"recipient","type":"address","internalType":"address"},{"name":"deadline","type":"uint256","internalType":"uint256"}]}],"outputs":[{"name":"","type":"tuple","internalType":"struct MarginParams","components":[{"name":"poolId","type":"bytes32","internalType":"PoolId"},{"name":"marginForOne","type":"bool","internalType":"bool"},{"name":"leverage","type":"uint24","internalType":"uint24"},{"name":"marginAmount","type":"uint256","internalType":"uint256"},{"name":"marginTotal","type":"uint256","internalType":"uint256"},{"name":"borrowAmount","type":"uint256","internalType":"uint256"},{"name":"borrowMinAmount","type":"uint256","internalType":"uint256"},{"name":"recipient","type":"address","internalType":"address"},{"name":"deadline","type":"uint256","internalType":"uint256"}]}],"stateMutability":"nonpayable"},{"type":"function","name":"marginFees","inputs":[],"outputs":[{"name":"","type":"address","internalType":"contract IMarginFees"}],"stateMutability":"view"},{"type":"function","name":"marginLiquidity","inputs":[],"outputs":[{"name":"","type":"address","internalType":"contract IMarginLiquidity"}],"stateMutability":"view"},{"type":"function","name":"marginOracle","inputs":[],"outputs":[{"name":"","type":"address","internalType":"address"}],"stateMutability":"view"},{"type":"function","name":"mirrorTokenManager","inputs":[],"outputs":[{"name":"","type":"address","internalType":"contract IMirrorTokenManager"}],"stateMutability":"view"},{"type":"function","name":"owner","inputs":[],"outputs":[{"name":"","type":"address","internalType":"address"}],"stateMutability":"view"},{"type":"function","name":"poolManager","inputs":[],"outputs":[{"name":"","type":"address","internalType":"contract IPoolManager"}],"stateMutability":"view"},{"type":"function","name":"positionManagers","inputs":[{"name":"","type":"address","internalType":"address"}],"outputs":[{"name":"","type":"bool","internalType":"bool"}],"stateMutability":"view"},{"type":"function","name":"release","inputs":[{"name":"params","type":"tuple","internalType":"struct ReleaseParams","components":[{"name":"poolId","type":"bytes32","internalType":"PoolId"},{"name":"marginForOne","type":"bool","internalType":"bool"},{"name":"payer","type":"address","internalType":"address"},{"name":"repayAmount","type":"uint256","internalType":"uint256"},{"name":"releaseAmount","type":"uint256","internalType":"uint256"},{"name":"rawBorrowAmount","type":"uint256","internalType":"uint256"},{"name":"deadline","type":"uint256","internalType":"uint256"}]}],"outputs":[{"name":"","type":"uint256","internalType":"uint256"}],"stateMutability":"payable"},{"type":"function","name":"removeLiquidity","inputs":[{"name":"params","type":"tuple","internalType":"struct RemoveLiquidityParams","components":[{"name":"poolId","type":"bytes32","internalType":"PoolId"},{"name":"level","type":"uint8","internalType":"uint8"},{"name":"liquidity","type":"uint256","internalType":"uint256"},{"name":"deadline","type":"uint256","internalType":"uint256"}]}],"outputs":[{"name":"amount0","type":"uint256","internalType":"uint256"},{"name":"amount1","type":"uint256","internalType":"uint256"}],"stateMutability":"nonpayable"},{"type":"function","name":"setFeeStatus","inputs":[{"name":"poolId","type":"bytes32","internalType":"PoolId"},{"name":"_marginFee","type":"uint24","internalType":"uint24"}],"outputs":[],"stateMutability":"nonpayable"},{"type":"function","name":"setMarginFees","inputs":[{"name":"_marginFees","type":"address","internalType":"address"}],"outputs":[],"stateMutability":"nonpayable"},{"type":"function","name":"setMarginOracle","inputs":[{"name":"_oracle","type":"address","internalType":"address"}],"outputs":[],"stateMutability":"nonpayable"},{"type":"function","name":"transferOwnership","inputs":[{"name":"newOwner","type":"address","internalType":"address"}],"outputs":[],"stateMutability":"nonpayable"},{"type":"function","name":"unlockCallback","inputs":[{"name":"data","type":"bytes","internalType":"bytes"}],"outputs":[{"name":"","type":"bytes","internalType":"bytes"}],"stateMutability":"nonpayable"},{"type":"event","name":"Burn","inputs":[{"name":"poolId","type":"bytes32","indexed":true,"internalType":"PoolId"},{"name":"sender","type":"address","indexed":true,"internalType":"address"},{"name":"liquidity","type":"uint256","indexed":false,"internalType":"uint256"},{"name":"amount0","type":"uint256","indexed":false,"internalType":"uint256"},{"name":"amount1","type":"uint256","indexed":false,"internalType":"uint256"}],"anonymous":false},{"type":"event","name":"Initialize","inputs":[{"name":"id","type":"bytes32","indexed":true,"internalType":"PoolId"},{"name":"currency0","type":"address","indexed":true,"internalType":"Currency"},{"name":"currency1","type":"address","indexed":true,"internalType":"Currency"},{"name":"fee","type":"uint24","indexed":false,"internalType":"uint24"},{"name":"tickSpacing","type":"int24","indexed":false,"internalType":"int24"},{"name":"hooks","type":"address","indexed":false,"internalType":"contract IHooks"}],"anonymous":false},{"type":"event","name":"Mint","inputs":[{"name":"poolId","type":"bytes32","indexed":true,"internalType":"PoolId"},{"name":"sender","type":"address","indexed":true,"internalType":"address"},{"name":"to","type":"address","indexed":true,"internalType":"address"},{"name":"liquidity","type":"uint256","indexed":false,"internalType":"uint256"},{"name":"amount0","type":"uint256","indexed":false,"internalType":"uint256"},{"name":"amount1","type":"uint256","indexed":false,"internalType":"uint256"}],"anonymous":false},{"type":"event","name":"OwnershipTransferred","inputs":[{"name":"user","type":"address","indexed":true,"internalType":"address"},{"name":"newOwner","type":"address","indexed":true,"internalType":"address"}],"anonymous":false},{"type":"event","name":"Sync","inputs":[{"name":"poolId","type":"bytes32","indexed":true,"internalType":"PoolId"},{"name":"realReserve0","type":"uint256","indexed":false,"internalType":"uint256"},{"name":"realReserve1","type":"uint256","indexed":false,"internalType":"uint256"},{"name":"mirrorReserve0","type":"uint256","indexed":false,"internalType":"uint256"},{"name":"mirrorReserve1","type":"uint256","indexed":false,"internalType":"uint256"}],"anonymous":false},{"type":"error","name":"HookNotImplemented","inputs":[]},{"type":"error","name":"InsufficientLiquidityBurnt","inputs":[]},{"type":"error","name":"InsufficientLiquidityMinted","inputs":[]},{"type":"error","name":"InvalidInitialization","inputs":[]},{"type":"error","name":"InvalidPool","inputs":[]},{"type":"error","name":"LockFailure","inputs":[]},{"type":"error","name":"NotPoolManager","inputs":[]},{"type":"error","name":"NotPositionManager","inputs":[]},{"type":"error","name":"NotSelf","inputs":[]},{"type":"error","name":"PairNotExists","inputs":[]}],"bytecode":{"object":"0x60e060405234801561000f575f80fd5b5060405161637138038061637183398101604081905261002e9161032f565b6001600160a01b0384166080528484610046306100c0565b505f80546001600160a01b0319166001600160a01b03831690811782556040519091907f8be0079c531659141344cd1fd0a4f28419497f9722a3daafe3b4186f6b6457e0908290a3506001600160a01b0392831660a05290821660c052600480546001600160a01b03191691909216179055506103a09050565b6101b3816101ae604080516101c0810182525f80825260208201819052918101829052606081018290526080810182905260a0810182905260c0810182905260e08101829052610100810182905261012081018290526101408101829052610160810182905261018081018290526101a081019190915250604080516101c0810182525f808252602082018190526001928201839052606082018190526080820181905260a0820181905260c0820183905260e0820181905261010082018190526101208201819052610140820192909252610160810182905261018081018290526101a081019190915290565b6101b6565b50565b80511515612000831615151415806101da5750602081015115156110008316151514155b806101f15750604081015115156108008316151514155b806102085750606081015115156104008316151514155b8061021f5750608081015115156102008316151514155b80610236575060a081015115156101008316151514155b8061024c575060c0810151151560808316151514155b80610262575060e0810151151560408316151514155b806102795750610100810151151560208316151514155b806102905750610120810151151560108316151514155b806102a75750610140810151151560088316151514155b806102be5750610160810151151560048316151514155b806102d55750610180810151151560028316151514155b806102ec57506101a0810151151560018316151514155b1561030257610302630732d7b560e51b83610306565b5050565b815f526001600160a01b03811660045260245ffd5b6001600160a01b03811681146101b3575f80fd5b5f805f805f60a08688031215610343575f80fd5b855161034e8161031b565b602087015190955061035f8161031b565b60408701519094506103708161031b565b60608701519093506103818161031b565b60808701519092506103928161031b565b809150509295509295909350565b60805160a05160c051615e6c6105055f395f81816109f401528181611246015281816113410152818161146d0152818161183801528181611b1e01528181611c1901528181611d4301528181611ef20152818161205c01528181612523015261259b01525f8181610a270152818161283e015281816131c8015281816138750152818161392201528181614a820152614b2601525f818161094501528181610ac201528181610b0801528181610b4f01528181610b8601528181610c0301528181610c9901528181610d2601528181610d5e01528181610ecc01528181610f0301528181610f9901528181610fd0015281816118e9015281816121110152818161229c015281816123af015281816127de015281816128150152818161297801528181612d9401528181612fd70152818161302c015281816130e90152818161313e0152818161374e015281816137ca0152818161496801526149fb0152615e6c5ff3fe60806040526004361061025f575f3560e01c80639f063efc1161013f578063d613eb2f116100b3578063e1b4af6911610078578063e1b4af691461073b578063e2f0ab0114610986578063f2fde38b146109a5578063f4648777146109c4578063fb6b0e67146109e3578063ffcd9d1614610a16575f80fd5b8063d613eb2f146108b8578063d8d232a2146108d7578063d93ed9c614610915578063dc4c90d314610934578063dc98354e14610967575f80fd5b8063b47b2fb111610104578063b47b2fb1146106fe578063b6a8b0fa1461073b578063b8c5986014610755578063ba9a7a5614610781578063bfb9f86b14610796578063c4e833ce146107b5575f80fd5b80639f063efc14610443578063a4a9e9881461068a578063b330db28146106a9578063b4473259146106c0578063b47a1a6a146106df575f80fd5b80636c2bbe7e116101d65780638da5cb5b1161019b5780638da5cb5b146104db57806391dd7346146104f95780639869b736146105255780639ae5668c1461053b5780639b2aaf101461055a5780639d7bcccb14610677575f80fd5b80636c2bbe7e146104435780636fe7e6eb146104825780637464fc3d1461049c57806377267b1e146104b15780638461d867146104c8575f80fd5b8063259982e511610227578063259982e514610336578063575e24b4146103555780635be39ae81461039f5780635d12fc0c146103cc5780635de28ae0146103e357806369f418021461040f575f80fd5b806306638ea5146102635780630776e76e1461028457806313ac42a7146102a357806321d0ee70146102df578063244195d314610317575b5f80fd5b34801561026e575f80fd5b5061028261027d366004614c6e565b610a49565b005b34801561028f575f80fd5b5061028261029e366004614c99565b610a9d565b3480156102ae575f80fd5b506004546102c2906001600160a01b031681565b6040516001600160a01b0390911681526020015b60405180910390f35b3480156102ea575f80fd5b506102fe6102f9366004614d30565b610bbf565b6040516001600160e01b031990911681526020016102d6565b348015610322575f80fd5b50610282610331366004614c99565b610bd9565b348015610341575f80fd5b506102fe610350366004614d30565b610d90565b348015610360575f80fd5b5061037461036f366004614db6565b610dda565b604080516001600160e01b03199094168452602084019290925262ffffff16908201526060016102d6565b3480156103aa575f80fd5b506103be6103b9366004614e27565b611051565b6040519081526020016102d6565b3480156103d7575f80fd5b506103be633b9aca0081565b3480156103ee575f80fd5b506104026103fd366004614e5c565b611072565b6040516102d69190614eb6565b34801561041a575f80fd5b5061042e610429366004614fe8565b6111d2565b604080519283526020830191909152016102d6565b34801561044e575f80fd5b5061046261045d366004615002565b611a41565b604080516001600160e01b031990931683526020830191909152016102d6565b34801561048d575f80fd5b506102fe6102f936600461509a565b3480156104a7575f80fd5b506103be60055481565b3480156104bc575f80fd5b506102c2600160601b81565b6103be6104d63660046150f3565b611a5c565b3480156104e6575f80fd5b505f546102c2906001600160a01b031681565b348015610504575f80fd5b5061051861051336600461510d565b61228f565b6040516102d6919061514b565b348015610530575f80fd5b506103be620f424081565b348015610546575f80fd5b506001546102c2906001600160a01b031681565b348015610565575f80fd5b5061065e610574366004614e5c565b600260208181525f9283526040928390208054600182015482850154600384015460048501546005860154895160a081018b5260068801546001600160a01b03908116825260078901548082169a83019a909a5262ffffff600160a01b8b0481169c83019c909c52600160b81b90990490990b60608a015260089096015490961660808801526001600160701b0380851698600160701b9586900482169882861698968604831697600160e01b9096049091169563ffffffff80861696640100000000808804861697600160901b9004909516959492939181169290046001600160e01b0316908d565b6040516102d69d9c9b9a99989796959493929190615180565b6103be6106853660046152be565b6122ed565b348015610695575f80fd5b5061042e6106a4366004614e5c565b612442565b3480156106b4575f80fd5b506103be6301e1338081565b3480156106cb575f80fd5b506103be6106da366004614e27565b612464565b3480156106ea575f80fd5b5061042e6106f9366004615333565b61247c565b348015610709575f80fd5b5061071861045d366004615373565b604080516001600160e01b03199093168352600f9190910b6020830152016102d6565b348015610746575f80fd5b506102fe6102f93660046153f3565b348015610760575f80fd5b5061077461076f366004615467565b612901565b6040516102d69190615563565b34801561078c575f80fd5b506103be6103e881565b3480156107a1575f80fd5b506102826107b0366004615572565b612a78565b3480156107c0575f80fd5b506108ab604080516101c0810182525f80825260208201819052918101829052606081018290526080810182905260a0810182905260c0810182905260e08101829052610100810182905261012081018290526101408101829052610160810182905261018081018290526101a081019190915250604080516101c0810182525f808252602082018190526001928201839052606082018190526080820181905260a0820181905260c0820183905260e0820181905261010082018190526101208201819052610140820192909252610160810182905261018081018290526101a081019190915290565b6040516102d6919061558c565b3480156108c3575f80fd5b506103be6108d23660046156a6565b612edb565b3480156108e2575f80fd5b506109056108f1366004614c6e565b60036020525f908152604090205460ff1681565b60405190151581526020016102d6565b348015610920575f80fd5b5061028261092f366004614c6e565b61328f565b34801561093f575f80fd5b506102c27f000000000000000000000000000000000000000000000000000000000000000081565b348015610972575f80fd5b506102fe6109813660046156b7565b6132da565b348015610991575f80fd5b506102826109a0366004614c6e565b613323565b3480156109b0575f80fd5b506102826109bf366004614c6e565b61336f565b3480156109cf575f80fd5b506102826109de3660046156fe565b6133e2565b3480156109ee575f80fd5b506102c27f000000000000000000000000000000000000000000000000000000000000000081565b348015610a21575f80fd5b506102c27f000000000000000000000000000000000000000000000000000000000000000081565b5f546001600160a01b03163314610a7b5760405162461bcd60e51b8152600401610a729061572c565b60405180910390fd5b600180546001600160a01b0319166001600160a01b0392909216919091179055565b333014610abd576040516314e1dbf760e11b815260040160405180910390fd5b610b037f000000000000000000000000000000000000000000000000000000000000000085845f610af16020890189614c6e565b6001600160a01b03169392919061343e565b610b4a7f000000000000000000000000000000000000000000000000000000000000000030846001610b386020890189614c6e565b6001600160a01b031693929190613676565b610b817f000000000000000000000000000000000000000000000000000000000000000085835f610af16040890160208a01614c6e565b610bb97f000000000000000000000000000000000000000000000000000000000000000030836001610b386040890160208a01614c6e565b50505050565b5f604051630a85dc2960e01b815260040160405180910390fd5b333014610bf9576040516314e1dbf760e11b815260040160405180910390fd5b6001600160a01b037f00000000000000000000000000000000000000000000000000000000000000001663f5298aca30610c45610c396020880188614c6e565b6001600160a01b031690565b856040518463ffffffff1660e01b8152600401610c6493929190615752565b5f604051808303815f87803b158015610c7b575f80fd5b505af1158015610c8d573d5f803e3d5ffd5b50506001600160a01b037f000000000000000000000000000000000000000000000000000000000000000016915063f5298aca905030610cd6610c396040880160208901614c6e565b846040518463ffffffff1660e01b8152600401610cf593929190615752565b5f604051808303815f87803b158015610d0c575f80fd5b505af1158015610d1e573d5f803e3d5ffd5b50610d5992507f00000000000000000000000000000000000000000000000000000000000000009150869050845f610b386020890189614c6e565b610bb97f000000000000000000000000000000000000000000000000000000000000000085835f610b386040890160208a01614c6e565b60405162461bcd60e51b815260206004820152601760248201527f4e6f207634204c697175696469747920616c6c6f77656400000000000000000060448201525f90606401610a72565b5f808080610dfa6103fd610df3368b90038b018b615773565b60a0902090565b90505f6020880180358213919081908390610e15908c61580a565b151514610e3e57610e2c60408c0160208d01614c6e565b610e3960208d018d614c6e565b610e5b565b610e4b60208c018c614c6e565b610e5b60408d0160208e01614c6e565b915091505f83610e6f578a60200135610e7c565b610e7c60208c0135615839565b90505f80610e998e803603810190610e949190615773565b613734565b8515610f6c57610ebb878e5f016020810190610eb5919061580a565b85613a60565b9150610ef46001600160a01b0386167f000000000000000000000000000000000000000000000000000000000000000030866001613676565b610f2b6001600160a01b0385167f00000000000000000000000000000000000000000000000000000000000000003085600161343e565b610f65610f3784613c05565b610f4084613c05565b610f4990615853565b6fffffffffffffffffffffffffffffffff1660809190911b1790565b9050611019565b610f88878e5f016020810190610f82919061580a565b85613c25565b9150610fc16001600160a01b0385167f000000000000000000000000000000000000000000000000000000000000000030856001613676565b610ff86001600160a01b0386167f00000000000000000000000000000000000000000000000000000000000000003086600161343e565b61101661100484613c05565b61100d90615853565b610f4984613c05565b90505b6110328e80360381019061102d9190615773565b613e13565b506315d7892d60e21b9f909e505f9d509b505050505050505050505050565b5f8061105c85611072565b9050611069818585613a60565b95945050505050565b61107a614bc0565b505f8181526002602081815260409283902083516101a08101855281546001600160701b038082168352600160701b918290048116838601526001840154808216848901529182048116606080850191909152600160e01b90920462ffffff9081166080808601919091528588015463ffffffff80821660a080890191909152640100000000808404871660c08a0152600160901b90930490951660e0880152600388015461010088015260048801546101208801526005880154908116610140880152046001600160e01b03166101608601528851928301895260068601546001600160a01b0390811684526007870154808216988501988952600160a01b810490931699840199909952600160b81b90910490960b91810191909152600890920154851693820193909352610180830152519091166111cd5760405162116a3560e11b815260040160405180910390fd5b919050565b5f808260600135428110156112135760405162461bcd60e51b81526020600482015260076024820152661156141254915160ca1b6044820152606401610a72565b5f61121e8535611072565b905061122e816101800151613734565b60405163db620f4f60e01b8152853560048201525f907f00000000000000000000000000000000000000000000000000000000000000006001600160a01b03169063db620f4f90602401602060405180830381865afa158015611293573d5f803e3d5ffd5b505050506040513d601f19601f820116820180604052508101906112b79190615880565b600480546040516388bbc14f60e01b81529293505f9283926001600160a01b03909216916388bbc14f916112ed91889101614eb6565b6040805180830381865afa158015611307573d5f803e3d5ffd5b505050506040513d601f19601f8201168201806040525081019061132b91906158ad565b915091505f805f61133b87613e20565b915091507f00000000000000000000000000000000000000000000000000000000000000006001600160a01b031663ff87345660045f9054906101000a90046001600160a01b03166001600160a01b031663017e7e586040518163ffffffff1660e01b8152600401602060405180830381865afa1580156113be573d5f803e3d5ffd5b505050506040513d601f19601f820116820180604052508101906113e291906158de565b6005546040516001600160e01b031960e085901b1681526001600160a01b039092166004830152602482015260448101899052606481018590526084810184905260a4016020604051808303815f875af1158015611442573d5f803e3d5ffd5b505050506040513d601f19601f8201168201806040525081019061146691906158f9565b92505f805f7f00000000000000000000000000000000000000000000000000000000000000006001600160a01b031663d5ffe2098a6040518263ffffffff1660e01b81526004016114b991815260200190565b606060405180830381865afa1580156114d4573d5f803e3d5ffd5b505050506040513d601f19601f820116820180604052508101906114f89190615914565b9250925092508d6020016020810190611511919061593f565b60ff166003148061153757508d6020016020810190611530919061593f565b60ff166004145b156116005782858f6040013561154d919061595f565b611557919061598a565b9c505f83611565878561595f565b61156f919061598a565b9050808b5f01516001600160701b03161180156115a257508a518e9061159f9083906001600160701b031661599d565b10155b6115e45760405162461bcd60e51b815260206004820152601360248201527204e4f545f454e4f5547485f524553455256453606c1b6044820152606401610a72565b6115f86001600160701b038a168f88613e64565b985050611681565b826116146001600160701b038a168761599d565b8f60400135611623919061595f565b61162d919061598a565b9c508c8a5f01516001600160701b031610156116815760405162461bcd60e51b815260206004820152601360248201527204e4f545f454e4f5547485f524553455256453606c1b6044820152606401610a72565b8d6020016020810190611694919061593f565b60ff16600214806116ba57508d60200160208101906116b3919061593f565b60ff166004145b156117865782848f604001356116d0919061595f565b6116da919061598a565b9b505f836116e8868461595f565b6116f2919061598a565b9050808b602001516001600160701b031611801561172857508c818c602001516001600160701b0316611725919061599d565b10155b61176a5760405162461bcd60e51b81526020600482015260136024820152724e4f545f454e4f5547485f524553455256453160681b6044820152606401610a72565b61177e6001600160701b0389168e87613e64565b975050611808565b8261179a6001600160701b0389168661599d565b8f604001356117a9919061595f565b6117b3919061598a565b9b508b8a602001516001600160701b031610156118085760405162461bcd60e51b81526020600482015260136024820152724e4f545f454e4f5547485f524553455256453160681b6044820152606401610a72565b8c158061181357508b155b1561183157604051637435645360e11b815260040160405180910390fd5b50505050507f00000000000000000000000000000000000000000000000000000000000000006001600160a01b031663fd32826f33868c602001602081019061187a919061593f565b604080516001600160e01b031960e087901b1681526001600160a01b039094166004850152602484019290925260ff1660448301528c013560648201526084015f604051808303815f87803b1580156118d1575f80fd5b505af11580156118e3573d5f803e3d5ffd5b505050507f00000000000000000000000000000000000000000000000000000000000000006001600160a01b03166348c89491306001600160a01b031663244195d3338961018001518d8d60405160240161194194939291906159b0565b60408051808303601f1901815291815260208201805160e094851b6001600160e01b03909116179052519184901b6001600160e01b031916825261198992509060040161514b565b5f604051808303815f875af11580156119a4573d5f803e3d5ffd5b505050506040513d5f823e601f3d908101601f191682016040526119cb91908101906159e0565b505f6119de8661018001515f8686613e91565b905081156119ec5760058190555b60408051818c01358152602081018b905290810189905233908b35907f10233e9be68347452703ef9e0fcc6c26dfe90b54044fd9e05acf3944dbbb17cb9060600160405180910390a350505050505050915091565b5f80604051630a85dc2960e01b815260040160405180910390fd5b5f8160e0013542811015611a9c5760405162461bcd60e51b81526020600482015260076024820152661156141254915160ca1b6044820152606401610a72565b5f8360200135118015611ab257505f8360400135115b611aeb5760405162461bcd60e51b815260206004820152600a60248201526920a6a7aaa72a2fa2a92960b11b6044820152606401610a72565b5f611af68435611072565b9050611b06816101800151613734565b60405163db620f4f60e01b8152843560048201525f907f00000000000000000000000000000000000000000000000000000000000000006001600160a01b03169063db620f4f90602401602060405180830381865afa158015611b6b573d5f803e3d5ffd5b505050506040513d601f19601f82011682018060405250810190611b8f9190615880565b600480546040516388bbc14f60e01b81529293505f9283926001600160a01b03909216916388bbc14f91611bc591889101614eb6565b6040805180830381865afa158015611bdf573d5f803e3d5ffd5b505050506040513d601f19601f82011682018060405250810190611c0391906158ad565b915091505f805f611c1387613e20565b915091507f00000000000000000000000000000000000000000000000000000000000000006001600160a01b031663ff87345660045f9054906101000a90046001600160a01b03166001600160a01b031663017e7e586040518163ffffffff1660e01b8152600401602060405180830381865afa158015611c96573d5f803e3d5ffd5b505050506040513d601f19601f82011682018060405250810190611cba91906158de565b6005546040516001600160e01b031960e085901b1681526001600160a01b039092166004830152602482015260448101899052606481018590526084810184905260a4016020604051808303815f875af1158015611d1a573d5f803e3d5ffd5b505050506040513d601f19601f82011682018060405250810190611d3e91906158f9565b92505f7f00000000000000000000000000000000000000000000000000000000000000006001600160a01b031662fdd58e30896040518363ffffffff1660e01b8152600401611d8e929190615a72565b602060405180830381865afa158015611da9573d5f803e3d5ffd5b505050506040513d601f19601f82011682018060405250810190611dcd9190615880565b90505f82118015611ddf57506103e881115b15611eaa575f82611df760808e0135620f4240615a8b565b611e01908661595f565b611e0b919061598a565b90505f83611e2060608f0135620f424061599d565b611e2a908761595f565b611e34919061598a565b90505f8d60400135620f42408f60200135611e4f919061595f565b611e59919061598a565b9050818110158015611e6b5750828111155b611ea65760405162461bcd60e51b815260206004820152600c60248201526b4f55545f4f465f52414e474560a01b6044820152606401610a72565b5050505b805f03611ff1576103e8611ece611ec960408e013560208f013561595f565b61448a565b611ed8919061599d565b604051630ab714fb60e11b8152909a506001600160a01b037f0000000000000000000000000000000000000000000000000000000000000000169063156e29f690611f2d9030908b906103e890600401615752565b5f604051808303815f87803b158015611f44575f80fd5b505af1158015611f56573d5f803e3d5ffd5b50506001546001600160a01b0316159150611fec90505760015f9054906101000a90046001600160a01b03166001600160a01b0316638964d9448961018001518d602001358e604001356040518463ffffffff1660e01b8152600401611fbe93929190615a9e565b5f604051808303815f87803b158015611fd5575f80fd5b505af1158015611fe7573d5f803e3d5ffd5b505050505b612030565b61202d836120038360208f013561595f565b61200d919061598a565b83838e6040013561201e919061595f565b612028919061598a565b6144e6565b99505b895f0361205057604051633489be7560e21b815260040160405180910390fd5b50506001600160a01b037f000000000000000000000000000000000000000000000000000000000000000016905063c97a1c3f61209360e08b0160c08c01614c6e565b866120a460c08d0160a08e0161593f565b6040516001600160e01b031960e086901b1681526001600160a01b039093166004840152602483019190915260ff166044820152606481018a90526084015f604051808303815f87803b1580156120f9575f80fd5b505af115801561210b573d5f803e3d5ffd5b505050507f00000000000000000000000000000000000000000000000000000000000000006001600160a01b03166348c89491306001600160a01b0316630776e76e338961018001518d602001358e6040013560405160240161217194939291906159b0565b60408051808303601f1901815291815260208201805160e094851b6001600160e01b03909116179052519184901b6001600160e01b03191682526121b992509060040161514b565b5f604051808303815f875af11580156121d4573d5f803e3d5ffd5b505050506040513d5f823e601f3d908101601f191682016040526121fb91908101906159e0565b505f61220e8661018001515f8686613e91565b9050811561221c5760058190555b61222c60e08a0160c08b01614c6e565b604080518a815260208c810135908201528b8201358183015290516001600160a01b03929092169133918c35917f60838da5c8fc5b998731e886bd9d5b716962dbf04284def5cc47aaf8499573e19181900360600190a450505050505050919050565b6060336001600160a01b037f000000000000000000000000000000000000000000000000000000000000000016146122da5760405163570c108560e11b815260040160405180910390fd5b6122e483836144fb565b90505b92915050565b335f9081526003602052604081205460ff1661231c5760405163041fb8cb60e31b815260040160405180910390fd5b604080518351602482015260208085015115156044830152848301516001600160a01b03908116606484015260608601516084840152608086015160a484015260a086015160c484015260c086015160e48085019190915284518085039091018152610104909301845290820180516001600160e01b031663d613eb2f60e01b17905291516348c8949160e01b81525f927f000000000000000000000000000000000000000000000000000000000000000016916348c89491916123e3919060040161514b565b5f604051808303815f875af11580156123fe573d5f803e3d5ffd5b505050506040513d5f823e601f3d908101601f1916820160405261242591908101906159e0565b90508080602001905181019061243b9190615880565b9392505050565b5f805f61244e84611072565b905061245981613e20565b909590945092505050565b5f8061246f85611072565b9050611069818585613c25565b5f8033301461249e576040516314e1dbf760e11b815260040160405180910390fd5b5f6124a98435611072565b90506124b9816101800151613734565b5f806124cb604087016020880161580a565b6124e157610180830151602081015190516124f0565b61018083015180516020909101515b90925090505f612506604088016020890161580a565b60405163db620f4f60e01b8152883560048201529091505f9081907f00000000000000000000000000000000000000000000000000000000000000006001600160a01b03169063db620f4f90602401602060405180830381865afa158015612570573d5f803e3d5ffd5b505050506040513d601f19601f820116820180604052508101906125949190615880565b90505f805f7f00000000000000000000000000000000000000000000000000000000000000006001600160a01b031663d5ffe209856040518263ffffffff1660e01b81526004016125e791815260200190565b606060405180830381865afa158015612602573d5f803e3d5ffd5b505050506040513d601f19601f820116820180604052508101906126269190615914565b9250925092505f838a5f01516001600160701b03168486612647919061599d565b612651919061595f565b61265b919061598a565b90505f848b602001516001600160701b03168487612679919061599d565b612683919061595f565b61268d919061598a565b90508d60200160208101906126a2919061580a565b6126ac57816126ae565b805b96505050505050505f8860400160208101906126ca9190615ad2565b6126dd9062ffffff1660608b013561595f565b9050808210156127225760405162461bcd60e51b815260206004820152601060248201526f0a89e968a9cbe9c9ea8be8a9c9eaa8e960831b6044820152606401610a72565b61272d868483613c25565b60048054604051630544c8cd60e11b81529299505f926001600160a01b0390911691630a89919a916127649130918f359101615a72565b6040805180830381865afa15801561277e573d5f803e3d5ffd5b505050506040513d601f19601f820116820180604052508101906127a29190615aed565b9150620f424090506127b962ffffff83168261599d565b6127c3908461595f565b6127cd919061598a565b98506128066001600160a01b0386167f0000000000000000000000000000000000000000000000000000000000000000308c600161343e565b61283c6001600160a01b0386167f00000000000000000000000000000000000000000000000000000000000000008d8c5f613676565b7f00000000000000000000000000000000000000000000000000000000000000006001600160a01b0316631b2ef1ca61288c896101800151896001600160a01b031661459490919063ffffffff16565b8a6040518363ffffffff1660e01b81526004016128b3929190918252602082015260400190565b5f604051808303815f87803b1580156128ca575f80fd5b505af11580156128dc573d5f803e3d5ffd5b505050506128f287610180015160015f80613e91565b50505050505050509250929050565b60408051610120810182525f8082526020808301829052828401829052606083018290526080830182905260a0830182905260c0830182905260e08301829052610100830182905233825260039052919091205460ff166129755760405163041fb8cb60e31b815260040160405180910390fd5b5f7f00000000000000000000000000000000000000000000000000000000000000006001600160a01b03166348c89491306001600160a01b031663b47a1a6a33876040516024016129c7929190615b1a565b60408051808303601f1901815291815260208201805160e094851b6001600160e01b03909116179052519184901b6001600160e01b0319168252612a0f92509060040161514b565b5f604051808303815f875af1158015612a2a573d5f803e3d5ffd5b505050506040513d5f823e601f3d908101601f19168201604052612a5191908101906159e0565b905080806020019051810190612a679190615b38565b60a085015260808401525090919050565b5f612a8b610df336849003840184615773565b9050612a95614bc0565b612aa436849003840184615773565b610180820152633b9aca006101008201819052610120820152612acc64010000000042615b5a565b8160a0019063ffffffff16908163ffffffff16815250508060025f8481526020019081526020015f205f820151815f015f6101000a8154816001600160701b0302191690836001600160701b031602179055506020820151815f01600e6101000a8154816001600160701b0302191690836001600160701b031602179055506040820151816001015f6101000a8154816001600160701b0302191690836001600160701b03160217905550606082015181600101600e6101000a8154816001600160701b0302191690836001600160701b03160217905550608082015181600101601c6101000a81548162ffffff021916908362ffffff16021790555060a0820151816002015f6101000a81548163ffffffff021916908363ffffffff16021790555060c08201518160020160046101000a8154816001600160701b0302191690836001600160701b0316021790555060e08201518160020160126101000a8154816001600160701b0302191690836001600160701b0316021790555061010082015181600301556101208201518160040155610140820151816005015f6101000a81548163ffffffff021916908363ffffffff1602179055506101608201518160050160046101000a8154816001600160e01b0302191690836001600160e01b03160217905550610180820151816006015f820151815f015f6101000a8154816001600160a01b0302191690836001600160a01b031602179055506020820151816001015f6101000a8154816001600160a01b0302191690836001600160a01b0316021790555060408201518160010160146101000a81548162ffffff021916908362ffffff16021790555060608201518160010160176101000a81548162ffffff021916908360020b62ffffff1602179055506080820151816002015f6101000a8154816001600160a01b0302191690836001600160a01b0316021790555050509050507f00000000000000000000000000000000000000000000000000000000000000006001600160a01b0316636276cbbe84600160601b6040518363ffffffff1660e01b8152600401612de4929190615b6d565b6020604051808303815f875af1158015612e00573d5f803e3d5ffd5b505050506040513d601f19601f82011682018060405250810190612e249190615bfe565b50612e356040840160208501614c6e565b6001600160a01b0316612e4b6020850185614c6e565b6001600160a01b0316837f3fd553db44f207b1f41348cfc4d251860814af9eadc470e8e7895e4d120511f4612e866060880160408901615ad2565b612e966080890160608a01615c19565b612ea660a08a0160808b01614c6e565b6040805162ffffff909416845260029290920b60208401526001600160a01b03169082015260600160405180910390a4505050565b5f333014612efc576040516314e1dbf760e11b815260040160405180910390fd5b5f612f078335611072565b9050612f17816101800151613734565b5f80612f29604086016020870161580a565b612f3f5761018083015160208101519051612f4e565b61018083015180516020909101515b600480546040516388bbc14f60e01b81529395509193505f9283926001600160a01b0316916388bbc14f91612f8591899101614eb6565b6040805180830381865afa158015612f9f573d5f803e3d5ffd5b505050506040513d601f19601f82011682018060405250810190612fc391906158ad565b90925090506080870135156130da5761301d7f000000000000000000000000000000000000000000000000000000000000000061300660608a0160408b01614c6e565b6001600160a01b038616919060808b01355f61343e565b6130586001600160a01b0384167f00000000000000000000000000000000000000000000000000000000000000003060808b01356001613676565b8660a00135876060013511156130d5575f61307b60a089013560608a013561599d565b90505f606089013561309160808b01358461595f565b61309b919061598a565b90506130ad60408a0160208b0161580a565b6130c3576130bb8185615c34565b9350836130d1565b6130cd8184615c34565b9250825b5050505b6131c6565b6060870135156131c65761312f7f000000000000000000000000000000000000000000000000000000000000000061311860608a0160408b01614c6e565b6001600160a01b038716919060608b01355f61343e565b61316a6001600160a01b0385167f00000000000000000000000000000000000000000000000000000000000000003060608b01356001613676565b8660a00135876060013511156131c6575f61318d60a089013560608a013561599d565b905061319f6040890160208a0161580a565b6131b5576131ad8183615c34565b9150816131c3565b6131bf8184615c34565b9250825b50505b7f00000000000000000000000000000000000000000000000000000000000000006001600160a01b031663b390c0ab613216876101800151876001600160a01b031661459490919063ffffffff16565b6040516001600160e01b031960e084901b168152600481019190915260a08a013560248201526044015f604051808303815f87803b158015613256575f80fd5b505af1158015613268573d5f803e3d5ffd5b5050505061327e85610180015160018484613e91565b505050606090940135949350505050565b5f546001600160a01b031633146132b85760405162461bcd60e51b8152600401610a729061572c565b600480546001600160a01b0319166001600160a01b0392909216919091179055565b5f306132ec60a0850160808601614c6e565b6001600160a01b0316146133135760405163f92ee8a960e01b815260040160405180910390fd5b50636e4c1aa760e11b9392505050565b5f546001600160a01b0316331461334c5760405162461bcd60e51b8152600401610a729061572c565b6001600160a01b03165f908152600360205260409020805460ff19166001179055565b5f546001600160a01b031633146133985760405162461bcd60e51b8152600401610a729061572c565b5f80546001600160a01b0319166001600160a01b0383169081178255604051909133917f8be0079c531659141344cd1fd0a4f28419497f9722a3daafe3b4186f6b6457e09190a350565b5f546001600160a01b0316331461340b5760405162461bcd60e51b8152600401610a729061572c565b5f91825260026020526040909120600101805462ffffff909216600160e01b0262ffffff60e01b19909216919091179055565b80156134be57836001600160a01b031663f5298aca8461346d886001600160a01b03166001600160a01b031690565b856040518463ffffffff1660e01b815260040161348c93929190615752565b5f604051808303815f87803b1580156134a3575f80fd5b505af11580156134b5573d5f803e3d5ffd5b5050505061366f565b6001600160a01b03851661353557836001600160a01b03166311da60b4836040518263ffffffff1660e01b815260040160206040518083038185885af115801561350a573d5f803e3d5ffd5b50505050506040513d601f19601f8201168201806040525081019061352f9190615880565b5061366f565b604051632961046560e21b81526001600160a01b03868116600483015285169063a5841194906024015f604051808303815f87803b158015613575575f80fd5b505af1158015613587573d5f803e3d5ffd5b505f925050506001600160a01b03841630146135b0576135a9868587866145c7565b90506135be565b6135bb86868561469f565b90505b8061360b5760405162461bcd60e51b815260206004820152601f60248201527f736574746c653a7472616e7366657220646964206e6f742073756363656564006044820152606401610a72565b846001600160a01b03166311da60b46040518163ffffffff1660e01b81526004016020604051808303815f875af1158015613648573d5f803e3d5ffd5b505050506040513d601f19601f8201168201806040525081019061366c9190615880565b50505b5050505050565b806136b857604051630b0d9c0960e01b81526001600160a01b038681166004830152848116602483015260448201849052851690630b0d9c099060640161348c565b836001600160a01b031663156e29f6846136e1886001600160a01b03166001600160a01b031690565b856040518463ffffffff1660e01b815260040161370093929190615752565b5f604051808303815f87803b158015613717575f80fd5b505af1158015613729573d5f803e3d5ffd5b505050505050505050565b8051604051627eeac760e11b81525f916001600160a01b037f000000000000000000000000000000000000000000000000000000000000000081169262fdd58e92613786923092911690600401615a72565b602060405180830381865afa1580156137a1573d5f803e3d5ffd5b505050506040513d601f19601f820116820180604052508101906137c59190615880565b90505f7f00000000000000000000000000000000000000000000000000000000000000006001600160a01b031662fdd58e3061381486602001516001600160a01b03166001600160a01b031690565b6040518363ffffffff1660e01b8152600401613831929190615a72565b602060405180830381865afa15801561384c573d5f803e3d5ffd5b505050506040513d601f19601f820116820180604052508101906138709190615880565b90505f7f00000000000000000000000000000000000000000000000000000000000000006001600160a01b031662fdd58e306138c187885f01516001600160a01b031661459490919063ffffffff16565b6040518363ffffffff1660e01b81526004016138de929190615a72565b602060405180830381865afa1580156138f9573d5f803e3d5ffd5b505050506040513d601f19601f8201168201806040525081019061391d9190615880565b90505f7f00000000000000000000000000000000000000000000000000000000000000006001600160a01b031662fdd58e3061396f8889602001516001600160a01b031661459490919063ffffffff16565b6040518363ffffffff1660e01b815260040161398c929190615a72565b602060405180830381865afa1580156139a7573d5f803e3d5ffd5b505050506040513d601f19601f820116820180604052508101906139cb9190615880565b9050837f608a02038d3023ed7e79ffc2a87ce7ad8c0bc0c5b839ddbe438db934c7b5e0e25d827fba598ef587ec4c4cf493fe15321596d40159e5c3c0cbf449810c8c6894b2e5e15d817f63450183817719ccac1ebea450ccc19412314611d078d8a8cb3ac9a1ef4de3865d807fbdb25f21ec501c2e41736c4e3dd44c1c3781af532b6899c36b3f72d4e003b0ab5d5050505050565b5f808211613ab05760405162461bcd60e51b815260206004820152601960248201527f494e53554646494349454e545f494e5055545f414d4f554e54000000000000006044820152606401610a72565b5f80613abb86613e20565b915091505f8086613acd578284613ad0565b83835b915091505f82118015613ae257505f81115b613b2e5760405162461bcd60e51b815260206004820152601760248201527f20494e53554646494349454e545f4c49515549444954590000000000000000006044820152606401610a72565b60048054604051630cf9f4c960e21b81525f926001600160a01b03909216916333e7d32491613b5f918d9101614eb6565b602060405180830381865afa158015613b7a573d5f803e3d5ffd5b505050506040513d601f19601f82011682018060405250810190613b9e9190615c53565b90505f613bb362ffffff8316620f424061599d565b90505f613bc0828a61595f565b90505f613bcd858361595f565b90505f82613bde620f42408961595f565b613be89190615a8b565b9050613bf4818361598a565b9d9c50505050505050505050505050565b5f6001607f1b8210613c2157613c216393dafdf160e01b614777565b5090565b5f808211613c755760405162461bcd60e51b815260206004820152601a60248201527f494e53554646494349454e545f4f55545055545f414d4f554e540000000000006044820152606401610a72565b5f80613c8086613e20565b915091505f8086613c92578284613c95565b83835b915091505f82118015613ca757505f81115b613cec5760405162461bcd60e51b8152602060048201526016602482015275494e53554646494349454e545f4c495155494449545960501b6044820152606401610a72565b808610613d345760405162461bcd60e51b81526020600482015260166024820152754f55545055545f414d4f554e545f4f564552464c4f5760501b6044820152606401610a72565b60048054604051630cf9f4c960e21b81525f926001600160a01b03909216916333e7d32491613d65918d9101614eb6565b602060405180830381865afa158015613d80573d5f803e3d5ffd5b505050506040513d601f19601f82011682018060405250810190613da49190615c53565b90505f613db962ffffff8316620f424061599d565b90505f620f4240613dca8a8761595f565b613dd4919061595f565b90505f82613de28b8761599d565b613dec919061595f565b9050613df8818361598a565b613e03906001615a8b565b9c9b505050505050505050505050565b5f6122e7825f805f613e91565b5f808260400151835f0151613e359190615c34565b6001600160701b0316915082606001518360200151613e549190615c34565b6001600160701b03169050915091565b5f613e89613e84613e7e86613e79878761599d565b61477f565b84614793565b6147a7565b949350505050565b5f80613e9e8660a0902090565b5f818152600260208190526040822090810154929350918190613ec69063ffffffff166147b6565b91509150878015613ee45750600583015463ffffffff838116911614155b15613f945760058301805463ffffffff191663ffffffff841617905560018301548354613f6b91613f2d91600160701b918290046001600160701b039081169290910416615c34565b60018501548554613f5c91613f4e916001600160701b039182169116615c34565b6001600160701b0316614841565b6001600160e01b031690614793565b8360050160046101000a8154816001600160e01b0302191690836001600160e01b031602179055505b60048054845460018601546040516327dc499760e01b81526001600160701b03928316948101949094521660248301525f916301e133809184916001600160a01b03909116906327dc499790604401602060405180830381865afa158015613ffe573d5f803e3d5ffd5b505050506040513d601f19601f820116820180604052508101906140229190615880565b61402c919061595f565b614036919061598a565b61404490633b9aca00615a8b565b60048054865460018801546040516327dc499760e01b81526001600160701b03600160701b9384900481169582019590955291900490921660248301529192505f916301e133809185916001600160a01b0316906327dc499790604401602060405180830381865afa1580156140bc573d5f803e3d5ffd5b505050506040513d601f19601f820116820180604052508101906140e09190615880565b6140ea919061595f565b6140f4919061598a565b61410290633b9aca00615a8b565b9050633b9aca00828660030154614119919061595f565b614123919061598a565b60038601556004850154633b9aca009061413e90839061595f565b614148919061598a565b600486015560028501805463ffffffff191663ffffffff86161790555f61416d614859565b90505f6141798d614929565b825181518954929350909161419791906001600160701b0316615c34565b6141a19190615c6e565b87546001600160701b0319166001600160701b03918216178089556020848101519084015190926141d992600160701b900416615c34565b6141e39190615c6e565b8754600160701b600160e01b031916600160701b6001600160701b03928316021788556040838101519083015160018a015491926142219216615c34565b61422b9190615c6e565b6001880180546001600160701b0319166001600160701b03928316179081905560608481015190840151909261426892600160701b900416615c34565b6142729190615c6e565b6001880180546001600160701b03928316600160701b02600160701b600160e01b03198216811790925589545f936142b4938116928116929092179116615c34565b600189015489549192505f916142e2916001600160701b03600160701b918290048116929190910416615c34565b6001549091506001600160a01b03161561435a576001546040516205c7e560ec1b81526001600160a01b0390911690635c7e50009061432c9060068d019086908690600401615c8d565b5f604051808303815f87803b158015614343575f80fd5b505af1158015614355573d5f803e3d5ffd5b505050505b6001600160701b038d16156143a85761437f82613f5c8f6001600160701b0316614841565b8960020160046101000a8154816001600160701b0302191690836001600160701b031602179055505b6001600160701b038c16156143f6576143cd81613f5c8e6001600160701b0316614841565b8960020160126101000a8154816001600160701b0302191690836001600160701b031602179055505b61440c6001600160701b0380831690841661595f565b895460018b0154604080516001600160701b038085168252600160701b9485900481166020830152808416828401529390920490921660608201529051919c508b917fdaddfcfd7d9ce1beef4f6e708ebe5efb29b722c976ad8f46a25caca3ae78b6dc9181900360800190a250505050505050505050949350505050565b5f60038211156144d8575080600160028204015b818110156144d2578091506002818285816144bb576144bb615976565b0401816144ca576144ca615976565b04905061449e565b50919050565b81156111cd57506001919050565b5f8183106144f457816122e4565b5090919050565b60605f80306001600160a01b03168585604051614519929190615d00565b5f604051808303815f865af19150503d805f8114614552576040519150601f19603f3d011682016040523d82523d5f602084013e614557565b606091505b5091509150811561456b5791506122e79050565b80515f0361458c576040516314815f4760e31b815260040160405180910390fd5b805160208201fd5b5f82826040516020016145a8929190615d0f565b60408051601f1981840301815291905280516020909101209392505050565b604080516001600160a01b0385811660248301528481166044830152606480830185905283518084039091018152608490920183526020820180516001600160e01b03166323b872dd60e01b17905291515f92839283929189169161462c9190615d2c565b5f604051808303815f865af19150503d805f8114614665576040519150601f19603f3d011682016040523d82523d5f602084013e61466a565b606091505b509150915081801561469457508051158061469457508080602001905181019061469491906158f9565b979650505050505050565b5f805f856001600160a01b031663a9059cbb60e01b86866040516024016146c7929190615a72565b60408051601f198184030181529181526020820180516001600160e01b03166001600160e01b03199094169390931790925290516147059190615d2c565b5f604051808303815f865af19150503d805f811461473e576040519150601f19603f3d011682016040523d82523d5f602084013e614743565b606091505b509150915081801561476d57508051158061476d57508080602001905181019061476d91906158f9565b9695505050505050565b805f5260045ffd5b5f6122e4826001600160701b038516615d42565b5f6122e46001600160701b03831684615d73565b5f6122e7600160701b83615d73565b5f806147c764010000000042615b5a565b91508163ffffffff168363ffffffff16116147ff576147e68383615da1565b6147f2906103e8615dbd565b63ffffffff169050915091565b8163ffffffff168363ffffffff1664010000000061481d9190615ddc565b6148279190615df9565b614833906103e8615e16565b64ffffffffff169050915091565b5f6122e7600160701b6001600160701b038416615d42565b61488060405180608001604052805f81526020015f81526020015f81526020015f81525090565b50604080516080810182527f608a02038d3023ed7e79ffc2a87ce7ad8c0bc0c5b839ddbe438db934c7b5e0e25c81527fba598ef587ec4c4cf493fe15321596d40159e5c3c0cbf449810c8c6894b2e5e15c60208201527f63450183817719ccac1ebea450ccc19412314611d078d8a8cb3ac9a1ef4de3865c918101919091527fbdb25f21ec501c2e41736c4e3dd44c1c3781af532b6899c36b3f72d4e003b0ab5c606082015290565b61495060405180608001604052805f81526020015f81526020015f81526020015f81525090565b8151604051627eeac760e11b81526001600160a01b037f000000000000000000000000000000000000000000000000000000000000000081169262fdd58e9261499f9230921690600401615a72565b602060405180830381865afa1580156149ba573d5f803e3d5ffd5b505050506040513d601f19601f820116820180604052508101906149de9190615880565b81526020820151604051627eeac760e11b81526001600160a01b037f000000000000000000000000000000000000000000000000000000000000000081169262fdd58e92614a329230921690600401615a72565b602060405180830381865afa158015614a4d573d5f803e3d5ffd5b505050506040513d601f19601f82011682018060405250810190614a719190615880565b602082015281516001600160a01b037f000000000000000000000000000000000000000000000000000000000000000081169162fdd58e913091614ab6911686614594565b6040518363ffffffff1660e01b8152600401614ad3929190615a72565b602060405180830381865afa158015614aee573d5f803e3d5ffd5b505050506040513d601f19601f82011682018060405250810190614b129190615880565b604082015260208201516001600160a01b037f000000000000000000000000000000000000000000000000000000000000000081169162fdd58e913091614b5a911686614594565b6040518363ffffffff1660e01b8152600401614b77929190615a72565b602060405180830381865afa158015614b92573d5f803e3d5ffd5b505050506040513d601f19601f82011682018060405250810190614bb69190615880565b6060820152919050565b604080516101a0810182525f80825260208083018290528284018290526060808401839052608080850184905260a080860185905260c0860185905260e086018590526101008601859052610120860185905261014086018590526101608601859052865190810187528481529283018490529482018390528101829052928301529061018082015290565b6001600160a01b0381168114614c60575f80fd5b50565b80356111cd81614c4c565b5f60208284031215614c7e575f80fd5b813561243b81614c4c565b5f60a082840312156144d2575f80fd5b5f805f806101008587031215614cad575f80fd5b8435614cb881614c4c565b9350614cc78660208701614c89565b939693955050505060c08201359160e0013590565b5f608082840312156144d2575f80fd5b5f8083601f840112614cfc575f80fd5b5081356001600160401b03811115614d12575f80fd5b602083019150836020828501011115614d29575f80fd5b9250929050565b5f805f805f6101608688031215614d45575f80fd5b8535614d5081614c4c565b9450614d5f8760208801614c89565b9350614d6e8760c08801614cdc565b92506101408601356001600160401b03811115614d89575f80fd5b614d9588828901614cec565b969995985093965092949392505050565b5f606082840312156144d2575f80fd5b5f805f805f6101408688031215614dcb575f80fd5b8535614dd681614c4c565b9450614de58760208801614c89565b9350614df48760c08801614da6565b92506101208601356001600160401b03811115614d89575f80fd5b8015158114614c60575f80fd5b80356111cd81614e0f565b5f805f60608486031215614e39575f80fd5b833592506020840135614e4b81614e0f565b929592945050506040919091013590565b5f60208284031215614e6c575f80fd5b5035919050565b80516001600160a01b03908116835260208083015182169084015260408083015162ffffff169084015260608083015160020b9084015260809182015116910152565b81516001600160701b0316815261022081016020830151614ee260208401826001600160701b03169052565b506040830151614efd60408401826001600160701b03169052565b506060830151614f1860608401826001600160701b03169052565b506080830151614f2f608084018262ffffff169052565b5060a0830151614f4760a084018263ffffffff169052565b5060c0830151614f6260c08401826001600160701b03169052565b5060e0830151614f7d60e08401826001600160701b03169052565b50610100830151610100830152610120830151610120830152610140830151614faf61014084018263ffffffff169052565b50610160830151614fcc6101608401826001600160e01b03169052565b50610180830151614fe1610180840182614e73565b5092915050565b5f60808284031215614ff8575f80fd5b6122e48383614cdc565b5f805f805f805f6101a0888a031215615019575f80fd5b873561502481614c4c565b96506150338960208a01614c89565b95506150428960c08a01614cdc565b9450610140880135935061016088013592506101808801356001600160401b0381111561506d575f80fd5b6150798a828b01614cec565b989b979a50959850939692959293505050565b8060020b8114614c60575f80fd5b5f805f8061010085870312156150ae575f80fd5b84356150b981614c4c565b93506150c88660208701614c89565b925060c08501356150d881614c4c565b915060e08501356150e88161508c565b939692955090935050565b5f610100828403128015615105575f80fd5b509092915050565b5f806020838503121561511e575f80fd5b82356001600160401b03811115615133575f80fd5b61513f85828601614cec565b90969095509350505050565b602081525f82518060208401528060208501604085015e5f604082850101526040601f19601f83011684010191505092915050565b6001600160701b038e811682528d811660208301528c811660408301528b16606082015262ffffff8a166080820152610220810163ffffffff8a1660a08301526001600160701b03891660c08301526001600160701b03881660e083015286610100830152856101208301526151ff61014083018663ffffffff169052565b6001600160e01b03841661016083015261521d610180830184614e73565b9e9d5050505050505050505050505050565b634e487b7160e01b5f52604160045260245ffd5b60405160e081016001600160401b03811182821017156152655761526561522f565b60405290565b60405161012081016001600160401b03811182821017156152655761526561522f565b604051601f8201601f191681016001600160401b03811182821017156152b6576152b661522f565b604052919050565b5f60e08284031280156152cf575f80fd5b506152d8615243565b8235815260208301356152ea81614e0f565b602082015260408301356152fd81614c4c565b6040820152606083810135908201526080808401359082015260a0808401359082015260c0928301359281019290925250919050565b5f80828403610140811215615346575f80fd5b833561535181614c4c565b9250610120601f1982011215615365575f80fd5b506020830190509250929050565b5f805f805f806101608789031215615389575f80fd5b863561539481614c4c565b95506153a38860208901614c89565b94506153b28860c08901614da6565b935061012087013592506101408701356001600160401b038111156153d5575f80fd5b6153e189828a01614cec565b979a9699509497509295939492505050565b5f805f805f806101208789031215615409575f80fd5b863561541481614c4c565b95506154238860208901614c89565b945060c0870135935060e087013592506101008701356001600160401b038111156153d5575f80fd5b62ffffff81168114614c60575f80fd5b80356111cd8161544c565b5f610120828403128015615479575f80fd5b5061548261526b565b8235815261549260208401614e1c565b60208201526154a36040840161545c565b6040820152606083810135908201526080808401359082015260a0808401359082015260c080840135908201526154dc60e08401614c63565b60e0820152610100928301359281019290925250919050565b8051825260208101511515602083015262ffffff6040820151166040830152606081015160608301526080810151608083015260a081015160a083015260c081015160c083015260e081015161555660e08401826001600160a01b03169052565b5061010090810151910152565b61012081016122e782846154f5565b5f60a08284031215615582575f80fd5b6122e48383614c89565b8151151581526101c0810160208301516155aa602084018215159052565b5060408301516155be604084018215159052565b5060608301516155d2606084018215159052565b5060808301516155e6608084018215159052565b5060a08301516155fa60a084018215159052565b5060c083015161560e60c084018215159052565b5060e083015161562260e084018215159052565b5061010083015161563861010084018215159052565b5061012083015161564e61012084018215159052565b5061014083015161566461014084018215159052565b5061016083015161567a61016084018215159052565b5061018083015161569061018084018215159052565b506101a0830151614fe16101a084018215159052565b5f60e0828403128015615105575f80fd5b5f805f60e084860312156156c9575f80fd5b83356156d481614c4c565b92506156e38560208601614c89565b915060c08401356156f381614c4c565b809150509250925092565b5f806040838503121561570f575f80fd5b8235915060208301356157218161544c565b809150509250929050565b6020808252600c908201526b15539055551213d49256915160a21b604082015260600190565b6001600160a01b039390931683526020830191909152604082015260600190565b5f60a0828403128015615784575f80fd5b5060405160a081016001600160401b03811182821017156157a7576157a761522f565b60405282356157b581614c4c565b815260208301356157c581614c4c565b602082015260408301356157d88161544c565b604082015260608301356157eb8161508c565b606082015260808301356157fe81614c4c565b60808201529392505050565b5f6020828403121561581a575f80fd5b813561243b81614e0f565b634e487b7160e01b5f52601160045260245ffd5b5f600160ff1b820161584d5761584d615825565b505f0390565b5f81600f0b6f7fffffffffffffffffffffffffffffff19810361587857615878615825565b5f0392915050565b5f60208284031215615890575f80fd5b5051919050565b80516001600160701b03811681146111cd575f80fd5b5f80604083850312156158be575f80fd5b6158c783615897565b91506158d560208401615897565b90509250929050565b5f602082840312156158ee575f80fd5b815161243b81614c4c565b5f60208284031215615909575f80fd5b815161243b81614e0f565b5f805f60608486031215615926575f80fd5b5050815160208301516040909301519094929350919050565b5f6020828403121561594f575f80fd5b813560ff8116811461243b575f80fd5b80820281158282048414176122e7576122e7615825565b634e487b7160e01b5f52601260045260245ffd5b5f8261599857615998615976565b500490565b818103818111156122e7576122e7615825565b6001600160a01b038516815261010081016159ce6020830186614e73565b60c082019390935260e0015292915050565b5f602082840312156159f0575f80fd5b81516001600160401b03811115615a05575f80fd5b8201601f81018413615a15575f80fd5b80516001600160401b03811115615a2e57615a2e61522f565b615a41601f8201601f191660200161528e565b818152856020838501011115615a55575f80fd5b8160208401602083015e5f91810160200191909152949350505050565b6001600160a01b03929092168252602082015260400190565b808201808211156122e7576122e7615825565b60e08101615aac8286614e73565b6001600160701b03841660a08301526001600160701b03831660c0830152949350505050565b5f60208284031215615ae2575f80fd5b813561243b8161544c565b5f8060408385031215615afe575f80fd5b8251615b098161544c565b60208401519092506157218161544c565b6001600160a01b0383168152610140810161243b60208301846154f5565b5f8060408385031215615b49575f80fd5b505080516020909101519092909150565b5f82615b6857615b68615976565b500690565b60c081018335615b7c81614c4c565b6001600160a01b031682526020840135615b9581614c4c565b6001600160a01b031660208301526040840135615bb18161544c565b62ffffff1660408301526060840135615bc98161508c565b60020b60608301526080840135615bdf81614c4c565b6001600160a01b0390811660808401529290921660a090910152919050565b5f60208284031215615c0e575f80fd5b815161243b8161508c565b5f60208284031215615c29575f80fd5b813561243b8161508c565b6001600160701b0381811683821601908111156122e7576122e7615825565b5f60208284031215615c63575f80fd5b815161243b8161544c565b6001600160701b0382811682821603908111156122e7576122e7615825565b83546001600160a01b0390811682526001850154808216602084015260a081811c62ffffff16604085015260b89190911c600290810b6060850152860154909116608083015260e0820190615cec908301856001600160701b03169052565b6001600160701b03831660c0830152613e89565b818382375f9101908152919050565b6001600160a01b038316815260c0810161243b6020830184614e73565b5f82518060208501845e5f920191825250919050565b6001600160e01b03818116838216818102909216918183048114821517615d6b57615d6b615825565b505092915050565b5f6001600160e01b03831680615d8b57615d8b615976565b6001600160e01b03929092169190910492915050565b63ffffffff82811682821603908111156122e7576122e7615825565b63ffffffff8181168382160290811690818114614fe157614fe1615825565b64ffffffffff82811682821603908111156122e7576122e7615825565b64ffffffffff81811683821601908111156122e7576122e7615825565b64ffffffffff8181168382160290811690818114614fe157614fe161582556fea2646970667358221220d74ab4f1ded51e71ea6b70b7dd5c5658a6abea8152830bed43e750d02cd6408c64736f6c634300081a0033","linkReferences":{}},"methodIdentifiers":{"MINIMUM_LIQUIDITY()":"ba9a7a56","ONE_BILLION()":"5d12fc0c","ONE_MILLION()":"9869b736","SQRT_RATIO_1_1()":"77267b1e","YEAR_SECONDS()":"b330db28","addLiquidity((bytes32,uint256,uint256,uint256,uint256,uint8,address,uint256))":"8461d867","addPositionManager(address)":"e2f0ab01","afterAddLiquidity(address,(address,address,uint24,int24,address),(int24,int24,int256,bytes32),int256,int256,bytes)":"9f063efc","afterDonate(address,(address,address,uint24,int24,address),uint256,uint256,bytes)":"e1b4af69","afterInitialize(address,(address,address,uint24,int24,address),uint160,int24)":"6fe7e6eb","afterRemoveLiquidity(address,(address,address,uint24,int24,address),(int24,int24,int256,bytes32),int256,int256,bytes)":"6c2bbe7e","afterSwap(address,(address,address,uint24,int24,address),(bool,int256,uint160),int256,bytes)":"b47b2fb1","beforeAddLiquidity(address,(address,address,uint24,int24,address),(int24,int24,int256,bytes32),bytes)":"259982e5","beforeDonate(address,(address,address,uint24,int24,address),uint256,uint256,bytes)":"b6a8b0fa","beforeInitialize(address,(address,address,uint24,int24,address),uint160)":"dc98354e","beforeRemoveLiquidity(address,(address,address,uint24,int24,address),(int24,int24,int256,bytes32),bytes)":"21d0ee70","beforeSwap(address,(address,address,uint24,int24,address),(bool,int256,uint160),bytes)":"575e24b4","getAmountIn(bytes32,bool,uint256)":"b4473259","getAmountOut(bytes32,bool,uint256)":"5be39ae8","getHookPermissions()":"c4e833ce","getReserves(bytes32)":"a4a9e988","getStatus(bytes32)":"5de28ae0","handleAddLiquidity(address,(address,address,uint24,int24,address),uint256,uint256)":"0776e76e","handleMargin(address,(bytes32,bool,uint24,uint256,uint256,uint256,uint256,address,uint256))":"b47a1a6a","handleRelease((bytes32,bool,address,uint256,uint256,uint256,uint256))":"d613eb2f","handleRemoveLiquidity(address,(address,address,uint24,int24,address),uint256,uint256)":"244195d3","hookStatusStore(bytes32)":"9b2aaf10","initialize((address,address,uint24,int24,address))":"bfb9f86b","kLast()":"7464fc3d","margin((bytes32,bool,uint24,uint256,uint256,uint256,uint256,address,uint256))":"b8c59860","marginFees()":"13ac42a7","marginLiquidity()":"fb6b0e67","marginOracle()":"9ae5668c","mirrorTokenManager()":"ffcd9d16","owner()":"8da5cb5b","poolManager()":"dc4c90d3","positionManagers(address)":"d8d232a2","release((bytes32,bool,address,uint256,uint256,uint256,uint256))":"9d7bcccb","removeLiquidity((bytes32,uint8,uint256,uint256))":"69f41802","setFeeStatus(bytes32,uint24)":"f4648777","setMarginFees(address)":"d93ed9c6","setMarginOracle(address)":"06638ea5","transferOwnership(address)":"f2fde38b","unlockCallback(bytes)":"91dd7346"},"id":56}