{"abi":[{"type":"constructor","inputs":[{"name":"initialOwner","type":"address","internalType":"address"}],"stateMutability":"nonpayable"},{"type":"function","name":"LP_FLAG","inputs":[],"outputs":[{"name":"","type":"uint256","internalType":"uint256"}],"stateMutability":"view"},{"type":"function","name":"addHooks","inputs":[{"name":"_hook","type":"address","internalType":"address"}],"outputs":[],"stateMutability":"nonpayable"},{"type":"function","name":"addLiquidity","inputs":[{"name":"receiver","type":"address","internalType":"address"},{"name":"id","type":"uint256","internalType":"uint256"},{"name":"level","type":"uint8","internalType":"uint8"},{"name":"amount","type":"uint256","internalType":"uint256"}],"outputs":[],"stateMutability":"nonpayable"},{"type":"function","name":"allowance","inputs":[{"name":"owner","type":"address","internalType":"address"},{"name":"spender","type":"address","internalType":"address"},{"name":"id","type":"uint256","internalType":"uint256"}],"outputs":[{"name":"amount","type":"uint256","internalType":"uint256"}],"stateMutability":"view"},{"type":"function","name":"approve","inputs":[{"name":"spender","type":"address","internalType":"address"},{"name":"id","type":"uint256","internalType":"uint256"},{"name":"amount","type":"uint256","internalType":"uint256"}],"outputs":[{"name":"","type":"bool","internalType":"bool"}],"stateMutability":"nonpayable"},{"type":"function","name":"balanceOf","inputs":[{"name":"owner","type":"address","internalType":"address"},{"name":"id","type":"uint256","internalType":"uint256"}],"outputs":[{"name":"balance","type":"uint256","internalType":"uint256"}],"stateMutability":"view"},{"type":"function","name":"burn","inputs":[{"name":"sender","type":"address","internalType":"address"},{"name":"id","type":"uint256","internalType":"uint256"},{"name":"amount","type":"uint256","internalType":"uint256"}],"outputs":[],"stateMutability":"nonpayable"},{"type":"function","name":"getLevelPool","inputs":[{"name":"uPoolId","type":"uint256","internalType":"uint256"},{"name":"level","type":"uint8","internalType":"uint8"}],"outputs":[{"name":"lPoolId","type":"uint256","internalType":"uint256"}],"stateMutability":"pure"},{"type":"function","name":"getPoolId","inputs":[{"name":"poolId","type":"bytes32","internalType":"PoolId"}],"outputs":[{"name":"uPoolId","type":"uint256","internalType":"uint256"}],"stateMutability":"pure"},{"type":"function","name":"getPoolLiquidities","inputs":[{"name":"poolId","type":"bytes32","internalType":"PoolId"},{"name":"owner","type":"address","internalType":"address"}],"outputs":[{"name":"liquidities","type":"uint256[4]","internalType":"uint256[4]"}],"stateMutability":"view"},{"type":"function","name":"getPoolSupplies","inputs":[{"name":"hook","type":"address","internalType":"address"},{"name":"poolId","type":"bytes32","internalType":"PoolId"}],"outputs":[{"name":"totalSupply","type":"uint256","internalType":"uint256"},{"name":"retainSupply0","type":"uint256","internalType":"uint256"},{"name":"retainSupply1","type":"uint256","internalType":"uint256"}],"stateMutability":"view"},{"type":"function","name":"getSupplies","inputs":[{"name":"uPoolId","type":"uint256","internalType":"uint256"}],"outputs":[{"name":"totalSupply","type":"uint256","internalType":"uint256"},{"name":"retainSupply0","type":"uint256","internalType":"uint256"},{"name":"retainSupply1","type":"uint256","internalType":"uint256"}],"stateMutability":"view"},{"type":"function","name":"hooks","inputs":[{"name":"","type":"address","internalType":"address"}],"outputs":[{"name":"","type":"bool","internalType":"bool"}],"stateMutability":"view"},{"type":"function","name":"isOperator","inputs":[{"name":"owner","type":"address","internalType":"address"},{"name":"operator","type":"address","internalType":"address"}],"outputs":[{"name":"isOperator","type":"bool","internalType":"bool"}],"stateMutability":"view"},{"type":"function","name":"mint","inputs":[{"name":"receiver","type":"address","internalType":"address"},{"name":"id","type":"uint256","internalType":"uint256"},{"name":"amount","type":"uint256","internalType":"uint256"}],"outputs":[],"stateMutability":"nonpayable"},{"type":"function","name":"mintFee","inputs":[{"name":"feeTo","type":"address","internalType":"address"},{"name":"_kLast","type":"uint256","internalType":"uint256"},{"name":"uPoolId","type":"uint256","internalType":"uint256"},{"name":"_reserve0","type":"uint256","internalType":"uint256"},{"name":"_reserve1","type":"uint256","internalType":"uint256"}],"outputs":[{"name":"feeOn","type":"bool","internalType":"bool"}],"stateMutability":"nonpayable"},{"type":"function","name":"owner","inputs":[],"outputs":[{"name":"","type":"address","internalType":"address"}],"stateMutability":"view"},{"type":"function","name":"protocolRatio","inputs":[],"outputs":[{"name":"","type":"uint8","internalType":"uint8"}],"stateMutability":"view"},{"type":"function","name":"removeLiquidity","inputs":[{"name":"sender","type":"address","internalType":"address"},{"name":"id","type":"uint256","internalType":"uint256"},{"name":"level","type":"uint8","internalType":"uint8"},{"name":"amount","type":"uint256","internalType":"uint256"}],"outputs":[],"stateMutability":"nonpayable"},{"type":"function","name":"setOperator","inputs":[{"name":"operator","type":"address","internalType":"address"},{"name":"approved","type":"bool","internalType":"bool"}],"outputs":[{"name":"","type":"bool","internalType":"bool"}],"stateMutability":"nonpayable"},{"type":"function","name":"supportsInterface","inputs":[{"name":"interfaceId","type":"bytes4","internalType":"bytes4"}],"outputs":[{"name":"","type":"bool","internalType":"bool"}],"stateMutability":"view"},{"type":"function","name":"transfer","inputs":[{"name":"receiver","type":"address","internalType":"address"},{"name":"id","type":"uint256","internalType":"uint256"},{"name":"amount","type":"uint256","internalType":"uint256"}],"outputs":[{"name":"","type":"bool","internalType":"bool"}],"stateMutability":"nonpayable"},{"type":"function","name":"transferFrom","inputs":[{"name":"sender","type":"address","internalType":"address"},{"name":"receiver","type":"address","internalType":"address"},{"name":"id","type":"uint256","internalType":"uint256"},{"name":"amount","type":"uint256","internalType":"uint256"}],"outputs":[{"name":"","type":"bool","internalType":"bool"}],"stateMutability":"nonpayable"},{"type":"function","name":"transferOwnership","inputs":[{"name":"newOwner","type":"address","internalType":"address"}],"outputs":[],"stateMutability":"nonpayable"},{"type":"event","name":"Approval","inputs":[{"name":"owner","type":"address","indexed":true,"internalType":"address"},{"name":"spender","type":"address","indexed":true,"internalType":"address"},{"name":"id","type":"uint256","indexed":true,"internalType":"uint256"},{"name":"amount","type":"uint256","indexed":false,"internalType":"uint256"}],"anonymous":false},{"type":"event","name":"OperatorSet","inputs":[{"name":"owner","type":"address","indexed":true,"internalType":"address"},{"name":"operator","type":"address","indexed":true,"internalType":"address"},{"name":"approved","type":"bool","indexed":false,"internalType":"bool"}],"anonymous":false},{"type":"event","name":"OwnershipTransferred","inputs":[{"name":"user","type":"address","indexed":true,"internalType":"address"},{"name":"newOwner","type":"address","indexed":true,"internalType":"address"}],"anonymous":false},{"type":"event","name":"Transfer","inputs":[{"name":"caller","type":"address","indexed":false,"internalType":"address"},{"name":"from","type":"address","indexed":true,"internalType":"address"},{"name":"to","type":"address","indexed":true,"internalType":"address"},{"name":"id","type":"uint256","indexed":true,"internalType":"uint256"},{"name":"amount","type":"uint256","indexed":false,"internalType":"uint256"}],"anonymous":false}],"bytecode":{"object":"0x6080604052348015600e575f80fd5b506040516111d73803806111d7833981016040819052602b91608f565b600380546001600160a01b0319166001600160a01b0383169081179091556040518291905f907f8be0079c531659141344cd1fd0a4f28419497f9722a3daafe3b4186f6b6457e0908290a350506003805460ff60a01b1916606360a01b17905560ba565b5f60208284031215609e575f80fd5b81516001600160a01b038116811460b3575f80fd5b9392505050565b611110806100c75f395ff3fe608060405234801561000f575f80fd5b5060043610610152575f3560e01c8063a33bec8c116100bf578063ec8ce30111610079578063ec8ce30114610367578063f2fde38b14610387578063f5298aca1461039a578063fd32826f146103ad578063fe99049a146103c0578063ff873456146103d3575f80fd5b8063a33bec8c146102cf578063b6363cf2146102e2578063c97a1c3f1461030c578063c982681b1461031f578063d5ffe20914610341578063db620f4f14610354575f80fd5b8063426a849311610110578063426a8493146101fa578063558a72971461020d578063598af9e71461022057806361d92f2c146102505780636792df0f146102765780638da5cb5b146102a4575f80fd5b8062fdd58e1461015657806301ffc9a71461019357806303e0cbf6146101b6578063095bcdb6146101cb578063156e29f6146101de5780631de941b4146101f1575b5f80fd5b610180610164366004610d69565b600160209081525f928352604080842090915290825290205481565b6040519081526020015b60405180910390f35b6101a66101a1366004610d91565b6103e6565b604051901515815260200161018a565b6101c96101c4366004610db8565b61041c565b005b6101a66101d9366004610dd1565b610472565b6101c96101ec366004610dd1565b610518565b610180600f1981565b6101a6610208366004610dd1565b610556565b6101a661021b366004610e01565b6105ba565b61018061022e366004610e3a565b600260209081525f938452604080852082529284528284209052825290205481565b60035461026490600160a01b900460ff1681565b60405160ff909116815260200161018a565b610289610284366004610d69565b610627565b6040805193845260208401929092529082015260600161018a565b6003546102b7906001600160a01b031681565b6040516001600160a01b03909116815260200161018a565b6101806102dd366004610e84565b610648565b6101a66102f0366004610eae565b5f60208181529281526040808220909352908152205460ff1681565b6101c961031a366004610ed6565b610661565b6101a661032d366004610db8565b60046020525f908152604090205460ff1681565b61028961034f366004610f17565b6106cb565b610180610362366004610f17565b610714565b61037a610375366004610f2e565b61071f565b60405161018a9190610f4f565b6101c9610395366004610db8565b61079c565b6101c96103a8366004610dd1565b610811565b6101c96103bb366004610ed6565b61084a565b6101a66103ce366004610f7f565b6108ad565b6101a66103e1366004610fbe565b610a09565b5f6301ffc9a760e01b6001600160e01b0319831614806104165750630f632fb360e01b6001600160e01b03198316145b92915050565b6003546001600160a01b0316331461044f5760405162461bcd60e51b815260040161044690610ffc565b60405180910390fd5b6001600160a01b03165f908152600460205260409020805460ff19166001179055565b335f90815260016020908152604080832085845290915281208054839190839061049d908490611036565b90915550506001600160a01b0384165f908152600160209081526040808320868452909152812080548492906104d4908490611049565b909155505060408051338082526020820185905285926001600160a01b038816925f805160206110bb83398151915291015b60405180910390a45060019392505050565b335f9081526004602052604090205460ff166105465760405162461bcd60e51b815260040161044690610ffc565b610551838383610b15565b505050565b335f8181526002602090815260408083206001600160a01b03881680855290835281842087855290925280832085905551919285927fb3fd5071835887567a0671151121894ddccc2842f1d10bedad13e0d17cace9a7906105069087815260200190565b335f818152602081815260408083206001600160a01b038716808552908352818420805460ff191687151590811790915591519182529293917fceb576d9f15e4e200fdb5096d64d5dfd667e16def20c1eefd14256d8e3faa267910160405180910390a350600192915050565b5f8080600f1984166106398682610b87565b91989097509095509350505050565b5f61065a60ff8316600f198516611049565b9392505050565b335f9081526004602052604090205460ff1661068f5760405162461bcd60e51b815260040161044690610ffc565b5f6106a160ff8416600f198616611049565b90506106ae338584610b15565b6106b9338284610b15565b6106c4858284610b15565b5050505050565b335f908152600460205260408120548190819060ff166106fd5760405162461bcd60e51b815260040161044690610ffc565b6107073385610b87565b9196909550909350915050565b5f600f198216610416565b610727610d35565b600f1983165f5b6004811015610794575f81610744846001611049565b61074e9190611049565b6001600160a01b0386165f9081526001602090815260408083208484529091529020549091508483600481106107865761078661105c565b60200201525060010161072e565b505092915050565b6003546001600160a01b031633146107c65760405162461bcd60e51b815260040161044690610ffc565b600380546001600160a01b0319166001600160a01b03831690811790915560405133907f8be0079c531659141344cd1fd0a4f28419497f9722a3daafe3b4186f6b6457e0905f90a350565b335f9081526004602052604090205460ff1661083f5760405162461bcd60e51b815260040161044690610ffc565b610551838383610c6f565b335f9081526004602052604090205460ff166108785760405162461bcd60e51b815260040161044690610ffc565b5f61088a60ff8416600f198616611049565b9050610897338584610c6f565b6108a2338284610c6f565b6106c4858284610c6f565b5f336001600160a01b038616148015906108e857506001600160a01b0385165f9081526020818152604080832033845290915290205460ff16155b15610958576001600160a01b0385165f90815260026020908152604080832033845282528083208684529091529020545f1981146109565761092a8382611036565b6001600160a01b0387165f90815260026020908152604080832033845282528083208884529091529020555b505b6001600160a01b0385165f9081526001602090815260408083208684529091528120805484929061098a908490611036565b90915550506001600160a01b0384165f908152600160209081526040808320868452909152812080548492906109c1908490611049565b9091555050604080513381526020810184905284916001600160a01b0380881692908916915f805160206110bb833981519152910160405180910390a4506001949350505050565b335f9081526004602052604081205460ff16610a375760405162461bcd60e51b815260040161044690610ffc565b506001600160a01b03851615801590610b0c578415610b0c575f610a63610a5e8486611070565b610cd8565b90505f610a6f87610cd8565b905080821115610b0957335f90815260016020908152604080832089845290915281205490610a9e8385611036565b610aa89083611070565b6003549091505f908490610ac690600160a01b900460ff1687611070565b610ad09190611049565b90505f610add828461109b565b90508015610b04575f610af5600f198c166004611049565b9050610b028d8284610b15565b505b505050505b50505b95945050505050565b6001600160a01b0383165f90815260016020908152604080832085845290915281208054839290610b47908490611049565b9091555050604080513381526020810183905283916001600160a01b038616915f915f805160206110bb83398151915291015b60405180910390a4505050565b6001600160a01b0382165f908152600160208181526040808420600f199590951680855294909152822054919081908190610bc3908690611049565b6001600160a01b0387165f90815260016020908152604080832084845290915290205493508392509050610bf8856002611049565b6001600160a01b0387165f908152600160209081526040808320848452909152902054909150610c289084611049565b9250610c35856003611049565b6001600160a01b0387165f908152600160209081526040808320848452909152902054909150610c659083611049565b9150509250925092565b6001600160a01b0383165f90815260016020908152604080832085845290915281208054839290610ca1908490611036565b9091555050604080513381526020810183905283915f916001600160a01b038716915f805160206110bb8339815191529101610b7a565b5f6003821115610d26575080600160028204015b81811015610d2057809150600281828581610d0957610d09611087565b040181610d1857610d18611087565b049050610cec565b50919050565b8115610d30575060015b919050565b60405180608001604052806004906020820280368337509192915050565b80356001600160a01b0381168114610d30575f80fd5b5f8060408385031215610d7a575f80fd5b610d8383610d53565b946020939093013593505050565b5f60208284031215610da1575f80fd5b81356001600160e01b03198116811461065a575f80fd5b5f60208284031215610dc8575f80fd5b61065a82610d53565b5f805f60608486031215610de3575f80fd5b610dec84610d53565b95602085013595506040909401359392505050565b5f8060408385031215610e12575f80fd5b610e1b83610d53565b915060208301358015158114610e2f575f80fd5b809150509250929050565b5f805f60608486031215610e4c575f80fd5b610e5584610d53565b9250610e6360208501610d53565b929592945050506040919091013590565b803560ff81168114610d30575f80fd5b5f8060408385031215610e95575f80fd5b82359150610ea560208401610e74565b90509250929050565b5f8060408385031215610ebf575f80fd5b610ec883610d53565b9150610ea560208401610d53565b5f805f8060808587031215610ee9575f80fd5b610ef285610d53565b935060208501359250610f0760408601610e74565b9396929550929360600135925050565b5f60208284031215610f27575f80fd5b5035919050565b5f8060408385031215610f3f575f80fd5b82359150610ea560208401610d53565b6080810181835f5b6004811015610f76578151835260209283019290910190600101610f57565b50505092915050565b5f805f8060808587031215610f92575f80fd5b610f9b85610d53565b9350610fa960208601610d53565b93969395505050506040820135916060013590565b5f805f805f60a08688031215610fd2575f80fd5b610fdb86610d53565b97602087013597506040870135966060810135965060800135945092505050565b6020808252600c908201526b15539055551213d49256915160a21b604082015260600190565b634e487b7160e01b5f52601160045260245ffd5b8181038181111561041657610416611022565b8082018082111561041657610416611022565b634e487b7160e01b5f52603260045260245ffd5b808202811582820484141761041657610416611022565b634e487b7160e01b5f52601260045260245ffd5b5f826110b557634e487b7160e01b5f52601260045260245ffd5b50049056fe1b3d7edb2e9c0b0e7c525b20aaaef0f5940d2ed71663c7d39266ecafac728859a26469706673582212207540f44658bd15cc381d72cd43402caa40cc8c811fe5610d8f7ed0746a9dd66364736f6c634300081a0033","linkReferences":{}},"methodIdentifiers":{"LP_FLAG()":"1de941b4","addHooks(address)":"03e0cbf6","addLiquidity(address,uint256,uint8,uint256)":"c97a1c3f","allowance(address,address,uint256)":"598af9e7","approve(address,uint256,uint256)":"426a8493","balanceOf(address,uint256)":"00fdd58e","burn(address,uint256,uint256)":"f5298aca","getLevelPool(uint256,uint8)":"a33bec8c","getPoolId(bytes32)":"db620f4f","getPoolLiquidities(bytes32,address)":"ec8ce301","getPoolSupplies(address,bytes32)":"6792df0f","getSupplies(uint256)":"d5ffe209","hooks(address)":"c982681b","isOperator(address,address)":"b6363cf2","mint(address,uint256,uint256)":"156e29f6","mintFee(address,uint256,uint256,uint256,uint256)":"ff873456","owner()":"8da5cb5b","protocolRatio()":"61d92f2c","removeLiquidity(address,uint256,uint8,uint256)":"fd32826f","setOperator(address,bool)":"558a7297","supportsInterface(bytes4)":"01ffc9a7","transfer(address,uint256,uint256)":"095bcdb6","transferFrom(address,address,uint256,uint256)":"fe99049a","transferOwnership(address)":"f2fde38b"},"id":87}