{"abi":[{"type":"constructor","inputs":[{"name":"initialOwner","type":"address","internalType":"address"},{"name":"_manager","type":"address","internalType":"contract IPoolManager"},{"name":"_mirrorTokenManager","type":"address","internalType":"contract IMirrorTokenManager"},{"name":"_lendingPoolManager","type":"address","internalType":"contract ILendingPoolManager"},{"name":"_marginLiquidity","type":"address","internalType":"contract IMarginLiquidity"}],"stateMutability":"nonpayable"},{"type":"function","name":"addLiquidity","inputs":[{"name":"params","type":"tuple","internalType":"struct AddLiquidityParams","components":[{"name":"poolId","type":"bytes32","internalType":"PoolId"},{"name":"amount0","type":"uint256","internalType":"uint256"},{"name":"amount1","type":"uint256","internalType":"uint256"},{"name":"amount0Min","type":"uint256","internalType":"uint256"},{"name":"amount1Min","type":"uint256","internalType":"uint256"},{"name":"level","type":"uint8","internalType":"uint8"},{"name":"to","type":"address","internalType":"address"},{"name":"deadline","type":"uint256","internalType":"uint256"}]}],"outputs":[{"name":"liquidity","type":"uint256","internalType":"uint256"}],"stateMutability":"payable"},{"type":"function","name":"addPositionManager","inputs":[{"name":"_marginPositionManager","type":"address","internalType":"address"}],"outputs":[],"stateMutability":"nonpayable"},{"type":"function","name":"collectProtocolFees","inputs":[{"name":"recipient","type":"address","internalType":"address"},{"name":"currency","type":"address","internalType":"Currency"},{"name":"amount","type":"uint256","internalType":"uint256"}],"outputs":[{"name":"","type":"uint256","internalType":"uint256"}],"stateMutability":"nonpayable"},{"type":"function","name":"getAmountIn","inputs":[{"name":"poolId","type":"bytes32","internalType":"PoolId"},{"name":"zeroForOne","type":"bool","internalType":"bool"},{"name":"amountOut","type":"uint256","internalType":"uint256"}],"outputs":[{"name":"amountIn","type":"uint256","internalType":"uint256"}],"stateMutability":"view"},{"type":"function","name":"getAmountOut","inputs":[{"name":"poolId","type":"bytes32","internalType":"PoolId"},{"name":"zeroForOne","type":"bool","internalType":"bool"},{"name":"amountIn","type":"uint256","internalType":"uint256"}],"outputs":[{"name":"amountOut","type":"uint256","internalType":"uint256"}],"stateMutability":"view"},{"type":"function","name":"getReserves","inputs":[{"name":"poolId","type":"bytes32","internalType":"PoolId"}],"outputs":[{"name":"_reserve0","type":"uint256","internalType":"uint256"},{"name":"_reserve1","type":"uint256","internalType":"uint256"}],"stateMutability":"view"},{"type":"function","name":"getStatus","inputs":[{"name":"poolId","type":"bytes32","internalType":"PoolId"}],"outputs":[{"name":"_status","type":"tuple","internalType":"struct PoolStatus","components":[{"name":"blockTimestampLast","type":"uint32","internalType":"uint32"},{"name":"realReserve0","type":"uint112","internalType":"uint112"},{"name":"realReserve1","type":"uint112","internalType":"uint112"},{"name":"mirrorReserve0","type":"uint112","internalType":"uint112"},{"name":"mirrorReserve1","type":"uint112","internalType":"uint112"},{"name":"marginFee","type":"uint24","internalType":"uint24"},{"name":"lendingRealReserve0","type":"uint112","internalType":"uint112"},{"name":"lendingRealReserve1","type":"uint112","internalType":"uint112"},{"name":"lendingMirrorReserve0","type":"uint112","internalType":"uint112"},{"name":"lendingMirrorReserve1","type":"uint112","internalType":"uint112"},{"name":"truncatedReserve0","type":"uint112","internalType":"uint112"},{"name":"truncatedReserve1","type":"uint112","internalType":"uint112"},{"name":"rate0CumulativeLast","type":"uint256","internalType":"uint256"},{"name":"rate1CumulativeLast","type":"uint256","internalType":"uint256"},{"name":"key","type":"tuple","internalType":"struct PoolKey","components":[{"name":"currency0","type":"address","internalType":"Currency"},{"name":"currency1","type":"address","internalType":"Currency"},{"name":"fee","type":"uint24","internalType":"uint24"},{"name":"tickSpacing","type":"int24","internalType":"int24"},{"name":"hooks","type":"address","internalType":"contract IHooks"}]}]}],"stateMutability":"view"},{"type":"function","name":"handleAddLiquidity","inputs":[{"name":"sender","type":"address","internalType":"address"},{"name":"key","type":"tuple","internalType":"struct PoolKey","components":[{"name":"currency0","type":"address","internalType":"Currency"},{"name":"currency1","type":"address","internalType":"Currency"},{"name":"fee","type":"uint24","internalType":"uint24"},{"name":"tickSpacing","type":"int24","internalType":"int24"},{"name":"hooks","type":"address","internalType":"contract IHooks"}]},{"name":"amount0","type":"uint256","internalType":"uint256"},{"name":"amount1","type":"uint256","internalType":"uint256"}],"outputs":[],"stateMutability":"nonpayable"},{"type":"function","name":"handleCollectFees","inputs":[{"name":"recipient","type":"address","internalType":"address"},{"name":"currency","type":"address","internalType":"Currency"},{"name":"amount","type":"uint256","internalType":"uint256"}],"outputs":[{"name":"amountCollected","type":"uint256","internalType":"uint256"}],"stateMutability":"nonpayable"},{"type":"function","name":"handleMargin","inputs":[{"name":"_positionManager","type":"address","internalType":"address"},{"name":"sender","type":"address","internalType":"address"},{"name":"status","type":"tuple","internalType":"struct PoolStatus","components":[{"name":"blockTimestampLast","type":"uint32","internalType":"uint32"},{"name":"realReserve0","type":"uint112","internalType":"uint112"},{"name":"realReserve1","type":"uint112","internalType":"uint112"},{"name":"mirrorReserve0","type":"uint112","internalType":"uint112"},{"name":"mirrorReserve1","type":"uint112","internalType":"uint112"},{"name":"marginFee","type":"uint24","internalType":"uint24"},{"name":"lendingRealReserve0","type":"uint112","internalType":"uint112"},{"name":"lendingRealReserve1","type":"uint112","internalType":"uint112"},{"name":"lendingMirrorReserve0","type":"uint112","internalType":"uint112"},{"name":"lendingMirrorReserve1","type":"uint112","internalType":"uint112"},{"name":"truncatedReserve0","type":"uint112","internalType":"uint112"},{"name":"truncatedReserve1","type":"uint112","internalType":"uint112"},{"name":"rate0CumulativeLast","type":"uint256","internalType":"uint256"},{"name":"rate1CumulativeLast","type":"uint256","internalType":"uint256"},{"name":"key","type":"tuple","internalType":"struct PoolKey","components":[{"name":"currency0","type":"address","internalType":"Currency"},{"name":"currency1","type":"address","internalType":"Currency"},{"name":"fee","type":"uint24","internalType":"uint24"},{"name":"tickSpacing","type":"int24","internalType":"int24"},{"name":"hooks","type":"address","internalType":"contract IHooks"}]}]},{"name":"paramsVo","type":"tuple","internalType":"struct MarginParamsVo","components":[{"name":"params","type":"tuple","internalType":"struct MarginParams","components":[{"name":"poolId","type":"bytes32","internalType":"PoolId"},{"name":"marginForOne","type":"bool","internalType":"bool"},{"name":"leverage","type":"uint24","internalType":"uint24"},{"name":"marginAmount","type":"uint256","internalType":"uint256"},{"name":"borrowAmount","type":"uint256","internalType":"uint256"},{"name":"borrowMaxAmount","type":"uint256","internalType":"uint256"},{"name":"recipient","type":"address","internalType":"address"},{"name":"deadline","type":"uint256","internalType":"uint256"}]},{"name":"marginTotal","type":"uint256","internalType":"uint256"},{"name":"minMarginLevel","type":"uint24","internalType":"uint24"},{"name":"marginCurrency","type":"address","internalType":"Currency"}]}],"outputs":[{"name":"marginAmount","type":"uint256","internalType":"uint256"},{"name":"marginWithoutFee","type":"uint256","internalType":"uint256"},{"name":"borrowAmount","type":"uint256","internalType":"uint256"}],"stateMutability":"nonpayable"},{"type":"function","name":"handleRelease","inputs":[{"name":"sender","type":"address","internalType":"address"},{"name":"status","type":"tuple","internalType":"struct PoolStatus","components":[{"name":"blockTimestampLast","type":"uint32","internalType":"uint32"},{"name":"realReserve0","type":"uint112","internalType":"uint112"},{"name":"realReserve1","type":"uint112","internalType":"uint112"},{"name":"mirrorReserve0","type":"uint112","internalType":"uint112"},{"name":"mirrorReserve1","type":"uint112","internalType":"uint112"},{"name":"marginFee","type":"uint24","internalType":"uint24"},{"name":"lendingRealReserve0","type":"uint112","internalType":"uint112"},{"name":"lendingRealReserve1","type":"uint112","internalType":"uint112"},{"name":"lendingMirrorReserve0","type":"uint112","internalType":"uint112"},{"name":"lendingMirrorReserve1","type":"uint112","internalType":"uint112"},{"name":"truncatedReserve0","type":"uint112","internalType":"uint112"},{"name":"truncatedReserve1","type":"uint112","internalType":"uint112"},{"name":"rate0CumulativeLast","type":"uint256","internalType":"uint256"},{"name":"rate1CumulativeLast","type":"uint256","internalType":"uint256"},{"name":"key","type":"tuple","internalType":"struct PoolKey","components":[{"name":"currency0","type":"address","internalType":"Currency"},{"name":"currency1","type":"address","internalType":"Currency"},{"name":"fee","type":"uint24","internalType":"uint24"},{"name":"tickSpacing","type":"int24","internalType":"int24"},{"name":"hooks","type":"address","internalType":"contract IHooks"}]}]},{"name":"params","type":"tuple","internalType":"struct ReleaseParams","components":[{"name":"poolId","type":"bytes32","internalType":"PoolId"},{"name":"marginForOne","type":"bool","internalType":"bool"},{"name":"payer","type":"address","internalType":"address"},{"name":"debtAmount","type":"uint256","internalType":"uint256"},{"name":"repayAmount","type":"uint256","internalType":"uint256"},{"name":"releaseAmount","type":"uint256","internalType":"uint256"},{"name":"rawBorrowAmount","type":"uint256","internalType":"uint256"},{"name":"deadline","type":"uint256","internalType":"uint256"}]}],"outputs":[{"name":"","type":"uint256","internalType":"uint256"}],"stateMutability":"nonpayable"},{"type":"function","name":"handleRemoveLiquidity","inputs":[{"name":"sender","type":"address","internalType":"address"},{"name":"key","type":"tuple","internalType":"struct PoolKey","components":[{"name":"currency0","type":"address","internalType":"Currency"},{"name":"currency1","type":"address","internalType":"Currency"},{"name":"fee","type":"uint24","internalType":"uint24"},{"name":"tickSpacing","type":"int24","internalType":"int24"},{"name":"hooks","type":"address","internalType":"contract IHooks"}]},{"name":"amount0","type":"uint256","internalType":"uint256"},{"name":"amount1","type":"uint256","internalType":"uint256"}],"outputs":[],"stateMutability":"nonpayable"},{"type":"function","name":"handleSwapMirror","inputs":[{"name":"sender","type":"address","internalType":"address"},{"name":"currency","type":"address","internalType":"Currency"},{"name":"amount","type":"uint256","internalType":"uint256"}],"outputs":[],"stateMutability":"nonpayable"},{"type":"function","name":"hooks","inputs":[],"outputs":[{"name":"","type":"address","internalType":"contract IHooks"}],"stateMutability":"view"},{"type":"function","name":"initialize","inputs":[{"name":"key","type":"tuple","internalType":"struct PoolKey","components":[{"name":"currency0","type":"address","internalType":"Currency"},{"name":"currency1","type":"address","internalType":"Currency"},{"name":"fee","type":"uint24","internalType":"uint24"},{"name":"tickSpacing","type":"int24","internalType":"int24"},{"name":"hooks","type":"address","internalType":"contract IHooks"}]}],"outputs":[],"stateMutability":"nonpayable"},{"type":"function","name":"lendingPoolManager","inputs":[],"outputs":[{"name":"","type":"address","internalType":"contract ILendingPoolManager"}],"stateMutability":"view"},{"type":"function","name":"margin","inputs":[{"name":"sender","type":"address","internalType":"address"},{"name":"status","type":"tuple","internalType":"struct PoolStatus","components":[{"name":"blockTimestampLast","type":"uint32","internalType":"uint32"},{"name":"realReserve0","type":"uint112","internalType":"uint112"},{"name":"realReserve1","type":"uint112","internalType":"uint112"},{"name":"mirrorReserve0","type":"uint112","internalType":"uint112"},{"name":"mirrorReserve1","type":"uint112","internalType":"uint112"},{"name":"marginFee","type":"uint24","internalType":"uint24"},{"name":"lendingRealReserve0","type":"uint112","internalType":"uint112"},{"name":"lendingRealReserve1","type":"uint112","internalType":"uint112"},{"name":"lendingMirrorReserve0","type":"uint112","internalType":"uint112"},{"name":"lendingMirrorReserve1","type":"uint112","internalType":"uint112"},{"name":"truncatedReserve0","type":"uint112","internalType":"uint112"},{"name":"truncatedReserve1","type":"uint112","internalType":"uint112"},{"name":"rate0CumulativeLast","type":"uint256","internalType":"uint256"},{"name":"rate1CumulativeLast","type":"uint256","internalType":"uint256"},{"name":"key","type":"tuple","internalType":"struct PoolKey","components":[{"name":"currency0","type":"address","internalType":"Currency"},{"name":"currency1","type":"address","internalType":"Currency"},{"name":"fee","type":"uint24","internalType":"uint24"},{"name":"tickSpacing","type":"int24","internalType":"int24"},{"name":"hooks","type":"address","internalType":"contract IHooks"}]}]},{"name":"paramsVo","type":"tuple","internalType":"struct MarginParamsVo","components":[{"name":"params","type":"tuple","internalType":"struct MarginParams","components":[{"name":"poolId","type":"bytes32","internalType":"PoolId"},{"name":"marginForOne","type":"bool","internalType":"bool"},{"name":"leverage","type":"uint24","internalType":"uint24"},{"name":"marginAmount","type":"uint256","internalType":"uint256"},{"name":"borrowAmount","type":"uint256","internalType":"uint256"},{"name":"borrowMaxAmount","type":"uint256","internalType":"uint256"},{"name":"recipient","type":"address","internalType":"address"},{"name":"deadline","type":"uint256","internalType":"uint256"}]},{"name":"marginTotal","type":"uint256","internalType":"uint256"},{"name":"minMarginLevel","type":"uint24","internalType":"uint24"},{"name":"marginCurrency","type":"address","internalType":"Currency"}]}],"outputs":[{"name":"","type":"tuple","internalType":"struct MarginParamsVo","components":[{"name":"params","type":"tuple","internalType":"struct MarginParams","components":[{"name":"poolId","type":"bytes32","internalType":"PoolId"},{"name":"marginForOne","type":"bool","internalType":"bool"},{"name":"leverage","type":"uint24","internalType":"uint24"},{"name":"marginAmount","type":"uint256","internalType":"uint256"},{"name":"borrowAmount","type":"uint256","internalType":"uint256"},{"name":"borrowMaxAmount","type":"uint256","internalType":"uint256"},{"name":"recipient","type":"address","internalType":"address"},{"name":"deadline","type":"uint256","internalType":"uint256"}]},{"name":"marginTotal","type":"uint256","internalType":"uint256"},{"name":"minMarginLevel","type":"uint24","internalType":"uint24"},{"name":"marginCurrency","type":"address","internalType":"Currency"}]}],"stateMutability":"payable"},{"type":"function","name":"marginFees","inputs":[],"outputs":[{"name":"","type":"address","internalType":"contract IMarginFees"}],"stateMutability":"view"},{"type":"function","name":"marginLiquidity","inputs":[],"outputs":[{"name":"","type":"address","internalType":"contract IMarginLiquidity"}],"stateMutability":"view"},{"type":"function","name":"mirrorInRealOut","inputs":[{"name":"poolId","type":"bytes32","internalType":"PoolId"},{"name":"status","type":"tuple","internalType":"struct PoolStatus","components":[{"name":"blockTimestampLast","type":"uint32","internalType":"uint32"},{"name":"realReserve0","type":"uint112","internalType":"uint112"},{"name":"realReserve1","type":"uint112","internalType":"uint112"},{"name":"mirrorReserve0","type":"uint112","internalType":"uint112"},{"name":"mirrorReserve1","type":"uint112","internalType":"uint112"},{"name":"marginFee","type":"uint24","internalType":"uint24"},{"name":"lendingRealReserve0","type":"uint112","internalType":"uint112"},{"name":"lendingRealReserve1","type":"uint112","internalType":"uint112"},{"name":"lendingMirrorReserve0","type":"uint112","internalType":"uint112"},{"name":"lendingMirrorReserve1","type":"uint112","internalType":"uint112"},{"name":"truncatedReserve0","type":"uint112","internalType":"uint112"},{"name":"truncatedReserve1","type":"uint112","internalType":"uint112"},{"name":"rate0CumulativeLast","type":"uint256","internalType":"uint256"},{"name":"rate1CumulativeLast","type":"uint256","internalType":"uint256"},{"name":"key","type":"tuple","internalType":"struct PoolKey","components":[{"name":"currency0","type":"address","internalType":"Currency"},{"name":"currency1","type":"address","internalType":"Currency"},{"name":"fee","type":"uint24","internalType":"uint24"},{"name":"tickSpacing","type":"int24","internalType":"int24"},{"name":"hooks","type":"address","internalType":"contract IHooks"}]}]},{"name":"currency","type":"address","internalType":"Currency"},{"name":"amount","type":"uint256","internalType":"uint256"}],"outputs":[{"name":"success","type":"bool","internalType":"bool"}],"stateMutability":"nonpayable"},{"type":"function","name":"mirrorTokenManager","inputs":[],"outputs":[{"name":"","type":"address","internalType":"contract IMirrorTokenManager"}],"stateMutability":"view"},{"type":"function","name":"owner","inputs":[],"outputs":[{"name":"","type":"address","internalType":"address"}],"stateMutability":"view"},{"type":"function","name":"poolManager","inputs":[],"outputs":[{"name":"","type":"address","internalType":"contract IPoolManager"}],"stateMutability":"view"},{"type":"function","name":"positionManagers","inputs":[{"name":"","type":"address","internalType":"address"}],"outputs":[{"name":"","type":"bool","internalType":"bool"}],"stateMutability":"view"},{"type":"function","name":"release","inputs":[{"name":"sender","type":"address","internalType":"address"},{"name":"status","type":"tuple","internalType":"struct PoolStatus","components":[{"name":"blockTimestampLast","type":"uint32","internalType":"uint32"},{"name":"realReserve0","type":"uint112","internalType":"uint112"},{"name":"realReserve1","type":"uint112","internalType":"uint112"},{"name":"mirrorReserve0","type":"uint112","internalType":"uint112"},{"name":"mirrorReserve1","type":"uint112","internalType":"uint112"},{"name":"marginFee","type":"uint24","internalType":"uint24"},{"name":"lendingRealReserve0","type":"uint112","internalType":"uint112"},{"name":"lendingRealReserve1","type":"uint112","internalType":"uint112"},{"name":"lendingMirrorReserve0","type":"uint112","internalType":"uint112"},{"name":"lendingMirrorReserve1","type":"uint112","internalType":"uint112"},{"name":"truncatedReserve0","type":"uint112","internalType":"uint112"},{"name":"truncatedReserve1","type":"uint112","internalType":"uint112"},{"name":"rate0CumulativeLast","type":"uint256","internalType":"uint256"},{"name":"rate1CumulativeLast","type":"uint256","internalType":"uint256"},{"name":"key","type":"tuple","internalType":"struct PoolKey","components":[{"name":"currency0","type":"address","internalType":"Currency"},{"name":"currency1","type":"address","internalType":"Currency"},{"name":"fee","type":"uint24","internalType":"uint24"},{"name":"tickSpacing","type":"int24","internalType":"int24"},{"name":"hooks","type":"address","internalType":"contract IHooks"}]}]},{"name":"params","type":"tuple","internalType":"struct ReleaseParams","components":[{"name":"poolId","type":"bytes32","internalType":"PoolId"},{"name":"marginForOne","type":"bool","internalType":"bool"},{"name":"payer","type":"address","internalType":"address"},{"name":"debtAmount","type":"uint256","internalType":"uint256"},{"name":"repayAmount","type":"uint256","internalType":"uint256"},{"name":"releaseAmount","type":"uint256","internalType":"uint256"},{"name":"rawBorrowAmount","type":"uint256","internalType":"uint256"},{"name":"deadline","type":"uint256","internalType":"uint256"}]}],"outputs":[{"name":"","type":"uint256","internalType":"uint256"}],"stateMutability":"payable"},{"type":"function","name":"removeLiquidity","inputs":[{"name":"params","type":"tuple","internalType":"struct RemoveLiquidityParams","components":[{"name":"poolId","type":"bytes32","internalType":"PoolId"},{"name":"level","type":"uint8","internalType":"uint8"},{"name":"liquidity","type":"uint256","internalType":"uint256"},{"name":"amount0Min","type":"uint256","internalType":"uint256"},{"name":"amount1Min","type":"uint256","internalType":"uint256"},{"name":"deadline","type":"uint256","internalType":"uint256"}]}],"outputs":[{"name":"amount0","type":"uint256","internalType":"uint256"},{"name":"amount1","type":"uint256","internalType":"uint256"}],"stateMutability":"nonpayable"},{"type":"function","name":"removePositionManager","inputs":[{"name":"_marginPositionManager","type":"address","internalType":"address"}],"outputs":[],"stateMutability":"nonpayable"},{"type":"function","name":"setBalances","inputs":[{"name":"sender","type":"address","internalType":"address"},{"name":"poolId","type":"bytes32","internalType":"PoolId"}],"outputs":[{"name":"_status","type":"tuple","internalType":"struct PoolStatus","components":[{"name":"blockTimestampLast","type":"uint32","internalType":"uint32"},{"name":"realReserve0","type":"uint112","internalType":"uint112"},{"name":"realReserve1","type":"uint112","internalType":"uint112"},{"name":"mirrorReserve0","type":"uint112","internalType":"uint112"},{"name":"mirrorReserve1","type":"uint112","internalType":"uint112"},{"name":"marginFee","type":"uint24","internalType":"uint24"},{"name":"lendingRealReserve0","type":"uint112","internalType":"uint112"},{"name":"lendingRealReserve1","type":"uint112","internalType":"uint112"},{"name":"lendingMirrorReserve0","type":"uint112","internalType":"uint112"},{"name":"lendingMirrorReserve1","type":"uint112","internalType":"uint112"},{"name":"truncatedReserve0","type":"uint112","internalType":"uint112"},{"name":"truncatedReserve1","type":"uint112","internalType":"uint112"},{"name":"rate0CumulativeLast","type":"uint256","internalType":"uint256"},{"name":"rate1CumulativeLast","type":"uint256","internalType":"uint256"},{"name":"key","type":"tuple","internalType":"struct PoolKey","components":[{"name":"currency0","type":"address","internalType":"Currency"},{"name":"currency1","type":"address","internalType":"Currency"},{"name":"fee","type":"uint24","internalType":"uint24"},{"name":"tickSpacing","type":"int24","internalType":"int24"},{"name":"hooks","type":"address","internalType":"contract IHooks"}]}]}],"stateMutability":"nonpayable"},{"type":"function","name":"setHooks","inputs":[{"name":"_hooks","type":"address","internalType":"contract IHooks"}],"outputs":[],"stateMutability":"nonpayable"},{"type":"function","name":"setStatusManager","inputs":[{"name":"_poolStatusManager","type":"address","internalType":"contract IPoolStatusManager"}],"outputs":[],"stateMutability":"nonpayable"},{"type":"function","name":"statusManager","inputs":[],"outputs":[{"name":"","type":"address","internalType":"contract IPoolStatusManager"}],"stateMutability":"view"},{"type":"function","name":"swap","inputs":[{"name":"sender","type":"address","internalType":"address"},{"name":"key","type":"tuple","internalType":"struct PoolKey","components":[{"name":"currency0","type":"address","internalType":"Currency"},{"name":"currency1","type":"address","internalType":"Currency"},{"name":"fee","type":"uint24","internalType":"uint24"},{"name":"tickSpacing","type":"int24","internalType":"int24"},{"name":"hooks","type":"address","internalType":"contract IHooks"}]},{"name":"params","type":"tuple","internalType":"struct IPoolManager.SwapParams","components":[{"name":"zeroForOne","type":"bool","internalType":"bool"},{"name":"amountSpecified","type":"int256","internalType":"int256"},{"name":"sqrtPriceLimitX96","type":"uint160","internalType":"uint160"}]}],"outputs":[{"name":"specified","type":"address","internalType":"Currency"},{"name":"unspecified","type":"address","internalType":"Currency"},{"name":"specifiedAmount","type":"uint256","internalType":"uint256"},{"name":"unspecifiedAmount","type":"uint256","internalType":"uint256"},{"name":"swapFee","type":"uint24","internalType":"uint24"}],"stateMutability":"nonpayable"},{"type":"function","name":"swapMirror","inputs":[{"name":"recipient","type":"address","internalType":"address"},{"name":"poolId","type":"bytes32","internalType":"PoolId"},{"name":"zeroForOne","type":"bool","internalType":"bool"},{"name":"amountIn","type":"uint256","internalType":"uint256"},{"name":"amountOutMin","type":"uint256","internalType":"uint256"}],"outputs":[{"name":"amountOut","type":"uint256","internalType":"uint256"}],"stateMutability":"payable"},{"type":"function","name":"transferOwnership","inputs":[{"name":"newOwner","type":"address","internalType":"address"}],"outputs":[],"stateMutability":"nonpayable"},{"type":"function","name":"unlockCallback","inputs":[{"name":"data","type":"bytes","internalType":"bytes"}],"outputs":[{"name":"","type":"bytes","internalType":"bytes"}],"stateMutability":"nonpayable"},{"type":"event","name":"Burn","inputs":[{"name":"poolId","type":"bytes32","indexed":true,"internalType":"PoolId"},{"name":"sender","type":"address","indexed":true,"internalType":"address"},{"name":"liquidity","type":"uint256","indexed":false,"internalType":"uint256"},{"name":"amount0","type":"uint256","indexed":false,"internalType":"uint256"},{"name":"amount1","type":"uint256","indexed":false,"internalType":"uint256"},{"name":"level","type":"uint8","indexed":false,"internalType":"uint8"}],"anonymous":false},{"type":"event","name":"Fees","inputs":[{"name":"poolId","type":"bytes32","indexed":true,"internalType":"PoolId"},{"name":"currency","type":"address","indexed":true,"internalType":"Currency"},{"name":"sender","type":"address","indexed":true,"internalType":"address"},{"name":"feeType","type":"uint8","indexed":false,"internalType":"uint8"},{"name":"fee","type":"uint256","indexed":false,"internalType":"uint256"}],"anonymous":false},{"type":"event","name":"Initialize","inputs":[{"name":"id","type":"bytes32","indexed":true,"internalType":"PoolId"},{"name":"currency0","type":"address","indexed":true,"internalType":"Currency"},{"name":"currency1","type":"address","indexed":true,"internalType":"Currency"},{"name":"fee","type":"uint24","indexed":false,"internalType":"uint24"},{"name":"tickSpacing","type":"int24","indexed":false,"internalType":"int24"},{"name":"hooks","type":"address","indexed":false,"internalType":"contract IHooks"}],"anonymous":false},{"type":"event","name":"Mint","inputs":[{"name":"poolId","type":"bytes32","indexed":true,"internalType":"PoolId"},{"name":"sender","type":"address","indexed":true,"internalType":"address"},{"name":"to","type":"address","indexed":true,"internalType":"address"},{"name":"liquidity","type":"uint256","indexed":false,"internalType":"uint256"},{"name":"amount0","type":"uint256","indexed":false,"internalType":"uint256"},{"name":"amount1","type":"uint256","indexed":false,"internalType":"uint256"},{"name":"level","type":"uint8","indexed":false,"internalType":"uint8"}],"anonymous":false},{"type":"event","name":"OwnershipTransferred","inputs":[{"name":"user","type":"address","indexed":true,"internalType":"address"},{"name":"newOwner","type":"address","indexed":true,"internalType":"address"}],"anonymous":false},{"type":"event","name":"Release","inputs":[{"name":"poolId","type":"bytes32","indexed":true,"internalType":"PoolId"},{"name":"borrowCurrency","type":"address","indexed":true,"internalType":"Currency"},{"name":"debtAmount","type":"uint256","indexed":false,"internalType":"uint256"},{"name":"repayAmount","type":"uint256","indexed":false,"internalType":"uint256"},{"name":"burnAmount","type":"uint256","indexed":false,"internalType":"uint256"},{"name":"rawBorrowAmount","type":"uint256","indexed":false,"internalType":"uint256"}],"anonymous":false},{"type":"event","name":"Swap","inputs":[{"name":"poolId","type":"bytes32","indexed":true,"internalType":"PoolId"},{"name":"sender","type":"address","indexed":true,"internalType":"address"},{"name":"amount0","type":"uint256","indexed":false,"internalType":"uint256"},{"name":"amount1","type":"uint256","indexed":false,"internalType":"uint256"},{"name":"fee","type":"uint24","indexed":false,"internalType":"uint24"},{"name":"zeroForOne","type":"bool","indexed":false,"internalType":"bool"},{"name":"feeAmount","type":"uint256","indexed":false,"internalType":"uint256"}],"anonymous":false},{"type":"error","name":"HookAlreadySet","inputs":[]},{"type":"error","name":"InsufficientLiquidityBurnt","inputs":[]},{"type":"error","name":"InsufficientLiquidityMinted","inputs":[]},{"type":"error","name":"InsufficientOutputReceived","inputs":[]},{"type":"error","name":"InsufficientValue","inputs":[]},{"type":"error","name":"InsufficientValue","inputs":[]},{"type":"error","name":"LockFailure","inputs":[]},{"type":"error","name":"LowFeePoolOnlyOneLevel","inputs":[]},{"type":"error","name":"MathOverflowedMulDiv","inputs":[]},{"type":"error","name":"NotAllowed","inputs":[]},{"type":"error","name":"NotPoolManager","inputs":[]},{"type":"error","name":"NotPositionManager","inputs":[]},{"type":"error","name":"NotSelf","inputs":[]},{"type":"error","name":"SafeERC20FailedOperation","inputs":[{"name":"token","type":"address","internalType":"address"}]},{"type":"error","name":"StatusManagerAlreadySet","inputs":[]}],"bytecode":{"object":"0x61010080604052346102df5760a08161581f803803809161002082856102e3565b8339810103126102df5780516001600160a01b03811691908290036102df576020810151916001600160a01b0383168084036102df576040830151916001600160a01b03831683036102df576060840151946001600160a01b038616948587036102df5760800151926001600160a01b03841684036102df576020956044945f936080528460018060a01b03198554161784556040519889978896867f8be0079c531659141344cd1fd0a4f28419497f9722a3daafe3b4186f6b6457e08180a360a05260c05260e05263558a729760e01b84526004840152600160248401525af180156102b7576102c2575b5060a05160c05160405163558a729760e01b81526001600160a01b0391821660048201526001602482015291602091839160449183915f91165af180156102b757610288575b6040516154ec908161033382396080518181816104a801528181610a4201528181610e2d01528181610f5e015281816114b901528181611864015281816118940152818161214a01528181612176015281816123330152818161265201528181612cbb0152818161319c01528181613491015281816135860152818161365e0152818161385a0152818161394c01528181613ce601528181613fbf01526140c4015260a0518181816101b0015281816110b401528181611b230152612ef7015260c051818181610aa301528181610f0901528181611a7401528181611ae601528181611c8a01528181611d3201528181612dd301528181612ea801526136f1015260e0518181816102c0015281816107a501528181610fd3015281816118f5015281816120e3015281816124b90152612f820152f35b6102a99060203d6020116102b0575b6102a181836102e3565b81019061031a565b505f610152565b503d610297565b6040513d5f823e3d90fd5b6102da9060203d6020116102b0576102a181836102e3565b61010c565b5f80fd5b601f909101601f19168101906001600160401b0382119082101761030657604052565b634e487b7160e01b5f52604160045260245ffd5b908160209103126102df575180151581036102df579056fe60806040526004361015610011575f80fd5b5f803560e01c80630776e76e1461408e57806309d1b44814613b1057806312bd6d9e14613aa657806313ac42a714613a7a578063244195d3146139295780632bc5fd851461388b5780633594e7c2146138355780635be39ae8146137a65780635de28ae0146137205780635e6263eb146136db57806364d2756f146135f45780636b4067fe14612d555780638072e28b14612afc5780638161b87414612a8b5780638461d867146124045780638a05a2e6146123b75780638da5cb5b1461239057806391dd7346146122e1578063a4a9e98814612247578063afb427b614611619578063b447325914611541578063bb4dab6d1461136d578063bfb9f86b146111c6578063c3edb7ff14610ec4578063cd7033c414610e9b578063d8d232a214610e5c578063dc4c90d314610e17578063e2f0ab0114610dc7578063e86cb2be14610d9e578063ee7a3dc6146108b3578063f2fde38b14610840578063fb63daa1146107d4578063fb6b0e671461078f578063fea9d06a146101e25763ffcd9d161461019b575f80fd5b346101df57806003193601126101df576040517f00000000000000000000000000000000000000000000000000000000000000006001600160a01b03168152602090f35b80fd5b50346101df5760c03660031901126101df576040519060c0820182811067ffffffffffffffff82111761077b5760405260043582526024359060ff821682036101df576020830191825260408301916044358352606084019260643584526080850192608435845261025e60a4358060a0890152421115614b37565b6002548651604051632bc5fd8560e01b8152336004820152602481019190915290610260908290604490829086906001600160a01b03165af190811561058c57829161074c575b50865160405163db620f4f60e01b81526004810191909152957f00000000000000000000000000000000000000000000000000000000000000006001600160a01b031695906020886024818a5afa97881561074157849861070d575b506001600160701b03610313846152bd565b16976001600160701b036103268561529e565b169760405163d5ffe20960e01b8152826004820152606081602481855afa928315610702578790889289956106ca575b50602090608460ff8d5116918b8d5197604051988995869463fd32826f60e01b86523360048701526024860152604485015260648401525af19283156106bf57908c9392918993610684575b50828a5260208801516001600160701b0316928160408a01516001600160701b0316956103ce926151f9565b9c8c828c51916103dd926151f9565b9c8c5160ff16966003881480159861042699610679575b50610648575b505060ff8c51166002811490811561063d575b50610613575b5050508a11159081610608575b50614ccd565b87158015610600575b6105f157519081151591826105e7575b5081156105ca575b506105bb5781866104896101c06104a394015161047b8960405194859363244195d360e01b60208601523360248601614b8a565b03601f1981018352826143c4565b604051809381926348c8949160e01b835260048301614644565b0381837f00000000000000000000000000000000000000000000000000000000000000006001600160a01b03165af1801561058c5761059b575b5060018060a01b03600254168651813b15610597578291602483926040519485938492638b14724560e01b845260048401525af1801561058c57610577575b5050935193519051604080519283526020830185905282810184905260ff90911660608301529333917fc2be77b0137decbf54134864ee86b9011325f158d6c136bbd73e45dbb383cbe790608090a382519182526020820152f35b6105828280926143c4565b6101df578061051c565b6040513d84823e3d90fd5b8280fd5b6105b6903d8084833e6105ae81836143c4565b810190614ab9565b6104dd565b63f262b62160e01b8252600482fd5b518015159150816105dd575b505f610447565b905085105f6105d6565b881091505f61043f565b637435645360e11b8452600484fd5b50861561042f565b90508811155f610420565b61061c926151f9565b808211156106355761062d91614b7d565b5f8080610413565b50508561062d565b60049150145f61040d565b6106569184919793976151f9565b808211156106705761066791614b7d565b935b5f806103fa565b50508893610669565b60049150145f6103f4565b935091506020833d6020116106b7575b816106a1602093836143c4565b810103126106b3578b9251915f6103a2565b5f80fd5b3d9150610694565b6040513d8a823e3d90fd5b909450602092506106f3915060603d6060116106fb575b6106eb81836143c4565b810190614b1c565b949092610356565b503d6106e1565b6040513d89823e3d90fd5b9097506020813d602011610739575b81610729602093836143c4565b810103126106b35751965f610301565b3d915061071c565b6040513d86823e3d90fd5b61076e91506102603d8111610774575b61076681836143c4565b81019061474e565b5f6102a5565b503d61075c565b634e487b7160e01b82526041600452602482fd5b50346101df57806003193601126101df576040517f00000000000000000000000000000000000000000000000000000000000000006001600160a01b03168152602090f35b50346101df5760203660031901126101df576107ee614117565b61080260018060a01b0383541633146146db565b600154906001600160a01b038216610831576001600160a01b03166001600160a01b0319919091161760015580f35b635f7c8ab560e11b8352600483fd5b50346101df5760203660031901126101df5761085a614117565b815490610871336001600160a01b038416146146db565b6001600160a01b03166001600160a01b03199190911681178255337f8be0079c531659141344cd1fd0a4f28419497f9722a3daafe3b4186f6b6457e08380a380f35b5060a03660031901126101df576108c8614117565b604435916024358315158403610b3e57600254604051632bc5fd8560e01b8152336004820152602481018390529460643594608435929091869161026090899060449082908a906001600160a01b03165af1908115610c3b5786979861095a9792610d7d575b5060608960018060a01b036002541660405180809b819463206a728560e21b8352878960048501614941565b03915afa9485156106bf5788978996610d44575b508115610d2d576109916001600160701b03806080860151165b16891115614ccd565b8015159081610d23575b50610d14576101c0919015610cf757015180516020909101516001600160a01b03918216929116905b6001600160a01b03831693888515610cd6575b899a50988981999a610c5e575b50604051631aca73e160e11b60208201523360248201526001600160a01b03861660448201526064810193909352610a3d92610a23816084810161047b565b604051809481926348c8949160e01b835260048301614644565b0381837f00000000000000000000000000000000000000000000000000000000000000006001600160a01b03165af19081156106bf576020928892610c46575b50610a9e8a6040519586948594636aa0852360e01b86523360048701614c6b565b0381897f00000000000000000000000000000000000000000000000000000000000000006001600160a01b03165af18015610c3b57610c08575b5082610b4d575b50506002546001600160a01b03169050803b1561059757602483926040519485938492638b14724560e01b845260048401525af18015610b4257610b29575b602082604051908152f35b610b348380926143c4565b610b3e5781610b1e565b5080fd5b6040513d85823e3d90fd5b60025460405163096b565360e11b81526001600160a01b0392831660048201526024810194909452602091849160449183918991165af1918215610741578492610bd1575b50604080515f81526020810193909352339284917f43473e5e46598b12a9d6961219fd5cf4e66ec4f6653d7206553a25c454687c8e91a45f8080610adf565b935090506020833d602011610c00575b81610bee602093836143c4565b810103126106b357849251905f610b92565b3d9150610be1565b94506020853d602011610c33575b81610c23602093836143c4565b810103126106b357869451610ad8565b3d9150610c16565b6040513d88823e3d90fd5b610c59903d808c833e6105ae81836143c4565b610a7d565b9192505080803411610c75575b88909291926109e4565b978080610c858194959b34614b7d565b335af1610c90615036565b5015610c9f579588965f610c6b565b60405162461bcd60e51b815260206004820152600f60248201526e1514905394d1915497d19052531151608a1b6044820152606490fd5b50893410610ce85797988998906109d7565b63044044a560e21b8952600489fd5b0151602081015190516001600160a01b03918216929116906109c4565b63f262b62160e01b8852600488fd5b905087105f61099b565b6109916001600160701b0380606086015116610988565b909550610d6a91975060603d606011610d76575b610d6281836143c4565b81019061491f565b9791905096945f61096e565b503d610d58565b610d979192506102603d81116107745761076681836143c4565b905f61092e565b50346101df57806003193601126101df576002546040516001600160a01b039091168152602090f35b50346101df5760203660031901126101df57610de1614117565b610df560018060a01b0383541633146146db565b6001600160a01b03168152600360205260408120805460ff1916600117905580f35b50346101df57806003193601126101df576040517f00000000000000000000000000000000000000000000000000000000000000006001600160a01b03168152602090f35b50346101df5760203660031901126101df5760209060ff906040906001600160a01b03610e87614117565b168152600384522054166040519015158152f35b50346101df57806003193601126101df576001546040516001600160a01b039091168152602090f35b50346101df576102c03660031901126101df5760043590610ee43661445a565b610284356001600160a01b0381169391929190848103610597576102a43593610f37337f00000000000000000000000000000000000000000000000000000000000000006001600160a01b0316146146db565b604051627eeac760e11b815230600482015260248101879052939586946001600160a01b037f0000000000000000000000000000000000000000000000000000000000000000169290602081604481875afa908115610702579088918891611191575b5011610fae575b6020886040519015158152f35b604051630ead1e7d60e01b81529060808280610fcf848a3060048501614bcf565b03817f00000000000000000000000000000000000000000000000000000000000000006001600160a01b03165afa90811561070257908389939289938a93611157575b506101c00151516001600160a01b03160361115057505b1015611036575b80610fa1565b6040516304ade6db60e11b815233600482015260248101919091526044810186905295506020908690606490829087905af1948515610b42578394956110829450611133575b506150aa565b604051637f4c824d60e11b815233600482015230602482015260448101919091526064810192909252602082608481847f00000000000000000000000000000000000000000000000000000000000000006001600160a01b03165af190811561112757506110fa575b50600160205f80808080611030565b61111b9060203d602011611120575b61111381836143c4565b810190614963565b6110eb565b503d611109565b604051903d90823e3d90fd5b61114b9060203d6020116111205761111381836143c4565b61107c565b9050611029565b90925061117d91935060803d60801161118a575b61117581836143c4565b810190614c36565b949250905092915f611012565b503d61116b565b9150506020813d6020116111be575b816111ad602093836143c4565b810103126106b3578790515f610f9a565b3d91506111a0565b50346101df57366003190160a08112610b3e576111ee60018060a01b036001541633146146db565b6002546001600160a01b0316803b156105975760405163bfb9f86b60e01b8152916001600160a01b0361121f614117565b1660048401526001600160a01b0361123561412d565b1660248401526044359262ffffff84169384810361136957846044830152606435908160020b9384830361136557846064850152876084359460018060a01b03861697888703610597578160a4818580948d60848401525af1801561058c57611350575b505060a01361134c57604051946112af8661438b565b6004356001600160a01b0381169690959087870361134857868152602435906001600160a01b0382168203611344577f3fd553db44f207b1f41348cfc4d251860814af9eadc470e8e7895e4d120511f49660609660a0936020840152866040840152878301526080820152209550611325614684565b92506040519788526020880152604087015260018060a01b031694a480f35b8a80fd5b8980fd5b8680fd5b8161135a916143c4565b61136557875f611299565b8780fd5b8580fd5b506103803660031901126101df57611383614117565b61138c3661445a565b61010036610283190112610597576040516113a68161436e565b6102843581526102a435801515810361153d57602082019081526102c4356001600160a01b03811681036113695760408301908152606083016102e4358152608084019161030435835260a085019361032435855260c086019561034435875260e0810197610364358952338b52600360205260ff60408c2054161561152e57916114b4999795939161145f8c9a9896946040519a6335a033ff60e11b60208d015260018060a01b031660248c015260448b01906141d5565b516102a48901525115156102c4880152516001600160a01b03166102e487015251610304860152516103248501525161034484015251610364830152516103848083019190915281526104896103a4826143c4565b0381837f00000000000000000000000000000000000000000000000000000000000000006001600160a01b03165af1918215611127578092611513575b5050602081519181808201938492010103126106b35760209051604051908152f35b61152792503d8091833e6105ae81836143c4565b5f806114f1565b63041fb8cb60e31b8b5260048bfd5b8480fd5b50346101df576115503661431b565b6002546040516302ef145760e51b815260048101949094529192916001600160a01b031661026083602481845afa93841561160e576115b19460609487916115ef575b50604051637987bed160e11b81529586948593849360048501614941565b03915afa90811561058c57602092916115ce575b50604051908152f35b6115e7915060603d606011610d7657610d6281836143c4565b50505f6115c5565b61160891506102603d81116107745761076681836143c4565b5f611593565b6040513d87823e3d90fd5b50346101df576104003660031901126101df57611634614117565b61163c61412d565b906102603660431901126105975760405191611657836143a7565b60443563ffffffff8116810361153d5783526064356001600160701b038116810361153d5760208401526084356001600160701b038116810361153d57604084015260a4356001600160701b038116810361153d57606084015260c4356001600160701b038116810361153d57608084015260e43562ffffff8116810361153d5760a0840152610104356001600160701b038116810361153d5760c0840152610124356001600160701b038116810361153d5760e0840152610144356001600160701b038116810361153d57610100840152610164356001600160701b038116810361153d57610120840152610184356001600160701b038116810361153d576101408401526101a4356001600160701b038116810361153d576101608401526101c4356101808401526101e4356101a0840152611797366102046143e6565b6101c0840152366102a31901610160811261153d573033036122385761010013611c4c576040516117c78161436e565b6102a43581526102c43580151581036113695760208201526102e43562ffffff811681036113695760408201526103043560608201526103243560808201526103443560a0820152610364356001600160a01b03811681036113695760c08201526103843560e0820152602081015115612218576101c084015180516020909101516001600160a01b039081169591165b866118896060850151867f00000000000000000000000000000000000000000000000000000000000000008a614d0e565b6118b96060850151307f00000000000000000000000000000000000000000000000000000000000000008a614ee4565b604084015162ffffff161561201c57509082916080826118f19695516040519788928392630ead1e7d60e01b84523060048501614bcf565b03817f00000000000000000000000000000000000000000000000000000000000000006001600160a01b03165afa9485156106bf578895898a928b92611ff3575b5060208601511580159890611feb5750965b15611fe35750955b611964606085015162ffffff60408701511690614c58565b809610611faa576002546020850151604051637987bed160e11b81528b97926001600160a01b031691606090829081906119a6908d9015158b60048501614941565b0381855afa80156106bf576119c6918991611f89575b50809a1015614bf8565b8762ffffff60a08701511680155f14611f7a5750506020600491604051928380926313ac42a760e01b82525afa908115610702576004916020918991611f4d575b5060405163b67df1c360e01b815292839182906001600160a01b03165afa80156107025788918891611f09575b50611a4991611a42916152dc565b8098614b7d565b9660208a8751611a6f60405194859384936372a6b5df60e01b8552898960048701614c6b565b03818a7f00000000000000000000000000000000000000000000000000000000000000006001600160a01b03165af1908115610702578791611ed4575b50965b80611dfe575b5090602091611ae186519a6060880151906040519c8d9586956372a6b5df60e01b875260048701614c6b565b0381877f00000000000000000000000000000000000000000000000000000000000000006001600160a01b03165af1968715610741578497611dc7575b5082517f00000000000000000000000000000000000000000000000000000000000000006001600160a01b031690611b5690836150aa565b813b15611369578591604483926040519485938492630d9778e560e11b845260048401528c60248401525af190811561160e578591611db2575b50506101c0820151516001600160a01b03918216911603611d8657611bc26001600160701b0360608301511686614a90565b906001600160701b03608082015116915b80611cf4575b5081611c50575b50506002549051906001600160a01b0316803b1561059757602483926040519485938492638b14724560e01b845260048401525af1801561160e57611c37575b506060935060405192835260208301526040820152f35b611c428580926143c4565b611c4c5783611c20565b8380fd5b6020908351611c8560018060a01b03846101c085015101511694604051958694859463c3edb7ff60e01b865260048601614c9d565b0381867f00000000000000000000000000000000000000000000000000000000000000006001600160a01b03165af18015610b4257611cc5575b80611be0565b611ce69060203d602011611ced575b611cde81836143c4565b81019061497b565b505f611cbf565b503d611cd4565b83516101c08301515160405163c3edb7ff60e01b81529260209284928392611d2d9290916001600160a01b031690889060048601614c9d565b0381887f00000000000000000000000000000000000000000000000000000000000000006001600160a01b03165af1801561160e5715611bd957611d7f9060203d602011611ced57611cde81836143c4565b505f611bd9565b6001600160701b0360608201511690611dac6001600160701b0360808301511687614a90565b91611bd3565b81611dbc916143c4565b611c4c57835f611b90565b935095506020833d602011611df6575b81611de4602093836143c4565b810103126106b357869251955f611b1e565b3d9150611dd7565b60025460405163236668f160e11b81526001600160a01b038c81166004830152602482019390935291602091839160449183918c91165af18015610702578a918891611e97575b5086516040805160018152602081810194909452929594936001600160a01b0380861694911692917f43473e5e46598b12a9d6961219fd5cf4e66ec4f6653d7206553a25c454687c8e91a49091611ab5565b9392975050506020823d602011611ecc575b81611eb6602093836143c4565b810103126106b357905189959089906020611e45565b3d9150611ea9565b9650506020863d602011611f01575b81611ef0602093836143c4565b810103126106b3578995515f611aac565b3d9150611ee3565b9150506020813d602011611f45575b81611f25602093836143c4565b8101031261134c57611a4288611f3d611a499361472a565b915091611a34565b3d9150611f18565b611f6d9150823d8411611f73575b611f6581836143c4565b81019061498a565b5f611a07565b503d611f5b565b611a49925090611a42916152dc565b611fa2915060603d606011610d7657610d6281836143c4565b50505f6119bc565b60405162461bcd60e51b815260206004820152601160248201527009a82a48e929cbe9c9ea8be8a9c9eaa8e9607b1b6044820152606490fd5b90509561194c565b905096611944565b9250505061201191955060803d60801161118a5761117581836143c4565b92969290915f611932565b939461203360208501511560608601519085614faa565b602085015115612205576001600160701b036020850151165b6001600160701b03818116601402908116036121f157906001600160701b036064816014818e9a999897961602160416906103c4359062ffffff8216908183036121ed5761209a92506150da565b90808210156121e657505b608085015180156121df57808210156121d857505b965b6120df604085875182519384928392630352520960e61b84523060048501614bcf565b03817f00000000000000000000000000000000000000000000000000000000000000006001600160a01b03165afa801561070257612136918a9189918a916121a7575b506020890151156121a057505b1015614bf8565b87612143575b8596611aaf565b61216f88307f000000000000000000000000000000000000000000000000000000000000000086614e7f565b61219b88827f000000000000000000000000000000000000000000000000000000000000000086614f32565b61213c565b905061212f565b90506121cb915060403d6040116121d1575b6121c381836143c4565b810190614bb9565b5f612122565b503d6121b9565b90506120ba565b50966120bc565b90506120a5565b8880fd5b634e487b7160e01b8a52601160045260248afd5b6001600160701b0360408501511661204c565b6101c0840151602081015190516001600160a01b03908116959116611858565b6314e1dbf760e11b8552600485fd5b50346101df5760203660031901126101df576002546040516302ef145760e51b815260048035908201529061026090829060249082906001600160a01b03165afa90811561058c57604092916122c2575b506001600160701b036122b5816122ae846152bd565b169261529e565b1682519182526020820152f35b6122db91506102603d81116107745761076681836143c4565b5f612298565b50346101df5760203660031901126101df5760043567ffffffffffffffff8111610b3e5736602382011215610b3e5780600401359167ffffffffffffffff83116101df5736602484840101116101df577f00000000000000000000000000000000000000000000000000000000000000006001600160a01b031633036123815761237d6123718460248501615065565b60405191829182614644565b0390f35b63570c108560e11b8152600490fd5b50346101df57806003193601126101df57546040516001600160a01b039091168152602090f35b50346101df5760203660031901126101df576123d1614117565b6123e560018060a01b0383541633146146db565b6001600160a01b03168152600360205260408120805460ff1916905580f35b506101003660031901126101df576124204260e4351015614b37565b600254604051632bc5fd8560e01b81523360048083019190915235602482018190529091610260908390604490829087906001600160a01b03165af1918215610b42578392612a6a575b50600160ff612477614b6d565b161180612a51575b612a42576101c082018051519092906001600160a01b03161580612a36575b612a275760405163db620f4f60e01b815260048101839052927f00000000000000000000000000000000000000000000000000000000000000006001600160a01b03169290602085602481875afa948515610c3b5786956129f3575b50604051627eeac760e11b81523060048201526024810186905293602085604481845afa9485156107025787956129bf575b50602435956044356001600160701b0361255081612549896152bd565b169761529e565b1696861515806129b6575b156129945761256b87898b6151f9565b9180831161291e575060843582106128e2576125978a92986125908b995b848b6151f9565b928a6151f9565b808210156128db57505b975b868111806128c8575b612788575b50508615612779579087916125c46146b1565b906125cd614b6d565b92803b1561153d5784928360a49260ff604051978896879563e8101f0b60e01b875233600488015260018060a01b0316602487015260448601521660648401528c60848401525af190811561058c578591612761575b5061048961264d935161047b886040519485936303bb73b760e11b60208601523360248601614b8a565b0381837f00000000000000000000000000000000000000000000000000000000000000006001600160a01b03165af18015610c3b57612749575b5060025485906001600160a01b0316803b15610b3e578190602460405180948193638b14724560e01b83528760048401525af18015610c3b57612734575b50602094507fdca088c2fe7922b62f9f0baee7a00b0de372311b1be3abea418c21f93dbc4a6d6126f36146b1565b6126fb614b6d565b60408051888152602081019690965285019590955260ff90941660608401526001600160a01b03909316923392608090a4604051908152f35b61273f8680926143c4565b61153d57846126c5565b61275c903d8088833e6105ae81836143c4565b612687565b8280925061276e916143c4565b6101df57835f612623565b633489be7560e21b8852600488fd5b8451516001600160a01b0316906127a0908890614b7d565b9080612817575081808092335af1156127bb575b875f6125b1565b6040516390bfb86560e01b81523360048201526024810189905260806044820152601f3d01601f191660a0810160648301523d60848301523d8a60a484013e808201600460a482015260c4633d2cec6f60e21b91015260e40190fd5b91506040519063a9059cbb60e01b8252336004830152602482015289604060208260448582885af13d15601f3d1160018551141617169282815282602082015201521561286457506127b4565b6040516390bfb86560e01b8152600481019190915263a9059cbb60e01b602482015260806044820152601f3d01601f191660a0810160648301523d60848301523d8a60a484013e808201600460a482015260c4633c9fd93960e21b91015260e40190fd5b508451516001600160a01b0316156125ac565b90506125a1565b60405162461bcd60e51b8152602060048201526014602482015273494e53554646494349454e545f414d4f554e543160601b6044820152606490fd5b9697915061292d8289896151f9565b6064358110158061298a575b1561294e578a9261259061259792999a612589565b60405162461bcd60e51b81526020600482015260146024820152730494e53554646494349454e545f414d4f554e54360641b6044820152606490fd5b50808a1015612939565b5094509594506129ac6129a78587614c58565b6152f9565b95878695966125a3565b5087151561255b565b9094506020813d6020116129eb575b816129db602093836143c4565b810103126106b35751935f61252c565b3d91506129ce565b9094506020813d602011612a1f575b81612a0f602093836143c4565b810103126106b35751935f6124fa565b3d9150612a02565b63044044a560e21b8452600484fd5b5034602435141561249e565b6348adeb2160e11b8352600483fd5b50610bb862ffffff60406101c08501510151161061247f565b612a849192506102603d81116107745761076681836143c4565b905f61246a565b50346101df576114b48161047b610489612aa4366142e1565b909390612ac26001600160a01b03612aba6149a9565b1633146146db565b6040516364d2756f60e01b60208201526001600160a01b039384166024820152949092166044850152606484019190915282906084820190565b506103e03660031901126101df57612b12614117565b612b1b3661445a565b366102831901916101608312611c4c5761010060405193612b3b8561433e565b12611c4c57604051612b4c8161436e565b6102843581526102a43580151581036113695760208201526102c43562ffffff811681036113695760408201526102e43560608201526103043560808201526103243560a0820152610344356001600160a01b03811681036113695760c08201526103643560e0820152835260208301916103843583526103a43562ffffff811681036113695760408501526103c4356001600160a01b0381168103611369576060850152846060604051612c008161433e565b604051612c0c8161436e565b83815283602082015283604082015283838201528360808201528360a08201528360c08201528360e082015281528260208201528260408201520152338552600360205260ff60408620541615612d46576040516357da13db60e11b60208201523360248201526001600160a01b039092166044830152612cb6918591612c979060648301906141d5565b612ca56102c48201866145b9565b6104048152610489610424826143c4565b0381837f00000000000000000000000000000000000000000000000000000000000000006001600160a01b03165af190811561074157606091612d0f91866101609792612d2b575b505060208082518301019101614b1c565b91938551926080840152520152612d2960405180926145b9565bf35b612d3f92503d8091833e6105ae81836143c4565b5f80612cfe565b63041fb8cb60e31b8552600485fd5b50346101df576103803660031901126101df57612d70614117565b90612d7a3661445a565b9161010036610283190112610b3e573033036135e557612d986148eb565b156135c5576101c083015180516020909101516001600160a01b039182169491165b61030435926103243590811561357757841561355c575b7f00000000000000000000000000000000000000000000000000000000000000006001600160a01b0316612e0361469a565b926001810180911161354857813b1561136557604051630bbc0f5760e01b81526001600160a01b039384166004820152929093166024830152610284356044830152909286928492610304928492869291612e61606486018b6141d5565b6001600160a01b03166102c48501526102e48401525af1801561074157908491613533575b50505b6102843590612e9882866150aa565b60408051637a94c56560e11b81527f00000000000000000000000000000000000000000000000000000000000000006001600160a01b031660048201819052602482018490526102e4356044830181905294909282806064810103818b7f00000000000000000000000000000000000000000000000000000000000000006001600160a01b03165af19182156106bf578890899361350f575b5082612f3c91614a90565b9388881261350057888612613500578588038881136001166121f1578887146134515787908a938b918c811390815f1461344257955b60408051633a43e9f760e01b81527f00000000000000000000000000000000000000000000000000000000000000006001600160a01b03169690919082908190612fc29088903060048501614bcf565b0381895afa8015613435578f61303192611a429282918391613414575b50612fe86148eb565b1561340c5750905b612ff86148eb565b1590506133e45761302a6001600160701b036130228160c08a015116826101008b0151169061527e565b168092614a90565b908a6151f9565b91156133955761303f6148eb565b1561338557508c811261337657945b8c811261337657945b8a8d821580159061336d575b6132dd575b505050505050816130fa575b505050505f805160206154978339815191526080869785939796975b60408051968752602087018a90528601526103443560608601526001600160a01b031693a36002546001600160a01b0316803b1561059757602483926040519485938492638b14724560e01b845260048401525af18015610b4257610b2957602082604051908152f35b8399933b156121ed57604051636cf95b2960e01b81526004810191909152602481018290528881604481838e5af180156132d2579089916132bd575b5082126132ae5787828201928312911290801582169115161761329a5786978782989798135f14613213576040516304ade6db60e11b81526001600160a01b039182166004820152908316602482015260448101919091529060208280606481010381897f00000000000000000000000000000000000000000000000000000000000000006001600160a01b03165af1908115610c3b5785935f80516020615497833981519152936080936131f4575b505b93819950979697613074565b61320c9060203d6020116111205761111381836143c4565b505f6131e6565b929061321e906148fb565b92803b1561134c5760405163ba4043db60e01b81526001600160a01b0384166004820152602481019490945286908490604490829084905af18015610c3b578593879161327f575b50505f80516020615497833981519152916080916131e8565b819294509061328d916143c4565b61153d578391855f613266565b634e487b7160e01b87526011600452602487fd5b6393dafdf160e01b8852600488fd5b816132c7916143c4565b61136557875f613136565b6040513d8b823e3d90fd5b6001600160701b039560209560a494886132ff6132f9896152bd565b9861529e565b6040519a8b998a9863ed4ed80b60e01b8a5260048a0152166024880152166044860152606485015260848401525af1801561336257613343575b8080808a8d613068565b61335b9060203d602011611ced57611cde81836143c4565b505f613339565b6040513d8c823e3d90fd5b50841515613063565b6393dafdf160e01b8d5260048dfd5b9592508c8112613376579161304e565b61339d6148eb565b156133cb57508c8112613376576133b3906148fb565b945b8c8112613376576133c5906148fb565b94613057565b9592508c8112613376576133de906148fb565b916133b5565b61302a6001600160701b036134078160e08a015116826101208b0151169061527e565b613022565b905090612ff0565b905061342f915060403d6040116121d1576121c381836143c4565b5f612fdf565b8f604051903d90823e3d90fd5b61344b906148fb565b95612f72565b50506040516304ade6db60e11b81526001600160a01b039384166004820152928916602484015250604482015294959394869460208280606481010381897f00000000000000000000000000000000000000000000000000000000000000006001600160a01b03165af1908115610c3b5785935f80516020615497833981519152936080936134e1575b50613090565b6134f99060203d6020116111205761111381836143c4565b505f6134db565b6393dafdf160e01b8952600489fd5b612f3c935061352d915060403d6040116121d1576121c381836143c4565b92612f31565b8161353d916143c4565b61059757825f612e86565b634e487b7160e01b88526011600452602488fd5b93506135718161356a6148eb565b1585614faa565b93612dd1565b5050508115612e89576135c0827f00000000000000000000000000000000000000000000000000000000000000006135b8826135b161469a565b838a614d0e565b309087614ee4565b612e89565b6101c0830151602081015190516001600160a01b03918216949116612dba565b6314e1dbf760e11b8252600482fd5b50346101df57613603366142e1565b929190923033036136cc5760025460405163ba65fb1560e01b81526001600160a01b038681166004830152602482019390935291602091839160449183918891165af19283156111275792613697575b508161368f916020947f00000000000000000000000000000000000000000000000000000000000000009061368a84308484614e7f565b614f32565b604051908152f35b9091506020813d6020116136c4575b816136b3602093836143c4565b810103126106b35751906020613653565b3d91506136a6565b6314e1dbf760e11b8352600483fd5b50346101df57806003193601126101df576040517f00000000000000000000000000000000000000000000000000000000000000006001600160a01b03168152602090f35b50346101df5760203660031901126101df5761373a6149fc565b506002546040516302ef145760e51b815260048035908201529061026090829060249082906001600160a01b03165afa90811561058c576102609291613789575b50612d2960405180926141d5565b6137a09150823d81116107745761076681836143c4565b5f61377b565b50346101df576137b53661431b565b6002546040516302ef145760e51b815260048101949094529192916001600160a01b031661026083602481845afa93841561160e576115b1946060948791613816575b5060405163206a728560e21b81529586948593849360048501614941565b61382f91506102603d81116107745761076681836143c4565b5f6137f8565b50346101df57613844366142e1565b909291923033036136cc576138889293613881837f0000000000000000000000000000000000000000000000000000000000000000928385614d0e565b3091614ee4565b80f35b50346101df5760403660031901126101df576138a5614117565b6138ad6149fc565b50338252600360205260ff6040832054161561391a57600254604051632bc5fd8560e01b81526001600160a01b03928316600482015260248035908201529161026091839160449183918791165af190811561058c5761026092916137895750612d2960405180926141d5565b63041fb8cb60e31b8252600482fd5b50346106b35761393836614157565b919290303303613a6b576001600160a01b037f00000000000000000000000000000000000000000000000000000000000000008181169590929161397b826146c7565b16863b156106b357604051637a94c56560e11b81523060048201526024810191909152604481018390525f81606481838b5af18015613a6057613a4b575b50602081019587906001600160a01b036139d2896146c7565b1690803b1561059757604051637a94c56560e11b815230600482015260248101929092526044820188905282908290606490829084905af1801561058c57613a32575b505094613a2d61368a92858561368a6138889a6146c7565b6146c7565b81613a3f919893986143c4565b61134c5794865f613a15565b613a589197505f906143c4565b5f955f6139b9565b6040513d5f823e3d90fd5b6314e1dbf760e11b5f5260045ffd5b346106b3575f3660031901126106b3576020613a946149a9565b6040516001600160a01b039091168152f35b346106b35760203660031901126106b3576004356001600160a01b038116908190036106b357613ae060018060a01b035f541633146146db565b6002546001600160a01b038116613b01576001600160a01b03191617600255005b630d43628160e31b5f5260045ffd5b346106b3576101203660031901126106b357613b2a614117565b60a03660231901126106b35760603660c31901126106b3576001546001600160a01b0316613b593382146146db565b604051613b658161438b565b6024356001600160a01b03811681036106b35781526044356001600160a01b03811681036106b357602082015260643562ffffff811681036106b35760408201526084358060020b81036106b357606082015260a435906001600160a01b03821682036106b357608081019190915260a090206002546040516302ef145760e51b81526004810183905291906001600160a01b031661026083602481845afa928315613a60575f9361406d575b5060e4355f81129384613c236148dc565b15150361404957613c32614684565b95613c3b61466e565b925b861561404357613c4c906148fb565b935b8615613f3b575050606083613c8f9260018060a01b036002541690613c716148dc565b60405163206a728560e21b8152958694859384939060048501614941565b03915afa938415613a60575f945f925f91613f14575b5060015460405163426a849360e01b81526001600160a01b03918216600482015290851660248201526044810187905292969092602081806064810103815f7f00000000000000000000000000000000000000000000000000000000000000006001600160a01b03165af18015613a6057613ef5575b505b82613dc9575b60a080997f9eb28ec873feb86f8f76c2d80034e39d1f684febd8b002b9798e739ab5644a9b92613d516148dc565b151503613dbc57869462ffffff899a5b613d696148dc565b9b604051988952602089015216998a6040880152151560608701526080860152600180831b031693a360405194600180881b03168552600180871b03166020850152604084015260608301526080820152f35b879462ffffff889a613d61565b5f92613dd36148dc565b8414613ee2576020613e23613de6614684565b925b60025460405163096b565360e11b81526001600160a01b03868116600483015260248201939093529788939190921691839182906044820190565b03925af1938415613a60575f94613ead575b50604080515f81526020810186905260a09b7f9eb28ec873feb86f8f76c2d80034e39d1f684febd8b002b9798e739ab5644a9b948d94919390926001600160a01b0380861693169188917f43473e5e46598b12a9d6961219fd5cf4e66ec4f6653d7206553a25c454687c8e9190a49250995050613d23565b9093506020813d602011613eda575b81613ec9602093836143c4565b810103126106b357519260a0613e35565b3d9150613ebc565b6020613e23613eef61466e565b92613de8565b613f0d9060203d6020116111205761111381836143c4565b5089613d1b565b91955050613f31915060603d606011610d7657610d6281836143c4565b9194909189613ca5565b84606091613f6c94613f4e9894986148dc565b604051637987bed160e11b8152968794859384939060048501614941565b03915afa958615613a60575f965f935f91614019575b5060405163426a849360e01b81526001600160a01b039788166004820152968916602488015260448701869052929695602081806064810103815f7f00000000000000000000000000000000000000000000000000000000000000006001600160a01b03165af18015613a6057613ffa575b50613d1d565b6140129060203d6020116111205761111381836143c4565b5089613ff4565b60209850869450614039915060603d606011610d7657610d6281836143c4565b9198909450613f82565b93613c4e565b61405161466e565b9561405a614684565b6001600160a01b03978816971692613c3d565b6140879193506102603d81116107745761076681836143c4565b9185613c12565b346106b35761409c36614157565b919290303303613a6b5761410b836020866140fa6140bc614115996146c7565b956140ea81897f0000000000000000000000000000000000000000000000000000000000000000809a614d0e565b30876140f5856146c7565b614ee4565b019383614106866146c7565b614d0e565b6140f530926146c7565b005b600435906001600160a01b03821682036106b357565b602435906001600160a01b03821682036106b357565b35906001600160a01b03821682036106b357565b906101006003198301126106b3576004356001600160a01b03811681036106b35760a0909260231901126106b35760249060c4359060e43590565b80516001600160a01b03908116835260208083015182169084015260408083015162ffffff169084015260608083015160020b9084015260809182015116910152565b906101c0806142df9363ffffffff81511684526001600160701b0360208201511660208501526001600160701b0360408201511660408501526001600160701b0360608201511660608501526001600160701b03608082015116608085015262ffffff60a08201511660a08501526001600160701b0360c08201511660c08501526001600160701b0360e08201511660e08501526001600160701b03610100820151166101008501526001600160701b03610120820151166101208501526001600160701b03610140820151166101408501526001600160701b03610160820151166101608501526101808101516101808501526101a08101516101a08501520151910190614192565b565b60609060031901126106b3576004356001600160a01b03811681036106b357906024356001600160a01b03811681036106b3579060443590565b60609060031901126106b3576004359060243580151581036106b3579060443590565b6080810190811067ffffffffffffffff82111761435a57604052565b634e487b7160e01b5f52604160045260245ffd5b610100810190811067ffffffffffffffff82111761435a57604052565b60a0810190811067ffffffffffffffff82111761435a57604052565b6101e0810190811067ffffffffffffffff82111761435a57604052565b90601f8019910116810190811067ffffffffffffffff82111761435a57604052565b91908260a09103126106b3576040516143fe8161438b565b809261440981614143565b825261441760208201614143565b6020830152604081013562ffffff811681036106b35760408301526060810135908160020b82036106b3576080614455918193606086015201614143565b910152565b906102606023198301126106b357604051614474816143a7565b809260243563ffffffff811681036106b35782526044356001600160701b03811681036106b35760208301526064356001600160701b03811681036106b35760408301526084356001600160701b03811681036106b357606083015260a4356001600160701b03811681036106b357608083015260c43562ffffff811681036106b35760a083015260e4356001600160701b03811681036106b35760c0830152610104356001600160701b03811681036106b35760e0830152610124356001600160701b03811681036106b357610100830152610144356001600160701b03811681036106b357610120830152610164356001600160701b03811681036106b357610140830152610184356001600160701b03811681036106b3576101c091614455916101608501526101a4356101808501526101c4356101a08501526101e46143e6565b6101409060e081518051855260208101511515602086015262ffffff6040820151166040860152606081015160608601526080810151608086015260a081015160a086015260018060a01b0360c08201511660c0860152015160e0840152602081015161010084015262ffffff604082015116610120840152606060018060a01b0391015116910152565b602060409281835280519182918282860152018484015e5f828201840152601f01601f1916010190565b6044356001600160a01b03811681036106b35790565b6024356001600160a01b03811681036106b35790565b6102c4356001600160a01b03811681036106b35790565b60c4356001600160a01b03811681036106b35790565b356001600160a01b03811681036106b35790565b156146e257565b60405162461bcd60e51b815260206004820152600c60248201526b15539055551213d49256915160a21b6044820152606490fd5b51906001600160701b03821682036106b357565b519062ffffff821682036106b357565b51906001600160a01b03821682036106b357565b8091039061026082126106b35760405191614768836143a7565b81519063ffffffff821682036106b35760a091845261478960208401614716565b602085015261479a60408401614716565b60408501526147ab60608401614716565b60608501526147bc60808401614716565b60808501526147cc82840161472a565b828501526147dc60c08401614716565b60c08501526147ed60e08401614716565b60e08501526147ff6101008401614716565b6101008501526148126101208401614716565b6101208501526148256101408401614716565b6101408501526148386101608401614716565b6101608501526101808301516101808501526101a08301516101a08501526101bf1901126106b3576040519061486d8261438b565b61487a6101c0820161473a565b82526148896101e0820161473a565b602083015261489b610200820161472a565b6040830152610220810151908160020b82036106b357606083019190915261024001516001600160a01b03811681036106b35760808201526101c082015290565b60c43580151581036106b35790565b6102a43580151581036106b35790565b600160ff1b811461490b575f0390565b634e487b7160e01b5f52601160045260245ffd5b908160609103126106b357805191604061493b6020840161472a565b92015190565b61028091949392614957826102a08101976141d5565b15156102608201520152565b908160209103126106b3575180151581036106b35790565b908160209103126106b3575190565b908160209103126106b357516001600160a01b03811681036106b35790565b6002546040516313ac42a760e01b815290602090829060049082906001600160a01b03165afa908115613a60575f916149e0575090565b6149f9915060203d602011611f7357611f6581836143c4565b90565b60405190614a09826143a7565b815f81525f60208201525f60408201525f60608201525f60808201525f60a08201525f60c08201525f60e08201525f6101008201525f6101208201525f6101408201525f6101608201525f6101808201525f6101a08201526101c060405191614a718361438b565b5f83525f60208401525f60408401525f60608401525f60808401520152565b9190820180921161490b57565b67ffffffffffffffff811161435a57601f01601f191660200190565b6020818303126106b35780519067ffffffffffffffff82116106b3570181601f820112156106b357805190614aed82614a9d565b92614afb60405194856143c4565b828452602083830101116106b357815f9260208093018386015e8301015290565b908160609103126106b3578051916040602083015192015190565b15614b3e57565b60405162461bcd60e51b81526020600482015260076024820152661156141254915160ca1b6044820152606490fd5b60a43560ff811681036106b35790565b9190820391821161490b57565b6001600160a01b039091168152610100810194939260e092614bb0906020840190614192565b60c08201520152565b91908260409103126106b3576020825192015190565b6001600160a01b03909116815260208101919091526102a0810192916142df91604001906141d5565b15614bff57565b60405162461bcd60e51b815260206004820152600f60248201526e09a92a4a49ea4bea89e9ebe9aaa869608b1b6044820152606490fd5b91908260809103126106b3578151916020810151916060604083015192015190565b8181029291811591840414171561490b57565b6001600160a01b0391821681529181166020830152604082019290925291166060820152608081019190915260a00190565b90949392614cba6102a0936102c0840197845260208401906141d5565b6001600160a01b03166102808201520152565b15614cd457565b60405162461bcd60e51b81526020600482015260126024820152714e4f545f454e4f5547485f5245534552564560701b6044820152606490fd5b6001600160a01b0316929183614d6b5750604051630476982d60e21b81529250602091839160049183916001600160a01b03165af18015613a6057614d505750565b614d689060203d602011611ced57611cde81836143c4565b50565b916001600160a01b0390911690813b156106b357604051632961046560e21b815260048101859052925a935f816024818388819af18015613a6057614e64575b509293849360209392916001600160a01b0390911690308214614e2457614e0092604051926323b872dd60e01b878501526024840152846044840152606483015260648252614dfb6084836143c4565b61543e565b600460405180958193630476982d60e21b83525af19081156111275750614d505750565b60405163a9059cbb60e01b868201526001600160a01b0385166024820152604480820194909452928352614e5f929150614dfb6064836143c4565b614e00565b602093929194505f614e75916143c4565b5f93909192614dab565b9192906001600160a01b0316803b156106b357604051637a94c56560e11b81526001600160a01b03948516600482015293909216602484015260448301525f908290818381606481015b03925af18015613a6057614eda5750565b5f6142df916143c4565b9192906001600160a01b0316803b156106b357604051630ab714fb60e11b81526001600160a01b03948516600482015293909216602484015260448301525f90829081838160648101614ec9565b91906001600160a01b0316803b156106b357604051630b0d9c0960e01b81526001600160a01b03938416600482015291909216602482015260448101929092525f908290606490829084905af18015613a6057614eda5750565b8115614f96570490565b634e487b7160e01b5f52601260045260245ffd5b614fff906149f993925f14615005576001600160701b03614ff881614ff0614fd1856152bd565b9662ffffff60406101c0614fe48961529e565b985b01510151166152dc565b931683614c58565b9316614a90565b90614f8c565b6001600160701b03614ff881614ff061501d8561529e565b9662ffffff60406101c0615030896152bd565b98614fe6565b3d15615060573d9061504782614a9d565b9161505560405193846143c4565b82523d5f602084013e565b606090565b5f9182918160405192839283378101838152039082305af190615086615036565b916142df575080511561509b57602081519101fd5b6314815f4760e31b5f5260045ffd5b604080516001600160a01b03909216602083019081528282019390935281526150d46060826143c4565b51902090565b90620f42408202905f19620f424084099282808510940393808503941461516a578382111561515b57620f4240829109815f0382168092046002816003021880820260020302808202600203028082026002030280820260020302808202600203028091026002030293600183805f03040190848311900302920304170290565b63227bc15360e01b5f5260045ffd5b50906149f99250614f8c565b9190915f838202915f19858209918380841093039280840393146151eb5782620f424011156151dc57507fde8f6cefed634549b62c77574f722e1ac57e23f24d8fd5cb790fb65668c261399394620f4240910990828211900360fa1b910360061c170290565b63227bc15360e01b8152600490fd5b505050620f42409192500490565b9091828202915f1984820993838086109503948086039514615271578483111561515b57829109815f0382168092046002816003021880820260020302808202600203028082026002030280820260020302808202600203028091026002030293600183805f03040190848311900302920304170290565b5050906149f99250614f8c565b906001600160701b03809116911601906001600160701b03821161490b57565b6149f9906001600160701b03608081604084015116920151169061527e565b6149f9906001600160701b03606081602084015116920151169061527e565b62ffffff16620f424003620f4240811161490b576149f991615176565b8015615439576153c76001825f908460801c8061542d575b508060401c80615420575b508060201c80615413575b508060101c80615406575b508060081c806153f9575b508060041c806153ec575b508060021c806153df575b50821c6153d8575b811c1b6153688184614f8c565b0160011c6153768184614f8c565b0160011c6153848184614f8c565b0160011c6153928184614f8c565b0160011c6153a08184614f8c565b0160011c6153ae8184614f8c565b0160011c6153bc8184614f8c565b0160011c8092614f8c565b808210156153d3575090565b905090565b810161535b565b600291509101905f615353565b600491509101905f615348565b600891509101905f61533d565b601091509101905f615332565b602091509101905f615327565b604091509101905f61531c565b9150506080905f615311565b505f90565b905f602091828151910182855af115613a60575f513d61548d57506001600160a01b0381163b155b61546d5750565b635274afe760e01b5f9081526001600160a01b0391909116600452602490fd5b6001141561546656fe1d9d1025f06575cd23c8334c2f057422670381e5e2513b4a4bd6ecc63f649d4fa2646970667358221220f77633e4805abcb9d15d483db72f3c074dddec9a8d7b1235894ca69150f6ec2864736f6c634300081a0033","linkReferences":{}},"methodIdentifiers":{"addLiquidity((bytes32,uint256,uint256,uint256,uint256,uint8,address,uint256))":"8461d867","addPositionManager(address)":"e2f0ab01","collectProtocolFees(address,address,uint256)":"8161b874","getAmountIn(bytes32,bool,uint256)":"b4473259","getAmountOut(bytes32,bool,uint256)":"5be39ae8","getReserves(bytes32)":"a4a9e988","getStatus(bytes32)":"5de28ae0","handleAddLiquidity(address,(address,address,uint24,int24,address),uint256,uint256)":"0776e76e","handleCollectFees(address,address,uint256)":"64d2756f","handleMargin(address,address,(uint32,uint112,uint112,uint112,uint112,uint24,uint112,uint112,uint112,uint112,uint112,uint112,uint256,uint256,(address,address,uint24,int24,address)),((bytes32,bool,uint24,uint256,uint256,uint256,address,uint256),uint256,uint24,address))":"afb427b6","handleRelease(address,(uint32,uint112,uint112,uint112,uint112,uint24,uint112,uint112,uint112,uint112,uint112,uint112,uint256,uint256,(address,address,uint24,int24,address)),(bytes32,bool,address,uint256,uint256,uint256,uint256,uint256))":"6b4067fe","handleRemoveLiquidity(address,(address,address,uint24,int24,address),uint256,uint256)":"244195d3","handleSwapMirror(address,address,uint256)":"3594e7c2","hooks()":"cd7033c4","initialize((address,address,uint24,int24,address))":"bfb9f86b","lendingPoolManager()":"5e6263eb","margin(address,(uint32,uint112,uint112,uint112,uint112,uint24,uint112,uint112,uint112,uint112,uint112,uint112,uint256,uint256,(address,address,uint24,int24,address)),((bytes32,bool,uint24,uint256,uint256,uint256,address,uint256),uint256,uint24,address))":"8072e28b","marginFees()":"13ac42a7","marginLiquidity()":"fb6b0e67","mirrorInRealOut(bytes32,(uint32,uint112,uint112,uint112,uint112,uint24,uint112,uint112,uint112,uint112,uint112,uint112,uint256,uint256,(address,address,uint24,int24,address)),address,uint256)":"c3edb7ff","mirrorTokenManager()":"ffcd9d16","owner()":"8da5cb5b","poolManager()":"dc4c90d3","positionManagers(address)":"d8d232a2","release(address,(uint32,uint112,uint112,uint112,uint112,uint24,uint112,uint112,uint112,uint112,uint112,uint112,uint256,uint256,(address,address,uint24,int24,address)),(bytes32,bool,address,uint256,uint256,uint256,uint256,uint256))":"bb4dab6d","removeLiquidity((bytes32,uint8,uint256,uint256,uint256,uint256))":"fea9d06a","removePositionManager(address)":"8a05a2e6","setBalances(address,bytes32)":"2bc5fd85","setHooks(address)":"fb63daa1","setStatusManager(address)":"12bd6d9e","statusManager()":"e86cb2be","swap(address,(address,address,uint24,int24,address),(bool,int256,uint160))":"09d1b448","swapMirror(address,bytes32,bool,uint256,uint256)":"ee7a3dc6","transferOwnership(address)":"f2fde38b","unlockCallback(bytes)":"91dd7346"},"id":62}