{"abi":[{"type":"constructor","inputs":[{"name":"initialOwner","type":"address","internalType":"address"},{"name":"_manager","type":"address","internalType":"contract IPoolManager"},{"name":"_mirrorTokenManager","type":"address","internalType":"contract IMirrorTokenManager"},{"name":"_lendingPoolManager","type":"address","internalType":"contract ILendingPoolManager"},{"name":"_marginLiquidity","type":"address","internalType":"contract IMarginLiquidity"}],"stateMutability":"nonpayable"},{"type":"function","name":"addLiquidity","inputs":[{"name":"params","type":"tuple","internalType":"struct AddLiquidityParams","components":[{"name":"poolId","type":"bytes32","internalType":"PoolId"},{"name":"amount0","type":"uint256","internalType":"uint256"},{"name":"amount1","type":"uint256","internalType":"uint256"},{"name":"amount0Min","type":"uint256","internalType":"uint256"},{"name":"amount1Min","type":"uint256","internalType":"uint256"},{"name":"level","type":"uint8","internalType":"uint8"},{"name":"source","type":"address","internalType":"address"},{"name":"deadline","type":"uint256","internalType":"uint256"}]}],"outputs":[{"name":"liquidity","type":"uint256","internalType":"uint256"}],"stateMutability":"payable"},{"type":"function","name":"addPositionManager","inputs":[{"name":"_marginPositionManager","type":"address","internalType":"address"}],"outputs":[],"stateMutability":"nonpayable"},{"type":"function","name":"collectProtocolFees","inputs":[{"name":"recipient","type":"address","internalType":"address"},{"name":"currency","type":"address","internalType":"Currency"},{"name":"amount","type":"uint256","internalType":"uint256"}],"outputs":[{"name":"","type":"uint256","internalType":"uint256"}],"stateMutability":"nonpayable"},{"type":"function","name":"getAmountIn","inputs":[{"name":"poolId","type":"bytes32","internalType":"PoolId"},{"name":"zeroForOne","type":"bool","internalType":"bool"},{"name":"amountOut","type":"uint256","internalType":"uint256"}],"outputs":[{"name":"amountIn","type":"uint256","internalType":"uint256"}],"stateMutability":"view"},{"type":"function","name":"getAmountOut","inputs":[{"name":"poolId","type":"bytes32","internalType":"PoolId"},{"name":"zeroForOne","type":"bool","internalType":"bool"},{"name":"amountIn","type":"uint256","internalType":"uint256"}],"outputs":[{"name":"amountOut","type":"uint256","internalType":"uint256"}],"stateMutability":"view"},{"type":"function","name":"getReserves","inputs":[{"name":"poolId","type":"bytes32","internalType":"PoolId"}],"outputs":[{"name":"_reserve0","type":"uint256","internalType":"uint256"},{"name":"_reserve1","type":"uint256","internalType":"uint256"}],"stateMutability":"view"},{"type":"function","name":"getStatus","inputs":[{"name":"poolId","type":"bytes32","internalType":"PoolId"}],"outputs":[{"name":"_status","type":"tuple","internalType":"struct PoolStatus","components":[{"name":"blockTimestampLast","type":"uint32","internalType":"uint32"},{"name":"realReserve0","type":"uint112","internalType":"uint112"},{"name":"realReserve1","type":"uint112","internalType":"uint112"},{"name":"mirrorReserve0","type":"uint112","internalType":"uint112"},{"name":"mirrorReserve1","type":"uint112","internalType":"uint112"},{"name":"marginFee","type":"uint24","internalType":"uint24"},{"name":"lendingRealReserve0","type":"uint112","internalType":"uint112"},{"name":"lendingRealReserve1","type":"uint112","internalType":"uint112"},{"name":"lendingMirrorReserve0","type":"uint112","internalType":"uint112"},{"name":"lendingMirrorReserve1","type":"uint112","internalType":"uint112"},{"name":"truncatedReserve0","type":"uint112","internalType":"uint112"},{"name":"truncatedReserve1","type":"uint112","internalType":"uint112"},{"name":"rate0CumulativeLast","type":"uint256","internalType":"uint256"},{"name":"rate1CumulativeLast","type":"uint256","internalType":"uint256"},{"name":"key","type":"tuple","internalType":"struct PoolKey","components":[{"name":"currency0","type":"address","internalType":"Currency"},{"name":"currency1","type":"address","internalType":"Currency"},{"name":"fee","type":"uint24","internalType":"uint24"},{"name":"tickSpacing","type":"int24","internalType":"int24"},{"name":"hooks","type":"address","internalType":"contract IHooks"}]}]}],"stateMutability":"view"},{"type":"function","name":"handleAddLiquidity","inputs":[{"name":"sender","type":"address","internalType":"address"},{"name":"key","type":"tuple","internalType":"struct PoolKey","components":[{"name":"currency0","type":"address","internalType":"Currency"},{"name":"currency1","type":"address","internalType":"Currency"},{"name":"fee","type":"uint24","internalType":"uint24"},{"name":"tickSpacing","type":"int24","internalType":"int24"},{"name":"hooks","type":"address","internalType":"contract IHooks"}]},{"name":"amount0","type":"uint256","internalType":"uint256"},{"name":"amount1","type":"uint256","internalType":"uint256"}],"outputs":[],"stateMutability":"nonpayable"},{"type":"function","name":"handleCollectFees","inputs":[{"name":"recipient","type":"address","internalType":"address"},{"name":"currency","type":"address","internalType":"Currency"},{"name":"amount","type":"uint256","internalType":"uint256"}],"outputs":[{"name":"amountCollected","type":"uint256","internalType":"uint256"}],"stateMutability":"nonpayable"},{"type":"function","name":"handleMargin","inputs":[{"name":"_positionManager","type":"address","internalType":"address"},{"name":"sender","type":"address","internalType":"address"},{"name":"status","type":"tuple","internalType":"struct PoolStatus","components":[{"name":"blockTimestampLast","type":"uint32","internalType":"uint32"},{"name":"realReserve0","type":"uint112","internalType":"uint112"},{"name":"realReserve1","type":"uint112","internalType":"uint112"},{"name":"mirrorReserve0","type":"uint112","internalType":"uint112"},{"name":"mirrorReserve1","type":"uint112","internalType":"uint112"},{"name":"marginFee","type":"uint24","internalType":"uint24"},{"name":"lendingRealReserve0","type":"uint112","internalType":"uint112"},{"name":"lendingRealReserve1","type":"uint112","internalType":"uint112"},{"name":"lendingMirrorReserve0","type":"uint112","internalType":"uint112"},{"name":"lendingMirrorReserve1","type":"uint112","internalType":"uint112"},{"name":"truncatedReserve0","type":"uint112","internalType":"uint112"},{"name":"truncatedReserve1","type":"uint112","internalType":"uint112"},{"name":"rate0CumulativeLast","type":"uint256","internalType":"uint256"},{"name":"rate1CumulativeLast","type":"uint256","internalType":"uint256"},{"name":"key","type":"tuple","internalType":"struct PoolKey","components":[{"name":"currency0","type":"address","internalType":"Currency"},{"name":"currency1","type":"address","internalType":"Currency"},{"name":"fee","type":"uint24","internalType":"uint24"},{"name":"tickSpacing","type":"int24","internalType":"int24"},{"name":"hooks","type":"address","internalType":"contract IHooks"}]}]},{"name":"paramsVo","type":"tuple","internalType":"struct MarginParamsVo","components":[{"name":"params","type":"tuple","internalType":"struct MarginParams","components":[{"name":"poolId","type":"bytes32","internalType":"PoolId"},{"name":"marginForOne","type":"bool","internalType":"bool"},{"name":"leverage","type":"uint24","internalType":"uint24"},{"name":"marginAmount","type":"uint256","internalType":"uint256"},{"name":"borrowAmount","type":"uint256","internalType":"uint256"},{"name":"borrowMaxAmount","type":"uint256","internalType":"uint256"},{"name":"recipient","type":"address","internalType":"address"},{"name":"deadline","type":"uint256","internalType":"uint256"}]},{"name":"marginTotal","type":"uint256","internalType":"uint256"},{"name":"minMarginLevel","type":"uint24","internalType":"uint24"},{"name":"marginCurrency","type":"address","internalType":"Currency"}]}],"outputs":[{"name":"marginAmount","type":"uint256","internalType":"uint256"},{"name":"marginWithoutFee","type":"uint256","internalType":"uint256"},{"name":"borrowAmount","type":"uint256","internalType":"uint256"}],"stateMutability":"nonpayable"},{"type":"function","name":"handleRelease","inputs":[{"name":"sender","type":"address","internalType":"address"},{"name":"status","type":"tuple","internalType":"struct PoolStatus","components":[{"name":"blockTimestampLast","type":"uint32","internalType":"uint32"},{"name":"realReserve0","type":"uint112","internalType":"uint112"},{"name":"realReserve1","type":"uint112","internalType":"uint112"},{"name":"mirrorReserve0","type":"uint112","internalType":"uint112"},{"name":"mirrorReserve1","type":"uint112","internalType":"uint112"},{"name":"marginFee","type":"uint24","internalType":"uint24"},{"name":"lendingRealReserve0","type":"uint112","internalType":"uint112"},{"name":"lendingRealReserve1","type":"uint112","internalType":"uint112"},{"name":"lendingMirrorReserve0","type":"uint112","internalType":"uint112"},{"name":"lendingMirrorReserve1","type":"uint112","internalType":"uint112"},{"name":"truncatedReserve0","type":"uint112","internalType":"uint112"},{"name":"truncatedReserve1","type":"uint112","internalType":"uint112"},{"name":"rate0CumulativeLast","type":"uint256","internalType":"uint256"},{"name":"rate1CumulativeLast","type":"uint256","internalType":"uint256"},{"name":"key","type":"tuple","internalType":"struct PoolKey","components":[{"name":"currency0","type":"address","internalType":"Currency"},{"name":"currency1","type":"address","internalType":"Currency"},{"name":"fee","type":"uint24","internalType":"uint24"},{"name":"tickSpacing","type":"int24","internalType":"int24"},{"name":"hooks","type":"address","internalType":"contract IHooks"}]}]},{"name":"params","type":"tuple","internalType":"struct ReleaseParams","components":[{"name":"poolId","type":"bytes32","internalType":"PoolId"},{"name":"marginForOne","type":"bool","internalType":"bool"},{"name":"payer","type":"address","internalType":"address"},{"name":"debtAmount","type":"uint256","internalType":"uint256"},{"name":"repayAmount","type":"uint256","internalType":"uint256"},{"name":"releaseAmount","type":"uint256","internalType":"uint256"},{"name":"rawBorrowAmount","type":"uint256","internalType":"uint256"},{"name":"deadline","type":"uint256","internalType":"uint256"}]}],"outputs":[{"name":"","type":"uint256","internalType":"uint256"}],"stateMutability":"nonpayable"},{"type":"function","name":"handleRemoveLiquidity","inputs":[{"name":"sender","type":"address","internalType":"address"},{"name":"key","type":"tuple","internalType":"struct PoolKey","components":[{"name":"currency0","type":"address","internalType":"Currency"},{"name":"currency1","type":"address","internalType":"Currency"},{"name":"fee","type":"uint24","internalType":"uint24"},{"name":"tickSpacing","type":"int24","internalType":"int24"},{"name":"hooks","type":"address","internalType":"contract IHooks"}]},{"name":"amount0","type":"uint256","internalType":"uint256"},{"name":"amount1","type":"uint256","internalType":"uint256"}],"outputs":[],"stateMutability":"nonpayable"},{"type":"function","name":"handleSwapMirror","inputs":[{"name":"sender","type":"address","internalType":"address"},{"name":"currency","type":"address","internalType":"Currency"},{"name":"amount","type":"uint256","internalType":"uint256"}],"outputs":[],"stateMutability":"nonpayable"},{"type":"function","name":"hooks","inputs":[],"outputs":[{"name":"","type":"address","internalType":"contract IHooks"}],"stateMutability":"view"},{"type":"function","name":"initialize","inputs":[{"name":"key","type":"tuple","internalType":"struct PoolKey","components":[{"name":"currency0","type":"address","internalType":"Currency"},{"name":"currency1","type":"address","internalType":"Currency"},{"name":"fee","type":"uint24","internalType":"uint24"},{"name":"tickSpacing","type":"int24","internalType":"int24"},{"name":"hooks","type":"address","internalType":"contract IHooks"}]}],"outputs":[],"stateMutability":"nonpayable"},{"type":"function","name":"lendingPoolManager","inputs":[],"outputs":[{"name":"","type":"address","internalType":"contract ILendingPoolManager"}],"stateMutability":"view"},{"type":"function","name":"margin","inputs":[{"name":"sender","type":"address","internalType":"address"},{"name":"status","type":"tuple","internalType":"struct PoolStatus","components":[{"name":"blockTimestampLast","type":"uint32","internalType":"uint32"},{"name":"realReserve0","type":"uint112","internalType":"uint112"},{"name":"realReserve1","type":"uint112","internalType":"uint112"},{"name":"mirrorReserve0","type":"uint112","internalType":"uint112"},{"name":"mirrorReserve1","type":"uint112","internalType":"uint112"},{"name":"marginFee","type":"uint24","internalType":"uint24"},{"name":"lendingRealReserve0","type":"uint112","internalType":"uint112"},{"name":"lendingRealReserve1","type":"uint112","internalType":"uint112"},{"name":"lendingMirrorReserve0","type":"uint112","internalType":"uint112"},{"name":"lendingMirrorReserve1","type":"uint112","internalType":"uint112"},{"name":"truncatedReserve0","type":"uint112","internalType":"uint112"},{"name":"truncatedReserve1","type":"uint112","internalType":"uint112"},{"name":"rate0CumulativeLast","type":"uint256","internalType":"uint256"},{"name":"rate1CumulativeLast","type":"uint256","internalType":"uint256"},{"name":"key","type":"tuple","internalType":"struct PoolKey","components":[{"name":"currency0","type":"address","internalType":"Currency"},{"name":"currency1","type":"address","internalType":"Currency"},{"name":"fee","type":"uint24","internalType":"uint24"},{"name":"tickSpacing","type":"int24","internalType":"int24"},{"name":"hooks","type":"address","internalType":"contract IHooks"}]}]},{"name":"paramsVo","type":"tuple","internalType":"struct MarginParamsVo","components":[{"name":"params","type":"tuple","internalType":"struct MarginParams","components":[{"name":"poolId","type":"bytes32","internalType":"PoolId"},{"name":"marginForOne","type":"bool","internalType":"bool"},{"name":"leverage","type":"uint24","internalType":"uint24"},{"name":"marginAmount","type":"uint256","internalType":"uint256"},{"name":"borrowAmount","type":"uint256","internalType":"uint256"},{"name":"borrowMaxAmount","type":"uint256","internalType":"uint256"},{"name":"recipient","type":"address","internalType":"address"},{"name":"deadline","type":"uint256","internalType":"uint256"}]},{"name":"marginTotal","type":"uint256","internalType":"uint256"},{"name":"minMarginLevel","type":"uint24","internalType":"uint24"},{"name":"marginCurrency","type":"address","internalType":"Currency"}]}],"outputs":[{"name":"","type":"tuple","internalType":"struct MarginParamsVo","components":[{"name":"params","type":"tuple","internalType":"struct MarginParams","components":[{"name":"poolId","type":"bytes32","internalType":"PoolId"},{"name":"marginForOne","type":"bool","internalType":"bool"},{"name":"leverage","type":"uint24","internalType":"uint24"},{"name":"marginAmount","type":"uint256","internalType":"uint256"},{"name":"borrowAmount","type":"uint256","internalType":"uint256"},{"name":"borrowMaxAmount","type":"uint256","internalType":"uint256"},{"name":"recipient","type":"address","internalType":"address"},{"name":"deadline","type":"uint256","internalType":"uint256"}]},{"name":"marginTotal","type":"uint256","internalType":"uint256"},{"name":"minMarginLevel","type":"uint24","internalType":"uint24"},{"name":"marginCurrency","type":"address","internalType":"Currency"}]}],"stateMutability":"payable"},{"type":"function","name":"marginFees","inputs":[],"outputs":[{"name":"","type":"address","internalType":"contract IMarginFees"}],"stateMutability":"view"},{"type":"function","name":"marginLiquidity","inputs":[],"outputs":[{"name":"","type":"address","internalType":"contract IMarginLiquidity"}],"stateMutability":"view"},{"type":"function","name":"mirrorInRealOut","inputs":[{"name":"poolId","type":"bytes32","internalType":"PoolId"},{"name":"status","type":"tuple","internalType":"struct PoolStatus","components":[{"name":"blockTimestampLast","type":"uint32","internalType":"uint32"},{"name":"realReserve0","type":"uint112","internalType":"uint112"},{"name":"realReserve1","type":"uint112","internalType":"uint112"},{"name":"mirrorReserve0","type":"uint112","internalType":"uint112"},{"name":"mirrorReserve1","type":"uint112","internalType":"uint112"},{"name":"marginFee","type":"uint24","internalType":"uint24"},{"name":"lendingRealReserve0","type":"uint112","internalType":"uint112"},{"name":"lendingRealReserve1","type":"uint112","internalType":"uint112"},{"name":"lendingMirrorReserve0","type":"uint112","internalType":"uint112"},{"name":"lendingMirrorReserve1","type":"uint112","internalType":"uint112"},{"name":"truncatedReserve0","type":"uint112","internalType":"uint112"},{"name":"truncatedReserve1","type":"uint112","internalType":"uint112"},{"name":"rate0CumulativeLast","type":"uint256","internalType":"uint256"},{"name":"rate1CumulativeLast","type":"uint256","internalType":"uint256"},{"name":"key","type":"tuple","internalType":"struct PoolKey","components":[{"name":"currency0","type":"address","internalType":"Currency"},{"name":"currency1","type":"address","internalType":"Currency"},{"name":"fee","type":"uint24","internalType":"uint24"},{"name":"tickSpacing","type":"int24","internalType":"int24"},{"name":"hooks","type":"address","internalType":"contract IHooks"}]}]},{"name":"currency","type":"address","internalType":"Currency"},{"name":"amount","type":"uint256","internalType":"uint256"}],"outputs":[{"name":"success","type":"bool","internalType":"bool"}],"stateMutability":"nonpayable"},{"type":"function","name":"mirrorTokenManager","inputs":[],"outputs":[{"name":"","type":"address","internalType":"contract IMirrorTokenManager"}],"stateMutability":"view"},{"type":"function","name":"owner","inputs":[],"outputs":[{"name":"","type":"address","internalType":"address"}],"stateMutability":"view"},{"type":"function","name":"poolManager","inputs":[],"outputs":[{"name":"","type":"address","internalType":"contract IPoolManager"}],"stateMutability":"view"},{"type":"function","name":"positionManagers","inputs":[{"name":"","type":"address","internalType":"address"}],"outputs":[{"name":"","type":"bool","internalType":"bool"}],"stateMutability":"view"},{"type":"function","name":"release","inputs":[{"name":"sender","type":"address","internalType":"address"},{"name":"status","type":"tuple","internalType":"struct PoolStatus","components":[{"name":"blockTimestampLast","type":"uint32","internalType":"uint32"},{"name":"realReserve0","type":"uint112","internalType":"uint112"},{"name":"realReserve1","type":"uint112","internalType":"uint112"},{"name":"mirrorReserve0","type":"uint112","internalType":"uint112"},{"name":"mirrorReserve1","type":"uint112","internalType":"uint112"},{"name":"marginFee","type":"uint24","internalType":"uint24"},{"name":"lendingRealReserve0","type":"uint112","internalType":"uint112"},{"name":"lendingRealReserve1","type":"uint112","internalType":"uint112"},{"name":"lendingMirrorReserve0","type":"uint112","internalType":"uint112"},{"name":"lendingMirrorReserve1","type":"uint112","internalType":"uint112"},{"name":"truncatedReserve0","type":"uint112","internalType":"uint112"},{"name":"truncatedReserve1","type":"uint112","internalType":"uint112"},{"name":"rate0CumulativeLast","type":"uint256","internalType":"uint256"},{"name":"rate1CumulativeLast","type":"uint256","internalType":"uint256"},{"name":"key","type":"tuple","internalType":"struct PoolKey","components":[{"name":"currency0","type":"address","internalType":"Currency"},{"name":"currency1","type":"address","internalType":"Currency"},{"name":"fee","type":"uint24","internalType":"uint24"},{"name":"tickSpacing","type":"int24","internalType":"int24"},{"name":"hooks","type":"address","internalType":"contract IHooks"}]}]},{"name":"params","type":"tuple","internalType":"struct ReleaseParams","components":[{"name":"poolId","type":"bytes32","internalType":"PoolId"},{"name":"marginForOne","type":"bool","internalType":"bool"},{"name":"payer","type":"address","internalType":"address"},{"name":"debtAmount","type":"uint256","internalType":"uint256"},{"name":"repayAmount","type":"uint256","internalType":"uint256"},{"name":"releaseAmount","type":"uint256","internalType":"uint256"},{"name":"rawBorrowAmount","type":"uint256","internalType":"uint256"},{"name":"deadline","type":"uint256","internalType":"uint256"}]}],"outputs":[{"name":"","type":"uint256","internalType":"uint256"}],"stateMutability":"payable"},{"type":"function","name":"removeLiquidity","inputs":[{"name":"params","type":"tuple","internalType":"struct RemoveLiquidityParams","components":[{"name":"poolId","type":"bytes32","internalType":"PoolId"},{"name":"level","type":"uint8","internalType":"uint8"},{"name":"liquidity","type":"uint256","internalType":"uint256"},{"name":"amount0Min","type":"uint256","internalType":"uint256"},{"name":"amount1Min","type":"uint256","internalType":"uint256"},{"name":"deadline","type":"uint256","internalType":"uint256"}]}],"outputs":[{"name":"amount0","type":"uint256","internalType":"uint256"},{"name":"amount1","type":"uint256","internalType":"uint256"}],"stateMutability":"nonpayable"},{"type":"function","name":"removePositionManager","inputs":[{"name":"_marginPositionManager","type":"address","internalType":"address"}],"outputs":[],"stateMutability":"nonpayable"},{"type":"function","name":"setBalances","inputs":[{"name":"sender","type":"address","internalType":"address"},{"name":"poolId","type":"bytes32","internalType":"PoolId"}],"outputs":[{"name":"_status","type":"tuple","internalType":"struct PoolStatus","components":[{"name":"blockTimestampLast","type":"uint32","internalType":"uint32"},{"name":"realReserve0","type":"uint112","internalType":"uint112"},{"name":"realReserve1","type":"uint112","internalType":"uint112"},{"name":"mirrorReserve0","type":"uint112","internalType":"uint112"},{"name":"mirrorReserve1","type":"uint112","internalType":"uint112"},{"name":"marginFee","type":"uint24","internalType":"uint24"},{"name":"lendingRealReserve0","type":"uint112","internalType":"uint112"},{"name":"lendingRealReserve1","type":"uint112","internalType":"uint112"},{"name":"lendingMirrorReserve0","type":"uint112","internalType":"uint112"},{"name":"lendingMirrorReserve1","type":"uint112","internalType":"uint112"},{"name":"truncatedReserve0","type":"uint112","internalType":"uint112"},{"name":"truncatedReserve1","type":"uint112","internalType":"uint112"},{"name":"rate0CumulativeLast","type":"uint256","internalType":"uint256"},{"name":"rate1CumulativeLast","type":"uint256","internalType":"uint256"},{"name":"key","type":"tuple","internalType":"struct PoolKey","components":[{"name":"currency0","type":"address","internalType":"Currency"},{"name":"currency1","type":"address","internalType":"Currency"},{"name":"fee","type":"uint24","internalType":"uint24"},{"name":"tickSpacing","type":"int24","internalType":"int24"},{"name":"hooks","type":"address","internalType":"contract IHooks"}]}]}],"stateMutability":"nonpayable"},{"type":"function","name":"setHooks","inputs":[{"name":"_hooks","type":"address","internalType":"contract IHooks"}],"outputs":[],"stateMutability":"nonpayable"},{"type":"function","name":"setStatusManager","inputs":[{"name":"_poolStatusManager","type":"address","internalType":"contract IPoolStatusManager"}],"outputs":[],"stateMutability":"nonpayable"},{"type":"function","name":"statusManager","inputs":[],"outputs":[{"name":"","type":"address","internalType":"contract IPoolStatusManager"}],"stateMutability":"view"},{"type":"function","name":"swap","inputs":[{"name":"sender","type":"address","internalType":"address"},{"name":"key","type":"tuple","internalType":"struct PoolKey","components":[{"name":"currency0","type":"address","internalType":"Currency"},{"name":"currency1","type":"address","internalType":"Currency"},{"name":"fee","type":"uint24","internalType":"uint24"},{"name":"tickSpacing","type":"int24","internalType":"int24"},{"name":"hooks","type":"address","internalType":"contract IHooks"}]},{"name":"params","type":"tuple","internalType":"struct IPoolManager.SwapParams","components":[{"name":"zeroForOne","type":"bool","internalType":"bool"},{"name":"amountSpecified","type":"int256","internalType":"int256"},{"name":"sqrtPriceLimitX96","type":"uint160","internalType":"uint160"}]}],"outputs":[{"name":"specified","type":"address","internalType":"Currency"},{"name":"unspecified","type":"address","internalType":"Currency"},{"name":"specifiedAmount","type":"uint256","internalType":"uint256"},{"name":"unspecifiedAmount","type":"uint256","internalType":"uint256"},{"name":"swapFee","type":"uint24","internalType":"uint24"}],"stateMutability":"nonpayable"},{"type":"function","name":"swapMirror","inputs":[{"name":"recipient","type":"address","internalType":"address"},{"name":"poolId","type":"bytes32","internalType":"PoolId"},{"name":"zeroForOne","type":"bool","internalType":"bool"},{"name":"amountIn","type":"uint256","internalType":"uint256"},{"name":"amountOutMin","type":"uint256","internalType":"uint256"}],"outputs":[{"name":"amountOut","type":"uint256","internalType":"uint256"}],"stateMutability":"payable"},{"type":"function","name":"transferOwnership","inputs":[{"name":"newOwner","type":"address","internalType":"address"}],"outputs":[],"stateMutability":"nonpayable"},{"type":"function","name":"unlockCallback","inputs":[{"name":"data","type":"bytes","internalType":"bytes"}],"outputs":[{"name":"","type":"bytes","internalType":"bytes"}],"stateMutability":"nonpayable"},{"type":"event","name":"Burn","inputs":[{"name":"poolId","type":"bytes32","indexed":true,"internalType":"PoolId"},{"name":"sender","type":"address","indexed":true,"internalType":"address"},{"name":"liquidity","type":"uint256","indexed":false,"internalType":"uint256"},{"name":"amount0","type":"uint256","indexed":false,"internalType":"uint256"},{"name":"amount1","type":"uint256","indexed":false,"internalType":"uint256"},{"name":"level","type":"uint8","indexed":false,"internalType":"uint8"}],"anonymous":false},{"type":"event","name":"Fees","inputs":[{"name":"poolId","type":"bytes32","indexed":true,"internalType":"PoolId"},{"name":"currency","type":"address","indexed":true,"internalType":"Currency"},{"name":"sender","type":"address","indexed":true,"internalType":"address"},{"name":"feeType","type":"uint8","indexed":false,"internalType":"uint8"},{"name":"fee","type":"uint256","indexed":false,"internalType":"uint256"}],"anonymous":false},{"type":"event","name":"Initialize","inputs":[{"name":"id","type":"bytes32","indexed":true,"internalType":"PoolId"},{"name":"currency0","type":"address","indexed":true,"internalType":"Currency"},{"name":"currency1","type":"address","indexed":true,"internalType":"Currency"},{"name":"fee","type":"uint24","indexed":false,"internalType":"uint24"},{"name":"tickSpacing","type":"int24","indexed":false,"internalType":"int24"},{"name":"hooks","type":"address","indexed":false,"internalType":"contract IHooks"}],"anonymous":false},{"type":"event","name":"Mint","inputs":[{"name":"poolId","type":"bytes32","indexed":true,"internalType":"PoolId"},{"name":"source","type":"address","indexed":true,"internalType":"address"},{"name":"sender","type":"address","indexed":true,"internalType":"address"},{"name":"liquidity","type":"uint256","indexed":false,"internalType":"uint256"},{"name":"amount0","type":"uint256","indexed":false,"internalType":"uint256"},{"name":"amount1","type":"uint256","indexed":false,"internalType":"uint256"},{"name":"level","type":"uint8","indexed":false,"internalType":"uint8"}],"anonymous":false},{"type":"event","name":"OwnershipTransferred","inputs":[{"name":"user","type":"address","indexed":true,"internalType":"address"},{"name":"newOwner","type":"address","indexed":true,"internalType":"address"}],"anonymous":false},{"type":"event","name":"Release","inputs":[{"name":"poolId","type":"bytes32","indexed":true,"internalType":"PoolId"},{"name":"borrowCurrency","type":"address","indexed":true,"internalType":"Currency"},{"name":"debtAmount","type":"uint256","indexed":false,"internalType":"uint256"},{"name":"repayAmount","type":"uint256","indexed":false,"internalType":"uint256"},{"name":"burnAmount","type":"uint256","indexed":false,"internalType":"uint256"},{"name":"rawBorrowAmount","type":"uint256","indexed":false,"internalType":"uint256"}],"anonymous":false},{"type":"event","name":"Swap","inputs":[{"name":"poolId","type":"bytes32","indexed":true,"internalType":"PoolId"},{"name":"sender","type":"address","indexed":true,"internalType":"address"},{"name":"amount0","type":"uint256","indexed":false,"internalType":"uint256"},{"name":"amount1","type":"uint256","indexed":false,"internalType":"uint256"},{"name":"fee","type":"uint24","indexed":false,"internalType":"uint24"},{"name":"zeroForOne","type":"bool","indexed":false,"internalType":"bool"},{"name":"feeAmount","type":"uint256","indexed":false,"internalType":"uint256"}],"anonymous":false},{"type":"error","name":"HookAlreadySet","inputs":[]},{"type":"error","name":"InsufficientLiquidityBurnt","inputs":[]},{"type":"error","name":"InsufficientLiquidityMinted","inputs":[]},{"type":"error","name":"InsufficientOutputReceived","inputs":[]},{"type":"error","name":"InsufficientValue","inputs":[]},{"type":"error","name":"InsufficientValue","inputs":[]},{"type":"error","name":"LockFailure","inputs":[]},{"type":"error","name":"LowFeePoolOnlyOneLevel","inputs":[]},{"type":"error","name":"MathOverflowedMulDiv","inputs":[]},{"type":"error","name":"NotAllowed","inputs":[]},{"type":"error","name":"NotPoolManager","inputs":[]},{"type":"error","name":"NotPositionManager","inputs":[]},{"type":"error","name":"NotSelf","inputs":[]},{"type":"error","name":"SafeERC20FailedOperation","inputs":[{"name":"token","type":"address","internalType":"address"}]},{"type":"error","name":"StatusManagerAlreadySet","inputs":[]}],"bytecode":{"object":"0x61010080604052346102df5760a081615809803803809161002082856102e3565b8339810103126102df5780516001600160a01b03811691908290036102df576020810151916001600160a01b0383168084036102df576040830151916001600160a01b03831683036102df576060840151946001600160a01b038616948587036102df5760800151926001600160a01b03841684036102df576020956044945f936080528460018060a01b03198554161784556040519889978896867f8be0079c531659141344cd1fd0a4f28419497f9722a3daafe3b4186f6b6457e08180a360a05260c05260e05263558a729760e01b84526004840152600160248401525af180156102b7576102c2575b5060a05160c05160405163558a729760e01b81526001600160a01b0391821660048201526001602482015291602091839160449183915f91165af180156102b757610288575b6040516154d6908161033382396080518181816104b001528181610a5401528181610e3b01528181610f6c015281816114c701528181611872015281816118a20152818161215801528181612184015281816123410152818161265001528181612cbb0152818161319c01528181613491015281816135860152818161365e0152818161385a0152818161394c01528181613ce601528181613fbf01526140c4015260a0518181816101b0015281816110c201528181611b310152612ef7015260c051818181610ab501528181610f1701528181611a8201528181611af401528181611c9801528181611d4001528181612dd301528181612ea801526136f1015260e0518181816102be015281816107b701528181610fe101528181611903015281816120f1015281816124c60152612f820152f35b6102a99060203d6020116102b0575b6102a181836102e3565b81019061031a565b505f610152565b503d610297565b6040513d5f823e3d90fd5b6102da9060203d6020116102b0576102a181836102e3565b61010c565b5f80fd5b601f909101601f19168101906001600160401b0382119082101761030657604052565b634e487b7160e01b5f52604160045260245ffd5b908160209103126102df575180151581036102df579056fe60806040526004361015610011575f80fd5b5f803560e01c80630776e76e1461408e57806309d1b44814613b1057806312bd6d9e14613aa657806313ac42a714613a7a578063244195d3146139295780632bc5fd851461388b5780633594e7c2146138355780635be39ae8146137a65780635de28ae0146137205780635e6263eb146136db57806364d2756f146135f45780636b4067fe14612d555780638072e28b14612afc5780638161b87414612a8b5780638461d867146124125780638a05a2e6146123c55780638da5cb5b1461239e57806391dd7346146122ef578063a4a9e98814612255578063afb427b614611627578063b44732591461154f578063bb4dab6d1461137b578063bfb9f86b146111d4578063c3edb7ff14610ed2578063cd7033c414610ea9578063d8d232a214610e6a578063dc4c90d314610e25578063e2f0ab0114610dd5578063e86cb2be14610dac578063ee7a3dc6146108c5578063f2fde38b14610852578063fb63daa1146107e6578063fb6b0e67146107a1578063fea9d06a146101e25763ffcd9d161461019b575f80fd5b346101df57806003193601126101df576040517f00000000000000000000000000000000000000000000000000000000000000006001600160a01b03168152602090f35b80fd5b50346101df5760c03660031901126101df576040519060c0820182811067ffffffffffffffff82111761078d57604052600435825260243560ff81168103610789576020830190815260408301906044358252606084019160643583526080850193608435855261025d60a4358060a0890152421115614b21565b6002548651604051632bc5fd8560e01b8152336004820152602481019190915290610260908290604490829086906001600160a01b03165af190811561059457829161075a575b50865160405163db620f4f60e01b815260048101919091527f00000000000000000000000000000000000000000000000000000000000000006001600160a01b03169690956020876024818b5afa96871561074f57849761071b575b506001600160701b03610312846152a7565b16976001600160701b0361032585615288565b169760405163d5ffe20960e01b8152816004820152606081602481865afa918215610710578790889289946106d2575b508a518a5160405163fd32826f60e01b8152336004820152602481019390935260ff9091166044830152606482015292936020908490818b81608481015b03925af19283156106c757908c939291899361068c575b50828a5260208801516001600160701b0316928160408a01516001600160701b0316956103d6926151e3565b9c8c828c51916103e5926151e3565b9c8c5160ff16966003881480159861042e99610681575b50610650575b505060ff8c511660028114908115610645575b5061061b575b5050508a11159081610610575b50614cb7565b87158015610608575b6105f957519081151591826105ef575b5081156105d2575b506105c35781866104916101c06104ab9401516104838960405194859363244195d360e01b60208601523360248601614b74565b03601f1981018352826143c4565b604051809381926348c8949160e01b835260048301614644565b0381837f00000000000000000000000000000000000000000000000000000000000000006001600160a01b03165af18015610594576105a3575b5060018060a01b03600254168651813b1561059f578291602483926040519485938492638b14724560e01b845260048401525af180156105945761057f575b5050935193519051604080519283526020830185905282810184905260ff90911660608301529333917fc2be77b0137decbf54134864ee86b9011325f158d6c136bbd73e45dbb383cbe790608090a382519182526020820152f35b61058a8280926143c4565b6101df5780610524565b6040513d84823e3d90fd5b8280fd5b6105be903d8084833e6105b681836143c4565b810190614aa3565b6104e5565b63f262b62160e01b8252600482fd5b518015159150816105e5575b505f61044f565b905085105f6105de565b881091505f610447565b637435645360e11b8452600484fd5b508615610437565b90508811155f610428565b610624926151e3565b8082111561063d5761063591614b67565b5f808061041b565b505085610635565b60049150145f610415565b61065e9184919793976151e3565b808211156106785761066f91614b67565b935b5f80610402565b50508893610671565b60049150145f6103fc565b935091506020833d6020116106bf575b816106a9602093836143c4565b810103126106bb578b9251915f6103aa565b5f80fd5b3d915061069c565b6040513d8a823e3d90fd5b6103939450602093506106fe91925060603d606011610709575b6106f681836143c4565b810190614b06565b945092909190610355565b503d6106ec565b6040513d89823e3d90fd5b9096506020813d602011610747575b81610737602093836143c4565b810103126106bb5751955f610300565b3d915061072a565b6040513d86823e3d90fd5b61077c91506102603d8111610782575b61077481836143c4565b810190614738565b5f6102a4565b503d61076a565b5080fd5b634e487b7160e01b82526041600452602482fd5b50346101df57806003193601126101df576040517f00000000000000000000000000000000000000000000000000000000000000006001600160a01b03168152602090f35b50346101df5760203660031901126101df57610800614117565b61081460018060a01b0383541633146146c5565b600154906001600160a01b038216610843576001600160a01b03166001600160a01b0319919091161760015580f35b635f7c8ab560e11b8352600483fd5b50346101df5760203660031901126101df5761086c614117565b815490610883336001600160a01b038416146146c5565b6001600160a01b03166001600160a01b03199190911681178255337f8be0079c531659141344cd1fd0a4f28419497f9722a3daafe3b4186f6b6457e08380a380f35b5060a03660031901126101df576108da614117565b60443591602435831515840361078957600254604051632bc5fd8560e01b8152336004820152602481018390529460643594608435929091869161026090899060449082908a906001600160a01b03165af1908115610c495786979861096c9792610d8b575b5060608960018060a01b036002541660405180809b819463206a728560e21b835287896004850161492b565b03915afa9485156106c75788978996610d52575b508115610d3b576109a36001600160701b03806080860151165b16891115614cb7565b8015159081610d31575b50610d22576101c0919015610d0557015180516020909101516001600160a01b03918216929116905b6001600160a01b03831693888515610ce4575b899a50988981999a610c6c575b50604051631aca73e160e11b60208201523360248201526001600160a01b03861660448201526064810193909352610a4f92610a358160848101610483565b604051809481926348c8949160e01b835260048301614644565b0381837f00000000000000000000000000000000000000000000000000000000000000006001600160a01b03165af19081156106c7576020928892610c54575b50610ab08a6040519586948594636aa0852360e01b86523360048701614c55565b0381897f00000000000000000000000000000000000000000000000000000000000000006001600160a01b03165af18015610c4957610c16575b5082610b5b575b50506002546001600160a01b03169050803b1561059f57602483926040519485938492638b14724560e01b845260048401525af18015610b5057610b3b575b602082604051908152f35b610b468380926143c4565b6107895781610b30565b6040513d85823e3d90fd5b60025460405163096b565360e11b81526001600160a01b0392831660048201526024810194909452602091849160449183918991165af191821561074f578492610bdf575b50604080515f81526020810193909352339284917f43473e5e46598b12a9d6961219fd5cf4e66ec4f6653d7206553a25c454687c8e91a45f8080610af1565b935090506020833d602011610c0e575b81610bfc602093836143c4565b810103126106bb57849251905f610ba0565b3d9150610bef565b94506020853d602011610c41575b81610c31602093836143c4565b810103126106bb57869451610aea565b3d9150610c24565b6040513d88823e3d90fd5b610c67903d808c833e6105b681836143c4565b610a8f565b9192505080803411610c83575b88909291926109f6565b978080610c938194959b34614b67565b335af1610c9e615020565b5015610cad579588965f610c79565b60405162461bcd60e51b815260206004820152600f60248201526e1514905394d1915497d19052531151608a1b6044820152606490fd5b50893410610cf65797988998906109e9565b63044044a560e21b8952600489fd5b0151602081015190516001600160a01b03918216929116906109d6565b63f262b62160e01b8852600488fd5b905087105f6109ad565b6109a36001600160701b038060608601511661099a565b909550610d7891975060603d606011610d84575b610d7081836143c4565b810190614909565b9791905096945f610980565b503d610d66565b610da59192506102603d81116107825761077481836143c4565b905f610940565b50346101df57806003193601126101df576002546040516001600160a01b039091168152602090f35b50346101df5760203660031901126101df57610def614117565b610e0360018060a01b0383541633146146c5565b6001600160a01b03168152600360205260408120805460ff1916600117905580f35b50346101df57806003193601126101df576040517f00000000000000000000000000000000000000000000000000000000000000006001600160a01b03168152602090f35b50346101df5760203660031901126101df5760209060ff906040906001600160a01b03610e95614117565b168152600384522054166040519015158152f35b50346101df57806003193601126101df576001546040516001600160a01b039091168152602090f35b50346101df576102c03660031901126101df5760043590610ef23661445a565b610284356001600160a01b038116939192919084810361059f576102a43593610f45337f00000000000000000000000000000000000000000000000000000000000000006001600160a01b0316146146c5565b604051627eeac760e11b815230600482015260248101879052939586946001600160a01b037f0000000000000000000000000000000000000000000000000000000000000000169290602081604481875afa90811561071057908891889161119f575b5011610fbc575b6020886040519015158152f35b604051630ead1e7d60e01b81529060808280610fdd848a3060048501614bb9565b03817f00000000000000000000000000000000000000000000000000000000000000006001600160a01b03165afa90811561071057908389939289938a93611165575b506101c00151516001600160a01b03160361115e57505b1015611044575b80610faf565b6040516304ade6db60e11b815233600482015260248101919091526044810186905295506020908690606490829087905af1948515610b50578394956110909450611141575b50615094565b604051637f4c824d60e11b815233600482015230602482015260448101919091526064810192909252602082608481847f00000000000000000000000000000000000000000000000000000000000000006001600160a01b03165af19081156111355750611108575b50600160205f8080808061103e565b6111299060203d60201161112e575b61112181836143c4565b81019061494d565b6110f9565b503d611117565b604051903d90823e3d90fd5b6111599060203d60201161112e5761112181836143c4565b61108a565b9050611037565b90925061118b91935060803d608011611198575b61118381836143c4565b810190614c20565b949250905092915f611020565b503d611179565b9150506020813d6020116111cc575b816111bb602093836143c4565b810103126106bb578790515f610fa8565b3d91506111ae565b50346101df57366003190160a08112610789576111fc60018060a01b036001541633146146c5565b6002546001600160a01b0316803b1561059f5760405163bfb9f86b60e01b8152916001600160a01b0361122d614117565b1660048401526001600160a01b0361124361412d565b1660248401526044359262ffffff84169384810361137757846044830152606435908160020b9384830361137357846064850152876084359460018060a01b0386169788870361059f578160a4818580948d60848401525af180156105945761135e575b505060a01361135a57604051946112bd8661438b565b6004356001600160a01b0381169690959087870361135657868152602435906001600160a01b0382168203611352577f3fd553db44f207b1f41348cfc4d251860814af9eadc470e8e7895e4d120511f49660609660a0936020840152866040840152878301526080820152209550611333614684565b92506040519788526020880152604087015260018060a01b031694a480f35b8a80fd5b8980fd5b8680fd5b81611368916143c4565b61137357875f6112a7565b8780fd5b8580fd5b506103803660031901126101df57611391614117565b61139a3661445a565b6101003661028319011261059f576040516113b48161436e565b6102843581526102a435801515810361154b57602082019081526102c4356001600160a01b03811681036113775760408301908152606083016102e4358152608084019161030435835260a085019361032435855260c086019561034435875260e0810197610364358952338b52600360205260ff60408c2054161561153c57916114c2999795939161146d8c9a9896946040519a6335a033ff60e11b60208d015260018060a01b031660248c015260448b01906141d5565b516102a48901525115156102c4880152516001600160a01b03166102e487015251610304860152516103248501525161034484015251610364830152516103848083019190915281526104916103a4826143c4565b0381837f00000000000000000000000000000000000000000000000000000000000000006001600160a01b03165af1918215611135578092611521575b5050602081519181808201938492010103126106bb5760209051604051908152f35b61153592503d8091833e6105b681836143c4565b5f806114ff565b63041fb8cb60e31b8b5260048bfd5b8480fd5b50346101df5761155e3661431b565b6002546040516302ef145760e51b815260048101949094529192916001600160a01b031661026083602481845afa93841561161c576115bf9460609487916115fd575b50604051637987bed160e11b8152958694859384936004850161492b565b03915afa90811561059457602092916115dc575b50604051908152f35b6115f5915060603d606011610d8457610d7081836143c4565b50505f6115d3565b61161691506102603d81116107825761077481836143c4565b5f6115a1565b6040513d87823e3d90fd5b50346101df576104003660031901126101df57611642614117565b61164a61412d565b9061026036604319011261059f5760405191611665836143a7565b60443563ffffffff8116810361154b5783526064356001600160701b038116810361154b5760208401526084356001600160701b038116810361154b57604084015260a4356001600160701b038116810361154b57606084015260c4356001600160701b038116810361154b57608084015260e43562ffffff8116810361154b5760a0840152610104356001600160701b038116810361154b5760c0840152610124356001600160701b038116810361154b5760e0840152610144356001600160701b038116810361154b57610100840152610164356001600160701b038116810361154b57610120840152610184356001600160701b038116810361154b576101408401526101a4356001600160701b038116810361154b576101608401526101c4356101808401526101e4356101a08401526117a5366102046143e6565b6101c0840152366102a31901610160811261154b573033036122465761010013611c5a576040516117d58161436e565b6102a43581526102c43580151581036113775760208201526102e43562ffffff811681036113775760408201526103043560608201526103243560808201526103443560a0820152610364356001600160a01b03811681036113775760c08201526103843560e0820152602081015115612226576101c084015180516020909101516001600160a01b039081169591165b866118976060850151867f00000000000000000000000000000000000000000000000000000000000000008a614cf8565b6118c76060850151307f00000000000000000000000000000000000000000000000000000000000000008a614ece565b604084015162ffffff161561202a57509082916080826118ff9695516040519788928392630ead1e7d60e01b84523060048501614bb9565b03817f00000000000000000000000000000000000000000000000000000000000000006001600160a01b03165afa9485156106c7578895898a928b92612001575b5060208601511580159890611ff95750965b15611ff15750955b611972606085015162ffffff60408701511690614c42565b809610611fb8576002546020850151604051637987bed160e11b81528b97926001600160a01b031691606090829081906119b4908d9015158b6004850161492b565b0381855afa80156106c7576119d4918991611f97575b50809a1015614be2565b8762ffffff60a08701511680155f14611f885750506020600491604051928380926313ac42a760e01b82525afa908115610710576004916020918991611f5b575b5060405163b67df1c360e01b815292839182906001600160a01b03165afa80156107105788918891611f17575b50611a5791611a50916152c6565b8098614b67565b9660208a8751611a7d60405194859384936372a6b5df60e01b8552898960048701614c55565b03818a7f00000000000000000000000000000000000000000000000000000000000000006001600160a01b03165af1908115610710578791611ee2575b50965b80611e0c575b5090602091611aef86519a6060880151906040519c8d9586956372a6b5df60e01b875260048701614c55565b0381877f00000000000000000000000000000000000000000000000000000000000000006001600160a01b03165af196871561074f578497611dd5575b5082517f00000000000000000000000000000000000000000000000000000000000000006001600160a01b031690611b649083615094565b813b15611377578591604483926040519485938492630d9778e560e11b845260048401528c60248401525af190811561161c578591611dc0575b50506101c0820151516001600160a01b03918216911603611d9457611bd06001600160701b0360608301511686614a7a565b906001600160701b03608082015116915b80611d02575b5081611c5e575b50506002549051906001600160a01b0316803b1561059f57602483926040519485938492638b14724560e01b845260048401525af1801561161c57611c45575b506060935060405192835260208301526040820152f35b611c508580926143c4565b611c5a5783611c2e565b8380fd5b6020908351611c9360018060a01b03846101c085015101511694604051958694859463c3edb7ff60e01b865260048601614c87565b0381867f00000000000000000000000000000000000000000000000000000000000000006001600160a01b03165af18015610b5057611cd3575b80611bee565b611cf49060203d602011611cfb575b611cec81836143c4565b810190614965565b505f611ccd565b503d611ce2565b83516101c08301515160405163c3edb7ff60e01b81529260209284928392611d3b9290916001600160a01b031690889060048601614c87565b0381887f00000000000000000000000000000000000000000000000000000000000000006001600160a01b03165af1801561161c5715611be757611d8d9060203d602011611cfb57611cec81836143c4565b505f611be7565b6001600160701b0360608201511690611dba6001600160701b0360808301511687614a7a565b91611be1565b81611dca916143c4565b611c5a57835f611b9e565b935095506020833d602011611e04575b81611df2602093836143c4565b810103126106bb57869251955f611b2c565b3d9150611de5565b60025460405163236668f160e11b81526001600160a01b038c81166004830152602482019390935291602091839160449183918c91165af18015610710578a918891611ea5575b5086516040805160018152602081810194909452929594936001600160a01b0380861694911692917f43473e5e46598b12a9d6961219fd5cf4e66ec4f6653d7206553a25c454687c8e91a49091611ac3565b9392975050506020823d602011611eda575b81611ec4602093836143c4565b810103126106bb57905189959089906020611e53565b3d9150611eb7565b9650506020863d602011611f0f575b81611efe602093836143c4565b810103126106bb578995515f611aba565b3d9150611ef1565b9150506020813d602011611f53575b81611f33602093836143c4565b8101031261135a57611a5088611f4b611a5793614714565b915091611a42565b3d9150611f26565b611f7b9150823d8411611f81575b611f7381836143c4565b810190614974565b5f611a15565b503d611f69565b611a57925090611a50916152c6565b611fb0915060603d606011610d8457610d7081836143c4565b50505f6119ca565b60405162461bcd60e51b815260206004820152601160248201527009a82a48e929cbe9c9ea8be8a9c9eaa8e9607b1b6044820152606490fd5b90509561195a565b905096611952565b9250505061201f91955060803d6080116111985761118381836143c4565b92969290915f611940565b939461204160208501511560608601519085614f94565b602085015115612213576001600160701b036020850151165b6001600160701b03818116601402908116036121ff57906001600160701b036064816014818e9a999897961602160416906103c4359062ffffff8216908183036121fb576120a892506150c4565b90808210156121f457505b608085015180156121ed57808210156121e657505b965b6120ed604085875182519384928392630352520960e61b84523060048501614bb9565b03817f00000000000000000000000000000000000000000000000000000000000000006001600160a01b03165afa801561071057612144918a9189918a916121b5575b506020890151156121ae57505b1015614be2565b87612151575b8596611abd565b61217d88307f000000000000000000000000000000000000000000000000000000000000000086614e69565b6121a988827f000000000000000000000000000000000000000000000000000000000000000086614f1c565b61214a565b905061213d565b90506121d9915060403d6040116121df575b6121d181836143c4565b810190614ba3565b5f612130565b503d6121c7565b90506120c8565b50966120ca565b90506120b3565b8880fd5b634e487b7160e01b8a52601160045260248afd5b6001600160701b0360408501511661205a565b6101c0840151602081015190516001600160a01b03908116959116611866565b6314e1dbf760e11b8552600485fd5b50346101df5760203660031901126101df576002546040516302ef145760e51b815260048035908201529061026090829060249082906001600160a01b03165afa90811561059457604092916122d0575b506001600160701b036122c3816122bc846152a7565b1692615288565b1682519182526020820152f35b6122e991506102603d81116107825761077481836143c4565b5f6122a6565b50346101df5760203660031901126101df5760043567ffffffffffffffff811161078957366023820112156107895780600401359167ffffffffffffffff83116101df5736602484840101116101df577f00000000000000000000000000000000000000000000000000000000000000006001600160a01b0316330361238f5761238b61237f846024850161504f565b60405191829182614644565b0390f35b63570c108560e11b8152600490fd5b50346101df57806003193601126101df57546040516001600160a01b039091168152602090f35b50346101df5760203660031901126101df576123df614117565b6123f360018060a01b0383541633146146c5565b6001600160a01b03168152600360205260408120805460ff1916905580f35b506101003660031901126101df5761242e4260e4351015614b21565b600254604051632bc5fd8560e01b81523360048083019190915235602482018190529291610260908290604490829086906001600160a01b03165af1908115610594578291612a6c575b50600160ff612485614b57565b161180612a53575b612a44576101c081018051519092906001600160a01b03161580612a38575b612a295760405163db620f4f60e01b8152600481018590527f00000000000000000000000000000000000000000000000000000000000000006001600160a01b0316949093602085602481895afa948515610b505783956129f5575b50604051627eeac760e11b81523060048201526024810186905295602087604481845afa96871561074f5784976129c1575b50602435956044356001600160701b0361255e816125578a6152a7565b1698615288565b1698871515806129b8575b1561299657612579888b8b6151e3565b91808311612920575060843582106128e4576125a587929a61259e8b9a5b848c6151e3565b928c6151e3565b808210156128dd57505b975b878111806128ca575b61278a575b5050861561277b576125cf614b57565b90823b156113775760405163c97a1c3f60e01b8152336004820152602481019190915260ff919091166044820152606481018790529084908290608490829084905af1801561074f5784918691612763575b5061049161264b93516104838a6040519485936303bb73b760e11b60208601523360248601614b74565b0381837f00000000000000000000000000000000000000000000000000000000000000006001600160a01b03165af18015610b505761274b575b506002546001600160a01b0316803b1561059f57828091602460405180948193638b14724560e01b83528760048401525af18015610b5057908391612736575b505060c4356001600160a01b038116928382036101df57506020957fdca088c2fe7922b62f9f0baee7a00b0de372311b1be3abea418c21f93dbc4a6d915061270b614b57565b60408051888152602081019790975286019190915260ff1660608501523393608090a4604051908152f35b81612740916143c4565b61078957815f6126c5565b61275e903d8085833e6105b681836143c4565b612685565b61276f915082906143c4565b61059f5782845f612621565b633489be7560e21b8552600485fd5b8451516001600160a01b0316906127a2908990614b67565b9080612819575081808092335af1156127bd575b845f6125bf565b6040516390bfb86560e01b81523360048201526024810186905260806044820152601f3d01601f191660a0810160648301523d60848301523d8760a484013e808201600460a482015260c4633d2cec6f60e21b91015260e40190fd5b91506040519063a9059cbb60e01b8252336004830152602482015286604060208260448582885af13d15601f3d1160018551141617169282815282602082015201521561286657506127b6565b6040516390bfb86560e01b8152600481019190915263a9059cbb60e01b602482015260806044820152601f3d01601f191660a0810160648301523d60848301523d8760a484013e808201600460a482015260c4633c9fd93960e21b91015260e40190fd5b508451516001600160a01b0316156125ba565b90506125af565b60405162461bcd60e51b8152602060048201526014602482015273494e53554646494349454e545f414d4f554e543160601b6044820152606490fd5b9799915061292f828b8a6151e3565b6064358110158061298c575b1561295057879261259e6125a5929a9c612597565b60405162461bcd60e51b81526020600482015260146024820152730494e53554646494349454e545f414d4f554e54360641b6044820152606490fd5b50808a101561293b565b5095509596506129ae6129a98689614c42565b6152e3565b95848896986125b1565b50891515612569565b9096506020813d6020116129ed575b816129dd602093836143c4565b810103126106bb5751955f61253a565b3d91506129d0565b9094506020813d602011612a21575b81612a11602093836143c4565b810103126106bb5751935f612508565b3d9150612a04565b63044044a560e21b8152600490fd5b503460243514156124ac565b6348adeb2160e11b8252600482fd5b50610bb862ffffff60406101c08401510151161061248d565b612a8591506102603d81116107825761077481836143c4565b5f612478565b50346101df576114c281610483610491612aa4366142e1565b909390612ac26001600160a01b03612aba614993565b1633146146c5565b6040516364d2756f60e01b60208201526001600160a01b039384166024820152949092166044850152606484019190915282906084820190565b506103e03660031901126101df57612b12614117565b612b1b3661445a565b366102831901916101608312611c5a5761010060405193612b3b8561433e565b12611c5a57604051612b4c8161436e565b6102843581526102a43580151581036113775760208201526102c43562ffffff811681036113775760408201526102e43560608201526103043560808201526103243560a0820152610344356001600160a01b03811681036113775760c08201526103643560e0820152835260208301916103843583526103a43562ffffff811681036113775760408501526103c4356001600160a01b0381168103611377576060850152846060604051612c008161433e565b604051612c0c8161436e565b83815283602082015283604082015283838201528360808201528360a08201528360c08201528360e082015281528260208201528260408201520152338552600360205260ff60408620541615612d46576040516357da13db60e11b60208201523360248201526001600160a01b039092166044830152612cb6918591612c979060648301906141d5565b612ca56102c48201866145b9565b6104048152610491610424826143c4565b0381837f00000000000000000000000000000000000000000000000000000000000000006001600160a01b03165af190811561074f57606091612d0f91866101609792612d2b575b505060208082518301019101614b06565b91938551926080840152520152612d2960405180926145b9565bf35b612d3f92503d8091833e6105b681836143c4565b5f80612cfe565b63041fb8cb60e31b8552600485fd5b50346101df576103803660031901126101df57612d70614117565b90612d7a3661445a565b9161010036610283190112610789573033036135e557612d986148d5565b156135c5576101c083015180516020909101516001600160a01b039182169491165b61030435926103243590811561357757841561355c575b7f00000000000000000000000000000000000000000000000000000000000000006001600160a01b0316612e0361469a565b926001810180911161354857813b1561137357604051630bbc0f5760e01b81526001600160a01b039384166004820152929093166024830152610284356044830152909286928492610304928492869291612e61606486018b6141d5565b6001600160a01b03166102c48501526102e48401525af1801561074f57908491613533575b50505b6102843590612e988286615094565b60408051637a94c56560e11b81527f00000000000000000000000000000000000000000000000000000000000000006001600160a01b031660048201819052602482018490526102e4356044830181905294909282806064810103818b7f00000000000000000000000000000000000000000000000000000000000000006001600160a01b03165af19182156106c7578890899361350f575b5082612f3c91614a7a565b9388881261350057888612613500578588038881136001166121ff578887146134515787908a938b918c811390815f1461344257955b60408051633a43e9f760e01b81527f00000000000000000000000000000000000000000000000000000000000000006001600160a01b03169690919082908190612fc29088903060048501614bb9565b0381895afa8015613435578f61303192611a509282918391613414575b50612fe86148d5565b1561340c5750905b612ff86148d5565b1590506133e45761302a6001600160701b036130228160c08a015116826101008b01511690615268565b168092614a7a565b908a6151e3565b91156133955761303f6148d5565b1561338557508c811261337657945b8c811261337657945b8a8d821580159061336d575b6132dd575b505050505050816130fa575b505050505f805160206154818339815191526080869785939796975b60408051968752602087018a90528601526103443560608601526001600160a01b031693a36002546001600160a01b0316803b1561059f57602483926040519485938492638b14724560e01b845260048401525af18015610b5057610b3b57602082604051908152f35b8399933b156121fb57604051636cf95b2960e01b81526004810191909152602481018290528881604481838e5af180156132d2579089916132bd575b5082126132ae5787828201928312911290801582169115161761329a5786978782989798135f14613213576040516304ade6db60e11b81526001600160a01b039182166004820152908316602482015260448101919091529060208280606481010381897f00000000000000000000000000000000000000000000000000000000000000006001600160a01b03165af1908115610c495785935f80516020615481833981519152936080936131f4575b505b93819950979697613074565b61320c9060203d60201161112e5761112181836143c4565b505f6131e6565b929061321e906148e5565b92803b1561135a5760405163ba4043db60e01b81526001600160a01b0384166004820152602481019490945286908490604490829084905af18015610c49578593879161327f575b50505f80516020615481833981519152916080916131e8565b819294509061328d916143c4565b61154b578391855f613266565b634e487b7160e01b87526011600452602487fd5b6393dafdf160e01b8852600488fd5b816132c7916143c4565b61137357875f613136565b6040513d8b823e3d90fd5b6001600160701b039560209560a494886132ff6132f9896152a7565b98615288565b6040519a8b998a9863ed4ed80b60e01b8a5260048a0152166024880152166044860152606485015260848401525af1801561336257613343575b8080808a8d613068565b61335b9060203d602011611cfb57611cec81836143c4565b505f613339565b6040513d8c823e3d90fd5b50841515613063565b6393dafdf160e01b8d5260048dfd5b9592508c8112613376579161304e565b61339d6148d5565b156133cb57508c8112613376576133b3906148e5565b945b8c8112613376576133c5906148e5565b94613057565b9592508c8112613376576133de906148e5565b916133b5565b61302a6001600160701b036134078160e08a015116826101208b01511690615268565b613022565b905090612ff0565b905061342f915060403d6040116121df576121d181836143c4565b5f612fdf565b8f604051903d90823e3d90fd5b61344b906148e5565b95612f72565b50506040516304ade6db60e11b81526001600160a01b039384166004820152928916602484015250604482015294959394869460208280606481010381897f00000000000000000000000000000000000000000000000000000000000000006001600160a01b03165af1908115610c495785935f80516020615481833981519152936080936134e1575b50613090565b6134f99060203d60201161112e5761112181836143c4565b505f6134db565b6393dafdf160e01b8952600489fd5b612f3c935061352d915060403d6040116121df576121d181836143c4565b92612f31565b8161353d916143c4565b61059f57825f612e86565b634e487b7160e01b88526011600452602488fd5b93506135718161356a6148d5565b1585614f94565b93612dd1565b5050508115612e89576135c0827f00000000000000000000000000000000000000000000000000000000000000006135b8826135b161469a565b838a614cf8565b309087614ece565b612e89565b6101c0830151602081015190516001600160a01b03918216949116612dba565b6314e1dbf760e11b8252600482fd5b50346101df57613603366142e1565b929190923033036136cc5760025460405163ba65fb1560e01b81526001600160a01b038681166004830152602482019390935291602091839160449183918891165af19283156111355792613697575b508161368f916020947f00000000000000000000000000000000000000000000000000000000000000009061368a84308484614e69565b614f1c565b604051908152f35b9091506020813d6020116136c4575b816136b3602093836143c4565b810103126106bb5751906020613653565b3d91506136a6565b6314e1dbf760e11b8352600483fd5b50346101df57806003193601126101df576040517f00000000000000000000000000000000000000000000000000000000000000006001600160a01b03168152602090f35b50346101df5760203660031901126101df5761373a6149e6565b506002546040516302ef145760e51b815260048035908201529061026090829060249082906001600160a01b03165afa908115610594576102609291613789575b50612d2960405180926141d5565b6137a09150823d81116107825761077481836143c4565b5f61377b565b50346101df576137b53661431b565b6002546040516302ef145760e51b815260048101949094529192916001600160a01b031661026083602481845afa93841561161c576115bf946060948791613816575b5060405163206a728560e21b8152958694859384936004850161492b565b61382f91506102603d81116107825761077481836143c4565b5f6137f8565b50346101df57613844366142e1565b909291923033036136cc576138889293613881837f0000000000000000000000000000000000000000000000000000000000000000928385614cf8565b3091614ece565b80f35b50346101df5760403660031901126101df576138a5614117565b6138ad6149e6565b50338252600360205260ff6040832054161561391a57600254604051632bc5fd8560e01b81526001600160a01b03928316600482015260248035908201529161026091839160449183918791165af19081156105945761026092916137895750612d2960405180926141d5565b63041fb8cb60e31b8252600482fd5b50346106bb5761393836614157565b919290303303613a6b576001600160a01b037f00000000000000000000000000000000000000000000000000000000000000008181169590929161397b826146b1565b16863b156106bb57604051637a94c56560e11b81523060048201526024810191909152604481018390525f81606481838b5af18015613a6057613a4b575b50602081019587906001600160a01b036139d2896146b1565b1690803b1561059f57604051637a94c56560e11b815230600482015260248101929092526044820188905282908290606490829084905af1801561059457613a32575b505094613a2d61368a92858561368a6138889a6146b1565b6146b1565b81613a3f919893986143c4565b61135a5794865f613a15565b613a589197505f906143c4565b5f955f6139b9565b6040513d5f823e3d90fd5b6314e1dbf760e11b5f5260045ffd5b346106bb575f3660031901126106bb576020613a94614993565b6040516001600160a01b039091168152f35b346106bb5760203660031901126106bb576004356001600160a01b038116908190036106bb57613ae060018060a01b035f541633146146c5565b6002546001600160a01b038116613b01576001600160a01b03191617600255005b630d43628160e31b5f5260045ffd5b346106bb576101203660031901126106bb57613b2a614117565b60a03660231901126106bb5760603660c31901126106bb576001546001600160a01b0316613b593382146146c5565b604051613b658161438b565b6024356001600160a01b03811681036106bb5781526044356001600160a01b03811681036106bb57602082015260643562ffffff811681036106bb5760408201526084358060020b81036106bb57606082015260a435906001600160a01b03821682036106bb57608081019190915260a090206002546040516302ef145760e51b81526004810183905291906001600160a01b031661026083602481845afa928315613a60575f9361406d575b5060e4355f81129384613c236148c6565b15150361404957613c32614684565b95613c3b61466e565b925b861561404357613c4c906148e5565b935b8615613f3b575050606083613c8f9260018060a01b036002541690613c716148c6565b60405163206a728560e21b815295869485938493906004850161492b565b03915afa938415613a60575f945f925f91613f14575b5060015460405163426a849360e01b81526001600160a01b03918216600482015290851660248201526044810187905292969092602081806064810103815f7f00000000000000000000000000000000000000000000000000000000000000006001600160a01b03165af18015613a6057613ef5575b505b82613dc9575b60a080997f9eb28ec873feb86f8f76c2d80034e39d1f684febd8b002b9798e739ab5644a9b92613d516148c6565b151503613dbc57869462ffffff899a5b613d696148c6565b9b604051988952602089015216998a6040880152151560608701526080860152600180831b031693a360405194600180881b03168552600180871b03166020850152604084015260608301526080820152f35b879462ffffff889a613d61565b5f92613dd36148c6565b8414613ee2576020613e23613de6614684565b925b60025460405163096b565360e11b81526001600160a01b03868116600483015260248201939093529788939190921691839182906044820190565b03925af1938415613a60575f94613ead575b50604080515f81526020810186905260a09b7f9eb28ec873feb86f8f76c2d80034e39d1f684febd8b002b9798e739ab5644a9b948d94919390926001600160a01b0380861693169188917f43473e5e46598b12a9d6961219fd5cf4e66ec4f6653d7206553a25c454687c8e9190a49250995050613d23565b9093506020813d602011613eda575b81613ec9602093836143c4565b810103126106bb57519260a0613e35565b3d9150613ebc565b6020613e23613eef61466e565b92613de8565b613f0d9060203d60201161112e5761112181836143c4565b5089613d1b565b91955050613f31915060603d606011610d8457610d7081836143c4565b9194909189613ca5565b84606091613f6c94613f4e9894986148c6565b604051637987bed160e11b815296879485938493906004850161492b565b03915afa958615613a60575f965f935f91614019575b5060405163426a849360e01b81526001600160a01b039788166004820152968916602488015260448701869052929695602081806064810103815f7f00000000000000000000000000000000000000000000000000000000000000006001600160a01b03165af18015613a6057613ffa575b50613d1d565b6140129060203d60201161112e5761112181836143c4565b5089613ff4565b60209850869450614039915060603d606011610d8457610d7081836143c4565b9198909450613f82565b93613c4e565b61405161466e565b9561405a614684565b6001600160a01b03978816971692613c3d565b6140879193506102603d81116107825761077481836143c4565b9185613c12565b346106bb5761409c36614157565b919290303303613a6b5761410b836020866140fa6140bc614115996146b1565b956140ea81897f0000000000000000000000000000000000000000000000000000000000000000809a614cf8565b30876140f5856146b1565b614ece565b019383614106866146b1565b614cf8565b6140f530926146b1565b005b600435906001600160a01b03821682036106bb57565b602435906001600160a01b03821682036106bb57565b35906001600160a01b03821682036106bb57565b906101006003198301126106bb576004356001600160a01b03811681036106bb5760a0909260231901126106bb5760249060c4359060e43590565b80516001600160a01b03908116835260208083015182169084015260408083015162ffffff169084015260608083015160020b9084015260809182015116910152565b906101c0806142df9363ffffffff81511684526001600160701b0360208201511660208501526001600160701b0360408201511660408501526001600160701b0360608201511660608501526001600160701b03608082015116608085015262ffffff60a08201511660a08501526001600160701b0360c08201511660c08501526001600160701b0360e08201511660e08501526001600160701b03610100820151166101008501526001600160701b03610120820151166101208501526001600160701b03610140820151166101408501526001600160701b03610160820151166101608501526101808101516101808501526101a08101516101a08501520151910190614192565b565b60609060031901126106bb576004356001600160a01b03811681036106bb57906024356001600160a01b03811681036106bb579060443590565b60609060031901126106bb576004359060243580151581036106bb579060443590565b6080810190811067ffffffffffffffff82111761435a57604052565b634e487b7160e01b5f52604160045260245ffd5b610100810190811067ffffffffffffffff82111761435a57604052565b60a0810190811067ffffffffffffffff82111761435a57604052565b6101e0810190811067ffffffffffffffff82111761435a57604052565b90601f8019910116810190811067ffffffffffffffff82111761435a57604052565b91908260a09103126106bb576040516143fe8161438b565b809261440981614143565b825261441760208201614143565b6020830152604081013562ffffff811681036106bb5760408301526060810135908160020b82036106bb576080614455918193606086015201614143565b910152565b906102606023198301126106bb57604051614474816143a7565b809260243563ffffffff811681036106bb5782526044356001600160701b03811681036106bb5760208301526064356001600160701b03811681036106bb5760408301526084356001600160701b03811681036106bb57606083015260a4356001600160701b03811681036106bb57608083015260c43562ffffff811681036106bb5760a083015260e4356001600160701b03811681036106bb5760c0830152610104356001600160701b03811681036106bb5760e0830152610124356001600160701b03811681036106bb57610100830152610144356001600160701b03811681036106bb57610120830152610164356001600160701b03811681036106bb57610140830152610184356001600160701b03811681036106bb576101c091614455916101608501526101a4356101808501526101c4356101a08501526101e46143e6565b6101409060e081518051855260208101511515602086015262ffffff6040820151166040860152606081015160608601526080810151608086015260a081015160a086015260018060a01b0360c08201511660c0860152015160e0840152602081015161010084015262ffffff604082015116610120840152606060018060a01b0391015116910152565b602060409281835280519182918282860152018484015e5f828201840152601f01601f1916010190565b6044356001600160a01b03811681036106bb5790565b6024356001600160a01b03811681036106bb5790565b6102c4356001600160a01b03811681036106bb5790565b356001600160a01b03811681036106bb5790565b156146cc57565b60405162461bcd60e51b815260206004820152600c60248201526b15539055551213d49256915160a21b6044820152606490fd5b51906001600160701b03821682036106bb57565b519062ffffff821682036106bb57565b51906001600160a01b03821682036106bb57565b8091039061026082126106bb5760405191614752836143a7565b81519063ffffffff821682036106bb5760a091845261477360208401614700565b602085015261478460408401614700565b604085015261479560608401614700565b60608501526147a660808401614700565b60808501526147b6828401614714565b828501526147c660c08401614700565b60c08501526147d760e08401614700565b60e08501526147e96101008401614700565b6101008501526147fc6101208401614700565b61012085015261480f6101408401614700565b6101408501526148226101608401614700565b6101608501526101808301516101808501526101a08301516101a08501526101bf1901126106bb57604051906148578261438b565b6148646101c08201614724565b82526148736101e08201614724565b60208301526148856102008201614714565b6040830152610220810151908160020b82036106bb57606083019190915261024001516001600160a01b03811681036106bb5760808201526101c082015290565b60c43580151581036106bb5790565b6102a43580151581036106bb5790565b600160ff1b81146148f5575f0390565b634e487b7160e01b5f52601160045260245ffd5b908160609103126106bb57805191604061492560208401614714565b92015190565b61028091949392614941826102a08101976141d5565b15156102608201520152565b908160209103126106bb575180151581036106bb5790565b908160209103126106bb575190565b908160209103126106bb57516001600160a01b03811681036106bb5790565b6002546040516313ac42a760e01b815290602090829060049082906001600160a01b03165afa908115613a60575f916149ca575090565b6149e3915060203d602011611f8157611f7381836143c4565b90565b604051906149f3826143a7565b815f81525f60208201525f60408201525f60608201525f60808201525f60a08201525f60c08201525f60e08201525f6101008201525f6101208201525f6101408201525f6101608201525f6101808201525f6101a08201526101c060405191614a5b8361438b565b5f83525f60208401525f60408401525f60608401525f60808401520152565b919082018092116148f557565b67ffffffffffffffff811161435a57601f01601f191660200190565b6020818303126106bb5780519067ffffffffffffffff82116106bb570181601f820112156106bb57805190614ad782614a87565b92614ae560405194856143c4565b828452602083830101116106bb57815f9260208093018386015e8301015290565b908160609103126106bb578051916040602083015192015190565b15614b2857565b60405162461bcd60e51b81526020600482015260076024820152661156141254915160ca1b6044820152606490fd5b60a43560ff811681036106bb5790565b919082039182116148f557565b6001600160a01b039091168152610100810194939260e092614b9a906020840190614192565b60c08201520152565b91908260409103126106bb576020825192015190565b6001600160a01b03909116815260208101919091526102a0810192916142df91604001906141d5565b15614be957565b60405162461bcd60e51b815260206004820152600f60248201526e09a92a4a49ea4bea89e9ebe9aaa869608b1b6044820152606490fd5b91908260809103126106bb578151916020810151916060604083015192015190565b818102929181159184041417156148f557565b6001600160a01b0391821681529181166020830152604082019290925291166060820152608081019190915260a00190565b90949392614ca46102a0936102c0840197845260208401906141d5565b6001600160a01b03166102808201520152565b15614cbe57565b60405162461bcd60e51b81526020600482015260126024820152714e4f545f454e4f5547485f5245534552564560701b6044820152606490fd5b6001600160a01b0316929183614d555750604051630476982d60e21b81529250602091839160049183916001600160a01b03165af18015613a6057614d3a5750565b614d529060203d602011611cfb57611cec81836143c4565b50565b916001600160a01b0390911690813b156106bb57604051632961046560e21b815260048101859052925a935f816024818388819af18015613a6057614e4e575b509293849360209392916001600160a01b0390911690308214614e0e57614dea92604051926323b872dd60e01b878501526024840152846044840152606483015260648252614de56084836143c4565b615428565b600460405180958193630476982d60e21b83525af19081156111355750614d3a5750565b60405163a9059cbb60e01b868201526001600160a01b0385166024820152604480820194909452928352614e49929150614de56064836143c4565b614dea565b602093929194505f614e5f916143c4565b5f93909192614d95565b9192906001600160a01b0316803b156106bb57604051637a94c56560e11b81526001600160a01b03948516600482015293909216602484015260448301525f908290818381606481015b03925af18015613a6057614ec45750565b5f6142df916143c4565b9192906001600160a01b0316803b156106bb57604051630ab714fb60e11b81526001600160a01b03948516600482015293909216602484015260448301525f90829081838160648101614eb3565b91906001600160a01b0316803b156106bb57604051630b0d9c0960e01b81526001600160a01b03938416600482015291909216602482015260448101929092525f908290606490829084905af18015613a6057614ec45750565b8115614f80570490565b634e487b7160e01b5f52601260045260245ffd5b614fe9906149e393925f14614fef576001600160701b03614fe281614fda614fbb856152a7565b9662ffffff60406101c0614fce89615288565b985b01510151166152c6565b931683614c42565b9316614a7a565b90614f76565b6001600160701b03614fe281614fda61500785615288565b9662ffffff60406101c061501a896152a7565b98614fd0565b3d1561504a573d9061503182614a87565b9161503f60405193846143c4565b82523d5f602084013e565b606090565b5f9182918160405192839283378101838152039082305af190615070615020565b916142df575080511561508557602081519101fd5b6314815f4760e31b5f5260045ffd5b604080516001600160a01b03909216602083019081528282019390935281526150be6060826143c4565b51902090565b90620f42408202905f19620f4240840992828085109403938085039414615154578382111561514557620f4240829109815f0382168092046002816003021880820260020302808202600203028082026002030280820260020302808202600203028091026002030293600183805f03040190848311900302920304170290565b63227bc15360e01b5f5260045ffd5b50906149e39250614f76565b9190915f838202915f19858209918380841093039280840393146151d55782620f424011156151c657507fde8f6cefed634549b62c77574f722e1ac57e23f24d8fd5cb790fb65668c261399394620f4240910990828211900360fa1b910360061c170290565b63227bc15360e01b8152600490fd5b505050620f42409192500490565b9091828202915f198482099383808610950394808603951461525b578483111561514557829109815f0382168092046002816003021880820260020302808202600203028082026002030280820260020302808202600203028091026002030293600183805f03040190848311900302920304170290565b5050906149e39250614f76565b906001600160701b03809116911601906001600160701b0382116148f557565b6149e3906001600160701b036080816040840151169201511690615268565b6149e3906001600160701b036060816020840151169201511690615268565b62ffffff16620f424003620f424081116148f5576149e391615160565b8015615423576153b16001825f908460801c80615417575b508060401c8061540a575b508060201c806153fd575b508060101c806153f0575b508060081c806153e3575b508060041c806153d6575b508060021c806153c9575b50821c6153c2575b811c1b6153528184614f76565b0160011c6153608184614f76565b0160011c61536e8184614f76565b0160011c61537c8184614f76565b0160011c61538a8184614f76565b0160011c6153988184614f76565b0160011c6153a68184614f76565b0160011c8092614f76565b808210156153bd575090565b905090565b8101615345565b600291509101905f61533d565b600491509101905f615332565b600891509101905f615327565b601091509101905f61531c565b602091509101905f615311565b604091509101905f615306565b9150506080905f6152fb565b505f90565b905f602091828151910182855af115613a60575f513d61547757506001600160a01b0381163b155b6154575750565b635274afe760e01b5f9081526001600160a01b0391909116600452602490fd5b6001141561545056fe1d9d1025f06575cd23c8334c2f057422670381e5e2513b4a4bd6ecc63f649d4fa264697066735822122001e7e33c4741f36dd44a13d105bb1c3f749f9692d8b267474881d45dd9771c2664736f6c634300081a0033","linkReferences":{}},"methodIdentifiers":{"addLiquidity((bytes32,uint256,uint256,uint256,uint256,uint8,address,uint256))":"8461d867","addPositionManager(address)":"e2f0ab01","collectProtocolFees(address,address,uint256)":"8161b874","getAmountIn(bytes32,bool,uint256)":"b4473259","getAmountOut(bytes32,bool,uint256)":"5be39ae8","getReserves(bytes32)":"a4a9e988","getStatus(bytes32)":"5de28ae0","handleAddLiquidity(address,(address,address,uint24,int24,address),uint256,uint256)":"0776e76e","handleCollectFees(address,address,uint256)":"64d2756f","handleMargin(address,address,(uint32,uint112,uint112,uint112,uint112,uint24,uint112,uint112,uint112,uint112,uint112,uint112,uint256,uint256,(address,address,uint24,int24,address)),((bytes32,bool,uint24,uint256,uint256,uint256,address,uint256),uint256,uint24,address))":"afb427b6","handleRelease(address,(uint32,uint112,uint112,uint112,uint112,uint24,uint112,uint112,uint112,uint112,uint112,uint112,uint256,uint256,(address,address,uint24,int24,address)),(bytes32,bool,address,uint256,uint256,uint256,uint256,uint256))":"6b4067fe","handleRemoveLiquidity(address,(address,address,uint24,int24,address),uint256,uint256)":"244195d3","handleSwapMirror(address,address,uint256)":"3594e7c2","hooks()":"cd7033c4","initialize((address,address,uint24,int24,address))":"bfb9f86b","lendingPoolManager()":"5e6263eb","margin(address,(uint32,uint112,uint112,uint112,uint112,uint24,uint112,uint112,uint112,uint112,uint112,uint112,uint256,uint256,(address,address,uint24,int24,address)),((bytes32,bool,uint24,uint256,uint256,uint256,address,uint256),uint256,uint24,address))":"8072e28b","marginFees()":"13ac42a7","marginLiquidity()":"fb6b0e67","mirrorInRealOut(bytes32,(uint32,uint112,uint112,uint112,uint112,uint24,uint112,uint112,uint112,uint112,uint112,uint112,uint256,uint256,(address,address,uint24,int24,address)),address,uint256)":"c3edb7ff","mirrorTokenManager()":"ffcd9d16","owner()":"8da5cb5b","poolManager()":"dc4c90d3","positionManagers(address)":"d8d232a2","release(address,(uint32,uint112,uint112,uint112,uint112,uint24,uint112,uint112,uint112,uint112,uint112,uint112,uint256,uint256,(address,address,uint24,int24,address)),(bytes32,bool,address,uint256,uint256,uint256,uint256,uint256))":"bb4dab6d","removeLiquidity((bytes32,uint8,uint256,uint256,uint256,uint256))":"fea9d06a","removePositionManager(address)":"8a05a2e6","setBalances(address,bytes32)":"2bc5fd85","setHooks(address)":"fb63daa1","setStatusManager(address)":"12bd6d9e","statusManager()":"e86cb2be","swap(address,(address,address,uint24,int24,address),(bool,int256,uint160))":"09d1b448","swapMirror(address,bytes32,bool,uint256,uint256)":"ee7a3dc6","transferOwnership(address)":"f2fde38b","unlockCallback(bytes)":"91dd7346"},"id":92}